{
	"ArchielSwapPool.sol": {
		"ArchielSwapPool": {
			"abi": [
				{
					"inputs": [],
					"stateMutability": "nonpayable",
					"type": "constructor"
				},
				{
					"anonymous": false,
					"inputs": [
						{
							"indexed": true,
							"internalType": "address",
							"name": "provider",
							"type": "address"
						},
						{
							"indexed": false,
							"internalType": "uint256",
							"name": "amountA",
							"type": "uint256"
						},
						{
							"indexed": false,
							"internalType": "uint256",
							"name": "amountB",
							"type": "uint256"
						},
						{
							"indexed": false,
							"internalType": "uint256",
							"name": "shares",
							"type": "uint256"
						}
					],
					"name": "LiquidityDeposited",
					"type": "event"
				},
				{
					"anonymous": false,
					"inputs": [
						{
							"indexed": true,
							"internalType": "address",
							"name": "from",
							"type": "address"
						},
						{
							"indexed": true,
							"internalType": "address",
							"name": "to",
							"type": "address"
						},
						{
							"indexed": false,
							"internalType": "uint256",
							"name": "value",
							"type": "uint256"
						}
					],
					"name": "Transfer",
					"type": "event"
				},
				{
					"inputs": [
						{
							"internalType": "address",
							"name": "_tokenA",
							"type": "address"
						},
						{
							"internalType": "address",
							"name": "_tokenB",
							"type": "address"
						},
						{
							"internalType": "uint256",
							"name": "_amountADesired",
							"type": "uint256"
						},
						{
							"internalType": "uint256",
							"name": "_amountBDesired",
							"type": "uint256"
						}
					],
					"name": "addLiquidity",
					"outputs": [
						{
							"internalType": "uint256",
							"name": "shares",
							"type": "uint256"
						}
					],
					"stateMutability": "nonpayable",
					"type": "function"
				},
				{
					"inputs": [
						{
							"internalType": "address",
							"name": "",
							"type": "address"
						}
					],
					"name": "balanceOf",
					"outputs": [
						{
							"internalType": "uint256",
							"name": "",
							"type": "uint256"
						}
					],
					"stateMutability": "view",
					"type": "function"
				},
				{
					"inputs": [],
					"name": "name",
					"outputs": [
						{
							"internalType": "string",
							"name": "",
							"type": "string"
						}
					],
					"stateMutability": "view",
					"type": "function"
				},
				{
					"inputs": [],
					"name": "owner",
					"outputs": [
						{
							"internalType": "address",
							"name": "",
							"type": "address"
						}
					],
					"stateMutability": "view",
					"type": "function"
				},
				{
					"inputs": [],
					"name": "symbol",
					"outputs": [
						{
							"internalType": "string",
							"name": "",
							"type": "string"
						}
					],
					"stateMutability": "view",
					"type": "function"
				},
				{
					"inputs": [],
					"name": "totalSupply",
					"outputs": [
						{
							"internalType": "uint256",
							"name": "",
							"type": "uint256"
						}
					],
					"stateMutability": "view",
					"type": "function"
				}
			],
			"devdoc": {
				"kind": "dev",
				"methods": {},
				"version": 1
			},
			"evm": {
				"assembly": "    /* \"ArchielSwapPool.sol\":321:2428  contract ArchielSwapPool {... */\n  mstore(0x40, 0x80)\n    /* \"ArchielSwapPool.sol\":746:795  constructor() {... */\n  callvalue\n  dup1\n  iszero\n  tag_1\n  jumpi\n  revert(0x00, 0x00)\ntag_1:\n  pop\n    /* \"ArchielSwapPool.sol\":778:788  msg.sender */\n  caller\n    /* \"ArchielSwapPool.sol\":770:775  owner */\n  0x00\n  0x00\n    /* \"ArchielSwapPool.sol\":770:788  owner = msg.sender */\n  0x0100\n  exp\n  dup2\n  sload\n  dup2\n  0xffffffffffffffffffffffffffffffffffffffff\n  mul\n  not\n  and\n  swap1\n  dup4\n  0xffffffffffffffffffffffffffffffffffffffff\n  and\n  mul\n  or\n  swap1\n  sstore\n  pop\n    /* \"ArchielSwapPool.sol\":321:2428  contract ArchielSwapPool {... */\n  dataSize(sub_0)\n  dup1\n  dataOffset(sub_0)\n  0x00\n  codecopy\n  0x00\n  return\nstop\n\nsub_0: assembly {\n        /* \"ArchielSwapPool.sol\":321:2428  contract ArchielSwapPool {... */\n      mstore(0x40, 0x80)\n      callvalue\n      dup1\n      iszero\n      tag_1\n      jumpi\n      revert(0x00, 0x00)\n    tag_1:\n      pop\n      jumpi(tag_2, lt(calldatasize, 0x04))\n      shr(0xe0, calldataload(0x00))\n      dup1\n      0x06fdde03\n      eq\n      tag_3\n      jumpi\n      dup1\n      0x18160ddd\n      eq\n      tag_4\n      jumpi\n      dup1\n      0x70a08231\n      eq\n      tag_5\n      jumpi\n      dup1\n      0x8da5cb5b\n      eq\n      tag_6\n      jumpi\n      dup1\n      0x95d89b41\n      eq\n      tag_7\n      jumpi\n      dup1\n      0xcf6c62ea\n      eq\n      tag_8\n      jumpi\n    tag_2:\n      revert(0x00, 0x00)\n        /* \"ArchielSwapPool.sol\":378:426  string public constant name = \"Archiel LP Token\" */\n    tag_3:\n      tag_9\n      tag_10\n      jump\t// in\n    tag_9:\n      mload(0x40)\n      tag_11\n      swap2\n      swap1\n      tag_12\n      jump\t// in\n    tag_11:\n      mload(0x40)\n      dup1\n      swap2\n      sub\n      swap1\n      return\n        /* \"ArchielSwapPool.sol\":479:505  uint256 public totalSupply */\n    tag_4:\n      tag_13\n      tag_14\n      jump\t// in\n    tag_13:\n      mload(0x40)\n      tag_15\n      swap2\n      swap1\n      tag_16\n      jump\t// in\n    tag_15:\n      mload(0x40)\n      dup1\n      swap2\n      sub\n      swap1\n      return\n        /* \"ArchielSwapPool.sol\":511:555  mapping(address => uint256) public balanceOf */\n    tag_5:\n      tag_17\n      0x04\n      dup1\n      calldatasize\n      sub\n      dup2\n      add\n      swap1\n      tag_18\n      swap2\n      swap1\n      tag_19\n      jump\t// in\n    tag_18:\n      tag_20\n      jump\t// in\n    tag_17:\n      mload(0x40)\n      tag_21\n      swap2\n      swap1\n      tag_16\n      jump\t// in\n    tag_21:\n      mload(0x40)\n      dup1\n      swap2\n      sub\n      swap1\n      return\n        /* \"ArchielSwapPool.sol\":352:372  address public owner */\n    tag_6:\n      tag_22\n      tag_23\n      jump\t// in\n    tag_22:\n      mload(0x40)\n      tag_24\n      swap2\n      swap1\n      tag_25\n      jump\t// in\n    tag_24:\n      mload(0x40)\n      dup1\n      swap2\n      sub\n      swap1\n      return\n        /* \"ArchielSwapPool.sol\":432:473  string public constant symbol = \"ARCL-LP\" */\n    tag_7:\n      tag_26\n      tag_27\n      jump\t// in\n    tag_26:\n      mload(0x40)\n      tag_28\n      swap2\n      swap1\n      tag_12\n      jump\t// in\n    tag_28:\n      mload(0x40)\n      dup1\n      swap2\n      sub\n      swap1\n      return\n        /* \"ArchielSwapPool.sol\":984:2071  function addLiquidity(... */\n    tag_8:\n      tag_29\n      0x04\n      dup1\n      calldatasize\n      sub\n      dup2\n      add\n      swap1\n      tag_30\n      swap2\n      swap1\n      tag_31\n      jump\t// in\n    tag_30:\n      tag_32\n      jump\t// in\n    tag_29:\n      mload(0x40)\n      tag_33\n      swap2\n      swap1\n      tag_16\n      jump\t// in\n    tag_33:\n      mload(0x40)\n      dup1\n      swap2\n      sub\n      swap1\n      return\n        /* \"ArchielSwapPool.sol\":378:426  string public constant name = \"Archiel LP Token\" */\n    tag_10:\n      mload(0x40)\n      dup1\n      0x40\n      add\n      0x40\n      mstore\n      dup1\n      0x10\n      dup2\n      mstore\n      0x20\n      add\n      0x4172636869656c204c5020546f6b656e00000000000000000000000000000000\n      dup2\n      mstore\n      pop\n      dup2\n      jump\t// out\n        /* \"ArchielSwapPool.sol\":479:505  uint256 public totalSupply */\n    tag_14:\n      sload(0x01)\n      dup2\n      jump\t// out\n        /* \"ArchielSwapPool.sol\":511:555  mapping(address => uint256) public balanceOf */\n    tag_20:\n      mstore(0x20, 0x02)\n      dup1\n      0x00\n      mstore\n      keccak256(0x00, 0x40)\n      0x00\n      swap2\n      pop\n      swap1\n      pop\n      sload\n      dup2\n      jump\t// out\n        /* \"ArchielSwapPool.sol\":352:372  address public owner */\n    tag_23:\n      0x00\n      0x00\n      swap1\n      sload\n      swap1\n      0x0100\n      exp\n      swap1\n      div\n      0xffffffffffffffffffffffffffffffffffffffff\n      and\n      dup2\n      jump\t// out\n        /* \"ArchielSwapPool.sol\":432:473  string public constant symbol = \"ARCL-LP\" */\n    tag_27:\n      mload(0x40)\n      dup1\n      0x40\n      add\n      0x40\n      mstore\n      dup1\n      0x07\n      dup2\n      mstore\n      0x20\n      add\n      0x4152434c2d4c5000000000000000000000000000000000000000000000000000\n      dup2\n      mstore\n      pop\n      dup2\n      jump\t// out\n        /* \"ArchielSwapPool.sol\":984:2071  function addLiquidity(... */\n    tag_32:\n        /* \"ArchielSwapPool.sol\":1149:1163  uint256 shares */\n      0x00\n        /* \"ArchielSwapPool.sol\":1175:1188  IERC20 tokenA */\n      0x00\n        /* \"ArchielSwapPool.sol\":1198:1205  _tokenA */\n      dup6\n        /* \"ArchielSwapPool.sol\":1175:1206  IERC20 tokenA = IERC20(_tokenA) */\n      swap1\n      pop\n        /* \"ArchielSwapPool.sol\":1216:1229  IERC20 tokenB */\n      0x00\n        /* \"ArchielSwapPool.sol\":1239:1246  _tokenB */\n      dup6\n        /* \"ArchielSwapPool.sol\":1216:1247  IERC20 tokenB = IERC20(_tokenB) */\n      swap1\n      pop\n        /* \"ArchielSwapPool.sol\":1299:1305  tokenA */\n      dup2\n        /* \"ArchielSwapPool.sol\":1299:1318  tokenA.transferFrom */\n      0xffffffffffffffffffffffffffffffffffffffff\n      and\n      0x23b872dd\n        /* \"ArchielSwapPool.sol\":1319:1329  msg.sender */\n      caller\n        /* \"ArchielSwapPool.sol\":1339:1343  this */\n      address\n        /* \"ArchielSwapPool.sol\":1346:1361  _amountADesired */\n      dup9\n        /* \"ArchielSwapPool.sol\":1299:1362  tokenA.transferFrom(msg.sender, address(this), _amountADesired) */\n      mload(0x40)\n      dup5\n      0xffffffff\n      and\n      0xe0\n      shl\n      dup2\n      mstore\n      0x04\n      add\n      tag_35\n      swap4\n      swap3\n      swap2\n      swap1\n      tag_36\n      jump\t// in\n    tag_35:\n      0x20\n      mload(0x40)\n      dup1\n      dup4\n      sub\n      dup2\n      0x00\n      dup8\n      gas\n      call\n      iszero\n      dup1\n      iszero\n      tag_38\n      jumpi\n      returndatacopy(0x00, 0x00, returndatasize)\n      revert(0x00, returndatasize)\n    tag_38:\n      pop\n      pop\n      pop\n      pop\n      mload(0x40)\n      returndatasize\n      not(0x1f)\n      0x1f\n      dup3\n      add\n      and\n      dup3\n      add\n      dup1\n      0x40\n      mstore\n      pop\n      dup2\n      add\n      swap1\n      tag_39\n      swap2\n      swap1\n      tag_40\n      jump\t// in\n    tag_39:\n        /* \"ArchielSwapPool.sol\":1291:1383  require(tokenA.transferFrom(msg.sender, address(this), _amountADesired), \"Transfer A gagal\") */\n      tag_41\n      jumpi\n      mload(0x40)\n      0x08c379a000000000000000000000000000000000000000000000000000000000\n      dup2\n      mstore\n      0x04\n      add\n      tag_42\n      swap1\n      tag_43\n      jump\t// in\n    tag_42:\n      mload(0x40)\n      dup1\n      swap2\n      sub\n      swap1\n      revert\n    tag_41:\n        /* \"ArchielSwapPool.sol\":1401:1407  tokenB */\n      dup1\n        /* \"ArchielSwapPool.sol\":1401:1420  tokenB.transferFrom */\n      0xffffffffffffffffffffffffffffffffffffffff\n      and\n      0x23b872dd\n        /* \"ArchielSwapPool.sol\":1421:1431  msg.sender */\n      caller\n        /* \"ArchielSwapPool.sol\":1441:1445  this */\n      address\n        /* \"ArchielSwapPool.sol\":1448:1463  _amountBDesired */\n      dup8\n        /* \"ArchielSwapPool.sol\":1401:1464  tokenB.transferFrom(msg.sender, address(this), _amountBDesired) */\n      mload(0x40)\n      dup5\n      0xffffffff\n      and\n      0xe0\n      shl\n      dup2\n      mstore\n      0x04\n      add\n      tag_44\n      swap4\n      swap3\n      swap2\n      swap1\n      tag_36\n      jump\t// in\n    tag_44:\n      0x20\n      mload(0x40)\n      dup1\n      dup4\n      sub\n      dup2\n      0x00\n      dup8\n      gas\n      call\n      iszero\n      dup1\n      iszero\n      tag_46\n      jumpi\n      returndatacopy(0x00, 0x00, returndatasize)\n      revert(0x00, returndatasize)\n    tag_46:\n      pop\n      pop\n      pop\n      pop\n      mload(0x40)\n      returndatasize\n      not(0x1f)\n      0x1f\n      dup3\n      add\n      and\n      dup3\n      add\n      dup1\n      0x40\n      mstore\n      pop\n      dup2\n      add\n      swap1\n      tag_47\n      swap2\n      swap1\n      tag_40\n      jump\t// in\n    tag_47:\n        /* \"ArchielSwapPool.sol\":1393:1485  require(tokenB.transferFrom(msg.sender, address(this), _amountBDesired), \"Transfer B gagal\") */\n      tag_48\n      jumpi\n      mload(0x40)\n      0x08c379a000000000000000000000000000000000000000000000000000000000\n      dup2\n      mstore\n      0x04\n      add\n      tag_49\n      swap1\n      tag_50\n      jump\t// in\n    tag_49:\n      mload(0x40)\n      dup1\n      swap2\n      sub\n      swap1\n      revert\n    tag_48:\n        /* \"ArchielSwapPool.sol\":1515:1516  0 */\n      0x00\n        /* \"ArchielSwapPool.sol\":1500:1511  totalSupply */\n      sload(0x01)\n        /* \"ArchielSwapPool.sol\":1500:1516  totalSupply == 0 */\n      sub\n        /* \"ArchielSwapPool.sol\":1496:1888  if (totalSupply == 0) {... */\n      tag_51\n      jumpi\n        /* \"ArchielSwapPool.sol\":1541:1581  _sqrt(_amountADesired * _amountBDesired) */\n      tag_52\n        /* \"ArchielSwapPool.sol\":1565:1580  _amountBDesired */\n      dup5\n        /* \"ArchielSwapPool.sol\":1547:1562  _amountADesired */\n      dup7\n        /* \"ArchielSwapPool.sol\":1547:1580  _amountADesired * _amountBDesired */\n      tag_53\n      swap2\n      swap1\n      tag_54\n      jump\t// in\n    tag_53:\n        /* \"ArchielSwapPool.sol\":1541:1546  _sqrt */\n      tag_55\n        /* \"ArchielSwapPool.sol\":1541:1581  _sqrt(_amountADesired * _amountBDesired) */\n      jump\t// in\n    tag_52:\n        /* \"ArchielSwapPool.sol\":1532:1581  shares = _sqrt(_amountADesired * _amountBDesired) */\n      swap3\n      pop\n        /* \"ArchielSwapPool.sol\":1496:1888  if (totalSupply == 0) {... */\n      jump(tag_56)\n    tag_51:\n        /* \"ArchielSwapPool.sol\":1612:1628  uint256 reserveA */\n      0x00\n        /* \"ArchielSwapPool.sol\":1665:1680  _amountADesired */\n      dup6\n        /* \"ArchielSwapPool.sol\":1631:1637  tokenA */\n      dup4\n        /* \"ArchielSwapPool.sol\":1631:1647  tokenA.balanceOf */\n      0xffffffffffffffffffffffffffffffffffffffff\n      and\n      0x70a08231\n        /* \"ArchielSwapPool.sol\":1656:1660  this */\n      address\n        /* \"ArchielSwapPool.sol\":1631:1662  tokenA.balanceOf(address(this)) */\n      mload(0x40)\n      dup3\n      0xffffffff\n      and\n      0xe0\n      shl\n      dup2\n      mstore\n      0x04\n      add\n      tag_57\n      swap2\n      swap1\n      tag_25\n      jump\t// in\n    tag_57:\n      0x20\n      mload(0x40)\n      dup1\n      dup4\n      sub\n      dup2\n      dup7\n      gas\n      staticcall\n      iszero\n      dup1\n      iszero\n      tag_59\n      jumpi\n      returndatacopy(0x00, 0x00, returndatasize)\n      revert(0x00, returndatasize)\n    tag_59:\n      pop\n      pop\n      pop\n      pop\n      mload(0x40)\n      returndatasize\n      not(0x1f)\n      0x1f\n      dup3\n      add\n      and\n      dup3\n      add\n      dup1\n      0x40\n      mstore\n      pop\n      dup2\n      add\n      swap1\n      tag_60\n      swap2\n      swap1\n      tag_61\n      jump\t// in\n    tag_60:\n        /* \"ArchielSwapPool.sol\":1631:1680  tokenA.balanceOf(address(this)) - _amountADesired */\n      tag_62\n      swap2\n      swap1\n      tag_63\n      jump\t// in\n    tag_62:\n        /* \"ArchielSwapPool.sol\":1612:1680  uint256 reserveA = tokenA.balanceOf(address(this)) - _amountADesired */\n      swap1\n      pop\n        /* \"ArchielSwapPool.sol\":1694:1710  uint256 reserveB */\n      0x00\n        /* \"ArchielSwapPool.sol\":1747:1762  _amountBDesired */\n      dup6\n        /* \"ArchielSwapPool.sol\":1713:1719  tokenB */\n      dup4\n        /* \"ArchielSwapPool.sol\":1713:1729  tokenB.balanceOf */\n      0xffffffffffffffffffffffffffffffffffffffff\n      and\n      0x70a08231\n        /* \"ArchielSwapPool.sol\":1738:1742  this */\n      address\n        /* \"ArchielSwapPool.sol\":1713:1744  tokenB.balanceOf(address(this)) */\n      mload(0x40)\n      dup3\n      0xffffffff\n      and\n      0xe0\n      shl\n      dup2\n      mstore\n      0x04\n      add\n      tag_64\n      swap2\n      swap1\n      tag_25\n      jump\t// in\n    tag_64:\n      0x20\n      mload(0x40)\n      dup1\n      dup4\n      sub\n      dup2\n      dup7\n      gas\n      staticcall\n      iszero\n      dup1\n      iszero\n      tag_66\n      jumpi\n      returndatacopy(0x00, 0x00, returndatasize)\n      revert(0x00, returndatasize)\n    tag_66:\n      pop\n      pop\n      pop\n      pop\n      mload(0x40)\n      returndatasize\n      not(0x1f)\n      0x1f\n      dup3\n      add\n      and\n      dup3\n      add\n      dup1\n      0x40\n      mstore\n      pop\n      dup2\n      add\n      swap1\n      tag_67\n      swap2\n      swap1\n      tag_61\n      jump\t// in\n    tag_67:\n        /* \"ArchielSwapPool.sol\":1713:1762  tokenB.balanceOf(address(this)) - _amountBDesired */\n      tag_68\n      swap2\n      swap1\n      tag_63\n      jump\t// in\n    tag_68:\n        /* \"ArchielSwapPool.sol\":1694:1762  uint256 reserveB = tokenB.balanceOf(address(this)) - _amountBDesired */\n      swap1\n      pop\n        /* \"ArchielSwapPool.sol\":1785:1877  _min((_amountADesired * totalSupply) / reserveA, (_amountBDesired * totalSupply) / reserveB) */\n      tag_69\n        /* \"ArchielSwapPool.sol\":1824:1832  reserveA */\n      dup3\n        /* \"ArchielSwapPool.sol\":1809:1820  totalSupply */\n      sload(0x01)\n        /* \"ArchielSwapPool.sol\":1791:1806  _amountADesired */\n      dup10\n        /* \"ArchielSwapPool.sol\":1791:1820  _amountADesired * totalSupply */\n      tag_70\n      swap2\n      swap1\n      tag_54\n      jump\t// in\n    tag_70:\n        /* \"ArchielSwapPool.sol\":1790:1832  (_amountADesired * totalSupply) / reserveA */\n      tag_71\n      swap2\n      swap1\n      tag_72\n      jump\t// in\n    tag_71:\n        /* \"ArchielSwapPool.sol\":1868:1876  reserveB */\n      dup3\n        /* \"ArchielSwapPool.sol\":1853:1864  totalSupply */\n      sload(0x01)\n        /* \"ArchielSwapPool.sol\":1835:1850  _amountBDesired */\n      dup10\n        /* \"ArchielSwapPool.sol\":1835:1864  _amountBDesired * totalSupply */\n      tag_73\n      swap2\n      swap1\n      tag_54\n      jump\t// in\n    tag_73:\n        /* \"ArchielSwapPool.sol\":1834:1876  (_amountBDesired * totalSupply) / reserveB */\n      tag_74\n      swap2\n      swap1\n      tag_72\n      jump\t// in\n    tag_74:\n        /* \"ArchielSwapPool.sol\":1785:1789  _min */\n      tag_75\n        /* \"ArchielSwapPool.sol\":1785:1877  _min((_amountADesired * totalSupply) / reserveA, (_amountBDesired * totalSupply) / reserveB) */\n      jump\t// in\n    tag_69:\n        /* \"ArchielSwapPool.sol\":1776:1877  shares = _min((_amountADesired * totalSupply) / reserveA, (_amountBDesired * totalSupply) / reserveB) */\n      swap5\n      pop\n        /* \"ArchielSwapPool.sol\":1598:1888  {... */\n      pop\n      pop\n        /* \"ArchielSwapPool.sol\":1496:1888  if (totalSupply == 0) {... */\n    tag_56:\n        /* \"ArchielSwapPool.sol\":1915:1916  0 */\n      0x00\n        /* \"ArchielSwapPool.sol\":1906:1912  shares */\n      dup4\n        /* \"ArchielSwapPool.sol\":1906:1916  shares > 0 */\n      gt\n        /* \"ArchielSwapPool.sol\":1898:1942  require(shares > 0, \"Shares terlalu rendah\") */\n      tag_76\n      jumpi\n      mload(0x40)\n      0x08c379a000000000000000000000000000000000000000000000000000000000\n      dup2\n      mstore\n      0x04\n      add\n      tag_77\n      swap1\n      tag_78\n      jump\t// in\n    tag_77:\n      mload(0x40)\n      dup1\n      swap2\n      sub\n      swap1\n      revert\n    tag_76:\n        /* \"ArchielSwapPool.sol\":1952:1977  _mint(msg.sender, shares) */\n      tag_79\n        /* \"ArchielSwapPool.sol\":1958:1968  msg.sender */\n      caller\n        /* \"ArchielSwapPool.sol\":1970:1976  shares */\n      dup5\n        /* \"ArchielSwapPool.sol\":1952:1957  _mint */\n      tag_80\n        /* \"ArchielSwapPool.sol\":1952:1977  _mint(msg.sender, shares) */\n      jump\t// in\n    tag_79:\n        /* \"ArchielSwapPool.sol\":2011:2021  msg.sender */\n      caller\n        /* \"ArchielSwapPool.sol\":1992:2064  LiquidityDeposited(msg.sender, _amountADesired, _amountBDesired, shares) */\n      0xffffffffffffffffffffffffffffffffffffffff\n      and\n      0xa74b54c06133e997406e0369608fb6a8fd1d17957751a6d2a6390ddff1938769\n        /* \"ArchielSwapPool.sol\":2023:2038  _amountADesired */\n      dup7\n        /* \"ArchielSwapPool.sol\":2040:2055  _amountBDesired */\n      dup7\n        /* \"ArchielSwapPool.sol\":2057:2063  shares */\n      dup7\n        /* \"ArchielSwapPool.sol\":1992:2064  LiquidityDeposited(msg.sender, _amountADesired, _amountBDesired, shares) */\n      mload(0x40)\n      tag_81\n      swap4\n      swap3\n      swap2\n      swap1\n      tag_82\n      jump\t// in\n    tag_81:\n      mload(0x40)\n      dup1\n      swap2\n      sub\n      swap1\n      log2\n        /* \"ArchielSwapPool.sol\":1165:2071  {... */\n      pop\n      pop\n        /* \"ArchielSwapPool.sol\":984:2071  function addLiquidity(... */\n      swap5\n      swap4\n      pop\n      pop\n      pop\n      pop\n      jump\t// out\n        /* \"ArchielSwapPool.sol\":2077:2315  function _sqrt(uint256 y) internal pure returns (uint256 z) {... */\n    tag_55:\n        /* \"ArchielSwapPool.sol\":2126:2135  uint256 z */\n      0x00\n        /* \"ArchielSwapPool.sol\":2155:2156  3 */\n      0x03\n        /* \"ArchielSwapPool.sol\":2151:2152  y */\n      dup3\n        /* \"ArchielSwapPool.sol\":2151:2156  y > 3 */\n      gt\n        /* \"ArchielSwapPool.sol\":2147:2309  if (y > 3) {... */\n      iszero\n      tag_84\n      jumpi\n        /* \"ArchielSwapPool.sol\":2176:2177  y */\n      dup2\n        /* \"ArchielSwapPool.sol\":2172:2177  z = y */\n      swap1\n      pop\n        /* \"ArchielSwapPool.sol\":2191:2200  uint256 x */\n      0x00\n        /* \"ArchielSwapPool.sol\":2211:2212  1 */\n      0x01\n        /* \"ArchielSwapPool.sol\":2207:2208  2 */\n      0x02\n        /* \"ArchielSwapPool.sol\":2203:2204  y */\n      dup5\n        /* \"ArchielSwapPool.sol\":2203:2208  y / 2 */\n      tag_85\n      swap2\n      swap1\n      tag_72\n      jump\t// in\n    tag_85:\n        /* \"ArchielSwapPool.sol\":2203:2212  y / 2 + 1 */\n      tag_86\n      swap2\n      swap1\n      tag_87\n      jump\t// in\n    tag_86:\n        /* \"ArchielSwapPool.sol\":2191:2212  uint256 x = y / 2 + 1 */\n      swap1\n      pop\n        /* \"ArchielSwapPool.sol\":2226:2271  while (x < z) { z = x; x = (y / x + x) / 2; } */\n    tag_88:\n        /* \"ArchielSwapPool.sol\":2237:2238  z */\n      dup2\n        /* \"ArchielSwapPool.sol\":2233:2234  x */\n      dup2\n        /* \"ArchielSwapPool.sol\":2233:2238  x < z */\n      lt\n        /* \"ArchielSwapPool.sol\":2226:2271  while (x < z) { z = x; x = (y / x + x) / 2; } */\n      iszero\n      tag_89\n      jumpi\n        /* \"ArchielSwapPool.sol\":2246:2247  x */\n      dup1\n        /* \"ArchielSwapPool.sol\":2242:2247  z = x */\n      swap2\n      pop\n        /* \"ArchielSwapPool.sol\":2267:2268  2 */\n      0x02\n        /* \"ArchielSwapPool.sol\":2262:2263  x */\n      dup2\n        /* \"ArchielSwapPool.sol\":2258:2259  x */\n      dup3\n        /* \"ArchielSwapPool.sol\":2254:2255  y */\n      dup6\n        /* \"ArchielSwapPool.sol\":2254:2259  y / x */\n      tag_90\n      swap2\n      swap1\n      tag_72\n      jump\t// in\n    tag_90:\n        /* \"ArchielSwapPool.sol\":2254:2263  y / x + x */\n      tag_91\n      swap2\n      swap1\n      tag_87\n      jump\t// in\n    tag_91:\n        /* \"ArchielSwapPool.sol\":2253:2268  (y / x + x) / 2 */\n      tag_92\n      swap2\n      swap1\n      tag_72\n      jump\t// in\n    tag_92:\n        /* \"ArchielSwapPool.sol\":2249:2268  x = (y / x + x) / 2 */\n      swap1\n      pop\n        /* \"ArchielSwapPool.sol\":2226:2271  while (x < z) { z = x; x = (y / x + x) / 2; } */\n      jump(tag_88)\n    tag_89:\n        /* \"ArchielSwapPool.sol\":2158:2281  {... */\n      pop\n        /* \"ArchielSwapPool.sol\":2147:2309  if (y > 3) {... */\n      jump(tag_93)\n    tag_84:\n        /* \"ArchielSwapPool.sol\":2296:2297  0 */\n      0x00\n        /* \"ArchielSwapPool.sol\":2291:2292  y */\n      dup3\n        /* \"ArchielSwapPool.sol\":2291:2297  y != 0 */\n      eq\n        /* \"ArchielSwapPool.sol\":2287:2309  if (y != 0) { z = 1; } */\n      tag_94\n      jumpi\n        /* \"ArchielSwapPool.sol\":2305:2306  1 */\n      0x01\n        /* \"ArchielSwapPool.sol\":2301:2306  z = 1 */\n      swap1\n      pop\n        /* \"ArchielSwapPool.sol\":2287:2309  if (y != 0) { z = 1; } */\n    tag_94:\n        /* \"ArchielSwapPool.sol\":2147:2309  if (y > 3) {... */\n    tag_93:\n        /* \"ArchielSwapPool.sol\":2077:2315  function _sqrt(uint256 y) internal pure returns (uint256 z) {... */\n      swap2\n      swap1\n      pop\n      jump\t// out\n        /* \"ArchielSwapPool.sol\":2321:2426  function _min(uint256 x, uint256 y) internal pure returns (uint256) {... */\n    tag_75:\n        /* \"ArchielSwapPool.sol\":2380:2387  uint256 */\n      0x00\n        /* \"ArchielSwapPool.sol\":2410:2411  y */\n      dup2\n        /* \"ArchielSwapPool.sol\":2406:2407  x */\n      dup4\n        /* \"ArchielSwapPool.sol\":2406:2411  x < y */\n      lt\n        /* \"ArchielSwapPool.sol\":2406:2419  x < y ? x : y */\n      tag_96\n      jumpi\n        /* \"ArchielSwapPool.sol\":2418:2419  y */\n      dup2\n        /* \"ArchielSwapPool.sol\":2406:2419  x < y ? x : y */\n      jump(tag_97)\n    tag_96:\n        /* \"ArchielSwapPool.sol\":2414:2415  x */\n      dup3\n        /* \"ArchielSwapPool.sol\":2406:2419  x < y ? x : y */\n    tag_97:\n        /* \"ArchielSwapPool.sol\":2399:2419  return x < y ? x : y */\n      swap1\n      pop\n        /* \"ArchielSwapPool.sol\":2321:2426  function _min(uint256 x, uint256 y) internal pure returns (uint256) {... */\n      swap3\n      swap2\n      pop\n      pop\n      jump\t// out\n        /* \"ArchielSwapPool.sol\":801:978  function _mint(address _to, uint256 _amount) internal {... */\n    tag_80:\n        /* \"ArchielSwapPool.sol\":883:890  _amount */\n      dup1\n        /* \"ArchielSwapPool.sol\":865:874  balanceOf */\n      0x02\n        /* \"ArchielSwapPool.sol\":865:879  balanceOf[_to] */\n      0x00\n        /* \"ArchielSwapPool.sol\":875:878  _to */\n      dup5\n        /* \"ArchielSwapPool.sol\":865:879  balanceOf[_to] */\n      0xffffffffffffffffffffffffffffffffffffffff\n      and\n      0xffffffffffffffffffffffffffffffffffffffff\n      and\n      dup2\n      mstore\n      0x20\n      add\n      swap1\n      dup2\n      mstore\n      0x20\n      add\n      0x00\n      keccak256\n      0x00\n        /* \"ArchielSwapPool.sol\":865:890  balanceOf[_to] += _amount */\n      dup3\n      dup3\n      sload\n      tag_99\n      swap2\n      swap1\n      tag_87\n      jump\t// in\n    tag_99:\n      swap3\n      pop\n      pop\n      dup2\n      swap1\n      sstore\n      pop\n        /* \"ArchielSwapPool.sol\":915:922  _amount */\n      dup1\n        /* \"ArchielSwapPool.sol\":900:911  totalSupply */\n      0x01\n      0x00\n        /* \"ArchielSwapPool.sol\":900:922  totalSupply += _amount */\n      dup3\n      dup3\n      sload\n      tag_100\n      swap2\n      swap1\n      tag_87\n      jump\t// in\n    tag_100:\n      swap3\n      pop\n      pop\n      dup2\n      swap1\n      sstore\n      pop\n        /* \"ArchielSwapPool.sol\":958:961  _to */\n      dup2\n        /* \"ArchielSwapPool.sol\":937:971  Transfer(address(0), _to, _amount) */\n      0xffffffffffffffffffffffffffffffffffffffff\n      and\n        /* \"ArchielSwapPool.sol\":954:955  0 */\n      0x00\n        /* \"ArchielSwapPool.sol\":937:971  Transfer(address(0), _to, _amount) */\n      0xffffffffffffffffffffffffffffffffffffffff\n      and\n      0xddf252ad1be2c89b69c2b068fc378daa952ba7f163c4a11628f55a4df523b3ef\n        /* \"ArchielSwapPool.sol\":963:970  _amount */\n      dup4\n        /* \"ArchielSwapPool.sol\":937:971  Transfer(address(0), _to, _amount) */\n      mload(0x40)\n      tag_101\n      swap2\n      swap1\n      tag_16\n      jump\t// in\n    tag_101:\n      mload(0x40)\n      dup1\n      swap2\n      sub\n      swap1\n      log3\n        /* \"ArchielSwapPool.sol\":801:978  function _mint(address _to, uint256 _amount) internal {... */\n      pop\n      pop\n      jump\t// out\n        /* \"#utility.yul\":7:106   */\n    tag_102:\n        /* \"#utility.yul\":59:65   */\n      0x00\n        /* \"#utility.yul\":93:98   */\n      dup2\n        /* \"#utility.yul\":87:99   */\n      mload\n        /* \"#utility.yul\":77:99   */\n      swap1\n      pop\n        /* \"#utility.yul\":7:106   */\n      swap2\n      swap1\n      pop\n      jump\t// out\n        /* \"#utility.yul\":112:281   */\n    tag_103:\n        /* \"#utility.yul\":196:207   */\n      0x00\n        /* \"#utility.yul\":230:236   */\n      dup3\n        /* \"#utility.yul\":225:228   */\n      dup3\n        /* \"#utility.yul\":218:237   */\n      mstore\n        /* \"#utility.yul\":270:274   */\n      0x20\n        /* \"#utility.yul\":265:268   */\n      dup3\n        /* \"#utility.yul\":261:275   */\n      add\n        /* \"#utility.yul\":246:275   */\n      swap1\n      pop\n        /* \"#utility.yul\":112:281   */\n      swap3\n      swap2\n      pop\n      pop\n      jump\t// out\n        /* \"#utility.yul\":287:426   */\n    tag_104:\n        /* \"#utility.yul\":376:382   */\n      dup3\n        /* \"#utility.yul\":371:374   */\n      dup2\n        /* \"#utility.yul\":366:369   */\n      dup4\n        /* \"#utility.yul\":360:383   */\n      mcopy\n        /* \"#utility.yul\":417:418   */\n      0x00\n        /* \"#utility.yul\":408:414   */\n      dup4\n        /* \"#utility.yul\":403:406   */\n      dup4\n        /* \"#utility.yul\":399:415   */\n      add\n        /* \"#utility.yul\":392:419   */\n      mstore\n        /* \"#utility.yul\":287:426   */\n      pop\n      pop\n      pop\n      jump\t// out\n        /* \"#utility.yul\":432:534   */\n    tag_105:\n        /* \"#utility.yul\":473:479   */\n      0x00\n        /* \"#utility.yul\":524:526   */\n      0x1f\n        /* \"#utility.yul\":520:527   */\n      not\n        /* \"#utility.yul\":515:517   */\n      0x1f\n        /* \"#utility.yul\":508:513   */\n      dup4\n        /* \"#utility.yul\":504:518   */\n      add\n        /* \"#utility.yul\":500:528   */\n      and\n        /* \"#utility.yul\":490:528   */\n      swap1\n      pop\n        /* \"#utility.yul\":432:534   */\n      swap2\n      swap1\n      pop\n      jump\t// out\n        /* \"#utility.yul\":540:917   */\n    tag_106:\n        /* \"#utility.yul\":628:631   */\n      0x00\n        /* \"#utility.yul\":656:695   */\n      tag_137\n        /* \"#utility.yul\":689:694   */\n      dup3\n        /* \"#utility.yul\":656:695   */\n      tag_102\n      jump\t// in\n    tag_137:\n        /* \"#utility.yul\":711:782   */\n      tag_138\n        /* \"#utility.yul\":775:781   */\n      dup2\n        /* \"#utility.yul\":770:773   */\n      dup6\n        /* \"#utility.yul\":711:782   */\n      tag_103\n      jump\t// in\n    tag_138:\n        /* \"#utility.yul\":704:782   */\n      swap4\n      pop\n        /* \"#utility.yul\":791:856   */\n      tag_139\n        /* \"#utility.yul\":849:855   */\n      dup2\n        /* \"#utility.yul\":844:847   */\n      dup6\n        /* \"#utility.yul\":837:841   */\n      0x20\n        /* \"#utility.yul\":830:835   */\n      dup7\n        /* \"#utility.yul\":826:842   */\n      add\n        /* \"#utility.yul\":791:856   */\n      tag_104\n      jump\t// in\n    tag_139:\n        /* \"#utility.yul\":881:910   */\n      tag_140\n        /* \"#utility.yul\":903:909   */\n      dup2\n        /* \"#utility.yul\":881:910   */\n      tag_105\n      jump\t// in\n    tag_140:\n        /* \"#utility.yul\":876:879   */\n      dup5\n        /* \"#utility.yul\":872:911   */\n      add\n        /* \"#utility.yul\":865:911   */\n      swap2\n      pop\n        /* \"#utility.yul\":632:917   */\n      pop\n        /* \"#utility.yul\":540:917   */\n      swap3\n      swap2\n      pop\n      pop\n      jump\t// out\n        /* \"#utility.yul\":923:1236   */\n    tag_12:\n        /* \"#utility.yul\":1036:1040   */\n      0x00\n        /* \"#utility.yul\":1074:1076   */\n      0x20\n        /* \"#utility.yul\":1063:1072   */\n      dup3\n        /* \"#utility.yul\":1059:1077   */\n      add\n        /* \"#utility.yul\":1051:1077   */\n      swap1\n      pop\n        /* \"#utility.yul\":1123:1132   */\n      dup2\n        /* \"#utility.yul\":1117:1121   */\n      dup2\n        /* \"#utility.yul\":1113:1133   */\n      sub\n        /* \"#utility.yul\":1109:1110   */\n      0x00\n        /* \"#utility.yul\":1098:1107   */\n      dup4\n        /* \"#utility.yul\":1094:1111   */\n      add\n        /* \"#utility.yul\":1087:1134   */\n      mstore\n        /* \"#utility.yul\":1151:1229   */\n      tag_142\n        /* \"#utility.yul\":1224:1228   */\n      dup2\n        /* \"#utility.yul\":1215:1221   */\n      dup5\n        /* \"#utility.yul\":1151:1229   */\n      tag_106\n      jump\t// in\n    tag_142:\n        /* \"#utility.yul\":1143:1229   */\n      swap1\n      pop\n        /* \"#utility.yul\":923:1236   */\n      swap3\n      swap2\n      pop\n      pop\n      jump\t// out\n        /* \"#utility.yul\":1242:1319   */\n    tag_107:\n        /* \"#utility.yul\":1279:1286   */\n      0x00\n        /* \"#utility.yul\":1308:1313   */\n      dup2\n        /* \"#utility.yul\":1297:1313   */\n      swap1\n      pop\n        /* \"#utility.yul\":1242:1319   */\n      swap2\n      swap1\n      pop\n      jump\t// out\n        /* \"#utility.yul\":1325:1443   */\n    tag_108:\n        /* \"#utility.yul\":1412:1436   */\n      tag_145\n        /* \"#utility.yul\":1430:1435   */\n      dup2\n        /* \"#utility.yul\":1412:1436   */\n      tag_107\n      jump\t// in\n    tag_145:\n        /* \"#utility.yul\":1407:1410   */\n      dup3\n        /* \"#utility.yul\":1400:1437   */\n      mstore\n        /* \"#utility.yul\":1325:1443   */\n      pop\n      pop\n      jump\t// out\n        /* \"#utility.yul\":1449:1671   */\n    tag_16:\n        /* \"#utility.yul\":1542:1546   */\n      0x00\n        /* \"#utility.yul\":1580:1582   */\n      0x20\n        /* \"#utility.yul\":1569:1578   */\n      dup3\n        /* \"#utility.yul\":1565:1583   */\n      add\n        /* \"#utility.yul\":1557:1583   */\n      swap1\n      pop\n        /* \"#utility.yul\":1593:1664   */\n      tag_147\n        /* \"#utility.yul\":1661:1662   */\n      0x00\n        /* \"#utility.yul\":1650:1659   */\n      dup4\n        /* \"#utility.yul\":1646:1663   */\n      add\n        /* \"#utility.yul\":1637:1643   */\n      dup5\n        /* \"#utility.yul\":1593:1664   */\n      tag_108\n      jump\t// in\n    tag_147:\n        /* \"#utility.yul\":1449:1671   */\n      swap3\n      swap2\n      pop\n      pop\n      jump\t// out\n        /* \"#utility.yul\":1758:1875   */\n    tag_110:\n        /* \"#utility.yul\":1867:1868   */\n      0x00\n        /* \"#utility.yul\":1864:1865   */\n      0x00\n        /* \"#utility.yul\":1857:1869   */\n      revert\n        /* \"#utility.yul\":2004:2130   */\n    tag_112:\n        /* \"#utility.yul\":2041:2048   */\n      0x00\n        /* \"#utility.yul\":2081:2123   */\n      0xffffffffffffffffffffffffffffffffffffffff\n        /* \"#utility.yul\":2074:2079   */\n      dup3\n        /* \"#utility.yul\":2070:2124   */\n      and\n        /* \"#utility.yul\":2059:2124   */\n      swap1\n      pop\n        /* \"#utility.yul\":2004:2130   */\n      swap2\n      swap1\n      pop\n      jump\t// out\n        /* \"#utility.yul\":2136:2232   */\n    tag_113:\n        /* \"#utility.yul\":2173:2180   */\n      0x00\n        /* \"#utility.yul\":2202:2226   */\n      tag_153\n        /* \"#utility.yul\":2220:2225   */\n      dup3\n        /* \"#utility.yul\":2202:2226   */\n      tag_112\n      jump\t// in\n    tag_153:\n        /* \"#utility.yul\":2191:2226   */\n      swap1\n      pop\n        /* \"#utility.yul\":2136:2232   */\n      swap2\n      swap1\n      pop\n      jump\t// out\n        /* \"#utility.yul\":2238:2360   */\n    tag_114:\n        /* \"#utility.yul\":2311:2335   */\n      tag_155\n        /* \"#utility.yul\":2329:2334   */\n      dup2\n        /* \"#utility.yul\":2311:2335   */\n      tag_113\n      jump\t// in\n    tag_155:\n        /* \"#utility.yul\":2304:2309   */\n      dup2\n        /* \"#utility.yul\":2301:2336   */\n      eq\n        /* \"#utility.yul\":2291:2354   */\n      tag_156\n      jumpi\n        /* \"#utility.yul\":2350:2351   */\n      0x00\n        /* \"#utility.yul\":2347:2348   */\n      0x00\n        /* \"#utility.yul\":2340:2352   */\n      revert\n        /* \"#utility.yul\":2291:2354   */\n    tag_156:\n        /* \"#utility.yul\":2238:2360   */\n      pop\n      jump\t// out\n        /* \"#utility.yul\":2366:2505   */\n    tag_115:\n        /* \"#utility.yul\":2412:2417   */\n      0x00\n        /* \"#utility.yul\":2450:2456   */\n      dup2\n        /* \"#utility.yul\":2437:2457   */\n      calldataload\n        /* \"#utility.yul\":2428:2457   */\n      swap1\n      pop\n        /* \"#utility.yul\":2466:2499   */\n      tag_158\n        /* \"#utility.yul\":2493:2498   */\n      dup2\n        /* \"#utility.yul\":2466:2499   */\n      tag_114\n      jump\t// in\n    tag_158:\n        /* \"#utility.yul\":2366:2505   */\n      swap3\n      swap2\n      pop\n      pop\n      jump\t// out\n        /* \"#utility.yul\":2511:2840   */\n    tag_19:\n        /* \"#utility.yul\":2570:2576   */\n      0x00\n        /* \"#utility.yul\":2619:2621   */\n      0x20\n        /* \"#utility.yul\":2607:2616   */\n      dup3\n        /* \"#utility.yul\":2598:2605   */\n      dup5\n        /* \"#utility.yul\":2594:2617   */\n      sub\n        /* \"#utility.yul\":2590:2622   */\n      slt\n        /* \"#utility.yul\":2587:2706   */\n      iszero\n      tag_160\n      jumpi\n        /* \"#utility.yul\":2625:2704   */\n      tag_161\n      tag_110\n      jump\t// in\n    tag_161:\n        /* \"#utility.yul\":2587:2706   */\n    tag_160:\n        /* \"#utility.yul\":2745:2746   */\n      0x00\n        /* \"#utility.yul\":2770:2823   */\n      tag_162\n        /* \"#utility.yul\":2815:2822   */\n      dup5\n        /* \"#utility.yul\":2806:2812   */\n      dup3\n        /* \"#utility.yul\":2795:2804   */\n      dup6\n        /* \"#utility.yul\":2791:2813   */\n      add\n        /* \"#utility.yul\":2770:2823   */\n      tag_115\n      jump\t// in\n    tag_162:\n        /* \"#utility.yul\":2760:2823   */\n      swap2\n      pop\n        /* \"#utility.yul\":2716:2833   */\n      pop\n        /* \"#utility.yul\":2511:2840   */\n      swap3\n      swap2\n      pop\n      pop\n      jump\t// out\n        /* \"#utility.yul\":2846:2964   */\n    tag_116:\n        /* \"#utility.yul\":2933:2957   */\n      tag_164\n        /* \"#utility.yul\":2951:2956   */\n      dup2\n        /* \"#utility.yul\":2933:2957   */\n      tag_113\n      jump\t// in\n    tag_164:\n        /* \"#utility.yul\":2928:2931   */\n      dup3\n        /* \"#utility.yul\":2921:2958   */\n      mstore\n        /* \"#utility.yul\":2846:2964   */\n      pop\n      pop\n      jump\t// out\n        /* \"#utility.yul\":2970:3192   */\n    tag_25:\n        /* \"#utility.yul\":3063:3067   */\n      0x00\n        /* \"#utility.yul\":3101:3103   */\n      0x20\n        /* \"#utility.yul\":3090:3099   */\n      dup3\n        /* \"#utility.yul\":3086:3104   */\n      add\n        /* \"#utility.yul\":3078:3104   */\n      swap1\n      pop\n        /* \"#utility.yul\":3114:3185   */\n      tag_166\n        /* \"#utility.yul\":3182:3183   */\n      0x00\n        /* \"#utility.yul\":3171:3180   */\n      dup4\n        /* \"#utility.yul\":3167:3184   */\n      add\n        /* \"#utility.yul\":3158:3164   */\n      dup5\n        /* \"#utility.yul\":3114:3185   */\n      tag_116\n      jump\t// in\n    tag_166:\n        /* \"#utility.yul\":2970:3192   */\n      swap3\n      swap2\n      pop\n      pop\n      jump\t// out\n        /* \"#utility.yul\":3198:3320   */\n    tag_117:\n        /* \"#utility.yul\":3271:3295   */\n      tag_168\n        /* \"#utility.yul\":3289:3294   */\n      dup2\n        /* \"#utility.yul\":3271:3295   */\n      tag_107\n      jump\t// in\n    tag_168:\n        /* \"#utility.yul\":3264:3269   */\n      dup2\n        /* \"#utility.yul\":3261:3296   */\n      eq\n        /* \"#utility.yul\":3251:3314   */\n      tag_169\n      jumpi\n        /* \"#utility.yul\":3310:3311   */\n      0x00\n        /* \"#utility.yul\":3307:3308   */\n      0x00\n        /* \"#utility.yul\":3300:3312   */\n      revert\n        /* \"#utility.yul\":3251:3314   */\n    tag_169:\n        /* \"#utility.yul\":3198:3320   */\n      pop\n      jump\t// out\n        /* \"#utility.yul\":3326:3465   */\n    tag_118:\n        /* \"#utility.yul\":3372:3377   */\n      0x00\n        /* \"#utility.yul\":3410:3416   */\n      dup2\n        /* \"#utility.yul\":3397:3417   */\n      calldataload\n        /* \"#utility.yul\":3388:3417   */\n      swap1\n      pop\n        /* \"#utility.yul\":3426:3459   */\n      tag_171\n        /* \"#utility.yul\":3453:3458   */\n      dup2\n        /* \"#utility.yul\":3426:3459   */\n      tag_117\n      jump\t// in\n    tag_171:\n        /* \"#utility.yul\":3326:3465   */\n      swap3\n      swap2\n      pop\n      pop\n      jump\t// out\n        /* \"#utility.yul\":3471:4236   */\n    tag_31:\n        /* \"#utility.yul\":3557:3563   */\n      0x00\n        /* \"#utility.yul\":3565:3571   */\n      0x00\n        /* \"#utility.yul\":3573:3579   */\n      0x00\n        /* \"#utility.yul\":3581:3587   */\n      0x00\n        /* \"#utility.yul\":3630:3633   */\n      0x80\n        /* \"#utility.yul\":3618:3627   */\n      dup6\n        /* \"#utility.yul\":3609:3616   */\n      dup8\n        /* \"#utility.yul\":3605:3628   */\n      sub\n        /* \"#utility.yul\":3601:3634   */\n      slt\n        /* \"#utility.yul\":3598:3718   */\n      iszero\n      tag_173\n      jumpi\n        /* \"#utility.yul\":3637:3716   */\n      tag_174\n      tag_110\n      jump\t// in\n    tag_174:\n        /* \"#utility.yul\":3598:3718   */\n    tag_173:\n        /* \"#utility.yul\":3757:3758   */\n      0x00\n        /* \"#utility.yul\":3782:3835   */\n      tag_175\n        /* \"#utility.yul\":3827:3834   */\n      dup8\n        /* \"#utility.yul\":3818:3824   */\n      dup3\n        /* \"#utility.yul\":3807:3816   */\n      dup9\n        /* \"#utility.yul\":3803:3825   */\n      add\n        /* \"#utility.yul\":3782:3835   */\n      tag_115\n      jump\t// in\n    tag_175:\n        /* \"#utility.yul\":3772:3835   */\n      swap5\n      pop\n        /* \"#utility.yul\":3728:3845   */\n      pop\n        /* \"#utility.yul\":3884:3886   */\n      0x20\n        /* \"#utility.yul\":3910:3963   */\n      tag_176\n        /* \"#utility.yul\":3955:3962   */\n      dup8\n        /* \"#utility.yul\":3946:3952   */\n      dup3\n        /* \"#utility.yul\":3935:3944   */\n      dup9\n        /* \"#utility.yul\":3931:3953   */\n      add\n        /* \"#utility.yul\":3910:3963   */\n      tag_115\n      jump\t// in\n    tag_176:\n        /* \"#utility.yul\":3900:3963   */\n      swap4\n      pop\n        /* \"#utility.yul\":3855:3973   */\n      pop\n        /* \"#utility.yul\":4012:4014   */\n      0x40\n        /* \"#utility.yul\":4038:4091   */\n      tag_177\n        /* \"#utility.yul\":4083:4090   */\n      dup8\n        /* \"#utility.yul\":4074:4080   */\n      dup3\n        /* \"#utility.yul\":4063:4072   */\n      dup9\n        /* \"#utility.yul\":4059:4081   */\n      add\n        /* \"#utility.yul\":4038:4091   */\n      tag_118\n      jump\t// in\n    tag_177:\n        /* \"#utility.yul\":4028:4091   */\n      swap3\n      pop\n        /* \"#utility.yul\":3983:4101   */\n      pop\n        /* \"#utility.yul\":4140:4142   */\n      0x60\n        /* \"#utility.yul\":4166:4219   */\n      tag_178\n        /* \"#utility.yul\":4211:4218   */\n      dup8\n        /* \"#utility.yul\":4202:4208   */\n      dup3\n        /* \"#utility.yul\":4191:4200   */\n      dup9\n        /* \"#utility.yul\":4187:4209   */\n      add\n        /* \"#utility.yul\":4166:4219   */\n      tag_118\n      jump\t// in\n    tag_178:\n        /* \"#utility.yul\":4156:4219   */\n      swap2\n      pop\n        /* \"#utility.yul\":4111:4229   */\n      pop\n        /* \"#utility.yul\":3471:4236   */\n      swap3\n      swap6\n      swap2\n      swap5\n      pop\n      swap3\n      pop\n      jump\t// out\n        /* \"#utility.yul\":4242:4684   */\n    tag_36:\n        /* \"#utility.yul\":4391:4395   */\n      0x00\n        /* \"#utility.yul\":4429:4431   */\n      0x60\n        /* \"#utility.yul\":4418:4427   */\n      dup3\n        /* \"#utility.yul\":4414:4432   */\n      add\n        /* \"#utility.yul\":4406:4432   */\n      swap1\n      pop\n        /* \"#utility.yul\":4442:4513   */\n      tag_180\n        /* \"#utility.yul\":4510:4511   */\n      0x00\n        /* \"#utility.yul\":4499:4508   */\n      dup4\n        /* \"#utility.yul\":4495:4512   */\n      add\n        /* \"#utility.yul\":4486:4492   */\n      dup7\n        /* \"#utility.yul\":4442:4513   */\n      tag_116\n      jump\t// in\n    tag_180:\n        /* \"#utility.yul\":4523:4595   */\n      tag_181\n        /* \"#utility.yul\":4591:4593   */\n      0x20\n        /* \"#utility.yul\":4580:4589   */\n      dup4\n        /* \"#utility.yul\":4576:4594   */\n      add\n        /* \"#utility.yul\":4567:4573   */\n      dup6\n        /* \"#utility.yul\":4523:4595   */\n      tag_116\n      jump\t// in\n    tag_181:\n        /* \"#utility.yul\":4605:4677   */\n      tag_182\n        /* \"#utility.yul\":4673:4675   */\n      0x40\n        /* \"#utility.yul\":4662:4671   */\n      dup4\n        /* \"#utility.yul\":4658:4676   */\n      add\n        /* \"#utility.yul\":4649:4655   */\n      dup5\n        /* \"#utility.yul\":4605:4677   */\n      tag_108\n      jump\t// in\n    tag_182:\n        /* \"#utility.yul\":4242:4684   */\n      swap5\n      swap4\n      pop\n      pop\n      pop\n      pop\n      jump\t// out\n        /* \"#utility.yul\":4690:4780   */\n    tag_119:\n        /* \"#utility.yul\":4724:4731   */\n      0x00\n        /* \"#utility.yul\":4767:4772   */\n      dup2\n        /* \"#utility.yul\":4760:4773   */\n      iszero\n        /* \"#utility.yul\":4753:4774   */\n      iszero\n        /* \"#utility.yul\":4742:4774   */\n      swap1\n      pop\n        /* \"#utility.yul\":4690:4780   */\n      swap2\n      swap1\n      pop\n      jump\t// out\n        /* \"#utility.yul\":4786:4902   */\n    tag_120:\n        /* \"#utility.yul\":4856:4877   */\n      tag_185\n        /* \"#utility.yul\":4871:4876   */\n      dup2\n        /* \"#utility.yul\":4856:4877   */\n      tag_119\n      jump\t// in\n    tag_185:\n        /* \"#utility.yul\":4849:4854   */\n      dup2\n        /* \"#utility.yul\":4846:4878   */\n      eq\n        /* \"#utility.yul\":4836:4896   */\n      tag_186\n      jumpi\n        /* \"#utility.yul\":4892:4893   */\n      0x00\n        /* \"#utility.yul\":4889:4890   */\n      0x00\n        /* \"#utility.yul\":4882:4894   */\n      revert\n        /* \"#utility.yul\":4836:4896   */\n    tag_186:\n        /* \"#utility.yul\":4786:4902   */\n      pop\n      jump\t// out\n        /* \"#utility.yul\":4908:5045   */\n    tag_121:\n        /* \"#utility.yul\":4962:4967   */\n      0x00\n        /* \"#utility.yul\":4993:4999   */\n      dup2\n        /* \"#utility.yul\":4987:5000   */\n      mload\n        /* \"#utility.yul\":4978:5000   */\n      swap1\n      pop\n        /* \"#utility.yul\":5009:5039   */\n      tag_188\n        /* \"#utility.yul\":5033:5038   */\n      dup2\n        /* \"#utility.yul\":5009:5039   */\n      tag_120\n      jump\t// in\n    tag_188:\n        /* \"#utility.yul\":4908:5045   */\n      swap3\n      swap2\n      pop\n      pop\n      jump\t// out\n        /* \"#utility.yul\":5051:5396   */\n    tag_40:\n        /* \"#utility.yul\":5118:5124   */\n      0x00\n        /* \"#utility.yul\":5167:5169   */\n      0x20\n        /* \"#utility.yul\":5155:5164   */\n      dup3\n        /* \"#utility.yul\":5146:5153   */\n      dup5\n        /* \"#utility.yul\":5142:5165   */\n      sub\n        /* \"#utility.yul\":5138:5170   */\n      slt\n        /* \"#utility.yul\":5135:5254   */\n      iszero\n      tag_190\n      jumpi\n        /* \"#utility.yul\":5173:5252   */\n      tag_191\n      tag_110\n      jump\t// in\n    tag_191:\n        /* \"#utility.yul\":5135:5254   */\n    tag_190:\n        /* \"#utility.yul\":5293:5294   */\n      0x00\n        /* \"#utility.yul\":5318:5379   */\n      tag_192\n        /* \"#utility.yul\":5371:5378   */\n      dup5\n        /* \"#utility.yul\":5362:5368   */\n      dup3\n        /* \"#utility.yul\":5351:5360   */\n      dup6\n        /* \"#utility.yul\":5347:5369   */\n      add\n        /* \"#utility.yul\":5318:5379   */\n      tag_121\n      jump\t// in\n    tag_192:\n        /* \"#utility.yul\":5308:5379   */\n      swap2\n      pop\n        /* \"#utility.yul\":5264:5389   */\n      pop\n        /* \"#utility.yul\":5051:5396   */\n      swap3\n      swap2\n      pop\n      pop\n      jump\t// out\n        /* \"#utility.yul\":5402:5568   */\n    tag_122:\n        /* \"#utility.yul\":5542:5560   */\n      0x5472616e73666572204120676167616c00000000000000000000000000000000\n        /* \"#utility.yul\":5538:5539   */\n      0x00\n        /* \"#utility.yul\":5530:5536   */\n      dup3\n        /* \"#utility.yul\":5526:5540   */\n      add\n        /* \"#utility.yul\":5519:5561   */\n      mstore\n        /* \"#utility.yul\":5402:5568   */\n      pop\n      jump\t// out\n        /* \"#utility.yul\":5574:5940   */\n    tag_123:\n        /* \"#utility.yul\":5716:5719   */\n      0x00\n        /* \"#utility.yul\":5737:5804   */\n      tag_195\n        /* \"#utility.yul\":5801:5803   */\n      0x10\n        /* \"#utility.yul\":5796:5799   */\n      dup4\n        /* \"#utility.yul\":5737:5804   */\n      tag_103\n      jump\t// in\n    tag_195:\n        /* \"#utility.yul\":5730:5804   */\n      swap2\n      pop\n        /* \"#utility.yul\":5813:5906   */\n      tag_196\n        /* \"#utility.yul\":5902:5905   */\n      dup3\n        /* \"#utility.yul\":5813:5906   */\n      tag_122\n      jump\t// in\n    tag_196:\n        /* \"#utility.yul\":5931:5933   */\n      0x20\n        /* \"#utility.yul\":5926:5929   */\n      dup3\n        /* \"#utility.yul\":5922:5934   */\n      add\n        /* \"#utility.yul\":5915:5934   */\n      swap1\n      pop\n        /* \"#utility.yul\":5574:5940   */\n      swap2\n      swap1\n      pop\n      jump\t// out\n        /* \"#utility.yul\":5946:6365   */\n    tag_43:\n        /* \"#utility.yul\":6112:6116   */\n      0x00\n        /* \"#utility.yul\":6150:6152   */\n      0x20\n        /* \"#utility.yul\":6139:6148   */\n      dup3\n        /* \"#utility.yul\":6135:6153   */\n      add\n        /* \"#utility.yul\":6127:6153   */\n      swap1\n      pop\n        /* \"#utility.yul\":6199:6208   */\n      dup2\n        /* \"#utility.yul\":6193:6197   */\n      dup2\n        /* \"#utility.yul\":6189:6209   */\n      sub\n        /* \"#utility.yul\":6185:6186   */\n      0x00\n        /* \"#utility.yul\":6174:6183   */\n      dup4\n        /* \"#utility.yul\":6170:6187   */\n      add\n        /* \"#utility.yul\":6163:6210   */\n      mstore\n        /* \"#utility.yul\":6227:6358   */\n      tag_198\n        /* \"#utility.yul\":6353:6357   */\n      dup2\n        /* \"#utility.yul\":6227:6358   */\n      tag_123\n      jump\t// in\n    tag_198:\n        /* \"#utility.yul\":6219:6358   */\n      swap1\n      pop\n        /* \"#utility.yul\":5946:6365   */\n      swap2\n      swap1\n      pop\n      jump\t// out\n        /* \"#utility.yul\":6371:6537   */\n    tag_124:\n        /* \"#utility.yul\":6511:6529   */\n      0x5472616e73666572204220676167616c00000000000000000000000000000000\n        /* \"#utility.yul\":6507:6508   */\n      0x00\n        /* \"#utility.yul\":6499:6505   */\n      dup3\n        /* \"#utility.yul\":6495:6509   */\n      add\n        /* \"#utility.yul\":6488:6530   */\n      mstore\n        /* \"#utility.yul\":6371:6537   */\n      pop\n      jump\t// out\n        /* \"#utility.yul\":6543:6909   */\n    tag_125:\n        /* \"#utility.yul\":6685:6688   */\n      0x00\n        /* \"#utility.yul\":6706:6773   */\n      tag_201\n        /* \"#utility.yul\":6770:6772   */\n      0x10\n        /* \"#utility.yul\":6765:6768   */\n      dup4\n        /* \"#utility.yul\":6706:6773   */\n      tag_103\n      jump\t// in\n    tag_201:\n        /* \"#utility.yul\":6699:6773   */\n      swap2\n      pop\n        /* \"#utility.yul\":6782:6875   */\n      tag_202\n        /* \"#utility.yul\":6871:6874   */\n      dup3\n        /* \"#utility.yul\":6782:6875   */\n      tag_124\n      jump\t// in\n    tag_202:\n        /* \"#utility.yul\":6900:6902   */\n      0x20\n        /* \"#utility.yul\":6895:6898   */\n      dup3\n        /* \"#utility.yul\":6891:6903   */\n      add\n        /* \"#utility.yul\":6884:6903   */\n      swap1\n      pop\n        /* \"#utility.yul\":6543:6909   */\n      swap2\n      swap1\n      pop\n      jump\t// out\n        /* \"#utility.yul\":6915:7334   */\n    tag_50:\n        /* \"#utility.yul\":7081:7085   */\n      0x00\n        /* \"#utility.yul\":7119:7121   */\n      0x20\n        /* \"#utility.yul\":7108:7117   */\n      dup3\n        /* \"#utility.yul\":7104:7122   */\n      add\n        /* \"#utility.yul\":7096:7122   */\n      swap1\n      pop\n        /* \"#utility.yul\":7168:7177   */\n      dup2\n        /* \"#utility.yul\":7162:7166   */\n      dup2\n        /* \"#utility.yul\":7158:7178   */\n      sub\n        /* \"#utility.yul\":7154:7155   */\n      0x00\n        /* \"#utility.yul\":7143:7152   */\n      dup4\n        /* \"#utility.yul\":7139:7156   */\n      add\n        /* \"#utility.yul\":7132:7179   */\n      mstore\n        /* \"#utility.yul\":7196:7327   */\n      tag_204\n        /* \"#utility.yul\":7322:7326   */\n      dup2\n        /* \"#utility.yul\":7196:7327   */\n      tag_125\n      jump\t// in\n    tag_204:\n        /* \"#utility.yul\":7188:7327   */\n      swap1\n      pop\n        /* \"#utility.yul\":6915:7334   */\n      swap2\n      swap1\n      pop\n      jump\t// out\n        /* \"#utility.yul\":7340:7520   */\n    tag_126:\n        /* \"#utility.yul\":7388:7465   */\n      0x4e487b7100000000000000000000000000000000000000000000000000000000\n        /* \"#utility.yul\":7385:7386   */\n      0x00\n        /* \"#utility.yul\":7378:7466   */\n      mstore\n        /* \"#utility.yul\":7485:7489   */\n      0x11\n        /* \"#utility.yul\":7482:7483   */\n      0x04\n        /* \"#utility.yul\":7475:7490   */\n      mstore\n        /* \"#utility.yul\":7509:7513   */\n      0x24\n        /* \"#utility.yul\":7506:7507   */\n      0x00\n        /* \"#utility.yul\":7499:7514   */\n      revert\n        /* \"#utility.yul\":7526:7936   */\n    tag_54:\n        /* \"#utility.yul\":7566:7573   */\n      0x00\n        /* \"#utility.yul\":7589:7609   */\n      tag_207\n        /* \"#utility.yul\":7607:7608   */\n      dup3\n        /* \"#utility.yul\":7589:7609   */\n      tag_107\n      jump\t// in\n    tag_207:\n        /* \"#utility.yul\":7584:7609   */\n      swap2\n      pop\n        /* \"#utility.yul\":7623:7643   */\n      tag_208\n        /* \"#utility.yul\":7641:7642   */\n      dup4\n        /* \"#utility.yul\":7623:7643   */\n      tag_107\n      jump\t// in\n    tag_208:\n        /* \"#utility.yul\":7618:7643   */\n      swap3\n      pop\n        /* \"#utility.yul\":7678:7679   */\n      dup3\n        /* \"#utility.yul\":7675:7676   */\n      dup3\n        /* \"#utility.yul\":7671:7680   */\n      mul\n        /* \"#utility.yul\":7700:7730   */\n      tag_209\n        /* \"#utility.yul\":7718:7729   */\n      dup2\n        /* \"#utility.yul\":7700:7730   */\n      tag_107\n      jump\t// in\n    tag_209:\n        /* \"#utility.yul\":7689:7730   */\n      swap2\n      pop\n        /* \"#utility.yul\":7879:7880   */\n      dup3\n        /* \"#utility.yul\":7870:7877   */\n      dup3\n        /* \"#utility.yul\":7866:7881   */\n      div\n        /* \"#utility.yul\":7863:7864   */\n      dup5\n        /* \"#utility.yul\":7860:7882   */\n      eq\n        /* \"#utility.yul\":7840:7841   */\n      dup4\n        /* \"#utility.yul\":7833:7842   */\n      iszero\n        /* \"#utility.yul\":7813:7896   */\n      or\n        /* \"#utility.yul\":7790:7929   */\n      tag_210\n      jumpi\n        /* \"#utility.yul\":7909:7927   */\n      tag_211\n      tag_126\n      jump\t// in\n    tag_211:\n        /* \"#utility.yul\":7790:7929   */\n    tag_210:\n        /* \"#utility.yul\":7574:7936   */\n      pop\n        /* \"#utility.yul\":7526:7936   */\n      swap3\n      swap2\n      pop\n      pop\n      jump\t// out\n        /* \"#utility.yul\":7942:8085   */\n    tag_127:\n        /* \"#utility.yul\":7999:8004   */\n      0x00\n        /* \"#utility.yul\":8030:8036   */\n      dup2\n        /* \"#utility.yul\":8024:8037   */\n      mload\n        /* \"#utility.yul\":8015:8037   */\n      swap1\n      pop\n        /* \"#utility.yul\":8046:8079   */\n      tag_213\n        /* \"#utility.yul\":8073:8078   */\n      dup2\n        /* \"#utility.yul\":8046:8079   */\n      tag_117\n      jump\t// in\n    tag_213:\n        /* \"#utility.yul\":7942:8085   */\n      swap3\n      swap2\n      pop\n      pop\n      jump\t// out\n        /* \"#utility.yul\":8091:8442   */\n    tag_61:\n        /* \"#utility.yul\":8161:8167   */\n      0x00\n        /* \"#utility.yul\":8210:8212   */\n      0x20\n        /* \"#utility.yul\":8198:8207   */\n      dup3\n        /* \"#utility.yul\":8189:8196   */\n      dup5\n        /* \"#utility.yul\":8185:8208   */\n      sub\n        /* \"#utility.yul\":8181:8213   */\n      slt\n        /* \"#utility.yul\":8178:8297   */\n      iszero\n      tag_215\n      jumpi\n        /* \"#utility.yul\":8216:8295   */\n      tag_216\n      tag_110\n      jump\t// in\n    tag_216:\n        /* \"#utility.yul\":8178:8297   */\n    tag_215:\n        /* \"#utility.yul\":8336:8337   */\n      0x00\n        /* \"#utility.yul\":8361:8425   */\n      tag_217\n        /* \"#utility.yul\":8417:8424   */\n      dup5\n        /* \"#utility.yul\":8408:8414   */\n      dup3\n        /* \"#utility.yul\":8397:8406   */\n      dup6\n        /* \"#utility.yul\":8393:8415   */\n      add\n        /* \"#utility.yul\":8361:8425   */\n      tag_127\n      jump\t// in\n    tag_217:\n        /* \"#utility.yul\":8351:8425   */\n      swap2\n      pop\n        /* \"#utility.yul\":8307:8435   */\n      pop\n        /* \"#utility.yul\":8091:8442   */\n      swap3\n      swap2\n      pop\n      pop\n      jump\t// out\n        /* \"#utility.yul\":8448:8642   */\n    tag_63:\n        /* \"#utility.yul\":8488:8492   */\n      0x00\n        /* \"#utility.yul\":8508:8528   */\n      tag_219\n        /* \"#utility.yul\":8526:8527   */\n      dup3\n        /* \"#utility.yul\":8508:8528   */\n      tag_107\n      jump\t// in\n    tag_219:\n        /* \"#utility.yul\":8503:8528   */\n      swap2\n      pop\n        /* \"#utility.yul\":8542:8562   */\n      tag_220\n        /* \"#utility.yul\":8560:8561   */\n      dup4\n        /* \"#utility.yul\":8542:8562   */\n      tag_107\n      jump\t// in\n    tag_220:\n        /* \"#utility.yul\":8537:8562   */\n      swap3\n      pop\n        /* \"#utility.yul\":8586:8587   */\n      dup3\n        /* \"#utility.yul\":8583:8584   */\n      dup3\n        /* \"#utility.yul\":8579:8588   */\n      sub\n        /* \"#utility.yul\":8571:8588   */\n      swap1\n      pop\n        /* \"#utility.yul\":8610:8611   */\n      dup2\n        /* \"#utility.yul\":8604:8608   */\n      dup2\n        /* \"#utility.yul\":8601:8612   */\n      gt\n        /* \"#utility.yul\":8598:8635   */\n      iszero\n      tag_221\n      jumpi\n        /* \"#utility.yul\":8615:8633   */\n      tag_222\n      tag_126\n      jump\t// in\n    tag_222:\n        /* \"#utility.yul\":8598:8635   */\n    tag_221:\n        /* \"#utility.yul\":8448:8642   */\n      swap3\n      swap2\n      pop\n      pop\n      jump\t// out\n        /* \"#utility.yul\":8648:8828   */\n    tag_128:\n        /* \"#utility.yul\":8696:8773   */\n      0x4e487b7100000000000000000000000000000000000000000000000000000000\n        /* \"#utility.yul\":8693:8694   */\n      0x00\n        /* \"#utility.yul\":8686:8774   */\n      mstore\n        /* \"#utility.yul\":8793:8797   */\n      0x12\n        /* \"#utility.yul\":8790:8791   */\n      0x04\n        /* \"#utility.yul\":8783:8798   */\n      mstore\n        /* \"#utility.yul\":8817:8821   */\n      0x24\n        /* \"#utility.yul\":8814:8815   */\n      0x00\n        /* \"#utility.yul\":8807:8822   */\n      revert\n        /* \"#utility.yul\":8834:9019   */\n    tag_72:\n        /* \"#utility.yul\":8874:8875   */\n      0x00\n        /* \"#utility.yul\":8891:8911   */\n      tag_225\n        /* \"#utility.yul\":8909:8910   */\n      dup3\n        /* \"#utility.yul\":8891:8911   */\n      tag_107\n      jump\t// in\n    tag_225:\n        /* \"#utility.yul\":8886:8911   */\n      swap2\n      pop\n        /* \"#utility.yul\":8925:8945   */\n      tag_226\n        /* \"#utility.yul\":8943:8944   */\n      dup4\n        /* \"#utility.yul\":8925:8945   */\n      tag_107\n      jump\t// in\n    tag_226:\n        /* \"#utility.yul\":8920:8945   */\n      swap3\n      pop\n        /* \"#utility.yul\":8964:8965   */\n      dup3\n        /* \"#utility.yul\":8954:8989   */\n      tag_227\n      jumpi\n        /* \"#utility.yul\":8969:8987   */\n      tag_228\n      tag_128\n      jump\t// in\n    tag_228:\n        /* \"#utility.yul\":8954:8989   */\n    tag_227:\n        /* \"#utility.yul\":9011:9012   */\n      dup3\n        /* \"#utility.yul\":9008:9009   */\n      dup3\n        /* \"#utility.yul\":9004:9013   */\n      div\n        /* \"#utility.yul\":8999:9013   */\n      swap1\n      pop\n        /* \"#utility.yul\":8834:9019   */\n      swap3\n      swap2\n      pop\n      pop\n      jump\t// out\n        /* \"#utility.yul\":9025:9196   */\n    tag_129:\n        /* \"#utility.yul\":9165:9188   */\n      0x536861726573207465726c616c752072656e6461680000000000000000000000\n        /* \"#utility.yul\":9161:9162   */\n      0x00\n        /* \"#utility.yul\":9153:9159   */\n      dup3\n        /* \"#utility.yul\":9149:9163   */\n      add\n        /* \"#utility.yul\":9142:9189   */\n      mstore\n        /* \"#utility.yul\":9025:9196   */\n      pop\n      jump\t// out\n        /* \"#utility.yul\":9202:9568   */\n    tag_130:\n        /* \"#utility.yul\":9344:9347   */\n      0x00\n        /* \"#utility.yul\":9365:9432   */\n      tag_231\n        /* \"#utility.yul\":9429:9431   */\n      0x15\n        /* \"#utility.yul\":9424:9427   */\n      dup4\n        /* \"#utility.yul\":9365:9432   */\n      tag_103\n      jump\t// in\n    tag_231:\n        /* \"#utility.yul\":9358:9432   */\n      swap2\n      pop\n        /* \"#utility.yul\":9441:9534   */\n      tag_232\n        /* \"#utility.yul\":9530:9533   */\n      dup3\n        /* \"#utility.yul\":9441:9534   */\n      tag_129\n      jump\t// in\n    tag_232:\n        /* \"#utility.yul\":9559:9561   */\n      0x20\n        /* \"#utility.yul\":9554:9557   */\n      dup3\n        /* \"#utility.yul\":9550:9562   */\n      add\n        /* \"#utility.yul\":9543:9562   */\n      swap1\n      pop\n        /* \"#utility.yul\":9202:9568   */\n      swap2\n      swap1\n      pop\n      jump\t// out\n        /* \"#utility.yul\":9574:9993   */\n    tag_78:\n        /* \"#utility.yul\":9740:9744   */\n      0x00\n        /* \"#utility.yul\":9778:9780   */\n      0x20\n        /* \"#utility.yul\":9767:9776   */\n      dup3\n        /* \"#utility.yul\":9763:9781   */\n      add\n        /* \"#utility.yul\":9755:9781   */\n      swap1\n      pop\n        /* \"#utility.yul\":9827:9836   */\n      dup2\n        /* \"#utility.yul\":9821:9825   */\n      dup2\n        /* \"#utility.yul\":9817:9837   */\n      sub\n        /* \"#utility.yul\":9813:9814   */\n      0x00\n        /* \"#utility.yul\":9802:9811   */\n      dup4\n        /* \"#utility.yul\":9798:9815   */\n      add\n        /* \"#utility.yul\":9791:9838   */\n      mstore\n        /* \"#utility.yul\":9855:9986   */\n      tag_234\n        /* \"#utility.yul\":9981:9985   */\n      dup2\n        /* \"#utility.yul\":9855:9986   */\n      tag_130\n      jump\t// in\n    tag_234:\n        /* \"#utility.yul\":9847:9986   */\n      swap1\n      pop\n        /* \"#utility.yul\":9574:9993   */\n      swap2\n      swap1\n      pop\n      jump\t// out\n        /* \"#utility.yul\":9999:10441   */\n    tag_82:\n        /* \"#utility.yul\":10148:10152   */\n      0x00\n        /* \"#utility.yul\":10186:10188   */\n      0x60\n        /* \"#utility.yul\":10175:10184   */\n      dup3\n        /* \"#utility.yul\":10171:10189   */\n      add\n        /* \"#utility.yul\":10163:10189   */\n      swap1\n      pop\n        /* \"#utility.yul\":10199:10270   */\n      tag_236\n        /* \"#utility.yul\":10267:10268   */\n      0x00\n        /* \"#utility.yul\":10256:10265   */\n      dup4\n        /* \"#utility.yul\":10252:10269   */\n      add\n        /* \"#utility.yul\":10243:10249   */\n      dup7\n        /* \"#utility.yul\":10199:10270   */\n      tag_108\n      jump\t// in\n    tag_236:\n        /* \"#utility.yul\":10280:10352   */\n      tag_237\n        /* \"#utility.yul\":10348:10350   */\n      0x20\n        /* \"#utility.yul\":10337:10346   */\n      dup4\n        /* \"#utility.yul\":10333:10351   */\n      add\n        /* \"#utility.yul\":10324:10330   */\n      dup6\n        /* \"#utility.yul\":10280:10352   */\n      tag_108\n      jump\t// in\n    tag_237:\n        /* \"#utility.yul\":10362:10434   */\n      tag_238\n        /* \"#utility.yul\":10430:10432   */\n      0x40\n        /* \"#utility.yul\":10419:10428   */\n      dup4\n        /* \"#utility.yul\":10415:10433   */\n      add\n        /* \"#utility.yul\":10406:10412   */\n      dup5\n        /* \"#utility.yul\":10362:10434   */\n      tag_108\n      jump\t// in\n    tag_238:\n        /* \"#utility.yul\":9999:10441   */\n      swap5\n      swap4\n      pop\n      pop\n      pop\n      pop\n      jump\t// out\n        /* \"#utility.yul\":10447:10638   */\n    tag_87:\n        /* \"#utility.yul\":10487:10490   */\n      0x00\n        /* \"#utility.yul\":10506:10526   */\n      tag_240\n        /* \"#utility.yul\":10524:10525   */\n      dup3\n        /* \"#utility.yul\":10506:10526   */\n      tag_107\n      jump\t// in\n    tag_240:\n        /* \"#utility.yul\":10501:10526   */\n      swap2\n      pop\n        /* \"#utility.yul\":10540:10560   */\n      tag_241\n        /* \"#utility.yul\":10558:10559   */\n      dup4\n        /* \"#utility.yul\":10540:10560   */\n      tag_107\n      jump\t// in\n    tag_241:\n        /* \"#utility.yul\":10535:10560   */\n      swap3\n      pop\n        /* \"#utility.yul\":10583:10584   */\n      dup3\n        /* \"#utility.yul\":10580:10581   */\n      dup3\n        /* \"#utility.yul\":10576:10585   */\n      add\n        /* \"#utility.yul\":10569:10585   */\n      swap1\n      pop\n        /* \"#utility.yul\":10604:10607   */\n      dup1\n        /* \"#utility.yul\":10601:10602   */\n      dup3\n        /* \"#utility.yul\":10598:10608   */\n      gt\n        /* \"#utility.yul\":10595:10631   */\n      iszero\n      tag_242\n      jumpi\n        /* \"#utility.yul\":10611:10629   */\n      tag_243\n      tag_126\n      jump\t// in\n    tag_243:\n        /* \"#utility.yul\":10595:10631   */\n    tag_242:\n        /* \"#utility.yul\":10447:10638   */\n      swap3\n      swap2\n      pop\n      pop\n      jump\t// out\n\n    auxdata: 0xa2646970667358221220225b3a3469bc717c3af34be3506ffc7d2944dce2b5438c6b4d8877300a8846e864736f6c634300081e0033\n}\n",
				"bytecode": {
					"linkReferences": {},
					"object": "6080604052348015600e575f5ffd5b50335f5f6101000a81548173ffffffffffffffffffffffffffffffffffffffff021916908373ffffffffffffffffffffffffffffffffffffffff160217905550610c908061005b5f395ff3fe608060405234801561000f575f5ffd5b5060043610610060575f3560e01c806306fdde031461006457806318160ddd1461008257806370a08231146100a05780638da5cb5b146100d057806395d89b41146100ee578063cf6c62ea1461010c575b5f5ffd5b61006c61013c565b6040516100799190610758565b60405180910390f35b61008a610175565b6040516100979190610790565b60405180910390f35b6100ba60048036038101906100b59190610807565b61017b565b6040516100c79190610790565b60405180910390f35b6100d8610190565b6040516100e59190610841565b60405180910390f35b6100f66101b4565b6040516101039190610758565b60405180910390f35b61012660048036038101906101219190610884565b6101ed565b6040516101339190610790565b60405180910390f35b6040518060400160405280601081526020017f4172636869656c204c5020546f6b656e0000000000000000000000000000000081525081565b60015481565b6002602052805f5260405f205f915090505481565b5f5f9054906101000a900473ffffffffffffffffffffffffffffffffffffffff1681565b6040518060400160405280600781526020017f4152434c2d4c500000000000000000000000000000000000000000000000000081525081565b5f5f8590505f8590508173ffffffffffffffffffffffffffffffffffffffff166323b872dd3330886040518463ffffffff1660e01b8152600401610233939291906108e8565b6020604051808303815f875af115801561024f573d5f5f3e3d5ffd5b505050506040513d601f19601f820116820180604052508101906102739190610952565b6102b2576040517f08c379a00000000000000000000000000000000000000000000000000000000081526004016102a9906109c7565b60405180910390fd5b8073ffffffffffffffffffffffffffffffffffffffff166323b872dd3330876040518463ffffffff1660e01b81526004016102ef939291906108e8565b6020604051808303815f875af115801561030b573d5f5f3e3d5ffd5b505050506040513d601f19601f8201168201806040525081019061032f9190610952565b61036e576040517f08c379a000000000000000000000000000000000000000000000000000000000815260040161036590610a2f565b60405180910390fd5b5f600154036103925761038b84866103869190610a7a565b610585565b92506104dd565b5f858373ffffffffffffffffffffffffffffffffffffffff166370a08231306040518263ffffffff1660e01b81526004016103cd9190610841565b602060405180830381865afa1580156103e8573d5f5f3e3d5ffd5b505050506040513d601f19601f8201168201806040525081019061040c9190610acf565b6104169190610afa565b90505f858373ffffffffffffffffffffffffffffffffffffffff166370a08231306040518263ffffffff1660e01b81526004016104539190610841565b602060405180830381865afa15801561046e573d5f5f3e3d5ffd5b505050506040513d601f19601f820116820180604052508101906104929190610acf565b61049c9190610afa565b90506104d882600154896104b09190610a7a565b6104ba9190610b5a565b82600154896104c99190610a7a565b6104d39190610b5a565b6105fc565b945050505b5f831161051f576040517f08c379a000000000000000000000000000000000000000000000000000000000815260040161051690610bd4565b60405180910390fd5b6105293384610614565b3373ffffffffffffffffffffffffffffffffffffffff167fa74b54c06133e997406e0369608fb6a8fd1d17957751a6d2a6390ddff193876986868660405161057393929190610bf2565b60405180910390a25050949350505050565b5f60038211156105ea578190505f60016002846105a29190610b5a565b6105ac9190610c27565b90505b818110156105e45780915060028182856105c99190610b5a565b6105d39190610c27565b6105dd9190610b5a565b90506105af565b506105f7565b5f82146105f657600190505b5b919050565b5f81831061060a578161060c565b825b905092915050565b8060025f8473ffffffffffffffffffffffffffffffffffffffff1673ffffffffffffffffffffffffffffffffffffffff1681526020019081526020015f205f8282546106609190610c27565b925050819055508060015f8282546106789190610c27565b925050819055508173ffffffffffffffffffffffffffffffffffffffff165f73ffffffffffffffffffffffffffffffffffffffff167fddf252ad1be2c89b69c2b068fc378daa952ba7f163c4a11628f55a4df523b3ef836040516106dc9190610790565b60405180910390a35050565b5f81519050919050565b5f82825260208201905092915050565b8281835e5f83830152505050565b5f601f19601f8301169050919050565b5f61072a826106e8565b61073481856106f2565b9350610744818560208601610702565b61074d81610710565b840191505092915050565b5f6020820190508181035f8301526107708184610720565b905092915050565b5f819050919050565b61078a81610778565b82525050565b5f6020820190506107a35f830184610781565b92915050565b5f5ffd5b5f73ffffffffffffffffffffffffffffffffffffffff82169050919050565b5f6107d6826107ad565b9050919050565b6107e6816107cc565b81146107f0575f5ffd5b50565b5f81359050610801816107dd565b92915050565b5f6020828403121561081c5761081b6107a9565b5b5f610829848285016107f3565b91505092915050565b61083b816107cc565b82525050565b5f6020820190506108545f830184610832565b92915050565b61086381610778565b811461086d575f5ffd5b50565b5f8135905061087e8161085a565b92915050565b5f5f5f5f6080858703121561089c5761089b6107a9565b5b5f6108a9878288016107f3565b94505060206108ba878288016107f3565b93505060406108cb87828801610870565b92505060606108dc87828801610870565b91505092959194509250565b5f6060820190506108fb5f830186610832565b6109086020830185610832565b6109156040830184610781565b949350505050565b5f8115159050919050565b6109318161091d565b811461093b575f5ffd5b50565b5f8151905061094c81610928565b92915050565b5f60208284031215610967576109666107a9565b5b5f6109748482850161093e565b91505092915050565b7f5472616e73666572204120676167616c000000000000000000000000000000005f82015250565b5f6109b16010836106f2565b91506109bc8261097d565b602082019050919050565b5f6020820190508181035f8301526109de816109a5565b9050919050565b7f5472616e73666572204220676167616c000000000000000000000000000000005f82015250565b5f610a196010836106f2565b9150610a24826109e5565b602082019050919050565b5f6020820190508181035f830152610a4681610a0d565b9050919050565b7f4e487b71000000000000000000000000000000000000000000000000000000005f52601160045260245ffd5b5f610a8482610778565b9150610a8f83610778565b9250828202610a9d81610778565b91508282048414831517610ab457610ab3610a4d565b5b5092915050565b5f81519050610ac98161085a565b92915050565b5f60208284031215610ae457610ae36107a9565b5b5f610af184828501610abb565b91505092915050565b5f610b0482610778565b9150610b0f83610778565b9250828203905081811115610b2757610b26610a4d565b5b92915050565b7f4e487b71000000000000000000000000000000000000000000000000000000005f52601260045260245ffd5b5f610b6482610778565b9150610b6f83610778565b925082610b7f57610b7e610b2d565b5b828204905092915050565b7f536861726573207465726c616c752072656e64616800000000000000000000005f82015250565b5f610bbe6015836106f2565b9150610bc982610b8a565b602082019050919050565b5f6020820190508181035f830152610beb81610bb2565b9050919050565b5f606082019050610c055f830186610781565b610c126020830185610781565b610c1f6040830184610781565b949350505050565b5f610c3182610778565b9150610c3c83610778565b9250828201905080821115610c5457610c53610a4d565b5b9291505056fea2646970667358221220225b3a3469bc717c3af34be3506ffc7d2944dce2b5438c6b4d8877300a8846e864736f6c634300081e0033",
					"opcodes": "PUSH1 0x80 PUSH1 0x40 MSTORE CALLVALUE DUP1 ISZERO PUSH1 0xE JUMPI PUSH0 PUSH0 REVERT JUMPDEST POP CALLER PUSH0 PUSH0 PUSH2 0x100 EXP DUP2 SLOAD DUP2 PUSH20 0xFFFFFFFFFFFFFFFFFFFFFFFFFFFFFFFFFFFFFFFF MUL NOT AND SWAP1 DUP4 PUSH20 0xFFFFFFFFFFFFFFFFFFFFFFFFFFFFFFFFFFFFFFFF AND MUL OR SWAP1 SSTORE POP PUSH2 0xC90 DUP1 PUSH2 0x5B PUSH0 CODECOPY PUSH0 RETURN INVALID PUSH1 0x80 PUSH1 0x40 MSTORE CALLVALUE DUP1 ISZERO PUSH2 0xF JUMPI PUSH0 PUSH0 REVERT JUMPDEST POP PUSH1 0x4 CALLDATASIZE LT PUSH2 0x60 JUMPI PUSH0 CALLDATALOAD PUSH1 0xE0 SHR DUP1 PUSH4 0x6FDDE03 EQ PUSH2 0x64 JUMPI DUP1 PUSH4 0x18160DDD EQ PUSH2 0x82 JUMPI DUP1 PUSH4 0x70A08231 EQ PUSH2 0xA0 JUMPI DUP1 PUSH4 0x8DA5CB5B EQ PUSH2 0xD0 JUMPI DUP1 PUSH4 0x95D89B41 EQ PUSH2 0xEE JUMPI DUP1 PUSH4 0xCF6C62EA EQ PUSH2 0x10C JUMPI JUMPDEST PUSH0 PUSH0 REVERT JUMPDEST PUSH2 0x6C PUSH2 0x13C JUMP JUMPDEST PUSH1 0x40 MLOAD PUSH2 0x79 SWAP2 SWAP1 PUSH2 0x758 JUMP JUMPDEST PUSH1 0x40 MLOAD DUP1 SWAP2 SUB SWAP1 RETURN JUMPDEST PUSH2 0x8A PUSH2 0x175 JUMP JUMPDEST PUSH1 0x40 MLOAD PUSH2 0x97 SWAP2 SWAP1 PUSH2 0x790 JUMP JUMPDEST PUSH1 0x40 MLOAD DUP1 SWAP2 SUB SWAP1 RETURN JUMPDEST PUSH2 0xBA PUSH1 0x4 DUP1 CALLDATASIZE SUB DUP2 ADD SWAP1 PUSH2 0xB5 SWAP2 SWAP1 PUSH2 0x807 JUMP JUMPDEST PUSH2 0x17B JUMP JUMPDEST PUSH1 0x40 MLOAD PUSH2 0xC7 SWAP2 SWAP1 PUSH2 0x790 JUMP JUMPDEST PUSH1 0x40 MLOAD DUP1 SWAP2 SUB SWAP1 RETURN JUMPDEST PUSH2 0xD8 PUSH2 0x190 JUMP JUMPDEST PUSH1 0x40 MLOAD PUSH2 0xE5 SWAP2 SWAP1 PUSH2 0x841 JUMP JUMPDEST PUSH1 0x40 MLOAD DUP1 SWAP2 SUB SWAP1 RETURN JUMPDEST PUSH2 0xF6 PUSH2 0x1B4 JUMP JUMPDEST PUSH1 0x40 MLOAD PUSH2 0x103 SWAP2 SWAP1 PUSH2 0x758 JUMP JUMPDEST PUSH1 0x40 MLOAD DUP1 SWAP2 SUB SWAP1 RETURN JUMPDEST PUSH2 0x126 PUSH1 0x4 DUP1 CALLDATASIZE SUB DUP2 ADD SWAP1 PUSH2 0x121 SWAP2 SWAP1 PUSH2 0x884 JUMP JUMPDEST PUSH2 0x1ED JUMP JUMPDEST PUSH1 0x40 MLOAD PUSH2 0x133 SWAP2 SWAP1 PUSH2 0x790 JUMP JUMPDEST PUSH1 0x40 MLOAD DUP1 SWAP2 SUB SWAP1 RETURN JUMPDEST PUSH1 0x40 MLOAD DUP1 PUSH1 0x40 ADD PUSH1 0x40 MSTORE DUP1 PUSH1 0x10 DUP2 MSTORE PUSH1 0x20 ADD PUSH32 0x4172636869656C204C5020546F6B656E00000000000000000000000000000000 DUP2 MSTORE POP DUP2 JUMP JUMPDEST PUSH1 0x1 SLOAD DUP2 JUMP JUMPDEST PUSH1 0x2 PUSH1 0x20 MSTORE DUP1 PUSH0 MSTORE PUSH1 0x40 PUSH0 KECCAK256 PUSH0 SWAP2 POP SWAP1 POP SLOAD DUP2 JUMP JUMPDEST PUSH0 PUSH0 SWAP1 SLOAD SWAP1 PUSH2 0x100 EXP SWAP1 DIV PUSH20 0xFFFFFFFFFFFFFFFFFFFFFFFFFFFFFFFFFFFFFFFF AND DUP2 JUMP JUMPDEST PUSH1 0x40 MLOAD DUP1 PUSH1 0x40 ADD PUSH1 0x40 MSTORE DUP1 PUSH1 0x7 DUP2 MSTORE PUSH1 0x20 ADD PUSH32 0x4152434C2D4C5000000000000000000000000000000000000000000000000000 DUP2 MSTORE POP DUP2 JUMP JUMPDEST PUSH0 PUSH0 DUP6 SWAP1 POP PUSH0 DUP6 SWAP1 POP DUP2 PUSH20 0xFFFFFFFFFFFFFFFFFFFFFFFFFFFFFFFFFFFFFFFF AND PUSH4 0x23B872DD CALLER ADDRESS DUP9 PUSH1 0x40 MLOAD DUP5 PUSH4 0xFFFFFFFF AND PUSH1 0xE0 SHL DUP2 MSTORE PUSH1 0x4 ADD PUSH2 0x233 SWAP4 SWAP3 SWAP2 SWAP1 PUSH2 0x8E8 JUMP JUMPDEST PUSH1 0x20 PUSH1 0x40 MLOAD DUP1 DUP4 SUB DUP2 PUSH0 DUP8 GAS CALL ISZERO DUP1 ISZERO PUSH2 0x24F JUMPI RETURNDATASIZE PUSH0 PUSH0 RETURNDATACOPY RETURNDATASIZE PUSH0 REVERT JUMPDEST POP POP POP POP PUSH1 0x40 MLOAD RETURNDATASIZE PUSH1 0x1F NOT PUSH1 0x1F DUP3 ADD AND DUP3 ADD DUP1 PUSH1 0x40 MSTORE POP DUP2 ADD SWAP1 PUSH2 0x273 SWAP2 SWAP1 PUSH2 0x952 JUMP JUMPDEST PUSH2 0x2B2 JUMPI PUSH1 0x40 MLOAD PUSH32 0x8C379A000000000000000000000000000000000000000000000000000000000 DUP2 MSTORE PUSH1 0x4 ADD PUSH2 0x2A9 SWAP1 PUSH2 0x9C7 JUMP JUMPDEST PUSH1 0x40 MLOAD DUP1 SWAP2 SUB SWAP1 REVERT JUMPDEST DUP1 PUSH20 0xFFFFFFFFFFFFFFFFFFFFFFFFFFFFFFFFFFFFFFFF AND PUSH4 0x23B872DD CALLER ADDRESS DUP8 PUSH1 0x40 MLOAD DUP5 PUSH4 0xFFFFFFFF AND PUSH1 0xE0 SHL DUP2 MSTORE PUSH1 0x4 ADD PUSH2 0x2EF SWAP4 SWAP3 SWAP2 SWAP1 PUSH2 0x8E8 JUMP JUMPDEST PUSH1 0x20 PUSH1 0x40 MLOAD DUP1 DUP4 SUB DUP2 PUSH0 DUP8 GAS CALL ISZERO DUP1 ISZERO PUSH2 0x30B JUMPI RETURNDATASIZE PUSH0 PUSH0 RETURNDATACOPY RETURNDATASIZE PUSH0 REVERT JUMPDEST POP POP POP POP PUSH1 0x40 MLOAD RETURNDATASIZE PUSH1 0x1F NOT PUSH1 0x1F DUP3 ADD AND DUP3 ADD DUP1 PUSH1 0x40 MSTORE POP DUP2 ADD SWAP1 PUSH2 0x32F SWAP2 SWAP1 PUSH2 0x952 JUMP JUMPDEST PUSH2 0x36E JUMPI PUSH1 0x40 MLOAD PUSH32 0x8C379A000000000000000000000000000000000000000000000000000000000 DUP2 MSTORE PUSH1 0x4 ADD PUSH2 0x365 SWAP1 PUSH2 0xA2F JUMP JUMPDEST PUSH1 0x40 MLOAD DUP1 SWAP2 SUB SWAP1 REVERT JUMPDEST PUSH0 PUSH1 0x1 SLOAD SUB PUSH2 0x392 JUMPI PUSH2 0x38B DUP5 DUP7 PUSH2 0x386 SWAP2 SWAP1 PUSH2 0xA7A JUMP JUMPDEST PUSH2 0x585 JUMP JUMPDEST SWAP3 POP PUSH2 0x4DD JUMP JUMPDEST PUSH0 DUP6 DUP4 PUSH20 0xFFFFFFFFFFFFFFFFFFFFFFFFFFFFFFFFFFFFFFFF AND PUSH4 0x70A08231 ADDRESS PUSH1 0x40 MLOAD DUP3 PUSH4 0xFFFFFFFF AND PUSH1 0xE0 SHL DUP2 MSTORE PUSH1 0x4 ADD PUSH2 0x3CD SWAP2 SWAP1 PUSH2 0x841 JUMP JUMPDEST PUSH1 0x20 PUSH1 0x40 MLOAD DUP1 DUP4 SUB DUP2 DUP7 GAS STATICCALL ISZERO DUP1 ISZERO PUSH2 0x3E8 JUMPI RETURNDATASIZE PUSH0 PUSH0 RETURNDATACOPY RETURNDATASIZE PUSH0 REVERT JUMPDEST POP POP POP POP PUSH1 0x40 MLOAD RETURNDATASIZE PUSH1 0x1F NOT PUSH1 0x1F DUP3 ADD AND DUP3 ADD DUP1 PUSH1 0x40 MSTORE POP DUP2 ADD SWAP1 PUSH2 0x40C SWAP2 SWAP1 PUSH2 0xACF JUMP JUMPDEST PUSH2 0x416 SWAP2 SWAP1 PUSH2 0xAFA JUMP JUMPDEST SWAP1 POP PUSH0 DUP6 DUP4 PUSH20 0xFFFFFFFFFFFFFFFFFFFFFFFFFFFFFFFFFFFFFFFF AND PUSH4 0x70A08231 ADDRESS PUSH1 0x40 MLOAD DUP3 PUSH4 0xFFFFFFFF AND PUSH1 0xE0 SHL DUP2 MSTORE PUSH1 0x4 ADD PUSH2 0x453 SWAP2 SWAP1 PUSH2 0x841 JUMP JUMPDEST PUSH1 0x20 PUSH1 0x40 MLOAD DUP1 DUP4 SUB DUP2 DUP7 GAS STATICCALL ISZERO DUP1 ISZERO PUSH2 0x46E JUMPI RETURNDATASIZE PUSH0 PUSH0 RETURNDATACOPY RETURNDATASIZE PUSH0 REVERT JUMPDEST POP POP POP POP PUSH1 0x40 MLOAD RETURNDATASIZE PUSH1 0x1F NOT PUSH1 0x1F DUP3 ADD AND DUP3 ADD DUP1 PUSH1 0x40 MSTORE POP DUP2 ADD SWAP1 PUSH2 0x492 SWAP2 SWAP1 PUSH2 0xACF JUMP JUMPDEST PUSH2 0x49C SWAP2 SWAP1 PUSH2 0xAFA JUMP JUMPDEST SWAP1 POP PUSH2 0x4D8 DUP3 PUSH1 0x1 SLOAD DUP10 PUSH2 0x4B0 SWAP2 SWAP1 PUSH2 0xA7A JUMP JUMPDEST PUSH2 0x4BA SWAP2 SWAP1 PUSH2 0xB5A JUMP JUMPDEST DUP3 PUSH1 0x1 SLOAD DUP10 PUSH2 0x4C9 SWAP2 SWAP1 PUSH2 0xA7A JUMP JUMPDEST PUSH2 0x4D3 SWAP2 SWAP1 PUSH2 0xB5A JUMP JUMPDEST PUSH2 0x5FC JUMP JUMPDEST SWAP5 POP POP POP JUMPDEST PUSH0 DUP4 GT PUSH2 0x51F JUMPI PUSH1 0x40 MLOAD PUSH32 0x8C379A000000000000000000000000000000000000000000000000000000000 DUP2 MSTORE PUSH1 0x4 ADD PUSH2 0x516 SWAP1 PUSH2 0xBD4 JUMP JUMPDEST PUSH1 0x40 MLOAD DUP1 SWAP2 SUB SWAP1 REVERT JUMPDEST PUSH2 0x529 CALLER DUP5 PUSH2 0x614 JUMP JUMPDEST CALLER PUSH20 0xFFFFFFFFFFFFFFFFFFFFFFFFFFFFFFFFFFFFFFFF AND PUSH32 0xA74B54C06133E997406E0369608FB6A8FD1D17957751A6D2A6390DDFF1938769 DUP7 DUP7 DUP7 PUSH1 0x40 MLOAD PUSH2 0x573 SWAP4 SWAP3 SWAP2 SWAP1 PUSH2 0xBF2 JUMP JUMPDEST PUSH1 0x40 MLOAD DUP1 SWAP2 SUB SWAP1 LOG2 POP POP SWAP5 SWAP4 POP POP POP POP JUMP JUMPDEST PUSH0 PUSH1 0x3 DUP3 GT ISZERO PUSH2 0x5EA JUMPI DUP2 SWAP1 POP PUSH0 PUSH1 0x1 PUSH1 0x2 DUP5 PUSH2 0x5A2 SWAP2 SWAP1 PUSH2 0xB5A JUMP JUMPDEST PUSH2 0x5AC SWAP2 SWAP1 PUSH2 0xC27 JUMP JUMPDEST SWAP1 POP JUMPDEST DUP2 DUP2 LT ISZERO PUSH2 0x5E4 JUMPI DUP1 SWAP2 POP PUSH1 0x2 DUP2 DUP3 DUP6 PUSH2 0x5C9 SWAP2 SWAP1 PUSH2 0xB5A JUMP JUMPDEST PUSH2 0x5D3 SWAP2 SWAP1 PUSH2 0xC27 JUMP JUMPDEST PUSH2 0x5DD SWAP2 SWAP1 PUSH2 0xB5A JUMP JUMPDEST SWAP1 POP PUSH2 0x5AF JUMP JUMPDEST POP PUSH2 0x5F7 JUMP JUMPDEST PUSH0 DUP3 EQ PUSH2 0x5F6 JUMPI PUSH1 0x1 SWAP1 POP JUMPDEST JUMPDEST SWAP2 SWAP1 POP JUMP JUMPDEST PUSH0 DUP2 DUP4 LT PUSH2 0x60A JUMPI DUP2 PUSH2 0x60C JUMP JUMPDEST DUP3 JUMPDEST SWAP1 POP SWAP3 SWAP2 POP POP JUMP JUMPDEST DUP1 PUSH1 0x2 PUSH0 DUP5 PUSH20 0xFFFFFFFFFFFFFFFFFFFFFFFFFFFFFFFFFFFFFFFF AND PUSH20 0xFFFFFFFFFFFFFFFFFFFFFFFFFFFFFFFFFFFFFFFF AND DUP2 MSTORE PUSH1 0x20 ADD SWAP1 DUP2 MSTORE PUSH1 0x20 ADD PUSH0 KECCAK256 PUSH0 DUP3 DUP3 SLOAD PUSH2 0x660 SWAP2 SWAP1 PUSH2 0xC27 JUMP JUMPDEST SWAP3 POP POP DUP2 SWAP1 SSTORE POP DUP1 PUSH1 0x1 PUSH0 DUP3 DUP3 SLOAD PUSH2 0x678 SWAP2 SWAP1 PUSH2 0xC27 JUMP JUMPDEST SWAP3 POP POP DUP2 SWAP1 SSTORE POP DUP2 PUSH20 0xFFFFFFFFFFFFFFFFFFFFFFFFFFFFFFFFFFFFFFFF AND PUSH0 PUSH20 0xFFFFFFFFFFFFFFFFFFFFFFFFFFFFFFFFFFFFFFFF AND PUSH32 0xDDF252AD1BE2C89B69C2B068FC378DAA952BA7F163C4A11628F55A4DF523B3EF DUP4 PUSH1 0x40 MLOAD PUSH2 0x6DC SWAP2 SWAP1 PUSH2 0x790 JUMP JUMPDEST PUSH1 0x40 MLOAD DUP1 SWAP2 SUB SWAP1 LOG3 POP POP JUMP JUMPDEST PUSH0 DUP2 MLOAD SWAP1 POP SWAP2 SWAP1 POP JUMP JUMPDEST PUSH0 DUP3 DUP3 MSTORE PUSH1 0x20 DUP3 ADD SWAP1 POP SWAP3 SWAP2 POP POP JUMP JUMPDEST DUP3 DUP2 DUP4 MCOPY PUSH0 DUP4 DUP4 ADD MSTORE POP POP POP JUMP JUMPDEST PUSH0 PUSH1 0x1F NOT PUSH1 0x1F DUP4 ADD AND SWAP1 POP SWAP2 SWAP1 POP JUMP JUMPDEST PUSH0 PUSH2 0x72A DUP3 PUSH2 0x6E8 JUMP JUMPDEST PUSH2 0x734 DUP2 DUP6 PUSH2 0x6F2 JUMP JUMPDEST SWAP4 POP PUSH2 0x744 DUP2 DUP6 PUSH1 0x20 DUP7 ADD PUSH2 0x702 JUMP JUMPDEST PUSH2 0x74D DUP2 PUSH2 0x710 JUMP JUMPDEST DUP5 ADD SWAP2 POP POP SWAP3 SWAP2 POP POP JUMP JUMPDEST PUSH0 PUSH1 0x20 DUP3 ADD SWAP1 POP DUP2 DUP2 SUB PUSH0 DUP4 ADD MSTORE PUSH2 0x770 DUP2 DUP5 PUSH2 0x720 JUMP JUMPDEST SWAP1 POP SWAP3 SWAP2 POP POP JUMP JUMPDEST PUSH0 DUP2 SWAP1 POP SWAP2 SWAP1 POP JUMP JUMPDEST PUSH2 0x78A DUP2 PUSH2 0x778 JUMP JUMPDEST DUP3 MSTORE POP POP JUMP JUMPDEST PUSH0 PUSH1 0x20 DUP3 ADD SWAP1 POP PUSH2 0x7A3 PUSH0 DUP4 ADD DUP5 PUSH2 0x781 JUMP JUMPDEST SWAP3 SWAP2 POP POP JUMP JUMPDEST PUSH0 PUSH0 REVERT JUMPDEST PUSH0 PUSH20 0xFFFFFFFFFFFFFFFFFFFFFFFFFFFFFFFFFFFFFFFF DUP3 AND SWAP1 POP SWAP2 SWAP1 POP JUMP JUMPDEST PUSH0 PUSH2 0x7D6 DUP3 PUSH2 0x7AD JUMP JUMPDEST SWAP1 POP SWAP2 SWAP1 POP JUMP JUMPDEST PUSH2 0x7E6 DUP2 PUSH2 0x7CC JUMP JUMPDEST DUP2 EQ PUSH2 0x7F0 JUMPI PUSH0 PUSH0 REVERT JUMPDEST POP JUMP JUMPDEST PUSH0 DUP2 CALLDATALOAD SWAP1 POP PUSH2 0x801 DUP2 PUSH2 0x7DD JUMP JUMPDEST SWAP3 SWAP2 POP POP JUMP JUMPDEST PUSH0 PUSH1 0x20 DUP3 DUP5 SUB SLT ISZERO PUSH2 0x81C JUMPI PUSH2 0x81B PUSH2 0x7A9 JUMP JUMPDEST JUMPDEST PUSH0 PUSH2 0x829 DUP5 DUP3 DUP6 ADD PUSH2 0x7F3 JUMP JUMPDEST SWAP2 POP POP SWAP3 SWAP2 POP POP JUMP JUMPDEST PUSH2 0x83B DUP2 PUSH2 0x7CC JUMP JUMPDEST DUP3 MSTORE POP POP JUMP JUMPDEST PUSH0 PUSH1 0x20 DUP3 ADD SWAP1 POP PUSH2 0x854 PUSH0 DUP4 ADD DUP5 PUSH2 0x832 JUMP JUMPDEST SWAP3 SWAP2 POP POP JUMP JUMPDEST PUSH2 0x863 DUP2 PUSH2 0x778 JUMP JUMPDEST DUP2 EQ PUSH2 0x86D JUMPI PUSH0 PUSH0 REVERT JUMPDEST POP JUMP JUMPDEST PUSH0 DUP2 CALLDATALOAD SWAP1 POP PUSH2 0x87E DUP2 PUSH2 0x85A JUMP JUMPDEST SWAP3 SWAP2 POP POP JUMP JUMPDEST PUSH0 PUSH0 PUSH0 PUSH0 PUSH1 0x80 DUP6 DUP8 SUB SLT ISZERO PUSH2 0x89C JUMPI PUSH2 0x89B PUSH2 0x7A9 JUMP JUMPDEST JUMPDEST PUSH0 PUSH2 0x8A9 DUP8 DUP3 DUP9 ADD PUSH2 0x7F3 JUMP JUMPDEST SWAP5 POP POP PUSH1 0x20 PUSH2 0x8BA DUP8 DUP3 DUP9 ADD PUSH2 0x7F3 JUMP JUMPDEST SWAP4 POP POP PUSH1 0x40 PUSH2 0x8CB DUP8 DUP3 DUP9 ADD PUSH2 0x870 JUMP JUMPDEST SWAP3 POP POP PUSH1 0x60 PUSH2 0x8DC DUP8 DUP3 DUP9 ADD PUSH2 0x870 JUMP JUMPDEST SWAP2 POP POP SWAP3 SWAP6 SWAP2 SWAP5 POP SWAP3 POP JUMP JUMPDEST PUSH0 PUSH1 0x60 DUP3 ADD SWAP1 POP PUSH2 0x8FB PUSH0 DUP4 ADD DUP7 PUSH2 0x832 JUMP JUMPDEST PUSH2 0x908 PUSH1 0x20 DUP4 ADD DUP6 PUSH2 0x832 JUMP JUMPDEST PUSH2 0x915 PUSH1 0x40 DUP4 ADD DUP5 PUSH2 0x781 JUMP JUMPDEST SWAP5 SWAP4 POP POP POP POP JUMP JUMPDEST PUSH0 DUP2 ISZERO ISZERO SWAP1 POP SWAP2 SWAP1 POP JUMP JUMPDEST PUSH2 0x931 DUP2 PUSH2 0x91D JUMP JUMPDEST DUP2 EQ PUSH2 0x93B JUMPI PUSH0 PUSH0 REVERT JUMPDEST POP JUMP JUMPDEST PUSH0 DUP2 MLOAD SWAP1 POP PUSH2 0x94C DUP2 PUSH2 0x928 JUMP JUMPDEST SWAP3 SWAP2 POP POP JUMP JUMPDEST PUSH0 PUSH1 0x20 DUP3 DUP5 SUB SLT ISZERO PUSH2 0x967 JUMPI PUSH2 0x966 PUSH2 0x7A9 JUMP JUMPDEST JUMPDEST PUSH0 PUSH2 0x974 DUP5 DUP3 DUP6 ADD PUSH2 0x93E JUMP JUMPDEST SWAP2 POP POP SWAP3 SWAP2 POP POP JUMP JUMPDEST PUSH32 0x5472616E73666572204120676167616C00000000000000000000000000000000 PUSH0 DUP3 ADD MSTORE POP JUMP JUMPDEST PUSH0 PUSH2 0x9B1 PUSH1 0x10 DUP4 PUSH2 0x6F2 JUMP JUMPDEST SWAP2 POP PUSH2 0x9BC DUP3 PUSH2 0x97D JUMP JUMPDEST PUSH1 0x20 DUP3 ADD SWAP1 POP SWAP2 SWAP1 POP JUMP JUMPDEST PUSH0 PUSH1 0x20 DUP3 ADD SWAP1 POP DUP2 DUP2 SUB PUSH0 DUP4 ADD MSTORE PUSH2 0x9DE DUP2 PUSH2 0x9A5 JUMP JUMPDEST SWAP1 POP SWAP2 SWAP1 POP JUMP JUMPDEST PUSH32 0x5472616E73666572204220676167616C00000000000000000000000000000000 PUSH0 DUP3 ADD MSTORE POP JUMP JUMPDEST PUSH0 PUSH2 0xA19 PUSH1 0x10 DUP4 PUSH2 0x6F2 JUMP JUMPDEST SWAP2 POP PUSH2 0xA24 DUP3 PUSH2 0x9E5 JUMP JUMPDEST PUSH1 0x20 DUP3 ADD SWAP1 POP SWAP2 SWAP1 POP JUMP JUMPDEST PUSH0 PUSH1 0x20 DUP3 ADD SWAP1 POP DUP2 DUP2 SUB PUSH0 DUP4 ADD MSTORE PUSH2 0xA46 DUP2 PUSH2 0xA0D JUMP JUMPDEST SWAP1 POP SWAP2 SWAP1 POP JUMP JUMPDEST PUSH32 0x4E487B7100000000000000000000000000000000000000000000000000000000 PUSH0 MSTORE PUSH1 0x11 PUSH1 0x4 MSTORE PUSH1 0x24 PUSH0 REVERT JUMPDEST PUSH0 PUSH2 0xA84 DUP3 PUSH2 0x778 JUMP JUMPDEST SWAP2 POP PUSH2 0xA8F DUP4 PUSH2 0x778 JUMP JUMPDEST SWAP3 POP DUP3 DUP3 MUL PUSH2 0xA9D DUP2 PUSH2 0x778 JUMP JUMPDEST SWAP2 POP DUP3 DUP3 DIV DUP5 EQ DUP4 ISZERO OR PUSH2 0xAB4 JUMPI PUSH2 0xAB3 PUSH2 0xA4D JUMP JUMPDEST JUMPDEST POP SWAP3 SWAP2 POP POP JUMP JUMPDEST PUSH0 DUP2 MLOAD SWAP1 POP PUSH2 0xAC9 DUP2 PUSH2 0x85A JUMP JUMPDEST SWAP3 SWAP2 POP POP JUMP JUMPDEST PUSH0 PUSH1 0x20 DUP3 DUP5 SUB SLT ISZERO PUSH2 0xAE4 JUMPI PUSH2 0xAE3 PUSH2 0x7A9 JUMP JUMPDEST JUMPDEST PUSH0 PUSH2 0xAF1 DUP5 DUP3 DUP6 ADD PUSH2 0xABB JUMP JUMPDEST SWAP2 POP POP SWAP3 SWAP2 POP POP JUMP JUMPDEST PUSH0 PUSH2 0xB04 DUP3 PUSH2 0x778 JUMP JUMPDEST SWAP2 POP PUSH2 0xB0F DUP4 PUSH2 0x778 JUMP JUMPDEST SWAP3 POP DUP3 DUP3 SUB SWAP1 POP DUP2 DUP2 GT ISZERO PUSH2 0xB27 JUMPI PUSH2 0xB26 PUSH2 0xA4D JUMP JUMPDEST JUMPDEST SWAP3 SWAP2 POP POP JUMP JUMPDEST PUSH32 0x4E487B7100000000000000000000000000000000000000000000000000000000 PUSH0 MSTORE PUSH1 0x12 PUSH1 0x4 MSTORE PUSH1 0x24 PUSH0 REVERT JUMPDEST PUSH0 PUSH2 0xB64 DUP3 PUSH2 0x778 JUMP JUMPDEST SWAP2 POP PUSH2 0xB6F DUP4 PUSH2 0x778 JUMP JUMPDEST SWAP3 POP DUP3 PUSH2 0xB7F JUMPI PUSH2 0xB7E PUSH2 0xB2D JUMP JUMPDEST JUMPDEST DUP3 DUP3 DIV SWAP1 POP SWAP3 SWAP2 POP POP JUMP JUMPDEST PUSH32 0x536861726573207465726C616C752072656E6461680000000000000000000000 PUSH0 DUP3 ADD MSTORE POP JUMP JUMPDEST PUSH0 PUSH2 0xBBE PUSH1 0x15 DUP4 PUSH2 0x6F2 JUMP JUMPDEST SWAP2 POP PUSH2 0xBC9 DUP3 PUSH2 0xB8A JUMP JUMPDEST PUSH1 0x20 DUP3 ADD SWAP1 POP SWAP2 SWAP1 POP JUMP JUMPDEST PUSH0 PUSH1 0x20 DUP3 ADD SWAP1 POP DUP2 DUP2 SUB PUSH0 DUP4 ADD MSTORE PUSH2 0xBEB DUP2 PUSH2 0xBB2 JUMP JUMPDEST SWAP1 POP SWAP2 SWAP1 POP JUMP JUMPDEST PUSH0 PUSH1 0x60 DUP3 ADD SWAP1 POP PUSH2 0xC05 PUSH0 DUP4 ADD DUP7 PUSH2 0x781 JUMP JUMPDEST PUSH2 0xC12 PUSH1 0x20 DUP4 ADD DUP6 PUSH2 0x781 JUMP JUMPDEST PUSH2 0xC1F PUSH1 0x40 DUP4 ADD DUP5 PUSH2 0x781 JUMP JUMPDEST SWAP5 SWAP4 POP POP POP POP JUMP JUMPDEST PUSH0 PUSH2 0xC31 DUP3 PUSH2 0x778 JUMP JUMPDEST SWAP2 POP PUSH2 0xC3C DUP4 PUSH2 0x778 JUMP JUMPDEST SWAP3 POP DUP3 DUP3 ADD SWAP1 POP DUP1 DUP3 GT ISZERO PUSH2 0xC54 JUMPI PUSH2 0xC53 PUSH2 0xA4D JUMP JUMPDEST JUMPDEST SWAP3 SWAP2 POP POP JUMP INVALID LOG2 PUSH5 0x6970667358 0x22 SLT KECCAK256 0x22 JUMPDEST GASPRICE CALLVALUE PUSH10 0xBC717C3AF34BE3506FFC PUSH30 0x2944DCE2B5438C6B4D8877300A8846E864736F6C634300081E0033000000 "
				},
				"gasEstimates": {
					"creation": {
						"codeDepositCost": "643200",
						"executionCost": "24938",
						"totalCost": "668138"
					},
					"external": {
						"addLiquidity(address,address,uint256,uint256)": "infinite",
						"balanceOf(address)": "2824",
						"name()": "infinite",
						"owner()": "2551",
						"symbol()": "infinite",
						"totalSupply()": "2425"
					},
					"internal": {
						"_min(uint256,uint256)": "63",
						"_mint(address,uint256)": "infinite",
						"_sqrt(uint256)": "infinite"
					}
				},
				"methodIdentifiers": {
					"addLiquidity(address,address,uint256,uint256)": "cf6c62ea",
					"balanceOf(address)": "70a08231",
					"name()": "06fdde03",
					"owner()": "8da5cb5b",
					"symbol()": "95d89b41",
					"totalSupply()": "18160ddd"
				}
			},
			"storageLayout": {
				"storage": [
					{
						"astId": 31,
						"contract": "ArchielSwapPool.sol:ArchielSwapPool",
						"label": "owner",
						"offset": 0,
						"slot": "0",
						"type": "t_address"
					},
					{
						"astId": 39,
						"contract": "ArchielSwapPool.sol:ArchielSwapPool",
						"label": "totalSupply",
						"offset": 0,
						"slot": "1",
						"type": "t_uint256"
					},
					{
						"astId": 43,
						"contract": "ArchielSwapPool.sol:ArchielSwapPool",
						"label": "balanceOf",
						"offset": 0,
						"slot": "2",
						"type": "t_mapping(t_address,t_uint256)"
					}
				],
				"types": {
					"t_address": {
						"encoding": "inplace",
						"label": "address",
						"numberOfBytes": "20"
					},
					"t_mapping(t_address,t_uint256)": {
						"encoding": "mapping",
						"key": "t_address",
						"label": "mapping(address => uint256)",
						"numberOfBytes": "32",
						"value": "t_uint256"
					},
					"t_uint256": {
						"encoding": "inplace",
						"label": "uint256",
						"numberOfBytes": "32"
					}
				}
			},
			"userdoc": {
				"kind": "user",
				"methods": {},
				"version": 1
			}
		}
	}
}