{
	"RegarSwapPool.sol": {
		"RegarSwapPool": {
			"abi": [
				{
					"inputs": [],
					"stateMutability": "nonpayable",
					"type": "constructor"
				},
				{
					"anonymous": false,
					"inputs": [
						{
							"indexed": true,
							"internalType": "address",
							"name": "provider",
							"type": "address"
						},
						{
							"indexed": false,
							"internalType": "uint256",
							"name": "amountA",
							"type": "uint256"
						},
						{
							"indexed": false,
							"internalType": "uint256",
							"name": "amountB",
							"type": "uint256"
						},
						{
							"indexed": false,
							"internalType": "uint256",
							"name": "shares",
							"type": "uint256"
						}
					],
					"name": "LiquidityDeposited",
					"type": "event"
				},
				{
					"anonymous": false,
					"inputs": [
						{
							"indexed": true,
							"internalType": "address",
							"name": "recipient",
							"type": "address"
						},
						{
							"indexed": false,
							"internalType": "uint256",
							"name": "amountA",
							"type": "uint256"
						},
						{
							"indexed": false,
							"internalType": "uint256",
							"name": "amountB",
							"type": "uint256"
						},
						{
							"indexed": false,
							"internalType": "uint256",
							"name": "shares",
							"type": "uint256"
						}
					],
					"name": "LiquidityWithdrawn",
					"type": "event"
				},
				{
					"anonymous": false,
					"inputs": [
						{
							"indexed": true,
							"internalType": "address",
							"name": "user",
							"type": "address"
						},
						{
							"indexed": true,
							"internalType": "address",
							"name": "tokenIn",
							"type": "address"
						},
						{
							"indexed": true,
							"internalType": "address",
							"name": "tokenOut",
							"type": "address"
						},
						{
							"indexed": false,
							"internalType": "uint256",
							"name": "amountIn",
							"type": "uint256"
						},
						{
							"indexed": false,
							"internalType": "uint256",
							"name": "amountOut",
							"type": "uint256"
						}
					],
					"name": "SwapExecuted",
					"type": "event"
				},
				{
					"anonymous": false,
					"inputs": [
						{
							"indexed": true,
							"internalType": "address",
							"name": "from",
							"type": "address"
						},
						{
							"indexed": true,
							"internalType": "address",
							"name": "to",
							"type": "address"
						},
						{
							"indexed": false,
							"internalType": "uint256",
							"name": "value",
							"type": "uint256"
						}
					],
					"name": "Transfer",
					"type": "event"
				},
				{
					"inputs": [
						{
							"internalType": "address",
							"name": "_tokenA",
							"type": "address"
						},
						{
							"internalType": "address",
							"name": "_tokenB",
							"type": "address"
						},
						{
							"internalType": "uint256",
							"name": "_amountADesired",
							"type": "uint256"
						},
						{
							"internalType": "uint256",
							"name": "_amountBDesired",
							"type": "uint256"
						}
					],
					"name": "addLiquidity",
					"outputs": [
						{
							"internalType": "uint256",
							"name": "shares",
							"type": "uint256"
						}
					],
					"stateMutability": "nonpayable",
					"type": "function"
				},
				{
					"inputs": [
						{
							"internalType": "address",
							"name": "",
							"type": "address"
						}
					],
					"name": "balanceOf",
					"outputs": [
						{
							"internalType": "uint256",
							"name": "",
							"type": "uint256"
						}
					],
					"stateMutability": "view",
					"type": "function"
				},
				{
					"inputs": [
						{
							"internalType": "address",
							"name": "_tokenIn",
							"type": "address"
						},
						{
							"internalType": "address",
							"name": "_tokenOut",
							"type": "address"
						},
						{
							"internalType": "uint256",
							"name": "_amountIn",
							"type": "uint256"
						},
						{
							"internalType": "uint256",
							"name": "_amountOut",
							"type": "uint256"
						}
					],
					"name": "executeSwap",
					"outputs": [],
					"stateMutability": "nonpayable",
					"type": "function"
				},
				{
					"inputs": [],
					"name": "name",
					"outputs": [
						{
							"internalType": "string",
							"name": "",
							"type": "string"
						}
					],
					"stateMutability": "view",
					"type": "function"
				},
				{
					"inputs": [],
					"name": "owner",
					"outputs": [
						{
							"internalType": "address",
							"name": "",
							"type": "address"
						}
					],
					"stateMutability": "view",
					"type": "function"
				},
				{
					"inputs": [
						{
							"internalType": "address",
							"name": "_tokenA",
							"type": "address"
						},
						{
							"internalType": "address",
							"name": "_tokenB",
							"type": "address"
						},
						{
							"internalType": "uint256",
							"name": "_shares",
							"type": "uint256"
						}
					],
					"name": "removeLiquidity",
					"outputs": [
						{
							"internalType": "uint256",
							"name": "amountA",
							"type": "uint256"
						},
						{
							"internalType": "uint256",
							"name": "amountB",
							"type": "uint256"
						}
					],
					"stateMutability": "nonpayable",
					"type": "function"
				},
				{
					"inputs": [],
					"name": "symbol",
					"outputs": [
						{
							"internalType": "string",
							"name": "",
							"type": "string"
						}
					],
					"stateMutability": "view",
					"type": "function"
				},
				{
					"inputs": [],
					"name": "totalSupply",
					"outputs": [
						{
							"internalType": "uint256",
							"name": "",
							"type": "uint256"
						}
					],
					"stateMutability": "view",
					"type": "function"
				},
				{
					"inputs": [
						{
							"internalType": "address",
							"name": "_token",
							"type": "address"
						},
						{
							"internalType": "uint256",
							"name": "_amount",
							"type": "uint256"
						}
					],
					"name": "withdrawToken",
					"outputs": [],
					"stateMutability": "nonpayable",
					"type": "function"
				}
			],
			"devdoc": {
				"details": "A liquidity pool contract enabling automated token swaps, liquidity provision, and share tracking.",
				"kind": "dev",
				"methods": {
					"addLiquidity(address,address,uint256,uint256)": {
						"details": "Allows users to add liquidity to the pool.  Computes optimal share allocation based on Constant Product invariant mechanisms."
					},
					"executeSwap(address,address,uint256,uint256)": {
						"details": "Executes a peer-to-contract swap between two ERC20 tokens."
					},
					"removeLiquidity(address,address,uint256)": {
						"details": "Removes liquidity from the pool by burning the specified LP shares. Reclaims original token values proportionally to the sender address."
					},
					"withdrawToken(address,uint256)": {
						"details": "Emergency recovery routine allowing the platform owner to safely sweep pool components."
					}
				},
				"title": "RegarSwapPool",
				"version": 1
			},
			"evm": {
				"assembly": "    /* \"RegarSwapPool.sol\":525:7434  contract RegarSwapPool {... */\n  mstore(0x40, 0x80)\n    /* \"RegarSwapPool.sol\":1631:1680  constructor() {... */\n  callvalue\n  dup1\n  iszero\n  tag_1\n  jumpi\n  revert(0x00, 0x00)\ntag_1:\n  pop\n    /* \"RegarSwapPool.sol\":1663:1673  msg.sender */\n  caller\n    /* \"RegarSwapPool.sol\":1655:1660  owner */\n  0x00\n  0x00\n    /* \"RegarSwapPool.sol\":1655:1673  owner = msg.sender */\n  0x0100\n  exp\n  dup2\n  sload\n  dup2\n  0xffffffffffffffffffffffffffffffffffffffff\n  mul\n  not\n  and\n  swap1\n  dup4\n  0xffffffffffffffffffffffffffffffffffffffff\n  and\n  mul\n  or\n  swap1\n  sstore\n  pop\n    /* \"RegarSwapPool.sol\":525:7434  contract RegarSwapPool {... */\n  dataSize(sub_0)\n  dup1\n  dataOffset(sub_0)\n  0x00\n  codecopy\n  0x00\n  return\nstop\n\nsub_0: assembly {\n        /* \"RegarSwapPool.sol\":525:7434  contract RegarSwapPool {... */\n      mstore(0x40, 0x80)\n      callvalue\n      dup1\n      iszero\n      tag_1\n      jumpi\n      revert(0x00, 0x00)\n    tag_1:\n      pop\n      jumpi(tag_2, lt(calldatasize, 0x04))\n      shr(0xe0, calldataload(0x00))\n      dup1\n      0x95d89b41\n      gt\n      tag_12\n      jumpi\n      dup1\n      0x95d89b41\n      eq\n      tag_7\n      jumpi\n      dup1\n      0x9e281a98\n      eq\n      tag_8\n      jumpi\n      dup1\n      0xb07391c0\n      eq\n      tag_9\n      jumpi\n      dup1\n      0xcf6c62ea\n      eq\n      tag_10\n      jumpi\n      dup1\n      0xd752fab2\n      eq\n      tag_11\n      jumpi\n      jump(tag_2)\n    tag_12:\n      dup1\n      0x06fdde03\n      eq\n      tag_3\n      jumpi\n      dup1\n      0x18160ddd\n      eq\n      tag_4\n      jumpi\n      dup1\n      0x70a08231\n      eq\n      tag_5\n      jumpi\n      dup1\n      0x8da5cb5b\n      eq\n      tag_6\n      jumpi\n    tag_2:\n      revert(0x00, 0x00)\n        /* \"RegarSwapPool.sol\":640:686  string public constant name = \"Regar LP Token\" */\n    tag_3:\n      tag_13\n      tag_14\n      jump\t// in\n    tag_13:\n      mload(0x40)\n      tag_15\n      swap2\n      swap1\n      tag_16\n      jump\t// in\n    tag_15:\n      mload(0x40)\n      dup1\n      swap2\n      sub\n      swap1\n      return\n        /* \"RegarSwapPool.sol\":738:764  uint256 public totalSupply */\n    tag_4:\n      tag_17\n      tag_18\n      jump\t// in\n    tag_17:\n      mload(0x40)\n      tag_19\n      swap2\n      swap1\n      tag_20\n      jump\t// in\n    tag_19:\n      mload(0x40)\n      dup1\n      swap2\n      sub\n      swap1\n      return\n        /* \"RegarSwapPool.sol\":770:814  mapping(address => uint256) public balanceOf */\n    tag_5:\n      tag_21\n      0x04\n      dup1\n      calldatasize\n      sub\n      dup2\n      add\n      swap1\n      tag_22\n      swap2\n      swap1\n      tag_23\n      jump\t// in\n    tag_22:\n      tag_24\n      jump\t// in\n    tag_21:\n      mload(0x40)\n      tag_25\n      swap2\n      swap1\n      tag_20\n      jump\t// in\n    tag_25:\n      mload(0x40)\n      dup1\n      swap2\n      sub\n      swap1\n      return\n        /* \"RegarSwapPool.sol\":554:574  address public owner */\n    tag_6:\n      tag_26\n      tag_27\n      jump\t// in\n    tag_26:\n      mload(0x40)\n      tag_28\n      swap2\n      swap1\n      tag_29\n      jump\t// in\n    tag_28:\n      mload(0x40)\n      dup1\n      swap2\n      sub\n      swap1\n      return\n        /* \"RegarSwapPool.sol\":692:732  string public constant symbol = \"RGR-LP\" */\n    tag_7:\n      tag_30\n      tag_31\n      jump\t// in\n    tag_30:\n      mload(0x40)\n      tag_32\n      swap2\n      swap1\n      tag_16\n      jump\t// in\n    tag_32:\n      mload(0x40)\n      dup1\n      swap2\n      sub\n      swap1\n      return\n        /* \"RegarSwapPool.sol\":6569:6975  function withdrawToken(address _token, uint256 _amount) external onlyOwner {... */\n    tag_8:\n      tag_33\n      0x04\n      dup1\n      calldatasize\n      sub\n      dup2\n      add\n      swap1\n      tag_34\n      swap2\n      swap1\n      tag_35\n      jump\t// in\n    tag_34:\n      tag_36\n      jump\t// in\n    tag_33:\n      stop\n        /* \"RegarSwapPool.sol\":2219:3340  function executeSwap(address _tokenIn, address _tokenOut, uint256 _amountIn, uint256 _amountOut) external {... */\n    tag_9:\n      tag_37\n      0x04\n      dup1\n      calldatasize\n      sub\n      dup2\n      add\n      swap1\n      tag_38\n      swap2\n      swap1\n      tag_39\n      jump\t// in\n    tag_38:\n      tag_40\n      jump\t// in\n    tag_37:\n      stop\n        /* \"RegarSwapPool.sol\":3507:5055  function addLiquidity(... */\n    tag_10:\n      tag_41\n      0x04\n      dup1\n      calldatasize\n      sub\n      dup2\n      add\n      swap1\n      tag_42\n      swap2\n      swap1\n      tag_39\n      jump\t// in\n    tag_42:\n      tag_43\n      jump\t// in\n    tag_41:\n      mload(0x40)\n      tag_44\n      swap2\n      swap1\n      tag_20\n      jump\t// in\n    tag_44:\n      mload(0x40)\n      dup1\n      swap2\n      sub\n      swap1\n      return\n        /* \"RegarSwapPool.sol\":5233:6447  function removeLiquidity(... */\n    tag_11:\n      tag_45\n      0x04\n      dup1\n      calldatasize\n      sub\n      dup2\n      add\n      swap1\n      tag_46\n      swap2\n      swap1\n      tag_47\n      jump\t// in\n    tag_46:\n      tag_48\n      jump\t// in\n    tag_45:\n      mload(0x40)\n      tag_49\n      swap3\n      swap2\n      swap1\n      tag_50\n      jump\t// in\n    tag_49:\n      mload(0x40)\n      dup1\n      swap2\n      sub\n      swap1\n      return\n        /* \"RegarSwapPool.sol\":640:686  string public constant name = \"Regar LP Token\" */\n    tag_14:\n      mload(0x40)\n      dup1\n      0x40\n      add\n      0x40\n      mstore\n      dup1\n      0x0e\n      dup2\n      mstore\n      0x20\n      add\n      0x5265676172204c5020546f6b656e000000000000000000000000000000000000\n      dup2\n      mstore\n      pop\n      dup2\n      jump\t// out\n        /* \"RegarSwapPool.sol\":738:764  uint256 public totalSupply */\n    tag_18:\n      sload(0x01)\n      dup2\n      jump\t// out\n        /* \"RegarSwapPool.sol\":770:814  mapping(address => uint256) public balanceOf */\n    tag_24:\n      mstore(0x20, 0x02)\n      dup1\n      0x00\n      mstore\n      keccak256(0x00, 0x40)\n      0x00\n      swap2\n      pop\n      swap1\n      pop\n      sload\n      dup2\n      jump\t// out\n        /* \"RegarSwapPool.sol\":554:574  address public owner */\n    tag_27:\n      0x00\n      0x00\n      swap1\n      sload\n      swap1\n      0x0100\n      exp\n      swap1\n      div\n      0xffffffffffffffffffffffffffffffffffffffff\n      and\n      dup2\n      jump\t// out\n        /* \"RegarSwapPool.sol\":692:732  string public constant symbol = \"RGR-LP\" */\n    tag_31:\n      mload(0x40)\n      dup1\n      0x40\n      add\n      0x40\n      mstore\n      dup1\n      0x06\n      dup2\n      mstore\n      0x20\n      add\n      0x5247522d4c500000000000000000000000000000000000000000000000000000\n      dup2\n      mstore\n      pop\n      dup2\n      jump\t// out\n        /* \"RegarSwapPool.sol\":6569:6975  function withdrawToken(address _token, uint256 _amount) external onlyOwner {... */\n    tag_36:\n        /* \"RegarSwapPool.sol\":1540:1545  owner */\n      0x00\n      0x00\n      swap1\n      sload\n      swap1\n      0x0100\n      exp\n      swap1\n      div\n      0xffffffffffffffffffffffffffffffffffffffff\n      and\n        /* \"RegarSwapPool.sol\":1526:1545  msg.sender == owner */\n      0xffffffffffffffffffffffffffffffffffffffff\n      and\n        /* \"RegarSwapPool.sol\":1526:1536  msg.sender */\n      caller\n        /* \"RegarSwapPool.sol\":1526:1545  msg.sender == owner */\n      0xffffffffffffffffffffffffffffffffffffffff\n      and\n      eq\n        /* \"RegarSwapPool.sol\":1518:1607  require(msg.sender == owner, \"Authorization Error: Only owner can execute this function\") */\n      tag_52\n      jumpi\n      mload(0x40)\n      0x08c379a000000000000000000000000000000000000000000000000000000000\n      dup2\n      mstore\n      0x04\n      add\n      tag_53\n      swap1\n      tag_54\n      jump\t// in\n    tag_53:\n      mload(0x40)\n      dup1\n      swap2\n      sub\n      swap1\n      revert\n    tag_52:\n        /* \"RegarSwapPool.sol\":6654:6676  uint256 currentBalance */\n      0x00\n        /* \"RegarSwapPool.sol\":6686:6692  _token */\n      dup3\n        /* \"RegarSwapPool.sol\":6679:6703  IERC20(_token).balanceOf */\n      0xffffffffffffffffffffffffffffffffffffffff\n      and\n      0x70a08231\n        /* \"RegarSwapPool.sol\":6712:6716  this */\n      address\n        /* \"RegarSwapPool.sol\":6679:6718  IERC20(_token).balanceOf(address(this)) */\n      mload(0x40)\n      dup3\n      0xffffffff\n      and\n      0xe0\n      shl\n      dup2\n      mstore\n      0x04\n      add\n      tag_56\n      swap2\n      swap1\n      tag_29\n      jump\t// in\n    tag_56:\n      0x20\n      mload(0x40)\n      dup1\n      dup4\n      sub\n      dup2\n      dup7\n      gas\n      staticcall\n      iszero\n      dup1\n      iszero\n      tag_58\n      jumpi\n      returndatacopy(0x00, 0x00, returndatasize)\n      revert(0x00, returndatasize)\n    tag_58:\n      pop\n      pop\n      pop\n      pop\n      mload(0x40)\n      returndatasize\n      not(0x1f)\n      0x1f\n      dup3\n      add\n      and\n      dup3\n      add\n      dup1\n      0x40\n      mstore\n      pop\n      dup2\n      add\n      swap1\n      tag_59\n      swap2\n      swap1\n      tag_60\n      jump\t// in\n    tag_59:\n        /* \"RegarSwapPool.sol\":6654:6718  uint256 currentBalance = IERC20(_token).balanceOf(address(this)) */\n      swap1\n      pop\n        /* \"RegarSwapPool.sol\":6754:6761  _amount */\n      dup2\n        /* \"RegarSwapPool.sol\":6736:6750  currentBalance */\n      dup2\n        /* \"RegarSwapPool.sol\":6736:6761  currentBalance >= _amount */\n      lt\n      iszero\n        /* \"RegarSwapPool.sol\":6728:6821  require(currentBalance >= _amount, \"Liquidity Error: Request exceeds available pool balance\") */\n      tag_61\n      jumpi\n      mload(0x40)\n      0x08c379a000000000000000000000000000000000000000000000000000000000\n      dup2\n      mstore\n      0x04\n      add\n      tag_62\n      swap1\n      tag_63\n      jump\t// in\n    tag_62:\n      mload(0x40)\n      dup1\n      swap2\n      sub\n      swap1\n      revert\n    tag_61:\n        /* \"RegarSwapPool.sol\":6840:6852  bool success */\n      0x00\n        /* \"RegarSwapPool.sol\":6862:6868  _token */\n      dup4\n        /* \"RegarSwapPool.sol\":6855:6878  IERC20(_token).transfer */\n      0xffffffffffffffffffffffffffffffffffffffff\n      and\n      0xa9059cbb\n        /* \"RegarSwapPool.sol\":6879:6884  owner */\n      0x00\n      0x00\n      swap1\n      sload\n      swap1\n      0x0100\n      exp\n      swap1\n      div\n      0xffffffffffffffffffffffffffffffffffffffff\n      and\n        /* \"RegarSwapPool.sol\":6886:6893  _amount */\n      dup6\n        /* \"RegarSwapPool.sol\":6855:6894  IERC20(_token).transfer(owner, _amount) */\n      mload(0x40)\n      dup4\n      0xffffffff\n      and\n      0xe0\n      shl\n      dup2\n      mstore\n      0x04\n      add\n      tag_64\n      swap3\n      swap2\n      swap1\n      tag_65\n      jump\t// in\n    tag_64:\n      0x20\n      mload(0x40)\n      dup1\n      dup4\n      sub\n      dup2\n      0x00\n      dup8\n      gas\n      call\n      iszero\n      dup1\n      iszero\n      tag_67\n      jumpi\n      returndatacopy(0x00, 0x00, returndatasize)\n      revert(0x00, returndatasize)\n    tag_67:\n      pop\n      pop\n      pop\n      pop\n      mload(0x40)\n      returndatasize\n      not(0x1f)\n      0x1f\n      dup3\n      add\n      and\n      dup3\n      add\n      dup1\n      0x40\n      mstore\n      pop\n      dup2\n      add\n      swap1\n      tag_68\n      swap2\n      swap1\n      tag_69\n      jump\t// in\n    tag_68:\n        /* \"RegarSwapPool.sol\":6840:6894  bool success = IERC20(_token).transfer(owner, _amount) */\n      swap1\n      pop\n        /* \"RegarSwapPool.sol\":6912:6919  success */\n      dup1\n        /* \"RegarSwapPool.sol\":6904:6968  require(success, \"Blockchain Error: Withdrawal process failed.\") */\n      tag_70\n      jumpi\n      mload(0x40)\n      0x08c379a000000000000000000000000000000000000000000000000000000000\n      dup2\n      mstore\n      0x04\n      add\n      tag_71\n      swap1\n      tag_72\n      jump\t// in\n    tag_71:\n      mload(0x40)\n      dup1\n      swap2\n      sub\n      swap1\n      revert\n    tag_70:\n        /* \"RegarSwapPool.sol\":6644:6975  {... */\n      pop\n      pop\n        /* \"RegarSwapPool.sol\":6569:6975  function withdrawToken(address _token, uint256 _amount) external onlyOwner {... */\n      pop\n      pop\n      jump\t// out\n        /* \"RegarSwapPool.sol\":2219:3340  function executeSwap(address _tokenIn, address _tokenOut, uint256 _amountIn, uint256 _amountOut) external {... */\n    tag_40:\n        /* \"RegarSwapPool.sol\":2355:2356  0 */\n      0x00\n        /* \"RegarSwapPool.sol\":2343:2352  _amountIn */\n      dup3\n        /* \"RegarSwapPool.sol\":2343:2356  _amountIn > 0 */\n      gt\n        /* \"RegarSwapPool.sol\":2335:2410  require(_amountIn > 0, \"Execution Error: Amount must be greater than zero\") */\n      tag_74\n      jumpi\n      mload(0x40)\n      0x08c379a000000000000000000000000000000000000000000000000000000000\n      dup2\n      mstore\n      0x04\n      add\n      tag_75\n      swap1\n      tag_76\n      jump\t// in\n    tag_75:\n      mload(0x40)\n      dup1\n      swap2\n      sub\n      swap1\n      revert\n    tag_74:\n        /* \"RegarSwapPool.sol\":2429:2443  IERC20 tokenIn */\n      0x00\n        /* \"RegarSwapPool.sol\":2453:2461  _tokenIn */\n      dup5\n        /* \"RegarSwapPool.sol\":2429:2462  IERC20 tokenIn = IERC20(_tokenIn) */\n      swap1\n      pop\n        /* \"RegarSwapPool.sol\":2472:2487  IERC20 tokenOut */\n      0x00\n        /* \"RegarSwapPool.sol\":2497:2506  _tokenOut */\n      dup5\n        /* \"RegarSwapPool.sol\":2472:2507  IERC20 tokenOut = IERC20(_tokenOut) */\n      swap1\n      pop\n        /* \"RegarSwapPool.sol\":2593:2607  bool successIn */\n      0x00\n        /* \"RegarSwapPool.sol\":2610:2617  tokenIn */\n      dup3\n        /* \"RegarSwapPool.sol\":2610:2630  tokenIn.transferFrom */\n      0xffffffffffffffffffffffffffffffffffffffff\n      and\n      0x23b872dd\n        /* \"RegarSwapPool.sol\":2631:2641  msg.sender */\n      caller\n        /* \"RegarSwapPool.sol\":2651:2655  this */\n      address\n        /* \"RegarSwapPool.sol\":2658:2667  _amountIn */\n      dup9\n        /* \"RegarSwapPool.sol\":2610:2668  tokenIn.transferFrom(msg.sender, address(this), _amountIn) */\n      mload(0x40)\n      dup5\n      0xffffffff\n      and\n      0xe0\n      shl\n      dup2\n      mstore\n      0x04\n      add\n      tag_77\n      swap4\n      swap3\n      swap2\n      swap1\n      tag_78\n      jump\t// in\n    tag_77:\n      0x20\n      mload(0x40)\n      dup1\n      dup4\n      sub\n      dup2\n      0x00\n      dup8\n      gas\n      call\n      iszero\n      dup1\n      iszero\n      tag_80\n      jumpi\n      returndatacopy(0x00, 0x00, returndatasize)\n      revert(0x00, returndatasize)\n    tag_80:\n      pop\n      pop\n      pop\n      pop\n      mload(0x40)\n      returndatasize\n      not(0x1f)\n      0x1f\n      dup3\n      add\n      and\n      dup3\n      add\n      dup1\n      0x40\n      mstore\n      pop\n      dup2\n      add\n      swap1\n      tag_81\n      swap2\n      swap1\n      tag_69\n      jump\t// in\n    tag_81:\n        /* \"RegarSwapPool.sol\":2593:2668  bool successIn = tokenIn.transferFrom(msg.sender, address(this), _amountIn) */\n      swap1\n      pop\n        /* \"RegarSwapPool.sol\":2686:2695  successIn */\n      dup1\n        /* \"RegarSwapPool.sol\":2678:2773  require(successIn, \"Blockchain Error: Token deposit failed. Check user balance and allowance.\") */\n      tag_82\n      jumpi\n      mload(0x40)\n      0x08c379a000000000000000000000000000000000000000000000000000000000\n      dup2\n      mstore\n      0x04\n      add\n      tag_83\n      swap1\n      tag_84\n      jump\t// in\n    tag_83:\n      mload(0x40)\n      dup1\n      swap2\n      sub\n      swap1\n      revert\n    tag_82:\n        /* \"RegarSwapPool.sol\":2868:2887  uint256 poolBalance */\n      0x00\n        /* \"RegarSwapPool.sol\":2890:2898  tokenOut */\n      dup3\n        /* \"RegarSwapPool.sol\":2890:2908  tokenOut.balanceOf */\n      0xffffffffffffffffffffffffffffffffffffffff\n      and\n      0x70a08231\n        /* \"RegarSwapPool.sol\":2917:2921  this */\n      address\n        /* \"RegarSwapPool.sol\":2890:2923  tokenOut.balanceOf(address(this)) */\n      mload(0x40)\n      dup3\n      0xffffffff\n      and\n      0xe0\n      shl\n      dup2\n      mstore\n      0x04\n      add\n      tag_85\n      swap2\n      swap1\n      tag_29\n      jump\t// in\n    tag_85:\n      0x20\n      mload(0x40)\n      dup1\n      dup4\n      sub\n      dup2\n      dup7\n      gas\n      staticcall\n      iszero\n      dup1\n      iszero\n      tag_87\n      jumpi\n      returndatacopy(0x00, 0x00, returndatasize)\n      revert(0x00, returndatasize)\n    tag_87:\n      pop\n      pop\n      pop\n      pop\n      mload(0x40)\n      returndatasize\n      not(0x1f)\n      0x1f\n      dup3\n      add\n      and\n      dup3\n      add\n      dup1\n      0x40\n      mstore\n      pop\n      dup2\n      add\n      swap1\n      tag_88\n      swap2\n      swap1\n      tag_60\n      jump\t// in\n    tag_88:\n        /* \"RegarSwapPool.sol\":2868:2923  uint256 poolBalance = tokenOut.balanceOf(address(this)) */\n      swap1\n      pop\n        /* \"RegarSwapPool.sol\":2956:2966  _amountOut */\n      dup5\n        /* \"RegarSwapPool.sol\":2941:2952  poolBalance */\n      dup2\n        /* \"RegarSwapPool.sol\":2941:2966  poolBalance >= _amountOut */\n      lt\n      iszero\n        /* \"RegarSwapPool.sol\":2933:3031  require(poolBalance >= _amountOut, \"Liquidity Error: Insufficient funds inside the pool contract\") */\n      tag_89\n      jumpi\n      mload(0x40)\n      0x08c379a000000000000000000000000000000000000000000000000000000000\n      dup2\n      mstore\n      0x04\n      add\n      tag_90\n      swap1\n      tag_91\n      jump\t// in\n    tag_90:\n      mload(0x40)\n      dup1\n      swap2\n      sub\n      swap1\n      revert\n    tag_89:\n        /* \"RegarSwapPool.sol\":3119:3134  bool successOut */\n      0x00\n        /* \"RegarSwapPool.sol\":3137:3145  tokenOut */\n      dup4\n        /* \"RegarSwapPool.sol\":3137:3154  tokenOut.transfer */\n      0xffffffffffffffffffffffffffffffffffffffff\n      and\n      0xa9059cbb\n        /* \"RegarSwapPool.sol\":3155:3165  msg.sender */\n      caller\n        /* \"RegarSwapPool.sol\":3167:3177  _amountOut */\n      dup9\n        /* \"RegarSwapPool.sol\":3137:3178  tokenOut.transfer(msg.sender, _amountOut) */\n      mload(0x40)\n      dup4\n      0xffffffff\n      and\n      0xe0\n      shl\n      dup2\n      mstore\n      0x04\n      add\n      tag_92\n      swap3\n      swap2\n      swap1\n      tag_65\n      jump\t// in\n    tag_92:\n      0x20\n      mload(0x40)\n      dup1\n      dup4\n      sub\n      dup2\n      0x00\n      dup8\n      gas\n      call\n      iszero\n      dup1\n      iszero\n      tag_94\n      jumpi\n      returndatacopy(0x00, 0x00, returndatasize)\n      revert(0x00, returndatasize)\n    tag_94:\n      pop\n      pop\n      pop\n      pop\n      mload(0x40)\n      returndatasize\n      not(0x1f)\n      0x1f\n      dup3\n      add\n      and\n      dup3\n      add\n      dup1\n      0x40\n      mstore\n      pop\n      dup2\n      add\n      swap1\n      tag_95\n      swap2\n      swap1\n      tag_69\n      jump\t// in\n    tag_95:\n        /* \"RegarSwapPool.sol\":3119:3178  bool successOut = tokenOut.transfer(msg.sender, _amountOut) */\n      swap1\n      pop\n        /* \"RegarSwapPool.sol\":3196:3206  successOut */\n      dup1\n        /* \"RegarSwapPool.sol\":3188:3249  require(successOut, \"Blockchain Error: Token payout failed.\") */\n      tag_96\n      jumpi\n      mload(0x40)\n      0x08c379a000000000000000000000000000000000000000000000000000000000\n      dup2\n      mstore\n      0x04\n      add\n      tag_97\n      swap1\n      tag_98\n      jump\t// in\n    tag_97:\n      mload(0x40)\n      dup1\n      swap2\n      sub\n      swap1\n      revert\n    tag_96:\n        /* \"RegarSwapPool.sol\":3300:3309  _tokenOut */\n      dup8\n        /* \"RegarSwapPool.sol\":3265:3333  SwapExecuted(msg.sender, _tokenIn, _tokenOut, _amountIn, _amountOut) */\n      0xffffffffffffffffffffffffffffffffffffffff\n      and\n        /* \"RegarSwapPool.sol\":3290:3298  _tokenIn */\n      dup10\n        /* \"RegarSwapPool.sol\":3265:3333  SwapExecuted(msg.sender, _tokenIn, _tokenOut, _amountIn, _amountOut) */\n      0xffffffffffffffffffffffffffffffffffffffff\n      and\n        /* \"RegarSwapPool.sol\":3278:3288  msg.sender */\n      caller\n        /* \"RegarSwapPool.sol\":3265:3333  SwapExecuted(msg.sender, _tokenIn, _tokenOut, _amountIn, _amountOut) */\n      0xffffffffffffffffffffffffffffffffffffffff\n      and\n      0x764f0dc063c06f32d89a3f3af80c0db4be8a090901f589a478b447e0a51f09f1\n        /* \"RegarSwapPool.sol\":3311:3320  _amountIn */\n      dup11\n        /* \"RegarSwapPool.sol\":3322:3332  _amountOut */\n      dup11\n        /* \"RegarSwapPool.sol\":3265:3333  SwapExecuted(msg.sender, _tokenIn, _tokenOut, _amountIn, _amountOut) */\n      mload(0x40)\n      tag_99\n      swap3\n      swap2\n      swap1\n      tag_50\n      jump\t// in\n    tag_99:\n      mload(0x40)\n      dup1\n      swap2\n      sub\n      swap1\n      log4\n        /* \"RegarSwapPool.sol\":2325:3340  {... */\n      pop\n      pop\n      pop\n      pop\n      pop\n        /* \"RegarSwapPool.sol\":2219:3340  function executeSwap(address _tokenIn, address _tokenOut, uint256 _amountIn, uint256 _amountOut) external {... */\n      pop\n      pop\n      pop\n      pop\n      jump\t// out\n        /* \"RegarSwapPool.sol\":3507:5055  function addLiquidity(... */\n    tag_43:\n        /* \"RegarSwapPool.sol\":3672:3686  uint256 shares */\n      0x00\n        /* \"RegarSwapPool.sol\":3698:3711  IERC20 tokenA */\n      0x00\n        /* \"RegarSwapPool.sol\":3721:3728  _tokenA */\n      dup6\n        /* \"RegarSwapPool.sol\":3698:3729  IERC20 tokenA = IERC20(_tokenA) */\n      swap1\n      pop\n        /* \"RegarSwapPool.sol\":3739:3752  IERC20 tokenB */\n      0x00\n        /* \"RegarSwapPool.sol\":3762:3769  _tokenB */\n      dup6\n        /* \"RegarSwapPool.sol\":3739:3770  IERC20 tokenB = IERC20(_tokenB) */\n      swap1\n      pop\n        /* \"RegarSwapPool.sol\":3853:3869  uint256 reserveA */\n      0x00\n        /* \"RegarSwapPool.sol\":3872:3878  tokenA */\n      dup3\n        /* \"RegarSwapPool.sol\":3872:3888  tokenA.balanceOf */\n      0xffffffffffffffffffffffffffffffffffffffff\n      and\n      0x70a08231\n        /* \"RegarSwapPool.sol\":3897:3901  this */\n      address\n        /* \"RegarSwapPool.sol\":3872:3903  tokenA.balanceOf(address(this)) */\n      mload(0x40)\n      dup3\n      0xffffffff\n      and\n      0xe0\n      shl\n      dup2\n      mstore\n      0x04\n      add\n      tag_101\n      swap2\n      swap1\n      tag_29\n      jump\t// in\n    tag_101:\n      0x20\n      mload(0x40)\n      dup1\n      dup4\n      sub\n      dup2\n      dup7\n      gas\n      staticcall\n      iszero\n      dup1\n      iszero\n      tag_103\n      jumpi\n      returndatacopy(0x00, 0x00, returndatasize)\n      revert(0x00, returndatasize)\n    tag_103:\n      pop\n      pop\n      pop\n      pop\n      mload(0x40)\n      returndatasize\n      not(0x1f)\n      0x1f\n      dup3\n      add\n      and\n      dup3\n      add\n      dup1\n      0x40\n      mstore\n      pop\n      dup2\n      add\n      swap1\n      tag_104\n      swap2\n      swap1\n      tag_60\n      jump\t// in\n    tag_104:\n        /* \"RegarSwapPool.sol\":3853:3903  uint256 reserveA = tokenA.balanceOf(address(this)) */\n      swap1\n      pop\n        /* \"RegarSwapPool.sol\":3913:3929  uint256 reserveB */\n      0x00\n        /* \"RegarSwapPool.sol\":3932:3938  tokenB */\n      dup3\n        /* \"RegarSwapPool.sol\":3932:3948  tokenB.balanceOf */\n      0xffffffffffffffffffffffffffffffffffffffff\n      and\n      0x70a08231\n        /* \"RegarSwapPool.sol\":3957:3961  this */\n      address\n        /* \"RegarSwapPool.sol\":3932:3963  tokenB.balanceOf(address(this)) */\n      mload(0x40)\n      dup3\n      0xffffffff\n      and\n      0xe0\n      shl\n      dup2\n      mstore\n      0x04\n      add\n      tag_105\n      swap2\n      swap1\n      tag_29\n      jump\t// in\n    tag_105:\n      0x20\n      mload(0x40)\n      dup1\n      dup4\n      sub\n      dup2\n      dup7\n      gas\n      staticcall\n      iszero\n      dup1\n      iszero\n      tag_107\n      jumpi\n      returndatacopy(0x00, 0x00, returndatasize)\n      revert(0x00, returndatasize)\n    tag_107:\n      pop\n      pop\n      pop\n      pop\n      mload(0x40)\n      returndatasize\n      not(0x1f)\n      0x1f\n      dup3\n      add\n      and\n      dup3\n      add\n      dup1\n      0x40\n      mstore\n      pop\n      dup2\n      add\n      swap1\n      tag_108\n      swap2\n      swap1\n      tag_60\n      jump\t// in\n    tag_108:\n        /* \"RegarSwapPool.sol\":3913:3963  uint256 reserveB = tokenB.balanceOf(address(this)) */\n      swap1\n      pop\n        /* \"RegarSwapPool.sol\":4047:4053  tokenA */\n      dup4\n        /* \"RegarSwapPool.sol\":4047:4066  tokenA.transferFrom */\n      0xffffffffffffffffffffffffffffffffffffffff\n      and\n      0x23b872dd\n        /* \"RegarSwapPool.sol\":4067:4077  msg.sender */\n      caller\n        /* \"RegarSwapPool.sol\":4087:4091  this */\n      address\n        /* \"RegarSwapPool.sol\":4094:4109  _amountADesired */\n      dup11\n        /* \"RegarSwapPool.sol\":4047:4110  tokenA.transferFrom(msg.sender, address(this), _amountADesired) */\n      mload(0x40)\n      dup5\n      0xffffffff\n      and\n      0xe0\n      shl\n      dup2\n      mstore\n      0x04\n      add\n      tag_109\n      swap4\n      swap3\n      swap2\n      swap1\n      tag_78\n      jump\t// in\n    tag_109:\n      0x20\n      mload(0x40)\n      dup1\n      dup4\n      sub\n      dup2\n      0x00\n      dup8\n      gas\n      call\n      iszero\n      dup1\n      iszero\n      tag_111\n      jumpi\n      returndatacopy(0x00, 0x00, returndatasize)\n      revert(0x00, returndatasize)\n    tag_111:\n      pop\n      pop\n      pop\n      pop\n      mload(0x40)\n      returndatasize\n      not(0x1f)\n      0x1f\n      dup3\n      add\n      and\n      dup3\n      add\n      dup1\n      0x40\n      mstore\n      pop\n      dup2\n      add\n      swap1\n      tag_112\n      swap2\n      swap1\n      tag_69\n      jump\t// in\n    tag_112:\n        /* \"RegarSwapPool.sol\":4039:4155  require(tokenA.transferFrom(msg.sender, address(this), _amountADesired), \"Blockchain Error: Token A deposit failed\") */\n      tag_113\n      jumpi\n      mload(0x40)\n      0x08c379a000000000000000000000000000000000000000000000000000000000\n      dup2\n      mstore\n      0x04\n      add\n      tag_114\n      swap1\n      tag_115\n      jump\t// in\n    tag_114:\n      mload(0x40)\n      dup1\n      swap2\n      sub\n      swap1\n      revert\n    tag_113:\n        /* \"RegarSwapPool.sol\":4173:4179  tokenB */\n      dup3\n        /* \"RegarSwapPool.sol\":4173:4192  tokenB.transferFrom */\n      0xffffffffffffffffffffffffffffffffffffffff\n      and\n      0x23b872dd\n        /* \"RegarSwapPool.sol\":4193:4203  msg.sender */\n      caller\n        /* \"RegarSwapPool.sol\":4213:4217  this */\n      address\n        /* \"RegarSwapPool.sol\":4220:4235  _amountBDesired */\n      dup10\n        /* \"RegarSwapPool.sol\":4173:4236  tokenB.transferFrom(msg.sender, address(this), _amountBDesired) */\n      mload(0x40)\n      dup5\n      0xffffffff\n      and\n      0xe0\n      shl\n      dup2\n      mstore\n      0x04\n      add\n      tag_116\n      swap4\n      swap3\n      swap2\n      swap1\n      tag_78\n      jump\t// in\n    tag_116:\n      0x20\n      mload(0x40)\n      dup1\n      dup4\n      sub\n      dup2\n      0x00\n      dup8\n      gas\n      call\n      iszero\n      dup1\n      iszero\n      tag_118\n      jumpi\n      returndatacopy(0x00, 0x00, returndatasize)\n      revert(0x00, returndatasize)\n    tag_118:\n      pop\n      pop\n      pop\n      pop\n      mload(0x40)\n      returndatasize\n      not(0x1f)\n      0x1f\n      dup3\n      add\n      and\n      dup3\n      add\n      dup1\n      0x40\n      mstore\n      pop\n      dup2\n      add\n      swap1\n      tag_119\n      swap2\n      swap1\n      tag_69\n      jump\t// in\n    tag_119:\n        /* \"RegarSwapPool.sol\":4165:4281  require(tokenB.transferFrom(msg.sender, address(this), _amountBDesired), \"Blockchain Error: Token B deposit failed\") */\n      tag_120\n      jumpi\n      mload(0x40)\n      0x08c379a000000000000000000000000000000000000000000000000000000000\n      dup2\n      mstore\n      0x04\n      add\n      tag_121\n      swap1\n      tag_122\n      jump\t// in\n    tag_121:\n      mload(0x40)\n      dup1\n      swap2\n      sub\n      swap1\n      revert\n    tag_120:\n        /* \"RegarSwapPool.sol\":4311:4312  0 */\n      0x00\n        /* \"RegarSwapPool.sol\":4296:4307  totalSupply */\n      sload(0x01)\n        /* \"RegarSwapPool.sol\":4296:4312  totalSupply == 0 */\n      sub\n        /* \"RegarSwapPool.sol\":4292:4760  if (totalSupply == 0) {... */\n      tag_123\n      jumpi\n        /* \"RegarSwapPool.sol\":4417:4457  _sqrt(_amountADesired * _amountBDesired) */\n      tag_124\n        /* \"RegarSwapPool.sol\":4441:4456  _amountBDesired */\n      dup7\n        /* \"RegarSwapPool.sol\":4423:4438  _amountADesired */\n      dup9\n        /* \"RegarSwapPool.sol\":4423:4456  _amountADesired * _amountBDesired */\n      tag_125\n      swap2\n      swap1\n      tag_126\n      jump\t// in\n    tag_125:\n        /* \"RegarSwapPool.sol\":4417:4422  _sqrt */\n      tag_127\n        /* \"RegarSwapPool.sol\":4417:4457  _sqrt(_amountADesired * _amountBDesired) */\n      jump\t// in\n    tag_124:\n        /* \"RegarSwapPool.sol\":4408:4457  shares = _sqrt(_amountADesired * _amountBDesired) */\n      swap5\n      pop\n        /* \"RegarSwapPool.sol\":4292:4760  if (totalSupply == 0) {... */\n      jump(tag_128)\n    tag_123:\n        /* \"RegarSwapPool.sol\":4570:4585  uint256 sharesA */\n      0x00\n        /* \"RegarSwapPool.sol\":4622:4630  reserveA */\n      dup3\n        /* \"RegarSwapPool.sol\":4607:4618  totalSupply */\n      sload(0x01)\n        /* \"RegarSwapPool.sol\":4589:4604  _amountADesired */\n      dup10\n        /* \"RegarSwapPool.sol\":4589:4618  _amountADesired * totalSupply */\n      tag_129\n      swap2\n      swap1\n      tag_126\n      jump\t// in\n    tag_129:\n        /* \"RegarSwapPool.sol\":4588:4630  (_amountADesired * totalSupply) / reserveA */\n      tag_130\n      swap2\n      swap1\n      tag_131\n      jump\t// in\n    tag_130:\n        /* \"RegarSwapPool.sol\":4570:4630  uint256 sharesA = (_amountADesired * totalSupply) / reserveA */\n      swap1\n      pop\n        /* \"RegarSwapPool.sol\":4644:4659  uint256 sharesB */\n      0x00\n        /* \"RegarSwapPool.sol\":4696:4704  reserveB */\n      dup3\n        /* \"RegarSwapPool.sol\":4681:4692  totalSupply */\n      sload(0x01)\n        /* \"RegarSwapPool.sol\":4663:4678  _amountBDesired */\n      dup10\n        /* \"RegarSwapPool.sol\":4663:4692  _amountBDesired * totalSupply */\n      tag_132\n      swap2\n      swap1\n      tag_126\n      jump\t// in\n    tag_132:\n        /* \"RegarSwapPool.sol\":4662:4704  (_amountBDesired * totalSupply) / reserveB */\n      tag_133\n      swap2\n      swap1\n      tag_131\n      jump\t// in\n    tag_133:\n        /* \"RegarSwapPool.sol\":4644:4704  uint256 sharesB = (_amountBDesired * totalSupply) / reserveB */\n      swap1\n      pop\n        /* \"RegarSwapPool.sol\":4727:4749  _min(sharesA, sharesB) */\n      tag_134\n        /* \"RegarSwapPool.sol\":4732:4739  sharesA */\n      dup3\n        /* \"RegarSwapPool.sol\":4741:4748  sharesB */\n      dup3\n        /* \"RegarSwapPool.sol\":4727:4731  _min */\n      tag_135\n        /* \"RegarSwapPool.sol\":4727:4749  _min(sharesA, sharesB) */\n      jump\t// in\n    tag_134:\n        /* \"RegarSwapPool.sol\":4718:4749  shares = _min(sharesA, sharesB) */\n      swap7\n      pop\n        /* \"RegarSwapPool.sol\":4474:4760  {... */\n      pop\n      pop\n        /* \"RegarSwapPool.sol\":4292:4760  if (totalSupply == 0) {... */\n    tag_128:\n        /* \"RegarSwapPool.sol\":4787:4788  0 */\n      0x00\n        /* \"RegarSwapPool.sol\":4778:4784  shares */\n      dup6\n        /* \"RegarSwapPool.sol\":4778:4788  shares > 0 */\n      gt\n        /* \"RegarSwapPool.sol\":4770:4842  require(shares > 0, \"Liquidity Error: Minted pool shares value too low\") */\n      tag_136\n      jumpi\n      mload(0x40)\n      0x08c379a000000000000000000000000000000000000000000000000000000000\n      dup2\n      mstore\n      0x04\n      add\n      tag_137\n      swap1\n      tag_138\n      jump\t// in\n    tag_137:\n      mload(0x40)\n      dup1\n      swap2\n      sub\n      swap1\n      revert\n    tag_136:\n        /* \"RegarSwapPool.sol\":4935:4960  _mint(msg.sender, shares) */\n      tag_139\n        /* \"RegarSwapPool.sol\":4941:4951  msg.sender */\n      caller\n        /* \"RegarSwapPool.sol\":4953:4959  shares */\n      dup7\n        /* \"RegarSwapPool.sol\":4935:4940  _mint */\n      tag_140\n        /* \"RegarSwapPool.sol\":4935:4960  _mint(msg.sender, shares) */\n      jump\t// in\n    tag_139:\n        /* \"RegarSwapPool.sol\":4995:5005  msg.sender */\n      caller\n        /* \"RegarSwapPool.sol\":4976:5048  LiquidityDeposited(msg.sender, _amountADesired, _amountBDesired, shares) */\n      0xffffffffffffffffffffffffffffffffffffffff\n      and\n      0xa74b54c06133e997406e0369608fb6a8fd1d17957751a6d2a6390ddff1938769\n        /* \"RegarSwapPool.sol\":5007:5022  _amountADesired */\n      dup9\n        /* \"RegarSwapPool.sol\":5024:5039  _amountBDesired */\n      dup9\n        /* \"RegarSwapPool.sol\":5041:5047  shares */\n      dup9\n        /* \"RegarSwapPool.sol\":4976:5048  LiquidityDeposited(msg.sender, _amountADesired, _amountBDesired, shares) */\n      mload(0x40)\n      tag_141\n      swap4\n      swap3\n      swap2\n      swap1\n      tag_142\n      jump\t// in\n    tag_141:\n      mload(0x40)\n      dup1\n      swap2\n      sub\n      swap1\n      log2\n        /* \"RegarSwapPool.sol\":3688:5055  {... */\n      pop\n      pop\n      pop\n      pop\n        /* \"RegarSwapPool.sol\":3507:5055  function addLiquidity(... */\n      swap5\n      swap4\n      pop\n      pop\n      pop\n      pop\n      jump\t// out\n        /* \"RegarSwapPool.sol\":5233:6447  function removeLiquidity(... */\n    tag_48:\n        /* \"RegarSwapPool.sol\":5359:5374  uint256 amountA */\n      0x00\n        /* \"RegarSwapPool.sol\":5376:5391  uint256 amountB */\n      0x00\n        /* \"RegarSwapPool.sol\":5436:5443  _shares */\n      dup3\n        /* \"RegarSwapPool.sol\":5411:5420  balanceOf */\n      0x02\n        /* \"RegarSwapPool.sol\":5411:5432  balanceOf[msg.sender] */\n      0x00\n        /* \"RegarSwapPool.sol\":5421:5431  msg.sender */\n      caller\n        /* \"RegarSwapPool.sol\":5411:5432  balanceOf[msg.sender] */\n      0xffffffffffffffffffffffffffffffffffffffff\n      and\n      0xffffffffffffffffffffffffffffffffffffffff\n      and\n      dup2\n      mstore\n      0x20\n      add\n      swap1\n      dup2\n      mstore\n      0x20\n      add\n      0x00\n      keccak256\n      sload\n        /* \"RegarSwapPool.sol\":5411:5443  balanceOf[msg.sender] >= _shares */\n      lt\n      iszero\n        /* \"RegarSwapPool.sol\":5403:5495  require(balanceOf[msg.sender] >= _shares, \"Liquidity Error: Insufficient LP shares balance\") */\n      tag_144\n      jumpi\n      mload(0x40)\n      0x08c379a000000000000000000000000000000000000000000000000000000000\n      dup2\n      mstore\n      0x04\n      add\n      tag_145\n      swap1\n      tag_146\n      jump\t// in\n    tag_145:\n      mload(0x40)\n      dup1\n      swap2\n      sub\n      swap1\n      revert\n    tag_144:\n        /* \"RegarSwapPool.sol\":5506:5519  IERC20 tokenA */\n      0x00\n        /* \"RegarSwapPool.sol\":5529:5536  _tokenA */\n      dup6\n        /* \"RegarSwapPool.sol\":5506:5537  IERC20 tokenA = IERC20(_tokenA) */\n      swap1\n      pop\n        /* \"RegarSwapPool.sol\":5547:5560  IERC20 tokenB */\n      0x00\n        /* \"RegarSwapPool.sol\":5570:5577  _tokenB */\n      dup6\n        /* \"RegarSwapPool.sol\":5547:5578  IERC20 tokenB = IERC20(_tokenB) */\n      swap1\n      pop\n        /* \"RegarSwapPool.sol\":5589:5605  uint256 reserveA */\n      0x00\n        /* \"RegarSwapPool.sol\":5608:5614  tokenA */\n      dup3\n        /* \"RegarSwapPool.sol\":5608:5624  tokenA.balanceOf */\n      0xffffffffffffffffffffffffffffffffffffffff\n      and\n      0x70a08231\n        /* \"RegarSwapPool.sol\":5633:5637  this */\n      address\n        /* \"RegarSwapPool.sol\":5608:5639  tokenA.balanceOf(address(this)) */\n      mload(0x40)\n      dup3\n      0xffffffff\n      and\n      0xe0\n      shl\n      dup2\n      mstore\n      0x04\n      add\n      tag_147\n      swap2\n      swap1\n      tag_29\n      jump\t// in\n    tag_147:\n      0x20\n      mload(0x40)\n      dup1\n      dup4\n      sub\n      dup2\n      dup7\n      gas\n      staticcall\n      iszero\n      dup1\n      iszero\n      tag_149\n      jumpi\n      returndatacopy(0x00, 0x00, returndatasize)\n      revert(0x00, returndatasize)\n    tag_149:\n      pop\n      pop\n      pop\n      pop\n      mload(0x40)\n      returndatasize\n      not(0x1f)\n      0x1f\n      dup3\n      add\n      and\n      dup3\n      add\n      dup1\n      0x40\n      mstore\n      pop\n      dup2\n      add\n      swap1\n      tag_150\n      swap2\n      swap1\n      tag_60\n      jump\t// in\n    tag_150:\n        /* \"RegarSwapPool.sol\":5589:5639  uint256 reserveA = tokenA.balanceOf(address(this)) */\n      swap1\n      pop\n        /* \"RegarSwapPool.sol\":5649:5665  uint256 reserveB */\n      0x00\n        /* \"RegarSwapPool.sol\":5668:5674  tokenB */\n      dup3\n        /* \"RegarSwapPool.sol\":5668:5684  tokenB.balanceOf */\n      0xffffffffffffffffffffffffffffffffffffffff\n      and\n      0x70a08231\n        /* \"RegarSwapPool.sol\":5693:5697  this */\n      address\n        /* \"RegarSwapPool.sol\":5668:5699  tokenB.balanceOf(address(this)) */\n      mload(0x40)\n      dup3\n      0xffffffff\n      and\n      0xe0\n      shl\n      dup2\n      mstore\n      0x04\n      add\n      tag_151\n      swap2\n      swap1\n      tag_29\n      jump\t// in\n    tag_151:\n      0x20\n      mload(0x40)\n      dup1\n      dup4\n      sub\n      dup2\n      dup7\n      gas\n      staticcall\n      iszero\n      dup1\n      iszero\n      tag_153\n      jumpi\n      returndatacopy(0x00, 0x00, returndatasize)\n      revert(0x00, returndatasize)\n    tag_153:\n      pop\n      pop\n      pop\n      pop\n      mload(0x40)\n      returndatasize\n      not(0x1f)\n      0x1f\n      dup3\n      add\n      and\n      dup3\n      add\n      dup1\n      0x40\n      mstore\n      pop\n      dup2\n      add\n      swap1\n      tag_154\n      swap2\n      swap1\n      tag_60\n      jump\t// in\n    tag_154:\n        /* \"RegarSwapPool.sol\":5649:5699  uint256 reserveB = tokenB.balanceOf(address(this)) */\n      swap1\n      pop\n        /* \"RegarSwapPool.sol\":5824:5835  totalSupply */\n      sload(0x01)\n        /* \"RegarSwapPool.sol\":5812:5820  reserveA */\n      dup3\n        /* \"RegarSwapPool.sol\":5802:5809  _shares */\n      dup9\n        /* \"RegarSwapPool.sol\":5802:5820  _shares * reserveA */\n      tag_155\n      swap2\n      swap1\n      tag_126\n      jump\t// in\n    tag_155:\n        /* \"RegarSwapPool.sol\":5801:5835  (_shares * reserveA) / totalSupply */\n      tag_156\n      swap2\n      swap1\n      tag_131\n      jump\t// in\n    tag_156:\n        /* \"RegarSwapPool.sol\":5791:5835  amountA = (_shares * reserveA) / totalSupply */\n      swap6\n      pop\n        /* \"RegarSwapPool.sol\":5878:5889  totalSupply */\n      sload(0x01)\n        /* \"RegarSwapPool.sol\":5866:5874  reserveB */\n      dup2\n        /* \"RegarSwapPool.sol\":5856:5863  _shares */\n      dup9\n        /* \"RegarSwapPool.sol\":5856:5874  _shares * reserveB */\n      tag_157\n      swap2\n      swap1\n      tag_126\n      jump\t// in\n    tag_157:\n        /* \"RegarSwapPool.sol\":5855:5889  (_shares * reserveB) / totalSupply */\n      tag_158\n      swap2\n      swap1\n      tag_131\n      jump\t// in\n    tag_158:\n        /* \"RegarSwapPool.sol\":5845:5889  amountB = (_shares * reserveB) / totalSupply */\n      swap5\n      pop\n        /* \"RegarSwapPool.sol\":5918:5919  0 */\n      0x00\n        /* \"RegarSwapPool.sol\":5908:5915  amountA */\n      dup7\n        /* \"RegarSwapPool.sol\":5908:5919  amountA > 0 */\n      gt\n        /* \"RegarSwapPool.sol\":5908:5934  amountA > 0 && amountB > 0 */\n      dup1\n      iszero\n      tag_159\n      jumpi\n      pop\n        /* \"RegarSwapPool.sol\":5933:5934  0 */\n      0x00\n        /* \"RegarSwapPool.sol\":5923:5930  amountB */\n      dup6\n        /* \"RegarSwapPool.sol\":5923:5934  amountB > 0 */\n      gt\n        /* \"RegarSwapPool.sol\":5908:5934  amountA > 0 && amountB > 0 */\n    tag_159:\n        /* \"RegarSwapPool.sol\":5900:5995  require(amountA > 0 && amountB > 0, \"Liquidity Error: Resolved withdrawal amounts are invalid\") */\n      tag_160\n      jumpi\n      mload(0x40)\n      0x08c379a000000000000000000000000000000000000000000000000000000000\n      dup2\n      mstore\n      0x04\n      add\n      tag_161\n      swap1\n      tag_162\n      jump\t// in\n    tag_161:\n      mload(0x40)\n      dup1\n      swap2\n      sub\n      swap1\n      revert\n    tag_160:\n        /* \"RegarSwapPool.sol\":6063:6089  _burn(msg.sender, _shares) */\n      tag_163\n        /* \"RegarSwapPool.sol\":6069:6079  msg.sender */\n      caller\n        /* \"RegarSwapPool.sol\":6081:6088  _shares */\n      dup9\n        /* \"RegarSwapPool.sol\":6063:6068  _burn */\n      tag_164\n        /* \"RegarSwapPool.sol\":6063:6089  _burn(msg.sender, _shares) */\n      jump\t// in\n    tag_163:\n        /* \"RegarSwapPool.sol\":6171:6177  tokenA */\n      dup4\n        /* \"RegarSwapPool.sol\":6171:6186  tokenA.transfer */\n      0xffffffffffffffffffffffffffffffffffffffff\n      and\n      0xa9059cbb\n        /* \"RegarSwapPool.sol\":6187:6197  msg.sender */\n      caller\n        /* \"RegarSwapPool.sol\":6199:6206  amountA */\n      dup9\n        /* \"RegarSwapPool.sol\":6171:6207  tokenA.transfer(msg.sender, amountA) */\n      mload(0x40)\n      dup4\n      0xffffffff\n      and\n      0xe0\n      shl\n      dup2\n      mstore\n      0x04\n      add\n      tag_165\n      swap3\n      swap2\n      swap1\n      tag_65\n      jump\t// in\n    tag_165:\n      0x20\n      mload(0x40)\n      dup1\n      dup4\n      sub\n      dup2\n      0x00\n      dup8\n      gas\n      call\n      iszero\n      dup1\n      iszero\n      tag_167\n      jumpi\n      returndatacopy(0x00, 0x00, returndatasize)\n      revert(0x00, returndatasize)\n    tag_167:\n      pop\n      pop\n      pop\n      pop\n      mload(0x40)\n      returndatasize\n      not(0x1f)\n      0x1f\n      dup3\n      add\n      and\n      dup3\n      add\n      dup1\n      0x40\n      mstore\n      pop\n      dup2\n      add\n      swap1\n      tag_168\n      swap2\n      swap1\n      tag_69\n      jump\t// in\n    tag_168:\n        /* \"RegarSwapPool.sol\":6163:6260  require(tokenA.transfer(msg.sender, amountA), \"Blockchain Error: Token A refund transfer failed\") */\n      tag_169\n      jumpi\n      mload(0x40)\n      0x08c379a000000000000000000000000000000000000000000000000000000000\n      dup2\n      mstore\n      0x04\n      add\n      tag_170\n      swap1\n      tag_171\n      jump\t// in\n    tag_170:\n      mload(0x40)\n      dup1\n      swap2\n      sub\n      swap1\n      revert\n    tag_169:\n        /* \"RegarSwapPool.sol\":6278:6284  tokenB */\n      dup3\n        /* \"RegarSwapPool.sol\":6278:6293  tokenB.transfer */\n      0xffffffffffffffffffffffffffffffffffffffff\n      and\n      0xa9059cbb\n        /* \"RegarSwapPool.sol\":6294:6304  msg.sender */\n      caller\n        /* \"RegarSwapPool.sol\":6306:6313  amountB */\n      dup8\n        /* \"RegarSwapPool.sol\":6278:6314  tokenB.transfer(msg.sender, amountB) */\n      mload(0x40)\n      dup4\n      0xffffffff\n      and\n      0xe0\n      shl\n      dup2\n      mstore\n      0x04\n      add\n      tag_172\n      swap3\n      swap2\n      swap1\n      tag_65\n      jump\t// in\n    tag_172:\n      0x20\n      mload(0x40)\n      dup1\n      dup4\n      sub\n      dup2\n      0x00\n      dup8\n      gas\n      call\n      iszero\n      dup1\n      iszero\n      tag_174\n      jumpi\n      returndatacopy(0x00, 0x00, returndatasize)\n      revert(0x00, returndatasize)\n    tag_174:\n      pop\n      pop\n      pop\n      pop\n      mload(0x40)\n      returndatasize\n      not(0x1f)\n      0x1f\n      dup3\n      add\n      and\n      dup3\n      add\n      dup1\n      0x40\n      mstore\n      pop\n      dup2\n      add\n      swap1\n      tag_175\n      swap2\n      swap1\n      tag_69\n      jump\t// in\n    tag_175:\n        /* \"RegarSwapPool.sol\":6270:6367  require(tokenB.transfer(msg.sender, amountB), \"Blockchain Error: Token B refund transfer failed\") */\n      tag_176\n      jumpi\n      mload(0x40)\n      0x08c379a000000000000000000000000000000000000000000000000000000000\n      dup2\n      mstore\n      0x04\n      add\n      tag_177\n      swap1\n      tag_178\n      jump\t// in\n    tag_177:\n      mload(0x40)\n      dup1\n      swap2\n      sub\n      swap1\n      revert\n    tag_176:\n        /* \"RegarSwapPool.sol\":6402:6412  msg.sender */\n      caller\n        /* \"RegarSwapPool.sol\":6383:6440  LiquidityWithdrawn(msg.sender, amountA, amountB, _shares) */\n      0xffffffffffffffffffffffffffffffffffffffff\n      and\n      0x9746cd459b192e14d25047ee6f0c763709fc38435eb4883830cf715de0a40ac0\n        /* \"RegarSwapPool.sol\":6414:6421  amountA */\n      dup8\n        /* \"RegarSwapPool.sol\":6423:6430  amountB */\n      dup8\n        /* \"RegarSwapPool.sol\":6432:6439  _shares */\n      dup11\n        /* \"RegarSwapPool.sol\":6383:6440  LiquidityWithdrawn(msg.sender, amountA, amountB, _shares) */\n      mload(0x40)\n      tag_179\n      swap4\n      swap3\n      swap2\n      swap1\n      tag_142\n      jump\t// in\n    tag_179:\n      mload(0x40)\n      dup1\n      swap2\n      sub\n      swap1\n      log2\n        /* \"RegarSwapPool.sol\":5393:6447  {... */\n      pop\n      pop\n      pop\n      pop\n        /* \"RegarSwapPool.sol\":5233:6447  function removeLiquidity(... */\n      swap4\n      pop\n      swap4\n      swap2\n      pop\n      pop\n      jump\t// out\n        /* \"RegarSwapPool.sol\":7019:7321  function _sqrt(uint256 y) internal pure returns (uint256 z) {... */\n    tag_127:\n        /* \"RegarSwapPool.sol\":7068:7077  uint256 z */\n      0x00\n        /* \"RegarSwapPool.sol\":7097:7098  3 */\n      0x03\n        /* \"RegarSwapPool.sol\":7093:7094  y */\n      dup3\n        /* \"RegarSwapPool.sol\":7093:7098  y > 3 */\n      gt\n        /* \"RegarSwapPool.sol\":7089:7315  if (y > 3) {... */\n      iszero\n      tag_181\n      jumpi\n        /* \"RegarSwapPool.sol\":7118:7119  y */\n      dup2\n        /* \"RegarSwapPool.sol\":7114:7119  z = y */\n      swap1\n      pop\n        /* \"RegarSwapPool.sol\":7133:7142  uint256 x */\n      0x00\n        /* \"RegarSwapPool.sol\":7153:7154  1 */\n      0x01\n        /* \"RegarSwapPool.sol\":7149:7150  2 */\n      0x02\n        /* \"RegarSwapPool.sol\":7145:7146  y */\n      dup5\n        /* \"RegarSwapPool.sol\":7145:7150  y / 2 */\n      tag_182\n      swap2\n      swap1\n      tag_131\n      jump\t// in\n    tag_182:\n        /* \"RegarSwapPool.sol\":7145:7154  y / 2 + 1 */\n      tag_183\n      swap2\n      swap1\n      tag_184\n      jump\t// in\n    tag_183:\n        /* \"RegarSwapPool.sol\":7133:7154  uint256 x = y / 2 + 1 */\n      swap1\n      pop\n        /* \"RegarSwapPool.sol\":7168:7257  while (x < z) {... */\n    tag_185:\n        /* \"RegarSwapPool.sol\":7179:7180  z */\n      dup2\n        /* \"RegarSwapPool.sol\":7175:7176  x */\n      dup2\n        /* \"RegarSwapPool.sol\":7175:7180  x < z */\n      lt\n        /* \"RegarSwapPool.sol\":7168:7257  while (x < z) {... */\n      iszero\n      tag_186\n      jumpi\n        /* \"RegarSwapPool.sol\":7204:7205  x */\n      dup1\n        /* \"RegarSwapPool.sol\":7200:7205  z = x */\n      swap2\n      pop\n        /* \"RegarSwapPool.sol\":7241:7242  2 */\n      0x02\n        /* \"RegarSwapPool.sol\":7236:7237  x */\n      dup2\n        /* \"RegarSwapPool.sol\":7232:7233  x */\n      dup3\n        /* \"RegarSwapPool.sol\":7228:7229  y */\n      dup6\n        /* \"RegarSwapPool.sol\":7228:7233  y / x */\n      tag_187\n      swap2\n      swap1\n      tag_131\n      jump\t// in\n    tag_187:\n        /* \"RegarSwapPool.sol\":7228:7237  y / x + x */\n      tag_188\n      swap2\n      swap1\n      tag_184\n      jump\t// in\n    tag_188:\n        /* \"RegarSwapPool.sol\":7227:7242  (y / x + x) / 2 */\n      tag_189\n      swap2\n      swap1\n      tag_131\n      jump\t// in\n    tag_189:\n        /* \"RegarSwapPool.sol\":7223:7242  x = (y / x + x) / 2 */\n      swap1\n      pop\n        /* \"RegarSwapPool.sol\":7168:7257  while (x < z) {... */\n      jump(tag_185)\n    tag_186:\n        /* \"RegarSwapPool.sol\":7100:7267  {... */\n      pop\n        /* \"RegarSwapPool.sol\":7089:7315  if (y > 3) {... */\n      jump(tag_190)\n    tag_181:\n        /* \"RegarSwapPool.sol\":7282:7283  0 */\n      0x00\n        /* \"RegarSwapPool.sol\":7277:7278  y */\n      dup3\n        /* \"RegarSwapPool.sol\":7277:7283  y != 0 */\n      eq\n        /* \"RegarSwapPool.sol\":7273:7315  if (y != 0) {... */\n      tag_191\n      jumpi\n        /* \"RegarSwapPool.sol\":7303:7304  1 */\n      0x01\n        /* \"RegarSwapPool.sol\":7299:7304  z = 1 */\n      swap1\n      pop\n        /* \"RegarSwapPool.sol\":7273:7315  if (y != 0) {... */\n    tag_191:\n        /* \"RegarSwapPool.sol\":7089:7315  if (y > 3) {... */\n    tag_190:\n        /* \"RegarSwapPool.sol\":7019:7321  function _sqrt(uint256 y) internal pure returns (uint256 z) {... */\n      swap2\n      swap1\n      pop\n      jump\t// out\n        /* \"RegarSwapPool.sol\":7327:7432  function _min(uint256 x, uint256 y) internal pure returns (uint256) {... */\n    tag_135:\n        /* \"RegarSwapPool.sol\":7386:7393  uint256 */\n      0x00\n        /* \"RegarSwapPool.sol\":7416:7417  y */\n      dup2\n        /* \"RegarSwapPool.sol\":7412:7413  x */\n      dup4\n        /* \"RegarSwapPool.sol\":7412:7417  x < y */\n      lt\n        /* \"RegarSwapPool.sol\":7412:7425  x < y ? x : y */\n      tag_193\n      jumpi\n        /* \"RegarSwapPool.sol\":7424:7425  y */\n      dup2\n        /* \"RegarSwapPool.sol\":7412:7425  x < y ? x : y */\n      jump(tag_194)\n    tag_193:\n        /* \"RegarSwapPool.sol\":7420:7421  x */\n      dup3\n        /* \"RegarSwapPool.sol\":7412:7425  x < y ? x : y */\n    tag_194:\n        /* \"RegarSwapPool.sol\":7405:7425  return x < y ? x : y */\n      swap1\n      pop\n        /* \"RegarSwapPool.sol\":7327:7432  function _min(uint256 x, uint256 y) internal pure returns (uint256) {... */\n      swap3\n      swap2\n      pop\n      pop\n      jump\t// out\n        /* \"RegarSwapPool.sol\":1760:1937  function _mint(address _to, uint256 _amount) internal {... */\n    tag_140:\n        /* \"RegarSwapPool.sol\":1842:1849  _amount */\n      dup1\n        /* \"RegarSwapPool.sol\":1824:1833  balanceOf */\n      0x02\n        /* \"RegarSwapPool.sol\":1824:1838  balanceOf[_to] */\n      0x00\n        /* \"RegarSwapPool.sol\":1834:1837  _to */\n      dup5\n        /* \"RegarSwapPool.sol\":1824:1838  balanceOf[_to] */\n      0xffffffffffffffffffffffffffffffffffffffff\n      and\n      0xffffffffffffffffffffffffffffffffffffffff\n      and\n      dup2\n      mstore\n      0x20\n      add\n      swap1\n      dup2\n      mstore\n      0x20\n      add\n      0x00\n      keccak256\n      0x00\n        /* \"RegarSwapPool.sol\":1824:1849  balanceOf[_to] += _amount */\n      dup3\n      dup3\n      sload\n      tag_196\n      swap2\n      swap1\n      tag_184\n      jump\t// in\n    tag_196:\n      swap3\n      pop\n      pop\n      dup2\n      swap1\n      sstore\n      pop\n        /* \"RegarSwapPool.sol\":1874:1881  _amount */\n      dup1\n        /* \"RegarSwapPool.sol\":1859:1870  totalSupply */\n      0x01\n      0x00\n        /* \"RegarSwapPool.sol\":1859:1881  totalSupply += _amount */\n      dup3\n      dup3\n      sload\n      tag_197\n      swap2\n      swap1\n      tag_184\n      jump\t// in\n    tag_197:\n      swap3\n      pop\n      pop\n      dup2\n      swap1\n      sstore\n      pop\n        /* \"RegarSwapPool.sol\":1917:1920  _to */\n      dup2\n        /* \"RegarSwapPool.sol\":1896:1930  Transfer(address(0), _to, _amount) */\n      0xffffffffffffffffffffffffffffffffffffffff\n      and\n        /* \"RegarSwapPool.sol\":1913:1914  0 */\n      0x00\n        /* \"RegarSwapPool.sol\":1896:1930  Transfer(address(0), _to, _amount) */\n      0xffffffffffffffffffffffffffffffffffffffff\n      and\n      0xddf252ad1be2c89b69c2b068fc378daa952ba7f163c4a11628f55a4df523b3ef\n        /* \"RegarSwapPool.sol\":1922:1929  _amount */\n      dup4\n        /* \"RegarSwapPool.sol\":1896:1930  Transfer(address(0), _to, _amount) */\n      mload(0x40)\n      tag_198\n      swap2\n      swap1\n      tag_20\n      jump\t// in\n    tag_198:\n      mload(0x40)\n      dup1\n      swap2\n      sub\n      swap1\n      log3\n        /* \"RegarSwapPool.sol\":1760:1937  function _mint(address _to, uint256 _amount) internal {... */\n      pop\n      pop\n      jump\t// out\n        /* \"RegarSwapPool.sol\":1943:2126  function _burn(address _from, uint256 _amount) internal {... */\n    tag_164:\n        /* \"RegarSwapPool.sol\":2029:2036  _amount */\n      dup1\n        /* \"RegarSwapPool.sol\":2009:2018  balanceOf */\n      0x02\n        /* \"RegarSwapPool.sol\":2009:2025  balanceOf[_from] */\n      0x00\n        /* \"RegarSwapPool.sol\":2019:2024  _from */\n      dup5\n        /* \"RegarSwapPool.sol\":2009:2025  balanceOf[_from] */\n      0xffffffffffffffffffffffffffffffffffffffff\n      and\n      0xffffffffffffffffffffffffffffffffffffffff\n      and\n      dup2\n      mstore\n      0x20\n      add\n      swap1\n      dup2\n      mstore\n      0x20\n      add\n      0x00\n      keccak256\n      0x00\n        /* \"RegarSwapPool.sol\":2009:2036  balanceOf[_from] -= _amount */\n      dup3\n      dup3\n      sload\n      tag_200\n      swap2\n      swap1\n      tag_201\n      jump\t// in\n    tag_200:\n      swap3\n      pop\n      pop\n      dup2\n      swap1\n      sstore\n      pop\n        /* \"RegarSwapPool.sol\":2061:2068  _amount */\n      dup1\n        /* \"RegarSwapPool.sol\":2046:2057  totalSupply */\n      0x01\n      0x00\n        /* \"RegarSwapPool.sol\":2046:2068  totalSupply -= _amount */\n      dup3\n      dup3\n      sload\n      tag_202\n      swap2\n      swap1\n      tag_201\n      jump\t// in\n    tag_202:\n      swap3\n      pop\n      pop\n      dup2\n      swap1\n      sstore\n      pop\n        /* \"RegarSwapPool.sol\":2107:2108  0 */\n      0x00\n        /* \"RegarSwapPool.sol\":2083:2119  Transfer(_from, address(0), _amount) */\n      0xffffffffffffffffffffffffffffffffffffffff\n      and\n        /* \"RegarSwapPool.sol\":2092:2097  _from */\n      dup3\n        /* \"RegarSwapPool.sol\":2083:2119  Transfer(_from, address(0), _amount) */\n      0xffffffffffffffffffffffffffffffffffffffff\n      and\n      0xddf252ad1be2c89b69c2b068fc378daa952ba7f163c4a11628f55a4df523b3ef\n        /* \"RegarSwapPool.sol\":2111:2118  _amount */\n      dup4\n        /* \"RegarSwapPool.sol\":2083:2119  Transfer(_from, address(0), _amount) */\n      mload(0x40)\n      tag_203\n      swap2\n      swap1\n      tag_20\n      jump\t// in\n    tag_203:\n      mload(0x40)\n      dup1\n      swap2\n      sub\n      swap1\n      log3\n        /* \"RegarSwapPool.sol\":1943:2126  function _burn(address _from, uint256 _amount) internal {... */\n      pop\n      pop\n      jump\t// out\n        /* \"#utility.yul\":7:106   */\n    tag_204:\n        /* \"#utility.yul\":59:65   */\n      0x00\n        /* \"#utility.yul\":93:98   */\n      dup2\n        /* \"#utility.yul\":87:99   */\n      mload\n        /* \"#utility.yul\":77:99   */\n      swap1\n      pop\n        /* \"#utility.yul\":7:106   */\n      swap2\n      swap1\n      pop\n      jump\t// out\n        /* \"#utility.yul\":112:281   */\n    tag_205:\n        /* \"#utility.yul\":196:207   */\n      0x00\n        /* \"#utility.yul\":230:236   */\n      dup3\n        /* \"#utility.yul\":225:228   */\n      dup3\n        /* \"#utility.yul\":218:237   */\n      mstore\n        /* \"#utility.yul\":270:274   */\n      0x20\n        /* \"#utility.yul\":265:268   */\n      dup3\n        /* \"#utility.yul\":261:275   */\n      add\n        /* \"#utility.yul\":246:275   */\n      swap1\n      pop\n        /* \"#utility.yul\":112:281   */\n      swap3\n      swap2\n      pop\n      pop\n      jump\t// out\n        /* \"#utility.yul\":287:426   */\n    tag_206:\n        /* \"#utility.yul\":376:382   */\n      dup3\n        /* \"#utility.yul\":371:374   */\n      dup2\n        /* \"#utility.yul\":366:369   */\n      dup4\n        /* \"#utility.yul\":360:383   */\n      mcopy\n        /* \"#utility.yul\":417:418   */\n      0x00\n        /* \"#utility.yul\":408:414   */\n      dup4\n        /* \"#utility.yul\":403:406   */\n      dup4\n        /* \"#utility.yul\":399:415   */\n      add\n        /* \"#utility.yul\":392:419   */\n      mstore\n        /* \"#utility.yul\":287:426   */\n      pop\n      pop\n      pop\n      jump\t// out\n        /* \"#utility.yul\":432:534   */\n    tag_207:\n        /* \"#utility.yul\":473:479   */\n      0x00\n        /* \"#utility.yul\":524:526   */\n      0x1f\n        /* \"#utility.yul\":520:527   */\n      not\n        /* \"#utility.yul\":515:517   */\n      0x1f\n        /* \"#utility.yul\":508:513   */\n      dup4\n        /* \"#utility.yul\":504:518   */\n      add\n        /* \"#utility.yul\":500:528   */\n      and\n        /* \"#utility.yul\":490:528   */\n      swap1\n      pop\n        /* \"#utility.yul\":432:534   */\n      swap2\n      swap1\n      pop\n      jump\t// out\n        /* \"#utility.yul\":540:917   */\n    tag_208:\n        /* \"#utility.yul\":628:631   */\n      0x00\n        /* \"#utility.yul\":656:695   */\n      tag_261\n        /* \"#utility.yul\":689:694   */\n      dup3\n        /* \"#utility.yul\":656:695   */\n      tag_204\n      jump\t// in\n    tag_261:\n        /* \"#utility.yul\":711:782   */\n      tag_262\n        /* \"#utility.yul\":775:781   */\n      dup2\n        /* \"#utility.yul\":770:773   */\n      dup6\n        /* \"#utility.yul\":711:782   */\n      tag_205\n      jump\t// in\n    tag_262:\n        /* \"#utility.yul\":704:782   */\n      swap4\n      pop\n        /* \"#utility.yul\":791:856   */\n      tag_263\n        /* \"#utility.yul\":849:855   */\n      dup2\n        /* \"#utility.yul\":844:847   */\n      dup6\n        /* \"#utility.yul\":837:841   */\n      0x20\n        /* \"#utility.yul\":830:835   */\n      dup7\n        /* \"#utility.yul\":826:842   */\n      add\n        /* \"#utility.yul\":791:856   */\n      tag_206\n      jump\t// in\n    tag_263:\n        /* \"#utility.yul\":881:910   */\n      tag_264\n        /* \"#utility.yul\":903:909   */\n      dup2\n        /* \"#utility.yul\":881:910   */\n      tag_207\n      jump\t// in\n    tag_264:\n        /* \"#utility.yul\":876:879   */\n      dup5\n        /* \"#utility.yul\":872:911   */\n      add\n        /* \"#utility.yul\":865:911   */\n      swap2\n      pop\n        /* \"#utility.yul\":632:917   */\n      pop\n        /* \"#utility.yul\":540:917   */\n      swap3\n      swap2\n      pop\n      pop\n      jump\t// out\n        /* \"#utility.yul\":923:1236   */\n    tag_16:\n        /* \"#utility.yul\":1036:1040   */\n      0x00\n        /* \"#utility.yul\":1074:1076   */\n      0x20\n        /* \"#utility.yul\":1063:1072   */\n      dup3\n        /* \"#utility.yul\":1059:1077   */\n      add\n        /* \"#utility.yul\":1051:1077   */\n      swap1\n      pop\n        /* \"#utility.yul\":1123:1132   */\n      dup2\n        /* \"#utility.yul\":1117:1121   */\n      dup2\n        /* \"#utility.yul\":1113:1133   */\n      sub\n        /* \"#utility.yul\":1109:1110   */\n      0x00\n        /* \"#utility.yul\":1098:1107   */\n      dup4\n        /* \"#utility.yul\":1094:1111   */\n      add\n        /* \"#utility.yul\":1087:1134   */\n      mstore\n        /* \"#utility.yul\":1151:1229   */\n      tag_266\n        /* \"#utility.yul\":1224:1228   */\n      dup2\n        /* \"#utility.yul\":1215:1221   */\n      dup5\n        /* \"#utility.yul\":1151:1229   */\n      tag_208\n      jump\t// in\n    tag_266:\n        /* \"#utility.yul\":1143:1229   */\n      swap1\n      pop\n        /* \"#utility.yul\":923:1236   */\n      swap3\n      swap2\n      pop\n      pop\n      jump\t// out\n        /* \"#utility.yul\":1242:1319   */\n    tag_209:\n        /* \"#utility.yul\":1279:1286   */\n      0x00\n        /* \"#utility.yul\":1308:1313   */\n      dup2\n        /* \"#utility.yul\":1297:1313   */\n      swap1\n      pop\n        /* \"#utility.yul\":1242:1319   */\n      swap2\n      swap1\n      pop\n      jump\t// out\n        /* \"#utility.yul\":1325:1443   */\n    tag_210:\n        /* \"#utility.yul\":1412:1436   */\n      tag_269\n        /* \"#utility.yul\":1430:1435   */\n      dup2\n        /* \"#utility.yul\":1412:1436   */\n      tag_209\n      jump\t// in\n    tag_269:\n        /* \"#utility.yul\":1407:1410   */\n      dup3\n        /* \"#utility.yul\":1400:1437   */\n      mstore\n        /* \"#utility.yul\":1325:1443   */\n      pop\n      pop\n      jump\t// out\n        /* \"#utility.yul\":1449:1671   */\n    tag_20:\n        /* \"#utility.yul\":1542:1546   */\n      0x00\n        /* \"#utility.yul\":1580:1582   */\n      0x20\n        /* \"#utility.yul\":1569:1578   */\n      dup3\n        /* \"#utility.yul\":1565:1583   */\n      add\n        /* \"#utility.yul\":1557:1583   */\n      swap1\n      pop\n        /* \"#utility.yul\":1593:1664   */\n      tag_271\n        /* \"#utility.yul\":1661:1662   */\n      0x00\n        /* \"#utility.yul\":1650:1659   */\n      dup4\n        /* \"#utility.yul\":1646:1663   */\n      add\n        /* \"#utility.yul\":1637:1643   */\n      dup5\n        /* \"#utility.yul\":1593:1664   */\n      tag_210\n      jump\t// in\n    tag_271:\n        /* \"#utility.yul\":1449:1671   */\n      swap3\n      swap2\n      pop\n      pop\n      jump\t// out\n        /* \"#utility.yul\":1758:1875   */\n    tag_212:\n        /* \"#utility.yul\":1867:1868   */\n      0x00\n        /* \"#utility.yul\":1864:1865   */\n      0x00\n        /* \"#utility.yul\":1857:1869   */\n      revert\n        /* \"#utility.yul\":2004:2130   */\n    tag_214:\n        /* \"#utility.yul\":2041:2048   */\n      0x00\n        /* \"#utility.yul\":2081:2123   */\n      0xffffffffffffffffffffffffffffffffffffffff\n        /* \"#utility.yul\":2074:2079   */\n      dup3\n        /* \"#utility.yul\":2070:2124   */\n      and\n        /* \"#utility.yul\":2059:2124   */\n      swap1\n      pop\n        /* \"#utility.yul\":2004:2130   */\n      swap2\n      swap1\n      pop\n      jump\t// out\n        /* \"#utility.yul\":2136:2232   */\n    tag_215:\n        /* \"#utility.yul\":2173:2180   */\n      0x00\n        /* \"#utility.yul\":2202:2226   */\n      tag_277\n        /* \"#utility.yul\":2220:2225   */\n      dup3\n        /* \"#utility.yul\":2202:2226   */\n      tag_214\n      jump\t// in\n    tag_277:\n        /* \"#utility.yul\":2191:2226   */\n      swap1\n      pop\n        /* \"#utility.yul\":2136:2232   */\n      swap2\n      swap1\n      pop\n      jump\t// out\n        /* \"#utility.yul\":2238:2360   */\n    tag_216:\n        /* \"#utility.yul\":2311:2335   */\n      tag_279\n        /* \"#utility.yul\":2329:2334   */\n      dup2\n        /* \"#utility.yul\":2311:2335   */\n      tag_215\n      jump\t// in\n    tag_279:\n        /* \"#utility.yul\":2304:2309   */\n      dup2\n        /* \"#utility.yul\":2301:2336   */\n      eq\n        /* \"#utility.yul\":2291:2354   */\n      tag_280\n      jumpi\n        /* \"#utility.yul\":2350:2351   */\n      0x00\n        /* \"#utility.yul\":2347:2348   */\n      0x00\n        /* \"#utility.yul\":2340:2352   */\n      revert\n        /* \"#utility.yul\":2291:2354   */\n    tag_280:\n        /* \"#utility.yul\":2238:2360   */\n      pop\n      jump\t// out\n        /* \"#utility.yul\":2366:2505   */\n    tag_217:\n        /* \"#utility.yul\":2412:2417   */\n      0x00\n        /* \"#utility.yul\":2450:2456   */\n      dup2\n        /* \"#utility.yul\":2437:2457   */\n      calldataload\n        /* \"#utility.yul\":2428:2457   */\n      swap1\n      pop\n        /* \"#utility.yul\":2466:2499   */\n      tag_282\n        /* \"#utility.yul\":2493:2498   */\n      dup2\n        /* \"#utility.yul\":2466:2499   */\n      tag_216\n      jump\t// in\n    tag_282:\n        /* \"#utility.yul\":2366:2505   */\n      swap3\n      swap2\n      pop\n      pop\n      jump\t// out\n        /* \"#utility.yul\":2511:2840   */\n    tag_23:\n        /* \"#utility.yul\":2570:2576   */\n      0x00\n        /* \"#utility.yul\":2619:2621   */\n      0x20\n        /* \"#utility.yul\":2607:2616   */\n      dup3\n        /* \"#utility.yul\":2598:2605   */\n      dup5\n        /* \"#utility.yul\":2594:2617   */\n      sub\n        /* \"#utility.yul\":2590:2622   */\n      slt\n        /* \"#utility.yul\":2587:2706   */\n      iszero\n      tag_284\n      jumpi\n        /* \"#utility.yul\":2625:2704   */\n      tag_285\n      tag_212\n      jump\t// in\n    tag_285:\n        /* \"#utility.yul\":2587:2706   */\n    tag_284:\n        /* \"#utility.yul\":2745:2746   */\n      0x00\n        /* \"#utility.yul\":2770:2823   */\n      tag_286\n        /* \"#utility.yul\":2815:2822   */\n      dup5\n        /* \"#utility.yul\":2806:2812   */\n      dup3\n        /* \"#utility.yul\":2795:2804   */\n      dup6\n        /* \"#utility.yul\":2791:2813   */\n      add\n        /* \"#utility.yul\":2770:2823   */\n      tag_217\n      jump\t// in\n    tag_286:\n        /* \"#utility.yul\":2760:2823   */\n      swap2\n      pop\n        /* \"#utility.yul\":2716:2833   */\n      pop\n        /* \"#utility.yul\":2511:2840   */\n      swap3\n      swap2\n      pop\n      pop\n      jump\t// out\n        /* \"#utility.yul\":2846:2964   */\n    tag_218:\n        /* \"#utility.yul\":2933:2957   */\n      tag_288\n        /* \"#utility.yul\":2951:2956   */\n      dup2\n        /* \"#utility.yul\":2933:2957   */\n      tag_215\n      jump\t// in\n    tag_288:\n        /* \"#utility.yul\":2928:2931   */\n      dup3\n        /* \"#utility.yul\":2921:2958   */\n      mstore\n        /* \"#utility.yul\":2846:2964   */\n      pop\n      pop\n      jump\t// out\n        /* \"#utility.yul\":2970:3192   */\n    tag_29:\n        /* \"#utility.yul\":3063:3067   */\n      0x00\n        /* \"#utility.yul\":3101:3103   */\n      0x20\n        /* \"#utility.yul\":3090:3099   */\n      dup3\n        /* \"#utility.yul\":3086:3104   */\n      add\n        /* \"#utility.yul\":3078:3104   */\n      swap1\n      pop\n        /* \"#utility.yul\":3114:3185   */\n      tag_290\n        /* \"#utility.yul\":3182:3183   */\n      0x00\n        /* \"#utility.yul\":3171:3180   */\n      dup4\n        /* \"#utility.yul\":3167:3184   */\n      add\n        /* \"#utility.yul\":3158:3164   */\n      dup5\n        /* \"#utility.yul\":3114:3185   */\n      tag_218\n      jump\t// in\n    tag_290:\n        /* \"#utility.yul\":2970:3192   */\n      swap3\n      swap2\n      pop\n      pop\n      jump\t// out\n        /* \"#utility.yul\":3198:3320   */\n    tag_219:\n        /* \"#utility.yul\":3271:3295   */\n      tag_292\n        /* \"#utility.yul\":3289:3294   */\n      dup2\n        /* \"#utility.yul\":3271:3295   */\n      tag_209\n      jump\t// in\n    tag_292:\n        /* \"#utility.yul\":3264:3269   */\n      dup2\n        /* \"#utility.yul\":3261:3296   */\n      eq\n        /* \"#utility.yul\":3251:3314   */\n      tag_293\n      jumpi\n        /* \"#utility.yul\":3310:3311   */\n      0x00\n        /* \"#utility.yul\":3307:3308   */\n      0x00\n        /* \"#utility.yul\":3300:3312   */\n      revert\n        /* \"#utility.yul\":3251:3314   */\n    tag_293:\n        /* \"#utility.yul\":3198:3320   */\n      pop\n      jump\t// out\n        /* \"#utility.yul\":3326:3465   */\n    tag_220:\n        /* \"#utility.yul\":3372:3377   */\n      0x00\n        /* \"#utility.yul\":3410:3416   */\n      dup2\n        /* \"#utility.yul\":3397:3417   */\n      calldataload\n        /* \"#utility.yul\":3388:3417   */\n      swap1\n      pop\n        /* \"#utility.yul\":3426:3459   */\n      tag_295\n        /* \"#utility.yul\":3453:3458   */\n      dup2\n        /* \"#utility.yul\":3426:3459   */\n      tag_219\n      jump\t// in\n    tag_295:\n        /* \"#utility.yul\":3326:3465   */\n      swap3\n      swap2\n      pop\n      pop\n      jump\t// out\n        /* \"#utility.yul\":3471:3945   */\n    tag_35:\n        /* \"#utility.yul\":3539:3545   */\n      0x00\n        /* \"#utility.yul\":3547:3553   */\n      0x00\n        /* \"#utility.yul\":3596:3598   */\n      0x40\n        /* \"#utility.yul\":3584:3593   */\n      dup4\n        /* \"#utility.yul\":3575:3582   */\n      dup6\n        /* \"#utility.yul\":3571:3594   */\n      sub\n        /* \"#utility.yul\":3567:3599   */\n      slt\n        /* \"#utility.yul\":3564:3683   */\n      iszero\n      tag_297\n      jumpi\n        /* \"#utility.yul\":3602:3681   */\n      tag_298\n      tag_212\n      jump\t// in\n    tag_298:\n        /* \"#utility.yul\":3564:3683   */\n    tag_297:\n        /* \"#utility.yul\":3722:3723   */\n      0x00\n        /* \"#utility.yul\":3747:3800   */\n      tag_299\n        /* \"#utility.yul\":3792:3799   */\n      dup6\n        /* \"#utility.yul\":3783:3789   */\n      dup3\n        /* \"#utility.yul\":3772:3781   */\n      dup7\n        /* \"#utility.yul\":3768:3790   */\n      add\n        /* \"#utility.yul\":3747:3800   */\n      tag_217\n      jump\t// in\n    tag_299:\n        /* \"#utility.yul\":3737:3800   */\n      swap3\n      pop\n        /* \"#utility.yul\":3693:3810   */\n      pop\n        /* \"#utility.yul\":3849:3851   */\n      0x20\n        /* \"#utility.yul\":3875:3928   */\n      tag_300\n        /* \"#utility.yul\":3920:3927   */\n      dup6\n        /* \"#utility.yul\":3911:3917   */\n      dup3\n        /* \"#utility.yul\":3900:3909   */\n      dup7\n        /* \"#utility.yul\":3896:3918   */\n      add\n        /* \"#utility.yul\":3875:3928   */\n      tag_220\n      jump\t// in\n    tag_300:\n        /* \"#utility.yul\":3865:3928   */\n      swap2\n      pop\n        /* \"#utility.yul\":3820:3938   */\n      pop\n        /* \"#utility.yul\":3471:3945   */\n      swap3\n      pop\n      swap3\n      swap1\n      pop\n      jump\t// out\n        /* \"#utility.yul\":3951:4716   */\n    tag_39:\n        /* \"#utility.yul\":4037:4043   */\n      0x00\n        /* \"#utility.yul\":4045:4051   */\n      0x00\n        /* \"#utility.yul\":4053:4059   */\n      0x00\n        /* \"#utility.yul\":4061:4067   */\n      0x00\n        /* \"#utility.yul\":4110:4113   */\n      0x80\n        /* \"#utility.yul\":4098:4107   */\n      dup6\n        /* \"#utility.yul\":4089:4096   */\n      dup8\n        /* \"#utility.yul\":4085:4108   */\n      sub\n        /* \"#utility.yul\":4081:4114   */\n      slt\n        /* \"#utility.yul\":4078:4198   */\n      iszero\n      tag_302\n      jumpi\n        /* \"#utility.yul\":4117:4196   */\n      tag_303\n      tag_212\n      jump\t// in\n    tag_303:\n        /* \"#utility.yul\":4078:4198   */\n    tag_302:\n        /* \"#utility.yul\":4237:4238   */\n      0x00\n        /* \"#utility.yul\":4262:4315   */\n      tag_304\n        /* \"#utility.yul\":4307:4314   */\n      dup8\n        /* \"#utility.yul\":4298:4304   */\n      dup3\n        /* \"#utility.yul\":4287:4296   */\n      dup9\n        /* \"#utility.yul\":4283:4305   */\n      add\n        /* \"#utility.yul\":4262:4315   */\n      tag_217\n      jump\t// in\n    tag_304:\n        /* \"#utility.yul\":4252:4315   */\n      swap5\n      pop\n        /* \"#utility.yul\":4208:4325   */\n      pop\n        /* \"#utility.yul\":4364:4366   */\n      0x20\n        /* \"#utility.yul\":4390:4443   */\n      tag_305\n        /* \"#utility.yul\":4435:4442   */\n      dup8\n        /* \"#utility.yul\":4426:4432   */\n      dup3\n        /* \"#utility.yul\":4415:4424   */\n      dup9\n        /* \"#utility.yul\":4411:4433   */\n      add\n        /* \"#utility.yul\":4390:4443   */\n      tag_217\n      jump\t// in\n    tag_305:\n        /* \"#utility.yul\":4380:4443   */\n      swap4\n      pop\n        /* \"#utility.yul\":4335:4453   */\n      pop\n        /* \"#utility.yul\":4492:4494   */\n      0x40\n        /* \"#utility.yul\":4518:4571   */\n      tag_306\n        /* \"#utility.yul\":4563:4570   */\n      dup8\n        /* \"#utility.yul\":4554:4560   */\n      dup3\n        /* \"#utility.yul\":4543:4552   */\n      dup9\n        /* \"#utility.yul\":4539:4561   */\n      add\n        /* \"#utility.yul\":4518:4571   */\n      tag_220\n      jump\t// in\n    tag_306:\n        /* \"#utility.yul\":4508:4571   */\n      swap3\n      pop\n        /* \"#utility.yul\":4463:4581   */\n      pop\n        /* \"#utility.yul\":4620:4622   */\n      0x60\n        /* \"#utility.yul\":4646:4699   */\n      tag_307\n        /* \"#utility.yul\":4691:4698   */\n      dup8\n        /* \"#utility.yul\":4682:4688   */\n      dup3\n        /* \"#utility.yul\":4671:4680   */\n      dup9\n        /* \"#utility.yul\":4667:4689   */\n      add\n        /* \"#utility.yul\":4646:4699   */\n      tag_220\n      jump\t// in\n    tag_307:\n        /* \"#utility.yul\":4636:4699   */\n      swap2\n      pop\n        /* \"#utility.yul\":4591:4709   */\n      pop\n        /* \"#utility.yul\":3951:4716   */\n      swap3\n      swap6\n      swap2\n      swap5\n      pop\n      swap3\n      pop\n      jump\t// out\n        /* \"#utility.yul\":4722:5341   */\n    tag_47:\n        /* \"#utility.yul\":4799:4805   */\n      0x00\n        /* \"#utility.yul\":4807:4813   */\n      0x00\n        /* \"#utility.yul\":4815:4821   */\n      0x00\n        /* \"#utility.yul\":4864:4866   */\n      0x60\n        /* \"#utility.yul\":4852:4861   */\n      dup5\n        /* \"#utility.yul\":4843:4850   */\n      dup7\n        /* \"#utility.yul\":4839:4862   */\n      sub\n        /* \"#utility.yul\":4835:4867   */\n      slt\n        /* \"#utility.yul\":4832:4951   */\n      iszero\n      tag_309\n      jumpi\n        /* \"#utility.yul\":4870:4949   */\n      tag_310\n      tag_212\n      jump\t// in\n    tag_310:\n        /* \"#utility.yul\":4832:4951   */\n    tag_309:\n        /* \"#utility.yul\":4990:4991   */\n      0x00\n        /* \"#utility.yul\":5015:5068   */\n      tag_311\n        /* \"#utility.yul\":5060:5067   */\n      dup7\n        /* \"#utility.yul\":5051:5057   */\n      dup3\n        /* \"#utility.yul\":5040:5049   */\n      dup8\n        /* \"#utility.yul\":5036:5058   */\n      add\n        /* \"#utility.yul\":5015:5068   */\n      tag_217\n      jump\t// in\n    tag_311:\n        /* \"#utility.yul\":5005:5068   */\n      swap4\n      pop\n        /* \"#utility.yul\":4961:5078   */\n      pop\n        /* \"#utility.yul\":5117:5119   */\n      0x20\n        /* \"#utility.yul\":5143:5196   */\n      tag_312\n        /* \"#utility.yul\":5188:5195   */\n      dup7\n        /* \"#utility.yul\":5179:5185   */\n      dup3\n        /* \"#utility.yul\":5168:5177   */\n      dup8\n        /* \"#utility.yul\":5164:5186   */\n      add\n        /* \"#utility.yul\":5143:5196   */\n      tag_217\n      jump\t// in\n    tag_312:\n        /* \"#utility.yul\":5133:5196   */\n      swap3\n      pop\n        /* \"#utility.yul\":5088:5206   */\n      pop\n        /* \"#utility.yul\":5245:5247   */\n      0x40\n        /* \"#utility.yul\":5271:5324   */\n      tag_313\n        /* \"#utility.yul\":5316:5323   */\n      dup7\n        /* \"#utility.yul\":5307:5313   */\n      dup3\n        /* \"#utility.yul\":5296:5305   */\n      dup8\n        /* \"#utility.yul\":5292:5314   */\n      add\n        /* \"#utility.yul\":5271:5324   */\n      tag_220\n      jump\t// in\n    tag_313:\n        /* \"#utility.yul\":5261:5324   */\n      swap2\n      pop\n        /* \"#utility.yul\":5216:5334   */\n      pop\n        /* \"#utility.yul\":4722:5341   */\n      swap3\n      pop\n      swap3\n      pop\n      swap3\n      jump\t// out\n        /* \"#utility.yul\":5347:5679   */\n    tag_50:\n        /* \"#utility.yul\":5468:5472   */\n      0x00\n        /* \"#utility.yul\":5506:5508   */\n      0x40\n        /* \"#utility.yul\":5495:5504   */\n      dup3\n        /* \"#utility.yul\":5491:5509   */\n      add\n        /* \"#utility.yul\":5483:5509   */\n      swap1\n      pop\n        /* \"#utility.yul\":5519:5590   */\n      tag_315\n        /* \"#utility.yul\":5587:5588   */\n      0x00\n        /* \"#utility.yul\":5576:5585   */\n      dup4\n        /* \"#utility.yul\":5572:5589   */\n      add\n        /* \"#utility.yul\":5563:5569   */\n      dup6\n        /* \"#utility.yul\":5519:5590   */\n      tag_210\n      jump\t// in\n    tag_315:\n        /* \"#utility.yul\":5600:5672   */\n      tag_316\n        /* \"#utility.yul\":5668:5670   */\n      0x20\n        /* \"#utility.yul\":5657:5666   */\n      dup4\n        /* \"#utility.yul\":5653:5671   */\n      add\n        /* \"#utility.yul\":5644:5650   */\n      dup5\n        /* \"#utility.yul\":5600:5672   */\n      tag_210\n      jump\t// in\n    tag_316:\n        /* \"#utility.yul\":5347:5679   */\n      swap4\n      swap3\n      pop\n      pop\n      pop\n      jump\t// out\n        /* \"#utility.yul\":5685:5929   */\n    tag_221:\n        /* \"#utility.yul\":5825:5859   */\n      0x417574686f72697a6174696f6e204572726f723a204f6e6c79206f776e657220\n        /* \"#utility.yul\":5821:5822   */\n      0x00\n        /* \"#utility.yul\":5813:5819   */\n      dup3\n        /* \"#utility.yul\":5809:5823   */\n      add\n        /* \"#utility.yul\":5802:5860   */\n      mstore\n        /* \"#utility.yul\":5894:5921   */\n      0x63616e206578656375746520746869732066756e6374696f6e00000000000000\n        /* \"#utility.yul\":5889:5891   */\n      0x20\n        /* \"#utility.yul\":5881:5887   */\n      dup3\n        /* \"#utility.yul\":5877:5892   */\n      add\n        /* \"#utility.yul\":5870:5922   */\n      mstore\n        /* \"#utility.yul\":5685:5929   */\n      pop\n      jump\t// out\n        /* \"#utility.yul\":5935:6301   */\n    tag_222:\n        /* \"#utility.yul\":6077:6080   */\n      0x00\n        /* \"#utility.yul\":6098:6165   */\n      tag_319\n        /* \"#utility.yul\":6162:6164   */\n      0x39\n        /* \"#utility.yul\":6157:6160   */\n      dup4\n        /* \"#utility.yul\":6098:6165   */\n      tag_205\n      jump\t// in\n    tag_319:\n        /* \"#utility.yul\":6091:6165   */\n      swap2\n      pop\n        /* \"#utility.yul\":6174:6267   */\n      tag_320\n        /* \"#utility.yul\":6263:6266   */\n      dup3\n        /* \"#utility.yul\":6174:6267   */\n      tag_221\n      jump\t// in\n    tag_320:\n        /* \"#utility.yul\":6292:6294   */\n      0x40\n        /* \"#utility.yul\":6287:6290   */\n      dup3\n        /* \"#utility.yul\":6283:6295   */\n      add\n        /* \"#utility.yul\":6276:6295   */\n      swap1\n      pop\n        /* \"#utility.yul\":5935:6301   */\n      swap2\n      swap1\n      pop\n      jump\t// out\n        /* \"#utility.yul\":6307:6726   */\n    tag_54:\n        /* \"#utility.yul\":6473:6477   */\n      0x00\n        /* \"#utility.yul\":6511:6513   */\n      0x20\n        /* \"#utility.yul\":6500:6509   */\n      dup3\n        /* \"#utility.yul\":6496:6514   */\n      add\n        /* \"#utility.yul\":6488:6514   */\n      swap1\n      pop\n        /* \"#utility.yul\":6560:6569   */\n      dup2\n        /* \"#utility.yul\":6554:6558   */\n      dup2\n        /* \"#utility.yul\":6550:6570   */\n      sub\n        /* \"#utility.yul\":6546:6547   */\n      0x00\n        /* \"#utility.yul\":6535:6544   */\n      dup4\n        /* \"#utility.yul\":6531:6548   */\n      add\n        /* \"#utility.yul\":6524:6571   */\n      mstore\n        /* \"#utility.yul\":6588:6719   */\n      tag_322\n        /* \"#utility.yul\":6714:6718   */\n      dup2\n        /* \"#utility.yul\":6588:6719   */\n      tag_222\n      jump\t// in\n    tag_322:\n        /* \"#utility.yul\":6580:6719   */\n      swap1\n      pop\n        /* \"#utility.yul\":6307:6726   */\n      swap2\n      swap1\n      pop\n      jump\t// out\n        /* \"#utility.yul\":6732:6875   */\n    tag_223:\n        /* \"#utility.yul\":6789:6794   */\n      0x00\n        /* \"#utility.yul\":6820:6826   */\n      dup2\n        /* \"#utility.yul\":6814:6827   */\n      mload\n        /* \"#utility.yul\":6805:6827   */\n      swap1\n      pop\n        /* \"#utility.yul\":6836:6869   */\n      tag_324\n        /* \"#utility.yul\":6863:6868   */\n      dup2\n        /* \"#utility.yul\":6836:6869   */\n      tag_219\n      jump\t// in\n    tag_324:\n        /* \"#utility.yul\":6732:6875   */\n      swap3\n      swap2\n      pop\n      pop\n      jump\t// out\n        /* \"#utility.yul\":6881:7232   */\n    tag_60:\n        /* \"#utility.yul\":6951:6957   */\n      0x00\n        /* \"#utility.yul\":7000:7002   */\n      0x20\n        /* \"#utility.yul\":6988:6997   */\n      dup3\n        /* \"#utility.yul\":6979:6986   */\n      dup5\n        /* \"#utility.yul\":6975:6998   */\n      sub\n        /* \"#utility.yul\":6971:7003   */\n      slt\n        /* \"#utility.yul\":6968:7087   */\n      iszero\n      tag_326\n      jumpi\n        /* \"#utility.yul\":7006:7085   */\n      tag_327\n      tag_212\n      jump\t// in\n    tag_327:\n        /* \"#utility.yul\":6968:7087   */\n    tag_326:\n        /* \"#utility.yul\":7126:7127   */\n      0x00\n        /* \"#utility.yul\":7151:7215   */\n      tag_328\n        /* \"#utility.yul\":7207:7214   */\n      dup5\n        /* \"#utility.yul\":7198:7204   */\n      dup3\n        /* \"#utility.yul\":7187:7196   */\n      dup6\n        /* \"#utility.yul\":7183:7205   */\n      add\n        /* \"#utility.yul\":7151:7215   */\n      tag_223\n      jump\t// in\n    tag_328:\n        /* \"#utility.yul\":7141:7215   */\n      swap2\n      pop\n        /* \"#utility.yul\":7097:7225   */\n      pop\n        /* \"#utility.yul\":6881:7232   */\n      swap3\n      swap2\n      pop\n      pop\n      jump\t// out\n        /* \"#utility.yul\":7238:7480   */\n    tag_224:\n        /* \"#utility.yul\":7378:7412   */\n      0x4c6971756964697479204572726f723a20526571756573742065786365656473\n        /* \"#utility.yul\":7374:7375   */\n      0x00\n        /* \"#utility.yul\":7366:7372   */\n      dup3\n        /* \"#utility.yul\":7362:7376   */\n      add\n        /* \"#utility.yul\":7355:7413   */\n      mstore\n        /* \"#utility.yul\":7447:7472   */\n      0x20617661696c61626c6520706f6f6c2062616c616e6365000000000000000000\n        /* \"#utility.yul\":7442:7444   */\n      0x20\n        /* \"#utility.yul\":7434:7440   */\n      dup3\n        /* \"#utility.yul\":7430:7445   */\n      add\n        /* \"#utility.yul\":7423:7473   */\n      mstore\n        /* \"#utility.yul\":7238:7480   */\n      pop\n      jump\t// out\n        /* \"#utility.yul\":7486:7852   */\n    tag_225:\n        /* \"#utility.yul\":7628:7631   */\n      0x00\n        /* \"#utility.yul\":7649:7716   */\n      tag_331\n        /* \"#utility.yul\":7713:7715   */\n      0x37\n        /* \"#utility.yul\":7708:7711   */\n      dup4\n        /* \"#utility.yul\":7649:7716   */\n      tag_205\n      jump\t// in\n    tag_331:\n        /* \"#utility.yul\":7642:7716   */\n      swap2\n      pop\n        /* \"#utility.yul\":7725:7818   */\n      tag_332\n        /* \"#utility.yul\":7814:7817   */\n      dup3\n        /* \"#utility.yul\":7725:7818   */\n      tag_224\n      jump\t// in\n    tag_332:\n        /* \"#utility.yul\":7843:7845   */\n      0x40\n        /* \"#utility.yul\":7838:7841   */\n      dup3\n        /* \"#utility.yul\":7834:7846   */\n      add\n        /* \"#utility.yul\":7827:7846   */\n      swap1\n      pop\n        /* \"#utility.yul\":7486:7852   */\n      swap2\n      swap1\n      pop\n      jump\t// out\n        /* \"#utility.yul\":7858:8277   */\n    tag_63:\n        /* \"#utility.yul\":8024:8028   */\n      0x00\n        /* \"#utility.yul\":8062:8064   */\n      0x20\n        /* \"#utility.yul\":8051:8060   */\n      dup3\n        /* \"#utility.yul\":8047:8065   */\n      add\n        /* \"#utility.yul\":8039:8065   */\n      swap1\n      pop\n        /* \"#utility.yul\":8111:8120   */\n      dup2\n        /* \"#utility.yul\":8105:8109   */\n      dup2\n        /* \"#utility.yul\":8101:8121   */\n      sub\n        /* \"#utility.yul\":8097:8098   */\n      0x00\n        /* \"#utility.yul\":8086:8095   */\n      dup4\n        /* \"#utility.yul\":8082:8099   */\n      add\n        /* \"#utility.yul\":8075:8122   */\n      mstore\n        /* \"#utility.yul\":8139:8270   */\n      tag_334\n        /* \"#utility.yul\":8265:8269   */\n      dup2\n        /* \"#utility.yul\":8139:8270   */\n      tag_225\n      jump\t// in\n    tag_334:\n        /* \"#utility.yul\":8131:8270   */\n      swap1\n      pop\n        /* \"#utility.yul\":7858:8277   */\n      swap2\n      swap1\n      pop\n      jump\t// out\n        /* \"#utility.yul\":8283:8615   */\n    tag_65:\n        /* \"#utility.yul\":8404:8408   */\n      0x00\n        /* \"#utility.yul\":8442:8444   */\n      0x40\n        /* \"#utility.yul\":8431:8440   */\n      dup3\n        /* \"#utility.yul\":8427:8445   */\n      add\n        /* \"#utility.yul\":8419:8445   */\n      swap1\n      pop\n        /* \"#utility.yul\":8455:8526   */\n      tag_336\n        /* \"#utility.yul\":8523:8524   */\n      0x00\n        /* \"#utility.yul\":8512:8521   */\n      dup4\n        /* \"#utility.yul\":8508:8525   */\n      add\n        /* \"#utility.yul\":8499:8505   */\n      dup6\n        /* \"#utility.yul\":8455:8526   */\n      tag_218\n      jump\t// in\n    tag_336:\n        /* \"#utility.yul\":8536:8608   */\n      tag_337\n        /* \"#utility.yul\":8604:8606   */\n      0x20\n        /* \"#utility.yul\":8593:8602   */\n      dup4\n        /* \"#utility.yul\":8589:8607   */\n      add\n        /* \"#utility.yul\":8580:8586   */\n      dup5\n        /* \"#utility.yul\":8536:8608   */\n      tag_210\n      jump\t// in\n    tag_337:\n        /* \"#utility.yul\":8283:8615   */\n      swap4\n      swap3\n      pop\n      pop\n      pop\n      jump\t// out\n        /* \"#utility.yul\":8621:8711   */\n    tag_226:\n        /* \"#utility.yul\":8655:8662   */\n      0x00\n        /* \"#utility.yul\":8698:8703   */\n      dup2\n        /* \"#utility.yul\":8691:8704   */\n      iszero\n        /* \"#utility.yul\":8684:8705   */\n      iszero\n        /* \"#utility.yul\":8673:8705   */\n      swap1\n      pop\n        /* \"#utility.yul\":8621:8711   */\n      swap2\n      swap1\n      pop\n      jump\t// out\n        /* \"#utility.yul\":8717:8833   */\n    tag_227:\n        /* \"#utility.yul\":8787:8808   */\n      tag_340\n        /* \"#utility.yul\":8802:8807   */\n      dup2\n        /* \"#utility.yul\":8787:8808   */\n      tag_226\n      jump\t// in\n    tag_340:\n        /* \"#utility.yul\":8780:8785   */\n      dup2\n        /* \"#utility.yul\":8777:8809   */\n      eq\n        /* \"#utility.yul\":8767:8827   */\n      tag_341\n      jumpi\n        /* \"#utility.yul\":8823:8824   */\n      0x00\n        /* \"#utility.yul\":8820:8821   */\n      0x00\n        /* \"#utility.yul\":8813:8825   */\n      revert\n        /* \"#utility.yul\":8767:8827   */\n    tag_341:\n        /* \"#utility.yul\":8717:8833   */\n      pop\n      jump\t// out\n        /* \"#utility.yul\":8839:8976   */\n    tag_228:\n        /* \"#utility.yul\":8893:8898   */\n      0x00\n        /* \"#utility.yul\":8924:8930   */\n      dup2\n        /* \"#utility.yul\":8918:8931   */\n      mload\n        /* \"#utility.yul\":8909:8931   */\n      swap1\n      pop\n        /* \"#utility.yul\":8940:8970   */\n      tag_343\n        /* \"#utility.yul\":8964:8969   */\n      dup2\n        /* \"#utility.yul\":8940:8970   */\n      tag_227\n      jump\t// in\n    tag_343:\n        /* \"#utility.yul\":8839:8976   */\n      swap3\n      swap2\n      pop\n      pop\n      jump\t// out\n        /* \"#utility.yul\":8982:9327   */\n    tag_69:\n        /* \"#utility.yul\":9049:9055   */\n      0x00\n        /* \"#utility.yul\":9098:9100   */\n      0x20\n        /* \"#utility.yul\":9086:9095   */\n      dup3\n        /* \"#utility.yul\":9077:9084   */\n      dup5\n        /* \"#utility.yul\":9073:9096   */\n      sub\n        /* \"#utility.yul\":9069:9101   */\n      slt\n        /* \"#utility.yul\":9066:9185   */\n      iszero\n      tag_345\n      jumpi\n        /* \"#utility.yul\":9104:9183   */\n      tag_346\n      tag_212\n      jump\t// in\n    tag_346:\n        /* \"#utility.yul\":9066:9185   */\n    tag_345:\n        /* \"#utility.yul\":9224:9225   */\n      0x00\n        /* \"#utility.yul\":9249:9310   */\n      tag_347\n        /* \"#utility.yul\":9302:9309   */\n      dup5\n        /* \"#utility.yul\":9293:9299   */\n      dup3\n        /* \"#utility.yul\":9282:9291   */\n      dup6\n        /* \"#utility.yul\":9278:9300   */\n      add\n        /* \"#utility.yul\":9249:9310   */\n      tag_228\n      jump\t// in\n    tag_347:\n        /* \"#utility.yul\":9239:9310   */\n      swap2\n      pop\n        /* \"#utility.yul\":9195:9320   */\n      pop\n        /* \"#utility.yul\":8982:9327   */\n      swap3\n      swap2\n      pop\n      pop\n      jump\t// out\n        /* \"#utility.yul\":9333:9564   */\n    tag_229:\n        /* \"#utility.yul\":9473:9507   */\n      0x426c6f636b636861696e204572726f723a205769746864726177616c2070726f\n        /* \"#utility.yul\":9469:9470   */\n      0x00\n        /* \"#utility.yul\":9461:9467   */\n      dup3\n        /* \"#utility.yul\":9457:9471   */\n      add\n        /* \"#utility.yul\":9450:9508   */\n      mstore\n        /* \"#utility.yul\":9542:9556   */\n      0x63657373206661696c65642e0000000000000000000000000000000000000000\n        /* \"#utility.yul\":9537:9539   */\n      0x20\n        /* \"#utility.yul\":9529:9535   */\n      dup3\n        /* \"#utility.yul\":9525:9540   */\n      add\n        /* \"#utility.yul\":9518:9557   */\n      mstore\n        /* \"#utility.yul\":9333:9564   */\n      pop\n      jump\t// out\n        /* \"#utility.yul\":9570:9936   */\n    tag_230:\n        /* \"#utility.yul\":9712:9715   */\n      0x00\n        /* \"#utility.yul\":9733:9800   */\n      tag_350\n        /* \"#utility.yul\":9797:9799   */\n      0x2c\n        /* \"#utility.yul\":9792:9795   */\n      dup4\n        /* \"#utility.yul\":9733:9800   */\n      tag_205\n      jump\t// in\n    tag_350:\n        /* \"#utility.yul\":9726:9800   */\n      swap2\n      pop\n        /* \"#utility.yul\":9809:9902   */\n      tag_351\n        /* \"#utility.yul\":9898:9901   */\n      dup3\n        /* \"#utility.yul\":9809:9902   */\n      tag_229\n      jump\t// in\n    tag_351:\n        /* \"#utility.yul\":9927:9929   */\n      0x40\n        /* \"#utility.yul\":9922:9925   */\n      dup3\n        /* \"#utility.yul\":9918:9930   */\n      add\n        /* \"#utility.yul\":9911:9930   */\n      swap1\n      pop\n        /* \"#utility.yul\":9570:9936   */\n      swap2\n      swap1\n      pop\n      jump\t// out\n        /* \"#utility.yul\":9942:10361   */\n    tag_72:\n        /* \"#utility.yul\":10108:10112   */\n      0x00\n        /* \"#utility.yul\":10146:10148   */\n      0x20\n        /* \"#utility.yul\":10135:10144   */\n      dup3\n        /* \"#utility.yul\":10131:10149   */\n      add\n        /* \"#utility.yul\":10123:10149   */\n      swap1\n      pop\n        /* \"#utility.yul\":10195:10204   */\n      dup2\n        /* \"#utility.yul\":10189:10193   */\n      dup2\n        /* \"#utility.yul\":10185:10205   */\n      sub\n        /* \"#utility.yul\":10181:10182   */\n      0x00\n        /* \"#utility.yul\":10170:10179   */\n      dup4\n        /* \"#utility.yul\":10166:10183   */\n      add\n        /* \"#utility.yul\":10159:10206   */\n      mstore\n        /* \"#utility.yul\":10223:10354   */\n      tag_353\n        /* \"#utility.yul\":10349:10353   */\n      dup2\n        /* \"#utility.yul\":10223:10354   */\n      tag_230\n      jump\t// in\n    tag_353:\n        /* \"#utility.yul\":10215:10354   */\n      swap1\n      pop\n        /* \"#utility.yul\":9942:10361   */\n      swap2\n      swap1\n      pop\n      jump\t// out\n        /* \"#utility.yul\":10367:10603   */\n    tag_231:\n        /* \"#utility.yul\":10507:10541   */\n      0x457865637574696f6e204572726f723a20416d6f756e74206d75737420626520\n        /* \"#utility.yul\":10503:10504   */\n      0x00\n        /* \"#utility.yul\":10495:10501   */\n      dup3\n        /* \"#utility.yul\":10491:10505   */\n      add\n        /* \"#utility.yul\":10484:10542   */\n      mstore\n        /* \"#utility.yul\":10576:10595   */\n      0x67726561746572207468616e207a65726f000000000000000000000000000000\n        /* \"#utility.yul\":10571:10573   */\n      0x20\n        /* \"#utility.yul\":10563:10569   */\n      dup3\n        /* \"#utility.yul\":10559:10574   */\n      add\n        /* \"#utility.yul\":10552:10596   */\n      mstore\n        /* \"#utility.yul\":10367:10603   */\n      pop\n      jump\t// out\n        /* \"#utility.yul\":10609:10975   */\n    tag_232:\n        /* \"#utility.yul\":10751:10754   */\n      0x00\n        /* \"#utility.yul\":10772:10839   */\n      tag_356\n        /* \"#utility.yul\":10836:10838   */\n      0x31\n        /* \"#utility.yul\":10831:10834   */\n      dup4\n        /* \"#utility.yul\":10772:10839   */\n      tag_205\n      jump\t// in\n    tag_356:\n        /* \"#utility.yul\":10765:10839   */\n      swap2\n      pop\n        /* \"#utility.yul\":10848:10941   */\n      tag_357\n        /* \"#utility.yul\":10937:10940   */\n      dup3\n        /* \"#utility.yul\":10848:10941   */\n      tag_231\n      jump\t// in\n    tag_357:\n        /* \"#utility.yul\":10966:10968   */\n      0x40\n        /* \"#utility.yul\":10961:10964   */\n      dup3\n        /* \"#utility.yul\":10957:10969   */\n      add\n        /* \"#utility.yul\":10950:10969   */\n      swap1\n      pop\n        /* \"#utility.yul\":10609:10975   */\n      swap2\n      swap1\n      pop\n      jump\t// out\n        /* \"#utility.yul\":10981:11400   */\n    tag_76:\n        /* \"#utility.yul\":11147:11151   */\n      0x00\n        /* \"#utility.yul\":11185:11187   */\n      0x20\n        /* \"#utility.yul\":11174:11183   */\n      dup3\n        /* \"#utility.yul\":11170:11188   */\n      add\n        /* \"#utility.yul\":11162:11188   */\n      swap1\n      pop\n        /* \"#utility.yul\":11234:11243   */\n      dup2\n        /* \"#utility.yul\":11228:11232   */\n      dup2\n        /* \"#utility.yul\":11224:11244   */\n      sub\n        /* \"#utility.yul\":11220:11221   */\n      0x00\n        /* \"#utility.yul\":11209:11218   */\n      dup4\n        /* \"#utility.yul\":11205:11222   */\n      add\n        /* \"#utility.yul\":11198:11245   */\n      mstore\n        /* \"#utility.yul\":11262:11393   */\n      tag_359\n        /* \"#utility.yul\":11388:11392   */\n      dup2\n        /* \"#utility.yul\":11262:11393   */\n      tag_232\n      jump\t// in\n    tag_359:\n        /* \"#utility.yul\":11254:11393   */\n      swap1\n      pop\n        /* \"#utility.yul\":10981:11400   */\n      swap2\n      swap1\n      pop\n      jump\t// out\n        /* \"#utility.yul\":11406:11848   */\n    tag_78:\n        /* \"#utility.yul\":11555:11559   */\n      0x00\n        /* \"#utility.yul\":11593:11595   */\n      0x60\n        /* \"#utility.yul\":11582:11591   */\n      dup3\n        /* \"#utility.yul\":11578:11596   */\n      add\n        /* \"#utility.yul\":11570:11596   */\n      swap1\n      pop\n        /* \"#utility.yul\":11606:11677   */\n      tag_361\n        /* \"#utility.yul\":11674:11675   */\n      0x00\n        /* \"#utility.yul\":11663:11672   */\n      dup4\n        /* \"#utility.yul\":11659:11676   */\n      add\n        /* \"#utility.yul\":11650:11656   */\n      dup7\n        /* \"#utility.yul\":11606:11677   */\n      tag_218\n      jump\t// in\n    tag_361:\n        /* \"#utility.yul\":11687:11759   */\n      tag_362\n        /* \"#utility.yul\":11755:11757   */\n      0x20\n        /* \"#utility.yul\":11744:11753   */\n      dup4\n        /* \"#utility.yul\":11740:11758   */\n      add\n        /* \"#utility.yul\":11731:11737   */\n      dup6\n        /* \"#utility.yul\":11687:11759   */\n      tag_218\n      jump\t// in\n    tag_362:\n        /* \"#utility.yul\":11769:11841   */\n      tag_363\n        /* \"#utility.yul\":11837:11839   */\n      0x40\n        /* \"#utility.yul\":11826:11835   */\n      dup4\n        /* \"#utility.yul\":11822:11840   */\n      add\n        /* \"#utility.yul\":11813:11819   */\n      dup5\n        /* \"#utility.yul\":11769:11841   */\n      tag_210\n      jump\t// in\n    tag_363:\n        /* \"#utility.yul\":11406:11848   */\n      swap5\n      swap4\n      pop\n      pop\n      pop\n      pop\n      jump\t// out\n        /* \"#utility.yul\":11854:12151   */\n    tag_233:\n        /* \"#utility.yul\":11994:12028   */\n      0x426c6f636b636861696e204572726f723a20546f6b656e206465706f73697420\n        /* \"#utility.yul\":11990:11991   */\n      0x00\n        /* \"#utility.yul\":11982:11988   */\n      dup3\n        /* \"#utility.yul\":11978:11992   */\n      add\n        /* \"#utility.yul\":11971:12029   */\n      mstore\n        /* \"#utility.yul\":12063:12097   */\n      0x6661696c65642e20436865636b20757365722062616c616e636520616e642061\n        /* \"#utility.yul\":12058:12060   */\n      0x20\n        /* \"#utility.yul\":12050:12056   */\n      dup3\n        /* \"#utility.yul\":12046:12061   */\n      add\n        /* \"#utility.yul\":12039:12098   */\n      mstore\n        /* \"#utility.yul\":12132:12143   */\n      0x6c6c6f77616e63652e0000000000000000000000000000000000000000000000\n        /* \"#utility.yul\":12127:12129   */\n      0x40\n        /* \"#utility.yul\":12119:12125   */\n      dup3\n        /* \"#utility.yul\":12115:12130   */\n      add\n        /* \"#utility.yul\":12108:12144   */\n      mstore\n        /* \"#utility.yul\":11854:12151   */\n      pop\n      jump\t// out\n        /* \"#utility.yul\":12157:12523   */\n    tag_234:\n        /* \"#utility.yul\":12299:12302   */\n      0x00\n        /* \"#utility.yul\":12320:12387   */\n      tag_366\n        /* \"#utility.yul\":12384:12386   */\n      0x49\n        /* \"#utility.yul\":12379:12382   */\n      dup4\n        /* \"#utility.yul\":12320:12387   */\n      tag_205\n      jump\t// in\n    tag_366:\n        /* \"#utility.yul\":12313:12387   */\n      swap2\n      pop\n        /* \"#utility.yul\":12396:12489   */\n      tag_367\n        /* \"#utility.yul\":12485:12488   */\n      dup3\n        /* \"#utility.yul\":12396:12489   */\n      tag_233\n      jump\t// in\n    tag_367:\n        /* \"#utility.yul\":12514:12516   */\n      0x60\n        /* \"#utility.yul\":12509:12512   */\n      dup3\n        /* \"#utility.yul\":12505:12517   */\n      add\n        /* \"#utility.yul\":12498:12517   */\n      swap1\n      pop\n        /* \"#utility.yul\":12157:12523   */\n      swap2\n      swap1\n      pop\n      jump\t// out\n        /* \"#utility.yul\":12529:12948   */\n    tag_84:\n        /* \"#utility.yul\":12695:12699   */\n      0x00\n        /* \"#utility.yul\":12733:12735   */\n      0x20\n        /* \"#utility.yul\":12722:12731   */\n      dup3\n        /* \"#utility.yul\":12718:12736   */\n      add\n        /* \"#utility.yul\":12710:12736   */\n      swap1\n      pop\n        /* \"#utility.yul\":12782:12791   */\n      dup2\n        /* \"#utility.yul\":12776:12780   */\n      dup2\n        /* \"#utility.yul\":12772:12792   */\n      sub\n        /* \"#utility.yul\":12768:12769   */\n      0x00\n        /* \"#utility.yul\":12757:12766   */\n      dup4\n        /* \"#utility.yul\":12753:12770   */\n      add\n        /* \"#utility.yul\":12746:12793   */\n      mstore\n        /* \"#utility.yul\":12810:12941   */\n      tag_369\n        /* \"#utility.yul\":12936:12940   */\n      dup2\n        /* \"#utility.yul\":12810:12941   */\n      tag_234\n      jump\t// in\n    tag_369:\n        /* \"#utility.yul\":12802:12941   */\n      swap1\n      pop\n        /* \"#utility.yul\":12529:12948   */\n      swap2\n      swap1\n      pop\n      jump\t// out\n        /* \"#utility.yul\":12954:13201   */\n    tag_235:\n        /* \"#utility.yul\":13094:13128   */\n      0x4c6971756964697479204572726f723a20496e73756666696369656e74206675\n        /* \"#utility.yul\":13090:13091   */\n      0x00\n        /* \"#utility.yul\":13082:13088   */\n      dup3\n        /* \"#utility.yul\":13078:13092   */\n      add\n        /* \"#utility.yul\":13071:13129   */\n      mstore\n        /* \"#utility.yul\":13163:13193   */\n      0x6e647320696e736964652074686520706f6f6c20636f6e747261637400000000\n        /* \"#utility.yul\":13158:13160   */\n      0x20\n        /* \"#utility.yul\":13150:13156   */\n      dup3\n        /* \"#utility.yul\":13146:13161   */\n      add\n        /* \"#utility.yul\":13139:13194   */\n      mstore\n        /* \"#utility.yul\":12954:13201   */\n      pop\n      jump\t// out\n        /* \"#utility.yul\":13207:13573   */\n    tag_236:\n        /* \"#utility.yul\":13349:13352   */\n      0x00\n        /* \"#utility.yul\":13370:13437   */\n      tag_372\n        /* \"#utility.yul\":13434:13436   */\n      0x3c\n        /* \"#utility.yul\":13429:13432   */\n      dup4\n        /* \"#utility.yul\":13370:13437   */\n      tag_205\n      jump\t// in\n    tag_372:\n        /* \"#utility.yul\":13363:13437   */\n      swap2\n      pop\n        /* \"#utility.yul\":13446:13539   */\n      tag_373\n        /* \"#utility.yul\":13535:13538   */\n      dup3\n        /* \"#utility.yul\":13446:13539   */\n      tag_235\n      jump\t// in\n    tag_373:\n        /* \"#utility.yul\":13564:13566   */\n      0x40\n        /* \"#utility.yul\":13559:13562   */\n      dup3\n        /* \"#utility.yul\":13555:13567   */\n      add\n        /* \"#utility.yul\":13548:13567   */\n      swap1\n      pop\n        /* \"#utility.yul\":13207:13573   */\n      swap2\n      swap1\n      pop\n      jump\t// out\n        /* \"#utility.yul\":13579:13998   */\n    tag_91:\n        /* \"#utility.yul\":13745:13749   */\n      0x00\n        /* \"#utility.yul\":13783:13785   */\n      0x20\n        /* \"#utility.yul\":13772:13781   */\n      dup3\n        /* \"#utility.yul\":13768:13786   */\n      add\n        /* \"#utility.yul\":13760:13786   */\n      swap1\n      pop\n        /* \"#utility.yul\":13832:13841   */\n      dup2\n        /* \"#utility.yul\":13826:13830   */\n      dup2\n        /* \"#utility.yul\":13822:13842   */\n      sub\n        /* \"#utility.yul\":13818:13819   */\n      0x00\n        /* \"#utility.yul\":13807:13816   */\n      dup4\n        /* \"#utility.yul\":13803:13820   */\n      add\n        /* \"#utility.yul\":13796:13843   */\n      mstore\n        /* \"#utility.yul\":13860:13991   */\n      tag_375\n        /* \"#utility.yul\":13986:13990   */\n      dup2\n        /* \"#utility.yul\":13860:13991   */\n      tag_236\n      jump\t// in\n    tag_375:\n        /* \"#utility.yul\":13852:13991   */\n      swap1\n      pop\n        /* \"#utility.yul\":13579:13998   */\n      swap2\n      swap1\n      pop\n      jump\t// out\n        /* \"#utility.yul\":14004:14229   */\n    tag_237:\n        /* \"#utility.yul\":14144:14178   */\n      0x426c6f636b636861696e204572726f723a20546f6b656e207061796f75742066\n        /* \"#utility.yul\":14140:14141   */\n      0x00\n        /* \"#utility.yul\":14132:14138   */\n      dup3\n        /* \"#utility.yul\":14128:14142   */\n      add\n        /* \"#utility.yul\":14121:14179   */\n      mstore\n        /* \"#utility.yul\":14213:14221   */\n      0x61696c65642e0000000000000000000000000000000000000000000000000000\n        /* \"#utility.yul\":14208:14210   */\n      0x20\n        /* \"#utility.yul\":14200:14206   */\n      dup3\n        /* \"#utility.yul\":14196:14211   */\n      add\n        /* \"#utility.yul\":14189:14222   */\n      mstore\n        /* \"#utility.yul\":14004:14229   */\n      pop\n      jump\t// out\n        /* \"#utility.yul\":14235:14601   */\n    tag_238:\n        /* \"#utility.yul\":14377:14380   */\n      0x00\n        /* \"#utility.yul\":14398:14465   */\n      tag_378\n        /* \"#utility.yul\":14462:14464   */\n      0x26\n        /* \"#utility.yul\":14457:14460   */\n      dup4\n        /* \"#utility.yul\":14398:14465   */\n      tag_205\n      jump\t// in\n    tag_378:\n        /* \"#utility.yul\":14391:14465   */\n      swap2\n      pop\n        /* \"#utility.yul\":14474:14567   */\n      tag_379\n        /* \"#utility.yul\":14563:14566   */\n      dup3\n        /* \"#utility.yul\":14474:14567   */\n      tag_237\n      jump\t// in\n    tag_379:\n        /* \"#utility.yul\":14592:14594   */\n      0x40\n        /* \"#utility.yul\":14587:14590   */\n      dup3\n        /* \"#utility.yul\":14583:14595   */\n      add\n        /* \"#utility.yul\":14576:14595   */\n      swap1\n      pop\n        /* \"#utility.yul\":14235:14601   */\n      swap2\n      swap1\n      pop\n      jump\t// out\n        /* \"#utility.yul\":14607:15026   */\n    tag_98:\n        /* \"#utility.yul\":14773:14777   */\n      0x00\n        /* \"#utility.yul\":14811:14813   */\n      0x20\n        /* \"#utility.yul\":14800:14809   */\n      dup3\n        /* \"#utility.yul\":14796:14814   */\n      add\n        /* \"#utility.yul\":14788:14814   */\n      swap1\n      pop\n        /* \"#utility.yul\":14860:14869   */\n      dup2\n        /* \"#utility.yul\":14854:14858   */\n      dup2\n        /* \"#utility.yul\":14850:14870   */\n      sub\n        /* \"#utility.yul\":14846:14847   */\n      0x00\n        /* \"#utility.yul\":14835:14844   */\n      dup4\n        /* \"#utility.yul\":14831:14848   */\n      add\n        /* \"#utility.yul\":14824:14871   */\n      mstore\n        /* \"#utility.yul\":14888:15019   */\n      tag_381\n        /* \"#utility.yul\":15014:15018   */\n      dup2\n        /* \"#utility.yul\":14888:15019   */\n      tag_238\n      jump\t// in\n    tag_381:\n        /* \"#utility.yul\":14880:15019   */\n      swap1\n      pop\n        /* \"#utility.yul\":14607:15026   */\n      swap2\n      swap1\n      pop\n      jump\t// out\n        /* \"#utility.yul\":15032:15259   */\n    tag_239:\n        /* \"#utility.yul\":15172:15206   */\n      0x426c6f636b636861696e204572726f723a20546f6b656e2041206465706f7369\n        /* \"#utility.yul\":15168:15169   */\n      0x00\n        /* \"#utility.yul\":15160:15166   */\n      dup3\n        /* \"#utility.yul\":15156:15170   */\n      add\n        /* \"#utility.yul\":15149:15207   */\n      mstore\n        /* \"#utility.yul\":15241:15251   */\n      0x74206661696c6564000000000000000000000000000000000000000000000000\n        /* \"#utility.yul\":15236:15238   */\n      0x20\n        /* \"#utility.yul\":15228:15234   */\n      dup3\n        /* \"#utility.yul\":15224:15239   */\n      add\n        /* \"#utility.yul\":15217:15252   */\n      mstore\n        /* \"#utility.yul\":15032:15259   */\n      pop\n      jump\t// out\n        /* \"#utility.yul\":15265:15631   */\n    tag_240:\n        /* \"#utility.yul\":15407:15410   */\n      0x00\n        /* \"#utility.yul\":15428:15495   */\n      tag_384\n        /* \"#utility.yul\":15492:15494   */\n      0x28\n        /* \"#utility.yul\":15487:15490   */\n      dup4\n        /* \"#utility.yul\":15428:15495   */\n      tag_205\n      jump\t// in\n    tag_384:\n        /* \"#utility.yul\":15421:15495   */\n      swap2\n      pop\n        /* \"#utility.yul\":15504:15597   */\n      tag_385\n        /* \"#utility.yul\":15593:15596   */\n      dup3\n        /* \"#utility.yul\":15504:15597   */\n      tag_239\n      jump\t// in\n    tag_385:\n        /* \"#utility.yul\":15622:15624   */\n      0x40\n        /* \"#utility.yul\":15617:15620   */\n      dup3\n        /* \"#utility.yul\":15613:15625   */\n      add\n        /* \"#utility.yul\":15606:15625   */\n      swap1\n      pop\n        /* \"#utility.yul\":15265:15631   */\n      swap2\n      swap1\n      pop\n      jump\t// out\n        /* \"#utility.yul\":15637:16056   */\n    tag_115:\n        /* \"#utility.yul\":15803:15807   */\n      0x00\n        /* \"#utility.yul\":15841:15843   */\n      0x20\n        /* \"#utility.yul\":15830:15839   */\n      dup3\n        /* \"#utility.yul\":15826:15844   */\n      add\n        /* \"#utility.yul\":15818:15844   */\n      swap1\n      pop\n        /* \"#utility.yul\":15890:15899   */\n      dup2\n        /* \"#utility.yul\":15884:15888   */\n      dup2\n        /* \"#utility.yul\":15880:15900   */\n      sub\n        /* \"#utility.yul\":15876:15877   */\n      0x00\n        /* \"#utility.yul\":15865:15874   */\n      dup4\n        /* \"#utility.yul\":15861:15878   */\n      add\n        /* \"#utility.yul\":15854:15901   */\n      mstore\n        /* \"#utility.yul\":15918:16049   */\n      tag_387\n        /* \"#utility.yul\":16044:16048   */\n      dup2\n        /* \"#utility.yul\":15918:16049   */\n      tag_240\n      jump\t// in\n    tag_387:\n        /* \"#utility.yul\":15910:16049   */\n      swap1\n      pop\n        /* \"#utility.yul\":15637:16056   */\n      swap2\n      swap1\n      pop\n      jump\t// out\n        /* \"#utility.yul\":16062:16289   */\n    tag_241:\n        /* \"#utility.yul\":16202:16236   */\n      0x426c6f636b636861696e204572726f723a20546f6b656e2042206465706f7369\n        /* \"#utility.yul\":16198:16199   */\n      0x00\n        /* \"#utility.yul\":16190:16196   */\n      dup3\n        /* \"#utility.yul\":16186:16200   */\n      add\n        /* \"#utility.yul\":16179:16237   */\n      mstore\n        /* \"#utility.yul\":16271:16281   */\n      0x74206661696c6564000000000000000000000000000000000000000000000000\n        /* \"#utility.yul\":16266:16268   */\n      0x20\n        /* \"#utility.yul\":16258:16264   */\n      dup3\n        /* \"#utility.yul\":16254:16269   */\n      add\n        /* \"#utility.yul\":16247:16282   */\n      mstore\n        /* \"#utility.yul\":16062:16289   */\n      pop\n      jump\t// out\n        /* \"#utility.yul\":16295:16661   */\n    tag_242:\n        /* \"#utility.yul\":16437:16440   */\n      0x00\n        /* \"#utility.yul\":16458:16525   */\n      tag_390\n        /* \"#utility.yul\":16522:16524   */\n      0x28\n        /* \"#utility.yul\":16517:16520   */\n      dup4\n        /* \"#utility.yul\":16458:16525   */\n      tag_205\n      jump\t// in\n    tag_390:\n        /* \"#utility.yul\":16451:16525   */\n      swap2\n      pop\n        /* \"#utility.yul\":16534:16627   */\n      tag_391\n        /* \"#utility.yul\":16623:16626   */\n      dup3\n        /* \"#utility.yul\":16534:16627   */\n      tag_241\n      jump\t// in\n    tag_391:\n        /* \"#utility.yul\":16652:16654   */\n      0x40\n        /* \"#utility.yul\":16647:16650   */\n      dup3\n        /* \"#utility.yul\":16643:16655   */\n      add\n        /* \"#utility.yul\":16636:16655   */\n      swap1\n      pop\n        /* \"#utility.yul\":16295:16661   */\n      swap2\n      swap1\n      pop\n      jump\t// out\n        /* \"#utility.yul\":16667:17086   */\n    tag_122:\n        /* \"#utility.yul\":16833:16837   */\n      0x00\n        /* \"#utility.yul\":16871:16873   */\n      0x20\n        /* \"#utility.yul\":16860:16869   */\n      dup3\n        /* \"#utility.yul\":16856:16874   */\n      add\n        /* \"#utility.yul\":16848:16874   */\n      swap1\n      pop\n        /* \"#utility.yul\":16920:16929   */\n      dup2\n        /* \"#utility.yul\":16914:16918   */\n      dup2\n        /* \"#utility.yul\":16910:16930   */\n      sub\n        /* \"#utility.yul\":16906:16907   */\n      0x00\n        /* \"#utility.yul\":16895:16904   */\n      dup4\n        /* \"#utility.yul\":16891:16908   */\n      add\n        /* \"#utility.yul\":16884:16931   */\n      mstore\n        /* \"#utility.yul\":16948:17079   */\n      tag_393\n        /* \"#utility.yul\":17074:17078   */\n      dup2\n        /* \"#utility.yul\":16948:17079   */\n      tag_242\n      jump\t// in\n    tag_393:\n        /* \"#utility.yul\":16940:17079   */\n      swap1\n      pop\n        /* \"#utility.yul\":16667:17086   */\n      swap2\n      swap1\n      pop\n      jump\t// out\n        /* \"#utility.yul\":17092:17272   */\n    tag_243:\n        /* \"#utility.yul\":17140:17217   */\n      0x4e487b7100000000000000000000000000000000000000000000000000000000\n        /* \"#utility.yul\":17137:17138   */\n      0x00\n        /* \"#utility.yul\":17130:17218   */\n      mstore\n        /* \"#utility.yul\":17237:17241   */\n      0x11\n        /* \"#utility.yul\":17234:17235   */\n      0x04\n        /* \"#utility.yul\":17227:17242   */\n      mstore\n        /* \"#utility.yul\":17261:17265   */\n      0x24\n        /* \"#utility.yul\":17258:17259   */\n      0x00\n        /* \"#utility.yul\":17251:17266   */\n      revert\n        /* \"#utility.yul\":17278:17688   */\n    tag_126:\n        /* \"#utility.yul\":17318:17325   */\n      0x00\n        /* \"#utility.yul\":17341:17361   */\n      tag_396\n        /* \"#utility.yul\":17359:17360   */\n      dup3\n        /* \"#utility.yul\":17341:17361   */\n      tag_209\n      jump\t// in\n    tag_396:\n        /* \"#utility.yul\":17336:17361   */\n      swap2\n      pop\n        /* \"#utility.yul\":17375:17395   */\n      tag_397\n        /* \"#utility.yul\":17393:17394   */\n      dup4\n        /* \"#utility.yul\":17375:17395   */\n      tag_209\n      jump\t// in\n    tag_397:\n        /* \"#utility.yul\":17370:17395   */\n      swap3\n      pop\n        /* \"#utility.yul\":17430:17431   */\n      dup3\n        /* \"#utility.yul\":17427:17428   */\n      dup3\n        /* \"#utility.yul\":17423:17432   */\n      mul\n        /* \"#utility.yul\":17452:17482   */\n      tag_398\n        /* \"#utility.yul\":17470:17481   */\n      dup2\n        /* \"#utility.yul\":17452:17482   */\n      tag_209\n      jump\t// in\n    tag_398:\n        /* \"#utility.yul\":17441:17482   */\n      swap2\n      pop\n        /* \"#utility.yul\":17631:17632   */\n      dup3\n        /* \"#utility.yul\":17622:17629   */\n      dup3\n        /* \"#utility.yul\":17618:17633   */\n      div\n        /* \"#utility.yul\":17615:17616   */\n      dup5\n        /* \"#utility.yul\":17612:17634   */\n      eq\n        /* \"#utility.yul\":17592:17593   */\n      dup4\n        /* \"#utility.yul\":17585:17594   */\n      iszero\n        /* \"#utility.yul\":17565:17648   */\n      or\n        /* \"#utility.yul\":17542:17681   */\n      tag_399\n      jumpi\n        /* \"#utility.yul\":17661:17679   */\n      tag_400\n      tag_243\n      jump\t// in\n    tag_400:\n        /* \"#utility.yul\":17542:17681   */\n    tag_399:\n        /* \"#utility.yul\":17326:17688   */\n      pop\n        /* \"#utility.yul\":17278:17688   */\n      swap3\n      swap2\n      pop\n      pop\n      jump\t// out\n        /* \"#utility.yul\":17694:17874   */\n    tag_244:\n        /* \"#utility.yul\":17742:17819   */\n      0x4e487b7100000000000000000000000000000000000000000000000000000000\n        /* \"#utility.yul\":17739:17740   */\n      0x00\n        /* \"#utility.yul\":17732:17820   */\n      mstore\n        /* \"#utility.yul\":17839:17843   */\n      0x12\n        /* \"#utility.yul\":17836:17837   */\n      0x04\n        /* \"#utility.yul\":17829:17844   */\n      mstore\n        /* \"#utility.yul\":17863:17867   */\n      0x24\n        /* \"#utility.yul\":17860:17861   */\n      0x00\n        /* \"#utility.yul\":17853:17868   */\n      revert\n        /* \"#utility.yul\":17880:18065   */\n    tag_131:\n        /* \"#utility.yul\":17920:17921   */\n      0x00\n        /* \"#utility.yul\":17937:17957   */\n      tag_403\n        /* \"#utility.yul\":17955:17956   */\n      dup3\n        /* \"#utility.yul\":17937:17957   */\n      tag_209\n      jump\t// in\n    tag_403:\n        /* \"#utility.yul\":17932:17957   */\n      swap2\n      pop\n        /* \"#utility.yul\":17971:17991   */\n      tag_404\n        /* \"#utility.yul\":17989:17990   */\n      dup4\n        /* \"#utility.yul\":17971:17991   */\n      tag_209\n      jump\t// in\n    tag_404:\n        /* \"#utility.yul\":17966:17991   */\n      swap3\n      pop\n        /* \"#utility.yul\":18010:18011   */\n      dup3\n        /* \"#utility.yul\":18000:18035   */\n      tag_405\n      jumpi\n        /* \"#utility.yul\":18015:18033   */\n      tag_406\n      tag_244\n      jump\t// in\n    tag_406:\n        /* \"#utility.yul\":18000:18035   */\n    tag_405:\n        /* \"#utility.yul\":18057:18058   */\n      dup3\n        /* \"#utility.yul\":18054:18055   */\n      dup3\n        /* \"#utility.yul\":18050:18059   */\n      div\n        /* \"#utility.yul\":18045:18059   */\n      swap1\n      pop\n        /* \"#utility.yul\":17880:18065   */\n      swap3\n      swap2\n      pop\n      pop\n      jump\t// out\n        /* \"#utility.yul\":18071:18307   */\n    tag_245:\n        /* \"#utility.yul\":18211:18245   */\n      0x4c6971756964697479204572726f723a204d696e74656420706f6f6c20736861\n        /* \"#utility.yul\":18207:18208   */\n      0x00\n        /* \"#utility.yul\":18199:18205   */\n      dup3\n        /* \"#utility.yul\":18195:18209   */\n      add\n        /* \"#utility.yul\":18188:18246   */\n      mstore\n        /* \"#utility.yul\":18280:18299   */\n      0x7265732076616c756520746f6f206c6f77000000000000000000000000000000\n        /* \"#utility.yul\":18275:18277   */\n      0x20\n        /* \"#utility.yul\":18267:18273   */\n      dup3\n        /* \"#utility.yul\":18263:18278   */\n      add\n        /* \"#utility.yul\":18256:18300   */\n      mstore\n        /* \"#utility.yul\":18071:18307   */\n      pop\n      jump\t// out\n        /* \"#utility.yul\":18313:18679   */\n    tag_246:\n        /* \"#utility.yul\":18455:18458   */\n      0x00\n        /* \"#utility.yul\":18476:18543   */\n      tag_409\n        /* \"#utility.yul\":18540:18542   */\n      0x31\n        /* \"#utility.yul\":18535:18538   */\n      dup4\n        /* \"#utility.yul\":18476:18543   */\n      tag_205\n      jump\t// in\n    tag_409:\n        /* \"#utility.yul\":18469:18543   */\n      swap2\n      pop\n        /* \"#utility.yul\":18552:18645   */\n      tag_410\n        /* \"#utility.yul\":18641:18644   */\n      dup3\n        /* \"#utility.yul\":18552:18645   */\n      tag_245\n      jump\t// in\n    tag_410:\n        /* \"#utility.yul\":18670:18672   */\n      0x40\n        /* \"#utility.yul\":18665:18668   */\n      dup3\n        /* \"#utility.yul\":18661:18673   */\n      add\n        /* \"#utility.yul\":18654:18673   */\n      swap1\n      pop\n        /* \"#utility.yul\":18313:18679   */\n      swap2\n      swap1\n      pop\n      jump\t// out\n        /* \"#utility.yul\":18685:19104   */\n    tag_138:\n        /* \"#utility.yul\":18851:18855   */\n      0x00\n        /* \"#utility.yul\":18889:18891   */\n      0x20\n        /* \"#utility.yul\":18878:18887   */\n      dup3\n        /* \"#utility.yul\":18874:18892   */\n      add\n        /* \"#utility.yul\":18866:18892   */\n      swap1\n      pop\n        /* \"#utility.yul\":18938:18947   */\n      dup2\n        /* \"#utility.yul\":18932:18936   */\n      dup2\n        /* \"#utility.yul\":18928:18948   */\n      sub\n        /* \"#utility.yul\":18924:18925   */\n      0x00\n        /* \"#utility.yul\":18913:18922   */\n      dup4\n        /* \"#utility.yul\":18909:18926   */\n      add\n        /* \"#utility.yul\":18902:18949   */\n      mstore\n        /* \"#utility.yul\":18966:19097   */\n      tag_412\n        /* \"#utility.yul\":19092:19096   */\n      dup2\n        /* \"#utility.yul\":18966:19097   */\n      tag_246\n      jump\t// in\n    tag_412:\n        /* \"#utility.yul\":18958:19097   */\n      swap1\n      pop\n        /* \"#utility.yul\":18685:19104   */\n      swap2\n      swap1\n      pop\n      jump\t// out\n        /* \"#utility.yul\":19110:19552   */\n    tag_142:\n        /* \"#utility.yul\":19259:19263   */\n      0x00\n        /* \"#utility.yul\":19297:19299   */\n      0x60\n        /* \"#utility.yul\":19286:19295   */\n      dup3\n        /* \"#utility.yul\":19282:19300   */\n      add\n        /* \"#utility.yul\":19274:19300   */\n      swap1\n      pop\n        /* \"#utility.yul\":19310:19381   */\n      tag_414\n        /* \"#utility.yul\":19378:19379   */\n      0x00\n        /* \"#utility.yul\":19367:19376   */\n      dup4\n        /* \"#utility.yul\":19363:19380   */\n      add\n        /* \"#utility.yul\":19354:19360   */\n      dup7\n        /* \"#utility.yul\":19310:19381   */\n      tag_210\n      jump\t// in\n    tag_414:\n        /* \"#utility.yul\":19391:19463   */\n      tag_415\n        /* \"#utility.yul\":19459:19461   */\n      0x20\n        /* \"#utility.yul\":19448:19457   */\n      dup4\n        /* \"#utility.yul\":19444:19462   */\n      add\n        /* \"#utility.yul\":19435:19441   */\n      dup6\n        /* \"#utility.yul\":19391:19463   */\n      tag_210\n      jump\t// in\n    tag_415:\n        /* \"#utility.yul\":19473:19545   */\n      tag_416\n        /* \"#utility.yul\":19541:19543   */\n      0x40\n        /* \"#utility.yul\":19530:19539   */\n      dup4\n        /* \"#utility.yul\":19526:19544   */\n      add\n        /* \"#utility.yul\":19517:19523   */\n      dup5\n        /* \"#utility.yul\":19473:19545   */\n      tag_210\n      jump\t// in\n    tag_416:\n        /* \"#utility.yul\":19110:19552   */\n      swap5\n      swap4\n      pop\n      pop\n      pop\n      pop\n      jump\t// out\n        /* \"#utility.yul\":19558:19792   */\n    tag_247:\n        /* \"#utility.yul\":19698:19732   */\n      0x4c6971756964697479204572726f723a20496e73756666696369656e74204c50\n        /* \"#utility.yul\":19694:19695   */\n      0x00\n        /* \"#utility.yul\":19686:19692   */\n      dup3\n        /* \"#utility.yul\":19682:19696   */\n      add\n        /* \"#utility.yul\":19675:19733   */\n      mstore\n        /* \"#utility.yul\":19767:19784   */\n      0x207368617265732062616c616e63650000000000000000000000000000000000\n        /* \"#utility.yul\":19762:19764   */\n      0x20\n        /* \"#utility.yul\":19754:19760   */\n      dup3\n        /* \"#utility.yul\":19750:19765   */\n      add\n        /* \"#utility.yul\":19743:19785   */\n      mstore\n        /* \"#utility.yul\":19558:19792   */\n      pop\n      jump\t// out\n        /* \"#utility.yul\":19798:20164   */\n    tag_248:\n        /* \"#utility.yul\":19940:19943   */\n      0x00\n        /* \"#utility.yul\":19961:20028   */\n      tag_419\n        /* \"#utility.yul\":20025:20027   */\n      0x2f\n        /* \"#utility.yul\":20020:20023   */\n      dup4\n        /* \"#utility.yul\":19961:20028   */\n      tag_205\n      jump\t// in\n    tag_419:\n        /* \"#utility.yul\":19954:20028   */\n      swap2\n      pop\n        /* \"#utility.yul\":20037:20130   */\n      tag_420\n        /* \"#utility.yul\":20126:20129   */\n      dup3\n        /* \"#utility.yul\":20037:20130   */\n      tag_247\n      jump\t// in\n    tag_420:\n        /* \"#utility.yul\":20155:20157   */\n      0x40\n        /* \"#utility.yul\":20150:20153   */\n      dup3\n        /* \"#utility.yul\":20146:20158   */\n      add\n        /* \"#utility.yul\":20139:20158   */\n      swap1\n      pop\n        /* \"#utility.yul\":19798:20164   */\n      swap2\n      swap1\n      pop\n      jump\t// out\n        /* \"#utility.yul\":20170:20589   */\n    tag_146:\n        /* \"#utility.yul\":20336:20340   */\n      0x00\n        /* \"#utility.yul\":20374:20376   */\n      0x20\n        /* \"#utility.yul\":20363:20372   */\n      dup3\n        /* \"#utility.yul\":20359:20377   */\n      add\n        /* \"#utility.yul\":20351:20377   */\n      swap1\n      pop\n        /* \"#utility.yul\":20423:20432   */\n      dup2\n        /* \"#utility.yul\":20417:20421   */\n      dup2\n        /* \"#utility.yul\":20413:20433   */\n      sub\n        /* \"#utility.yul\":20409:20410   */\n      0x00\n        /* \"#utility.yul\":20398:20407   */\n      dup4\n        /* \"#utility.yul\":20394:20411   */\n      add\n        /* \"#utility.yul\":20387:20434   */\n      mstore\n        /* \"#utility.yul\":20451:20582   */\n      tag_422\n        /* \"#utility.yul\":20577:20581   */\n      dup2\n        /* \"#utility.yul\":20451:20582   */\n      tag_248\n      jump\t// in\n    tag_422:\n        /* \"#utility.yul\":20443:20582   */\n      swap1\n      pop\n        /* \"#utility.yul\":20170:20589   */\n      swap2\n      swap1\n      pop\n      jump\t// out\n        /* \"#utility.yul\":20595:20838   */\n    tag_249:\n        /* \"#utility.yul\":20735:20769   */\n      0x4c6971756964697479204572726f723a205265736f6c76656420776974686472\n        /* \"#utility.yul\":20731:20732   */\n      0x00\n        /* \"#utility.yul\":20723:20729   */\n      dup3\n        /* \"#utility.yul\":20719:20733   */\n      add\n        /* \"#utility.yul\":20712:20770   */\n      mstore\n        /* \"#utility.yul\":20804:20830   */\n      0x6177616c20616d6f756e74732061726520696e76616c69640000000000000000\n        /* \"#utility.yul\":20799:20801   */\n      0x20\n        /* \"#utility.yul\":20791:20797   */\n      dup3\n        /* \"#utility.yul\":20787:20802   */\n      add\n        /* \"#utility.yul\":20780:20831   */\n      mstore\n        /* \"#utility.yul\":20595:20838   */\n      pop\n      jump\t// out\n        /* \"#utility.yul\":20844:21210   */\n    tag_250:\n        /* \"#utility.yul\":20986:20989   */\n      0x00\n        /* \"#utility.yul\":21007:21074   */\n      tag_425\n        /* \"#utility.yul\":21071:21073   */\n      0x38\n        /* \"#utility.yul\":21066:21069   */\n      dup4\n        /* \"#utility.yul\":21007:21074   */\n      tag_205\n      jump\t// in\n    tag_425:\n        /* \"#utility.yul\":21000:21074   */\n      swap2\n      pop\n        /* \"#utility.yul\":21083:21176   */\n      tag_426\n        /* \"#utility.yul\":21172:21175   */\n      dup3\n        /* \"#utility.yul\":21083:21176   */\n      tag_249\n      jump\t// in\n    tag_426:\n        /* \"#utility.yul\":21201:21203   */\n      0x40\n        /* \"#utility.yul\":21196:21199   */\n      dup3\n        /* \"#utility.yul\":21192:21204   */\n      add\n        /* \"#utility.yul\":21185:21204   */\n      swap1\n      pop\n        /* \"#utility.yul\":20844:21210   */\n      swap2\n      swap1\n      pop\n      jump\t// out\n        /* \"#utility.yul\":21216:21635   */\n    tag_162:\n        /* \"#utility.yul\":21382:21386   */\n      0x00\n        /* \"#utility.yul\":21420:21422   */\n      0x20\n        /* \"#utility.yul\":21409:21418   */\n      dup3\n        /* \"#utility.yul\":21405:21423   */\n      add\n        /* \"#utility.yul\":21397:21423   */\n      swap1\n      pop\n        /* \"#utility.yul\":21469:21478   */\n      dup2\n        /* \"#utility.yul\":21463:21467   */\n      dup2\n        /* \"#utility.yul\":21459:21479   */\n      sub\n        /* \"#utility.yul\":21455:21456   */\n      0x00\n        /* \"#utility.yul\":21444:21453   */\n      dup4\n        /* \"#utility.yul\":21440:21457   */\n      add\n        /* \"#utility.yul\":21433:21480   */\n      mstore\n        /* \"#utility.yul\":21497:21628   */\n      tag_428\n        /* \"#utility.yul\":21623:21627   */\n      dup2\n        /* \"#utility.yul\":21497:21628   */\n      tag_250\n      jump\t// in\n    tag_428:\n        /* \"#utility.yul\":21489:21628   */\n      swap1\n      pop\n        /* \"#utility.yul\":21216:21635   */\n      swap2\n      swap1\n      pop\n      jump\t// out\n        /* \"#utility.yul\":21641:21876   */\n    tag_251:\n        /* \"#utility.yul\":21781:21815   */\n      0x426c6f636b636861696e204572726f723a20546f6b656e204120726566756e64\n        /* \"#utility.yul\":21777:21778   */\n      0x00\n        /* \"#utility.yul\":21769:21775   */\n      dup3\n        /* \"#utility.yul\":21765:21779   */\n      add\n        /* \"#utility.yul\":21758:21816   */\n      mstore\n        /* \"#utility.yul\":21850:21868   */\n      0x207472616e73666572206661696c656400000000000000000000000000000000\n        /* \"#utility.yul\":21845:21847   */\n      0x20\n        /* \"#utility.yul\":21837:21843   */\n      dup3\n        /* \"#utility.yul\":21833:21848   */\n      add\n        /* \"#utility.yul\":21826:21869   */\n      mstore\n        /* \"#utility.yul\":21641:21876   */\n      pop\n      jump\t// out\n        /* \"#utility.yul\":21882:22248   */\n    tag_252:\n        /* \"#utility.yul\":22024:22027   */\n      0x00\n        /* \"#utility.yul\":22045:22112   */\n      tag_431\n        /* \"#utility.yul\":22109:22111   */\n      0x30\n        /* \"#utility.yul\":22104:22107   */\n      dup4\n        /* \"#utility.yul\":22045:22112   */\n      tag_205\n      jump\t// in\n    tag_431:\n        /* \"#utility.yul\":22038:22112   */\n      swap2\n      pop\n        /* \"#utility.yul\":22121:22214   */\n      tag_432\n        /* \"#utility.yul\":22210:22213   */\n      dup3\n        /* \"#utility.yul\":22121:22214   */\n      tag_251\n      jump\t// in\n    tag_432:\n        /* \"#utility.yul\":22239:22241   */\n      0x40\n        /* \"#utility.yul\":22234:22237   */\n      dup3\n        /* \"#utility.yul\":22230:22242   */\n      add\n        /* \"#utility.yul\":22223:22242   */\n      swap1\n      pop\n        /* \"#utility.yul\":21882:22248   */\n      swap2\n      swap1\n      pop\n      jump\t// out\n        /* \"#utility.yul\":22254:22673   */\n    tag_171:\n        /* \"#utility.yul\":22420:22424   */\n      0x00\n        /* \"#utility.yul\":22458:22460   */\n      0x20\n        /* \"#utility.yul\":22447:22456   */\n      dup3\n        /* \"#utility.yul\":22443:22461   */\n      add\n        /* \"#utility.yul\":22435:22461   */\n      swap1\n      pop\n        /* \"#utility.yul\":22507:22516   */\n      dup2\n        /* \"#utility.yul\":22501:22505   */\n      dup2\n        /* \"#utility.yul\":22497:22517   */\n      sub\n        /* \"#utility.yul\":22493:22494   */\n      0x00\n        /* \"#utility.yul\":22482:22491   */\n      dup4\n        /* \"#utility.yul\":22478:22495   */\n      add\n        /* \"#utility.yul\":22471:22518   */\n      mstore\n        /* \"#utility.yul\":22535:22666   */\n      tag_434\n        /* \"#utility.yul\":22661:22665   */\n      dup2\n        /* \"#utility.yul\":22535:22666   */\n      tag_252\n      jump\t// in\n    tag_434:\n        /* \"#utility.yul\":22527:22666   */\n      swap1\n      pop\n        /* \"#utility.yul\":22254:22673   */\n      swap2\n      swap1\n      pop\n      jump\t// out\n        /* \"#utility.yul\":22679:22914   */\n    tag_253:\n        /* \"#utility.yul\":22819:22853   */\n      0x426c6f636b636861696e204572726f723a20546f6b656e204220726566756e64\n        /* \"#utility.yul\":22815:22816   */\n      0x00\n        /* \"#utility.yul\":22807:22813   */\n      dup3\n        /* \"#utility.yul\":22803:22817   */\n      add\n        /* \"#utility.yul\":22796:22854   */\n      mstore\n        /* \"#utility.yul\":22888:22906   */\n      0x207472616e73666572206661696c656400000000000000000000000000000000\n        /* \"#utility.yul\":22883:22885   */\n      0x20\n        /* \"#utility.yul\":22875:22881   */\n      dup3\n        /* \"#utility.yul\":22871:22886   */\n      add\n        /* \"#utility.yul\":22864:22907   */\n      mstore\n        /* \"#utility.yul\":22679:22914   */\n      pop\n      jump\t// out\n        /* \"#utility.yul\":22920:23286   */\n    tag_254:\n        /* \"#utility.yul\":23062:23065   */\n      0x00\n        /* \"#utility.yul\":23083:23150   */\n      tag_437\n        /* \"#utility.yul\":23147:23149   */\n      0x30\n        /* \"#utility.yul\":23142:23145   */\n      dup4\n        /* \"#utility.yul\":23083:23150   */\n      tag_205\n      jump\t// in\n    tag_437:\n        /* \"#utility.yul\":23076:23150   */\n      swap2\n      pop\n        /* \"#utility.yul\":23159:23252   */\n      tag_438\n        /* \"#utility.yul\":23248:23251   */\n      dup3\n        /* \"#utility.yul\":23159:23252   */\n      tag_253\n      jump\t// in\n    tag_438:\n        /* \"#utility.yul\":23277:23279   */\n      0x40\n        /* \"#utility.yul\":23272:23275   */\n      dup3\n        /* \"#utility.yul\":23268:23280   */\n      add\n        /* \"#utility.yul\":23261:23280   */\n      swap1\n      pop\n        /* \"#utility.yul\":22920:23286   */\n      swap2\n      swap1\n      pop\n      jump\t// out\n        /* \"#utility.yul\":23292:23711   */\n    tag_178:\n        /* \"#utility.yul\":23458:23462   */\n      0x00\n        /* \"#utility.yul\":23496:23498   */\n      0x20\n        /* \"#utility.yul\":23485:23494   */\n      dup3\n        /* \"#utility.yul\":23481:23499   */\n      add\n        /* \"#utility.yul\":23473:23499   */\n      swap1\n      pop\n        /* \"#utility.yul\":23545:23554   */\n      dup2\n        /* \"#utility.yul\":23539:23543   */\n      dup2\n        /* \"#utility.yul\":23535:23555   */\n      sub\n        /* \"#utility.yul\":23531:23532   */\n      0x00\n        /* \"#utility.yul\":23520:23529   */\n      dup4\n        /* \"#utility.yul\":23516:23533   */\n      add\n        /* \"#utility.yul\":23509:23556   */\n      mstore\n        /* \"#utility.yul\":23573:23704   */\n      tag_440\n        /* \"#utility.yul\":23699:23703   */\n      dup2\n        /* \"#utility.yul\":23573:23704   */\n      tag_254\n      jump\t// in\n    tag_440:\n        /* \"#utility.yul\":23565:23704   */\n      swap1\n      pop\n        /* \"#utility.yul\":23292:23711   */\n      swap2\n      swap1\n      pop\n      jump\t// out\n        /* \"#utility.yul\":23717:23908   */\n    tag_184:\n        /* \"#utility.yul\":23757:23760   */\n      0x00\n        /* \"#utility.yul\":23776:23796   */\n      tag_442\n        /* \"#utility.yul\":23794:23795   */\n      dup3\n        /* \"#utility.yul\":23776:23796   */\n      tag_209\n      jump\t// in\n    tag_442:\n        /* \"#utility.yul\":23771:23796   */\n      swap2\n      pop\n        /* \"#utility.yul\":23810:23830   */\n      tag_443\n        /* \"#utility.yul\":23828:23829   */\n      dup4\n        /* \"#utility.yul\":23810:23830   */\n      tag_209\n      jump\t// in\n    tag_443:\n        /* \"#utility.yul\":23805:23830   */\n      swap3\n      pop\n        /* \"#utility.yul\":23853:23854   */\n      dup3\n        /* \"#utility.yul\":23850:23851   */\n      dup3\n        /* \"#utility.yul\":23846:23855   */\n      add\n        /* \"#utility.yul\":23839:23855   */\n      swap1\n      pop\n        /* \"#utility.yul\":23874:23877   */\n      dup1\n        /* \"#utility.yul\":23871:23872   */\n      dup3\n        /* \"#utility.yul\":23868:23878   */\n      gt\n        /* \"#utility.yul\":23865:23901   */\n      iszero\n      tag_444\n      jumpi\n        /* \"#utility.yul\":23881:23899   */\n      tag_445\n      tag_243\n      jump\t// in\n    tag_445:\n        /* \"#utility.yul\":23865:23901   */\n    tag_444:\n        /* \"#utility.yul\":23717:23908   */\n      swap3\n      swap2\n      pop\n      pop\n      jump\t// out\n        /* \"#utility.yul\":23914:24108   */\n    tag_201:\n        /* \"#utility.yul\":23954:23958   */\n      0x00\n        /* \"#utility.yul\":23974:23994   */\n      tag_447\n        /* \"#utility.yul\":23992:23993   */\n      dup3\n        /* \"#utility.yul\":23974:23994   */\n      tag_209\n      jump\t// in\n    tag_447:\n        /* \"#utility.yul\":23969:23994   */\n      swap2\n      pop\n        /* \"#utility.yul\":24008:24028   */\n      tag_448\n        /* \"#utility.yul\":24026:24027   */\n      dup4\n        /* \"#utility.yul\":24008:24028   */\n      tag_209\n      jump\t// in\n    tag_448:\n        /* \"#utility.yul\":24003:24028   */\n      swap3\n      pop\n        /* \"#utility.yul\":24052:24053   */\n      dup3\n        /* \"#utility.yul\":24049:24050   */\n      dup3\n        /* \"#utility.yul\":24045:24054   */\n      sub\n        /* \"#utility.yul\":24037:24054   */\n      swap1\n      pop\n        /* \"#utility.yul\":24076:24077   */\n      dup2\n        /* \"#utility.yul\":24070:24074   */\n      dup2\n        /* \"#utility.yul\":24067:24078   */\n      gt\n        /* \"#utility.yul\":24064:24101   */\n      iszero\n      tag_449\n      jumpi\n        /* \"#utility.yul\":24081:24099   */\n      tag_450\n      tag_243\n      jump\t// in\n    tag_450:\n        /* \"#utility.yul\":24064:24101   */\n    tag_449:\n        /* \"#utility.yul\":23914:24108   */\n      swap3\n      swap2\n      pop\n      pop\n      jump\t// out\n\n    auxdata: 0xa2646970667358221220dde379c58f065e0a53c937a4a97eeb864fe0d91edf8062b2f69d8fc2420ad00664736f6c634300081e0033\n}\n",
				"bytecode": {
					"linkReferences": {},
					"object": "6080604052348015600e575f5ffd5b50335f5f6101000a81548173ffffffffffffffffffffffffffffffffffffffff021916908373ffffffffffffffffffffffffffffffffffffffff160217905550611e9e8061005b5f395ff3fe608060405234801561000f575f5ffd5b5060043610610091575f3560e01c806395d89b411161006457806395d89b411461011f5780639e281a981461013d578063b07391c014610159578063cf6c62ea14610175578063d752fab2146101a557610091565b806306fdde031461009557806318160ddd146100b357806370a08231146100d15780638da5cb5b14610101575b5f5ffd5b61009d6101d6565b6040516100aa91906111d8565b60405180910390f35b6100bb61020f565b6040516100c89190611210565b60405180910390f35b6100eb60048036038101906100e69190611287565b610215565b6040516100f89190611210565b60405180910390f35b61010961022a565b60405161011691906112c1565b60405180910390f35b61012761024e565b60405161013491906111d8565b60405180910390f35b61015760048036038101906101529190611304565b610287565b005b610173600480360381019061016e9190611342565b6104b7565b005b61018f600480360381019061018a9190611342565b6107c6565b60405161019c9190611210565b60405180910390f35b6101bf60048036038101906101ba91906113a6565b610b52565b6040516101cd9291906113f6565b60405180910390f35b6040518060400160405280600e81526020017f5265676172204c5020546f6b656e00000000000000000000000000000000000081525081565b60015481565b6002602052805f5260405f205f915090505481565b5f5f9054906101000a900473ffffffffffffffffffffffffffffffffffffffff1681565b6040518060400160405280600681526020017f5247522d4c50000000000000000000000000000000000000000000000000000081525081565b5f5f9054906101000a900473ffffffffffffffffffffffffffffffffffffffff1673ffffffffffffffffffffffffffffffffffffffff163373ffffffffffffffffffffffffffffffffffffffff1614610315576040517f08c379a000000000000000000000000000000000000000000000000000000000815260040161030c9061148d565b60405180910390fd5b5f8273ffffffffffffffffffffffffffffffffffffffff166370a08231306040518263ffffffff1660e01b815260040161034f91906112c1565b602060405180830381865afa15801561036a573d5f5f3e3d5ffd5b505050506040513d601f19601f8201168201806040525081019061038e91906114bf565b9050818110156103d3576040517f08c379a00000000000000000000000000000000000000000000000000000000081526004016103ca9061155a565b60405180910390fd5b5f8373ffffffffffffffffffffffffffffffffffffffff1663a9059cbb5f5f9054906101000a900473ffffffffffffffffffffffffffffffffffffffff16856040518363ffffffff1660e01b815260040161042f929190611578565b6020604051808303815f875af115801561044b573d5f5f3e3d5ffd5b505050506040513d601f19601f8201168201806040525081019061046f91906115d4565b9050806104b1576040517f08c379a00000000000000000000000000000000000000000000000000000000081526004016104a89061166f565b60405180910390fd5b50505050565b5f82116104f9576040517f08c379a00000000000000000000000000000000000000000000000000000000081526004016104f0906116fd565b60405180910390fd5b5f8490505f8490505f8273ffffffffffffffffffffffffffffffffffffffff166323b872dd3330886040518463ffffffff1660e01b815260040161053f9392919061171b565b6020604051808303815f875af115801561055b573d5f5f3e3d5ffd5b505050506040513d601f19601f8201168201806040525081019061057f91906115d4565b9050806105c1576040517f08c379a00000000000000000000000000000000000000000000000000000000081526004016105b8906117e6565b60405180910390fd5b5f8273ffffffffffffffffffffffffffffffffffffffff166370a08231306040518263ffffffff1660e01b81526004016105fb91906112c1565b602060405180830381865afa158015610616573d5f5f3e3d5ffd5b505050506040513d601f19601f8201168201806040525081019061063a91906114bf565b90508481101561067f576040517f08c379a000000000000000000000000000000000000000000000000000000000815260040161067690611874565b60405180910390fd5b5f8373ffffffffffffffffffffffffffffffffffffffff1663a9059cbb33886040518363ffffffff1660e01b81526004016106bb929190611578565b6020604051808303815f875af11580156106d7573d5f5f3e3d5ffd5b505050506040513d601f19601f820116820180604052508101906106fb91906115d4565b90508061073d576040517f08c379a000000000000000000000000000000000000000000000000000000000815260040161073490611902565b60405180910390fd5b8773ffffffffffffffffffffffffffffffffffffffff168973ffffffffffffffffffffffffffffffffffffffff163373ffffffffffffffffffffffffffffffffffffffff167f764f0dc063c06f32d89a3f3af80c0db4be8a090901f589a478b447e0a51f09f18a8a6040516107b39291906113f6565b60405180910390a4505050505050505050565b5f5f8590505f8590505f8273ffffffffffffffffffffffffffffffffffffffff166370a08231306040518263ffffffff1660e01b815260040161080991906112c1565b602060405180830381865afa158015610824573d5f5f3e3d5ffd5b505050506040513d601f19601f8201168201806040525081019061084891906114bf565b90505f8273ffffffffffffffffffffffffffffffffffffffff166370a08231306040518263ffffffff1660e01b815260040161088491906112c1565b602060405180830381865afa15801561089f573d5f5f3e3d5ffd5b505050506040513d601f19601f820116820180604052508101906108c391906114bf565b90508373ffffffffffffffffffffffffffffffffffffffff166323b872dd33308a6040518463ffffffff1660e01b81526004016109029392919061171b565b6020604051808303815f875af115801561091e573d5f5f3e3d5ffd5b505050506040513d601f19601f8201168201806040525081019061094291906115d4565b610981576040517f08c379a000000000000000000000000000000000000000000000000000000000815260040161097890611990565b60405180910390fd5b8273ffffffffffffffffffffffffffffffffffffffff166323b872dd3330896040518463ffffffff1660e01b81526004016109be9392919061171b565b6020604051808303815f875af11580156109da573d5f5f3e3d5ffd5b505050506040513d601f19601f820116820180604052508101906109fe91906115d4565b610a3d576040517f08c379a0000000000000000000000000000000000000000000000000000000008152600401610a3490611a1e565b60405180910390fd5b5f60015403610a6157610a5a8688610a559190611a69565b610f31565b9450610aa8565b5f8260015489610a719190611a69565b610a7b9190611ad7565b90505f8260015489610a8d9190611a69565b610a979190611ad7565b9050610aa38282610fa8565b965050505b5f8511610aea576040517f08c379a0000000000000000000000000000000000000000000000000000000008152600401610ae190611b77565b60405180910390fd5b610af43386610fc0565b3373ffffffffffffffffffffffffffffffffffffffff167fa74b54c06133e997406e0369608fb6a8fd1d17957751a6d2a6390ddff1938769888888604051610b3e93929190611b95565b60405180910390a250505050949350505050565b5f5f8260025f3373ffffffffffffffffffffffffffffffffffffffff1673ffffffffffffffffffffffffffffffffffffffff1681526020019081526020015f20541015610bd4576040517f08c379a0000000000000000000000000000000000000000000000000000000008152600401610bcb90611c3a565b60405180910390fd5b5f8590505f8590505f8273ffffffffffffffffffffffffffffffffffffffff166370a08231306040518263ffffffff1660e01b8152600401610c1691906112c1565b602060405180830381865afa158015610c31573d5f5f3e3d5ffd5b505050506040513d601f19601f82011682018060405250810190610c5591906114bf565b90505f8273ffffffffffffffffffffffffffffffffffffffff166370a08231306040518263ffffffff1660e01b8152600401610c9191906112c1565b602060405180830381865afa158015610cac573d5f5f3e3d5ffd5b505050506040513d601f19601f82011682018060405250810190610cd091906114bf565b90506001548288610ce19190611a69565b610ceb9190611ad7565b95506001548188610cfc9190611a69565b610d069190611ad7565b94505f86118015610d1657505f85115b610d55576040517f08c379a0000000000000000000000000000000000000000000000000000000008152600401610d4c90611cc8565b60405180910390fd5b610d5f3388611094565b8373ffffffffffffffffffffffffffffffffffffffff1663a9059cbb33886040518363ffffffff1660e01b8152600401610d9a929190611578565b6020604051808303815f875af1158015610db6573d5f5f3e3d5ffd5b505050506040513d601f19601f82011682018060405250810190610dda91906115d4565b610e19576040517f08c379a0000000000000000000000000000000000000000000000000000000008152600401610e1090611d56565b60405180910390fd5b8273ffffffffffffffffffffffffffffffffffffffff1663a9059cbb33876040518363ffffffff1660e01b8152600401610e54929190611578565b6020604051808303815f875af1158015610e70573d5f5f3e3d5ffd5b505050506040513d601f19601f82011682018060405250810190610e9491906115d4565b610ed3576040517f08c379a0000000000000000000000000000000000000000000000000000000008152600401610eca90611de4565b60405180910390fd5b3373ffffffffffffffffffffffffffffffffffffffff167f9746cd459b192e14d25047ee6f0c763709fc38435eb4883830cf715de0a40ac087878a604051610f1d93929190611b95565b60405180910390a250505050935093915050565b5f6003821115610f96578190505f6001600284610f4e9190611ad7565b610f589190611e02565b90505b81811015610f90578091506002818285610f759190611ad7565b610f7f9190611e02565b610f899190611ad7565b9050610f5b565b50610fa3565b5f8214610fa257600190505b5b919050565b5f818310610fb65781610fb8565b825b905092915050565b8060025f8473ffffffffffffffffffffffffffffffffffffffff1673ffffffffffffffffffffffffffffffffffffffff1681526020019081526020015f205f82825461100c9190611e02565b925050819055508060015f8282546110249190611e02565b925050819055508173ffffffffffffffffffffffffffffffffffffffff165f73ffffffffffffffffffffffffffffffffffffffff167fddf252ad1be2c89b69c2b068fc378daa952ba7f163c4a11628f55a4df523b3ef836040516110889190611210565b60405180910390a35050565b8060025f8473ffffffffffffffffffffffffffffffffffffffff1673ffffffffffffffffffffffffffffffffffffffff1681526020019081526020015f205f8282546110e09190611e35565b925050819055508060015f8282546110f89190611e35565b925050819055505f73ffffffffffffffffffffffffffffffffffffffff168273ffffffffffffffffffffffffffffffffffffffff167fddf252ad1be2c89b69c2b068fc378daa952ba7f163c4a11628f55a4df523b3ef8360405161115c9190611210565b60405180910390a35050565b5f81519050919050565b5f82825260208201905092915050565b8281835e5f83830152505050565b5f601f19601f8301169050919050565b5f6111aa82611168565b6111b48185611172565b93506111c4818560208601611182565b6111cd81611190565b840191505092915050565b5f6020820190508181035f8301526111f081846111a0565b905092915050565b5f819050919050565b61120a816111f8565b82525050565b5f6020820190506112235f830184611201565b92915050565b5f5ffd5b5f73ffffffffffffffffffffffffffffffffffffffff82169050919050565b5f6112568261122d565b9050919050565b6112668161124c565b8114611270575f5ffd5b50565b5f813590506112818161125d565b92915050565b5f6020828403121561129c5761129b611229565b5b5f6112a984828501611273565b91505092915050565b6112bb8161124c565b82525050565b5f6020820190506112d45f8301846112b2565b92915050565b6112e3816111f8565b81146112ed575f5ffd5b50565b5f813590506112fe816112da565b92915050565b5f5f6040838503121561131a57611319611229565b5b5f61132785828601611273565b9250506020611338858286016112f0565b9150509250929050565b5f5f5f5f6080858703121561135a57611359611229565b5b5f61136787828801611273565b945050602061137887828801611273565b9350506040611389878288016112f0565b925050606061139a878288016112f0565b91505092959194509250565b5f5f5f606084860312156113bd576113bc611229565b5b5f6113ca86828701611273565b93505060206113db86828701611273565b92505060406113ec868287016112f0565b9150509250925092565b5f6040820190506114095f830185611201565b6114166020830184611201565b9392505050565b7f417574686f72697a6174696f6e204572726f723a204f6e6c79206f776e6572205f8201527f63616e206578656375746520746869732066756e6374696f6e00000000000000602082015250565b5f611477603983611172565b91506114828261141d565b604082019050919050565b5f6020820190508181035f8301526114a48161146b565b9050919050565b5f815190506114b9816112da565b92915050565b5f602082840312156114d4576114d3611229565b5b5f6114e1848285016114ab565b91505092915050565b7f4c6971756964697479204572726f723a205265717565737420657863656564735f8201527f20617661696c61626c6520706f6f6c2062616c616e6365000000000000000000602082015250565b5f611544603783611172565b915061154f826114ea565b604082019050919050565b5f6020820190508181035f83015261157181611538565b9050919050565b5f60408201905061158b5f8301856112b2565b6115986020830184611201565b9392505050565b5f8115159050919050565b6115b38161159f565b81146115bd575f5ffd5b50565b5f815190506115ce816115aa565b92915050565b5f602082840312156115e9576115e8611229565b5b5f6115f6848285016115c0565b91505092915050565b7f426c6f636b636861696e204572726f723a205769746864726177616c2070726f5f8201527f63657373206661696c65642e0000000000000000000000000000000000000000602082015250565b5f611659602c83611172565b9150611664826115ff565b604082019050919050565b5f6020820190508181035f8301526116868161164d565b9050919050565b7f457865637574696f6e204572726f723a20416d6f756e74206d757374206265205f8201527f67726561746572207468616e207a65726f000000000000000000000000000000602082015250565b5f6116e7603183611172565b91506116f28261168d565b604082019050919050565b5f6020820190508181035f830152611714816116db565b9050919050565b5f60608201905061172e5f8301866112b2565b61173b60208301856112b2565b6117486040830184611201565b949350505050565b7f426c6f636b636861696e204572726f723a20546f6b656e206465706f736974205f8201527f6661696c65642e20436865636b20757365722062616c616e636520616e64206160208201527f6c6c6f77616e63652e0000000000000000000000000000000000000000000000604082015250565b5f6117d0604983611172565b91506117db82611750565b606082019050919050565b5f6020820190508181035f8301526117fd816117c4565b9050919050565b7f4c6971756964697479204572726f723a20496e73756666696369656e742066755f8201527f6e647320696e736964652074686520706f6f6c20636f6e747261637400000000602082015250565b5f61185e603c83611172565b915061186982611804565b604082019050919050565b5f6020820190508181035f83015261188b81611852565b9050919050565b7f426c6f636b636861696e204572726f723a20546f6b656e207061796f757420665f8201527f61696c65642e0000000000000000000000000000000000000000000000000000602082015250565b5f6118ec602683611172565b91506118f782611892565b604082019050919050565b5f6020820190508181035f830152611919816118e0565b9050919050565b7f426c6f636b636861696e204572726f723a20546f6b656e2041206465706f73695f8201527f74206661696c6564000000000000000000000000000000000000000000000000602082015250565b5f61197a602883611172565b915061198582611920565b604082019050919050565b5f6020820190508181035f8301526119a78161196e565b9050919050565b7f426c6f636b636861696e204572726f723a20546f6b656e2042206465706f73695f8201527f74206661696c6564000000000000000000000000000000000000000000000000602082015250565b5f611a08602883611172565b9150611a13826119ae565b604082019050919050565b5f6020820190508181035f830152611a35816119fc565b9050919050565b7f4e487b71000000000000000000000000000000000000000000000000000000005f52601160045260245ffd5b5f611a73826111f8565b9150611a7e836111f8565b9250828202611a8c816111f8565b91508282048414831517611aa357611aa2611a3c565b5b5092915050565b7f4e487b71000000000000000000000000000000000000000000000000000000005f52601260045260245ffd5b5f611ae1826111f8565b9150611aec836111f8565b925082611afc57611afb611aaa565b5b828204905092915050565b7f4c6971756964697479204572726f723a204d696e74656420706f6f6c207368615f8201527f7265732076616c756520746f6f206c6f77000000000000000000000000000000602082015250565b5f611b61603183611172565b9150611b6c82611b07565b604082019050919050565b5f6020820190508181035f830152611b8e81611b55565b9050919050565b5f606082019050611ba85f830186611201565b611bb56020830185611201565b611bc26040830184611201565b949350505050565b7f4c6971756964697479204572726f723a20496e73756666696369656e74204c505f8201527f207368617265732062616c616e63650000000000000000000000000000000000602082015250565b5f611c24602f83611172565b9150611c2f82611bca565b604082019050919050565b5f6020820190508181035f830152611c5181611c18565b9050919050565b7f4c6971756964697479204572726f723a205265736f6c766564207769746864725f8201527f6177616c20616d6f756e74732061726520696e76616c69640000000000000000602082015250565b5f611cb2603883611172565b9150611cbd82611c58565b604082019050919050565b5f6020820190508181035f830152611cdf81611ca6565b9050919050565b7f426c6f636b636861696e204572726f723a20546f6b656e204120726566756e645f8201527f207472616e73666572206661696c656400000000000000000000000000000000602082015250565b5f611d40603083611172565b9150611d4b82611ce6565b604082019050919050565b5f6020820190508181035f830152611d6d81611d34565b9050919050565b7f426c6f636b636861696e204572726f723a20546f6b656e204220726566756e645f8201527f207472616e73666572206661696c656400000000000000000000000000000000602082015250565b5f611dce603083611172565b9150611dd982611d74565b604082019050919050565b5f6020820190508181035f830152611dfb81611dc2565b9050919050565b5f611e0c826111f8565b9150611e17836111f8565b9250828201905080821115611e2f57611e2e611a3c565b5b92915050565b5f611e3f826111f8565b9150611e4a836111f8565b9250828203905081811115611e6257611e61611a3c565b5b9291505056fea2646970667358221220dde379c58f065e0a53c937a4a97eeb864fe0d91edf8062b2f69d8fc2420ad00664736f6c634300081e0033",
					"opcodes": "PUSH1 0x80 PUSH1 0x40 MSTORE CALLVALUE DUP1 ISZERO PUSH1 0xE JUMPI PUSH0 PUSH0 REVERT JUMPDEST POP CALLER PUSH0 PUSH0 PUSH2 0x100 EXP DUP2 SLOAD DUP2 PUSH20 0xFFFFFFFFFFFFFFFFFFFFFFFFFFFFFFFFFFFFFFFF MUL NOT AND SWAP1 DUP4 PUSH20 0xFFFFFFFFFFFFFFFFFFFFFFFFFFFFFFFFFFFFFFFF AND MUL OR SWAP1 SSTORE POP PUSH2 0x1E9E DUP1 PUSH2 0x5B PUSH0 CODECOPY PUSH0 RETURN INVALID PUSH1 0x80 PUSH1 0x40 MSTORE CALLVALUE DUP1 ISZERO PUSH2 0xF JUMPI PUSH0 PUSH0 REVERT JUMPDEST POP PUSH1 0x4 CALLDATASIZE LT PUSH2 0x91 JUMPI PUSH0 CALLDATALOAD PUSH1 0xE0 SHR DUP1 PUSH4 0x95D89B41 GT PUSH2 0x64 JUMPI DUP1 PUSH4 0x95D89B41 EQ PUSH2 0x11F JUMPI DUP1 PUSH4 0x9E281A98 EQ PUSH2 0x13D JUMPI DUP1 PUSH4 0xB07391C0 EQ PUSH2 0x159 JUMPI DUP1 PUSH4 0xCF6C62EA EQ PUSH2 0x175 JUMPI DUP1 PUSH4 0xD752FAB2 EQ PUSH2 0x1A5 JUMPI PUSH2 0x91 JUMP JUMPDEST DUP1 PUSH4 0x6FDDE03 EQ PUSH2 0x95 JUMPI DUP1 PUSH4 0x18160DDD EQ PUSH2 0xB3 JUMPI DUP1 PUSH4 0x70A08231 EQ PUSH2 0xD1 JUMPI DUP1 PUSH4 0x8DA5CB5B EQ PUSH2 0x101 JUMPI JUMPDEST PUSH0 PUSH0 REVERT JUMPDEST PUSH2 0x9D PUSH2 0x1D6 JUMP JUMPDEST PUSH1 0x40 MLOAD PUSH2 0xAA SWAP2 SWAP1 PUSH2 0x11D8 JUMP JUMPDEST PUSH1 0x40 MLOAD DUP1 SWAP2 SUB SWAP1 RETURN JUMPDEST PUSH2 0xBB PUSH2 0x20F JUMP JUMPDEST PUSH1 0x40 MLOAD PUSH2 0xC8 SWAP2 SWAP1 PUSH2 0x1210 JUMP JUMPDEST PUSH1 0x40 MLOAD DUP1 SWAP2 SUB SWAP1 RETURN JUMPDEST PUSH2 0xEB PUSH1 0x4 DUP1 CALLDATASIZE SUB DUP2 ADD SWAP1 PUSH2 0xE6 SWAP2 SWAP1 PUSH2 0x1287 JUMP JUMPDEST PUSH2 0x215 JUMP JUMPDEST PUSH1 0x40 MLOAD PUSH2 0xF8 SWAP2 SWAP1 PUSH2 0x1210 JUMP JUMPDEST PUSH1 0x40 MLOAD DUP1 SWAP2 SUB SWAP1 RETURN JUMPDEST PUSH2 0x109 PUSH2 0x22A JUMP JUMPDEST PUSH1 0x40 MLOAD PUSH2 0x116 SWAP2 SWAP1 PUSH2 0x12C1 JUMP JUMPDEST PUSH1 0x40 MLOAD DUP1 SWAP2 SUB SWAP1 RETURN JUMPDEST PUSH2 0x127 PUSH2 0x24E JUMP JUMPDEST PUSH1 0x40 MLOAD PUSH2 0x134 SWAP2 SWAP1 PUSH2 0x11D8 JUMP JUMPDEST PUSH1 0x40 MLOAD DUP1 SWAP2 SUB SWAP1 RETURN JUMPDEST PUSH2 0x157 PUSH1 0x4 DUP1 CALLDATASIZE SUB DUP2 ADD SWAP1 PUSH2 0x152 SWAP2 SWAP1 PUSH2 0x1304 JUMP JUMPDEST PUSH2 0x287 JUMP JUMPDEST STOP JUMPDEST PUSH2 0x173 PUSH1 0x4 DUP1 CALLDATASIZE SUB DUP2 ADD SWAP1 PUSH2 0x16E SWAP2 SWAP1 PUSH2 0x1342 JUMP JUMPDEST PUSH2 0x4B7 JUMP JUMPDEST STOP JUMPDEST PUSH2 0x18F PUSH1 0x4 DUP1 CALLDATASIZE SUB DUP2 ADD SWAP1 PUSH2 0x18A SWAP2 SWAP1 PUSH2 0x1342 JUMP JUMPDEST PUSH2 0x7C6 JUMP JUMPDEST PUSH1 0x40 MLOAD PUSH2 0x19C SWAP2 SWAP1 PUSH2 0x1210 JUMP JUMPDEST PUSH1 0x40 MLOAD DUP1 SWAP2 SUB SWAP1 RETURN JUMPDEST PUSH2 0x1BF PUSH1 0x4 DUP1 CALLDATASIZE SUB DUP2 ADD SWAP1 PUSH2 0x1BA SWAP2 SWAP1 PUSH2 0x13A6 JUMP JUMPDEST PUSH2 0xB52 JUMP JUMPDEST PUSH1 0x40 MLOAD PUSH2 0x1CD SWAP3 SWAP2 SWAP1 PUSH2 0x13F6 JUMP JUMPDEST PUSH1 0x40 MLOAD DUP1 SWAP2 SUB SWAP1 RETURN JUMPDEST PUSH1 0x40 MLOAD DUP1 PUSH1 0x40 ADD PUSH1 0x40 MSTORE DUP1 PUSH1 0xE DUP2 MSTORE PUSH1 0x20 ADD PUSH32 0x5265676172204C5020546F6B656E000000000000000000000000000000000000 DUP2 MSTORE POP DUP2 JUMP JUMPDEST PUSH1 0x1 SLOAD DUP2 JUMP JUMPDEST PUSH1 0x2 PUSH1 0x20 MSTORE DUP1 PUSH0 MSTORE PUSH1 0x40 PUSH0 KECCAK256 PUSH0 SWAP2 POP SWAP1 POP SLOAD DUP2 JUMP JUMPDEST PUSH0 PUSH0 SWAP1 SLOAD SWAP1 PUSH2 0x100 EXP SWAP1 DIV PUSH20 0xFFFFFFFFFFFFFFFFFFFFFFFFFFFFFFFFFFFFFFFF AND DUP2 JUMP JUMPDEST PUSH1 0x40 MLOAD DUP1 PUSH1 0x40 ADD PUSH1 0x40 MSTORE DUP1 PUSH1 0x6 DUP2 MSTORE PUSH1 0x20 ADD PUSH32 0x5247522D4C500000000000000000000000000000000000000000000000000000 DUP2 MSTORE POP DUP2 JUMP JUMPDEST PUSH0 PUSH0 SWAP1 SLOAD SWAP1 PUSH2 0x100 EXP SWAP1 DIV PUSH20 0xFFFFFFFFFFFFFFFFFFFFFFFFFFFFFFFFFFFFFFFF AND PUSH20 0xFFFFFFFFFFFFFFFFFFFFFFFFFFFFFFFFFFFFFFFF AND CALLER PUSH20 0xFFFFFFFFFFFFFFFFFFFFFFFFFFFFFFFFFFFFFFFF AND EQ PUSH2 0x315 JUMPI PUSH1 0x40 MLOAD PUSH32 0x8C379A000000000000000000000000000000000000000000000000000000000 DUP2 MSTORE PUSH1 0x4 ADD PUSH2 0x30C SWAP1 PUSH2 0x148D JUMP JUMPDEST PUSH1 0x40 MLOAD DUP1 SWAP2 SUB SWAP1 REVERT JUMPDEST PUSH0 DUP3 PUSH20 0xFFFFFFFFFFFFFFFFFFFFFFFFFFFFFFFFFFFFFFFF AND PUSH4 0x70A08231 ADDRESS PUSH1 0x40 MLOAD DUP3 PUSH4 0xFFFFFFFF AND PUSH1 0xE0 SHL DUP2 MSTORE PUSH1 0x4 ADD PUSH2 0x34F SWAP2 SWAP1 PUSH2 0x12C1 JUMP JUMPDEST PUSH1 0x20 PUSH1 0x40 MLOAD DUP1 DUP4 SUB DUP2 DUP7 GAS STATICCALL ISZERO DUP1 ISZERO PUSH2 0x36A JUMPI RETURNDATASIZE PUSH0 PUSH0 RETURNDATACOPY RETURNDATASIZE PUSH0 REVERT JUMPDEST POP POP POP POP PUSH1 0x40 MLOAD RETURNDATASIZE PUSH1 0x1F NOT PUSH1 0x1F DUP3 ADD AND DUP3 ADD DUP1 PUSH1 0x40 MSTORE POP DUP2 ADD SWAP1 PUSH2 0x38E SWAP2 SWAP1 PUSH2 0x14BF JUMP JUMPDEST SWAP1 POP DUP2 DUP2 LT ISZERO PUSH2 0x3D3 JUMPI PUSH1 0x40 MLOAD PUSH32 0x8C379A000000000000000000000000000000000000000000000000000000000 DUP2 MSTORE PUSH1 0x4 ADD PUSH2 0x3CA SWAP1 PUSH2 0x155A JUMP JUMPDEST PUSH1 0x40 MLOAD DUP1 SWAP2 SUB SWAP1 REVERT JUMPDEST PUSH0 DUP4 PUSH20 0xFFFFFFFFFFFFFFFFFFFFFFFFFFFFFFFFFFFFFFFF AND PUSH4 0xA9059CBB PUSH0 PUSH0 SWAP1 SLOAD SWAP1 PUSH2 0x100 EXP SWAP1 DIV PUSH20 0xFFFFFFFFFFFFFFFFFFFFFFFFFFFFFFFFFFFFFFFF AND DUP6 PUSH1 0x40 MLOAD DUP4 PUSH4 0xFFFFFFFF AND PUSH1 0xE0 SHL DUP2 MSTORE PUSH1 0x4 ADD PUSH2 0x42F SWAP3 SWAP2 SWAP1 PUSH2 0x1578 JUMP JUMPDEST PUSH1 0x20 PUSH1 0x40 MLOAD DUP1 DUP4 SUB DUP2 PUSH0 DUP8 GAS CALL ISZERO DUP1 ISZERO PUSH2 0x44B JUMPI RETURNDATASIZE PUSH0 PUSH0 RETURNDATACOPY RETURNDATASIZE PUSH0 REVERT JUMPDEST POP POP POP POP PUSH1 0x40 MLOAD RETURNDATASIZE PUSH1 0x1F NOT PUSH1 0x1F DUP3 ADD AND DUP3 ADD DUP1 PUSH1 0x40 MSTORE POP DUP2 ADD SWAP1 PUSH2 0x46F SWAP2 SWAP1 PUSH2 0x15D4 JUMP JUMPDEST SWAP1 POP DUP1 PUSH2 0x4B1 JUMPI PUSH1 0x40 MLOAD PUSH32 0x8C379A000000000000000000000000000000000000000000000000000000000 DUP2 MSTORE PUSH1 0x4 ADD PUSH2 0x4A8 SWAP1 PUSH2 0x166F JUMP JUMPDEST PUSH1 0x40 MLOAD DUP1 SWAP2 SUB SWAP1 REVERT JUMPDEST POP POP POP POP JUMP JUMPDEST PUSH0 DUP3 GT PUSH2 0x4F9 JUMPI PUSH1 0x40 MLOAD PUSH32 0x8C379A000000000000000000000000000000000000000000000000000000000 DUP2 MSTORE PUSH1 0x4 ADD PUSH2 0x4F0 SWAP1 PUSH2 0x16FD JUMP JUMPDEST PUSH1 0x40 MLOAD DUP1 SWAP2 SUB SWAP1 REVERT JUMPDEST PUSH0 DUP5 SWAP1 POP PUSH0 DUP5 SWAP1 POP PUSH0 DUP3 PUSH20 0xFFFFFFFFFFFFFFFFFFFFFFFFFFFFFFFFFFFFFFFF AND PUSH4 0x23B872DD CALLER ADDRESS DUP9 PUSH1 0x40 MLOAD DUP5 PUSH4 0xFFFFFFFF AND PUSH1 0xE0 SHL DUP2 MSTORE PUSH1 0x4 ADD PUSH2 0x53F SWAP4 SWAP3 SWAP2 SWAP1 PUSH2 0x171B JUMP JUMPDEST PUSH1 0x20 PUSH1 0x40 MLOAD DUP1 DUP4 SUB DUP2 PUSH0 DUP8 GAS CALL ISZERO DUP1 ISZERO PUSH2 0x55B JUMPI RETURNDATASIZE PUSH0 PUSH0 RETURNDATACOPY RETURNDATASIZE PUSH0 REVERT JUMPDEST POP POP POP POP PUSH1 0x40 MLOAD RETURNDATASIZE PUSH1 0x1F NOT PUSH1 0x1F DUP3 ADD AND DUP3 ADD DUP1 PUSH1 0x40 MSTORE POP DUP2 ADD SWAP1 PUSH2 0x57F SWAP2 SWAP1 PUSH2 0x15D4 JUMP JUMPDEST SWAP1 POP DUP1 PUSH2 0x5C1 JUMPI PUSH1 0x40 MLOAD PUSH32 0x8C379A000000000000000000000000000000000000000000000000000000000 DUP2 MSTORE PUSH1 0x4 ADD PUSH2 0x5B8 SWAP1 PUSH2 0x17E6 JUMP JUMPDEST PUSH1 0x40 MLOAD DUP1 SWAP2 SUB SWAP1 REVERT JUMPDEST PUSH0 DUP3 PUSH20 0xFFFFFFFFFFFFFFFFFFFFFFFFFFFFFFFFFFFFFFFF AND PUSH4 0x70A08231 ADDRESS PUSH1 0x40 MLOAD DUP3 PUSH4 0xFFFFFFFF AND PUSH1 0xE0 SHL DUP2 MSTORE PUSH1 0x4 ADD PUSH2 0x5FB SWAP2 SWAP1 PUSH2 0x12C1 JUMP JUMPDEST PUSH1 0x20 PUSH1 0x40 MLOAD DUP1 DUP4 SUB DUP2 DUP7 GAS STATICCALL ISZERO DUP1 ISZERO PUSH2 0x616 JUMPI RETURNDATASIZE PUSH0 PUSH0 RETURNDATACOPY RETURNDATASIZE PUSH0 REVERT JUMPDEST POP POP POP POP PUSH1 0x40 MLOAD RETURNDATASIZE PUSH1 0x1F NOT PUSH1 0x1F DUP3 ADD AND DUP3 ADD DUP1 PUSH1 0x40 MSTORE POP DUP2 ADD SWAP1 PUSH2 0x63A SWAP2 SWAP1 PUSH2 0x14BF JUMP JUMPDEST SWAP1 POP DUP5 DUP2 LT ISZERO PUSH2 0x67F JUMPI PUSH1 0x40 MLOAD PUSH32 0x8C379A000000000000000000000000000000000000000000000000000000000 DUP2 MSTORE PUSH1 0x4 ADD PUSH2 0x676 SWAP1 PUSH2 0x1874 JUMP JUMPDEST PUSH1 0x40 MLOAD DUP1 SWAP2 SUB SWAP1 REVERT JUMPDEST PUSH0 DUP4 PUSH20 0xFFFFFFFFFFFFFFFFFFFFFFFFFFFFFFFFFFFFFFFF AND PUSH4 0xA9059CBB CALLER DUP9 PUSH1 0x40 MLOAD DUP4 PUSH4 0xFFFFFFFF AND PUSH1 0xE0 SHL DUP2 MSTORE PUSH1 0x4 ADD PUSH2 0x6BB SWAP3 SWAP2 SWAP1 PUSH2 0x1578 JUMP JUMPDEST PUSH1 0x20 PUSH1 0x40 MLOAD DUP1 DUP4 SUB DUP2 PUSH0 DUP8 GAS CALL ISZERO DUP1 ISZERO PUSH2 0x6D7 JUMPI RETURNDATASIZE PUSH0 PUSH0 RETURNDATACOPY RETURNDATASIZE PUSH0 REVERT JUMPDEST POP POP POP POP PUSH1 0x40 MLOAD RETURNDATASIZE PUSH1 0x1F NOT PUSH1 0x1F DUP3 ADD AND DUP3 ADD DUP1 PUSH1 0x40 MSTORE POP DUP2 ADD SWAP1 PUSH2 0x6FB SWAP2 SWAP1 PUSH2 0x15D4 JUMP JUMPDEST SWAP1 POP DUP1 PUSH2 0x73D JUMPI PUSH1 0x40 MLOAD PUSH32 0x8C379A000000000000000000000000000000000000000000000000000000000 DUP2 MSTORE PUSH1 0x4 ADD PUSH2 0x734 SWAP1 PUSH2 0x1902 JUMP JUMPDEST PUSH1 0x40 MLOAD DUP1 SWAP2 SUB SWAP1 REVERT JUMPDEST DUP8 PUSH20 0xFFFFFFFFFFFFFFFFFFFFFFFFFFFFFFFFFFFFFFFF AND DUP10 PUSH20 0xFFFFFFFFFFFFFFFFFFFFFFFFFFFFFFFFFFFFFFFF AND CALLER PUSH20 0xFFFFFFFFFFFFFFFFFFFFFFFFFFFFFFFFFFFFFFFF AND PUSH32 0x764F0DC063C06F32D89A3F3AF80C0DB4BE8A090901F589A478B447E0A51F09F1 DUP11 DUP11 PUSH1 0x40 MLOAD PUSH2 0x7B3 SWAP3 SWAP2 SWAP1 PUSH2 0x13F6 JUMP JUMPDEST PUSH1 0x40 MLOAD DUP1 SWAP2 SUB SWAP1 LOG4 POP POP POP POP POP POP POP POP POP JUMP JUMPDEST PUSH0 PUSH0 DUP6 SWAP1 POP PUSH0 DUP6 SWAP1 POP PUSH0 DUP3 PUSH20 0xFFFFFFFFFFFFFFFFFFFFFFFFFFFFFFFFFFFFFFFF AND PUSH4 0x70A08231 ADDRESS PUSH1 0x40 MLOAD DUP3 PUSH4 0xFFFFFFFF AND PUSH1 0xE0 SHL DUP2 MSTORE PUSH1 0x4 ADD PUSH2 0x809 SWAP2 SWAP1 PUSH2 0x12C1 JUMP JUMPDEST PUSH1 0x20 PUSH1 0x40 MLOAD DUP1 DUP4 SUB DUP2 DUP7 GAS STATICCALL ISZERO DUP1 ISZERO PUSH2 0x824 JUMPI RETURNDATASIZE PUSH0 PUSH0 RETURNDATACOPY RETURNDATASIZE PUSH0 REVERT JUMPDEST POP POP POP POP PUSH1 0x40 MLOAD RETURNDATASIZE PUSH1 0x1F NOT PUSH1 0x1F DUP3 ADD AND DUP3 ADD DUP1 PUSH1 0x40 MSTORE POP DUP2 ADD SWAP1 PUSH2 0x848 SWAP2 SWAP1 PUSH2 0x14BF JUMP JUMPDEST SWAP1 POP PUSH0 DUP3 PUSH20 0xFFFFFFFFFFFFFFFFFFFFFFFFFFFFFFFFFFFFFFFF AND PUSH4 0x70A08231 ADDRESS PUSH1 0x40 MLOAD DUP3 PUSH4 0xFFFFFFFF AND PUSH1 0xE0 SHL DUP2 MSTORE PUSH1 0x4 ADD PUSH2 0x884 SWAP2 SWAP1 PUSH2 0x12C1 JUMP JUMPDEST PUSH1 0x20 PUSH1 0x40 MLOAD DUP1 DUP4 SUB DUP2 DUP7 GAS STATICCALL ISZERO DUP1 ISZERO PUSH2 0x89F JUMPI RETURNDATASIZE PUSH0 PUSH0 RETURNDATACOPY RETURNDATASIZE PUSH0 REVERT JUMPDEST POP POP POP POP PUSH1 0x40 MLOAD RETURNDATASIZE PUSH1 0x1F NOT PUSH1 0x1F DUP3 ADD AND DUP3 ADD DUP1 PUSH1 0x40 MSTORE POP DUP2 ADD SWAP1 PUSH2 0x8C3 SWAP2 SWAP1 PUSH2 0x14BF JUMP JUMPDEST SWAP1 POP DUP4 PUSH20 0xFFFFFFFFFFFFFFFFFFFFFFFFFFFFFFFFFFFFFFFF AND PUSH4 0x23B872DD CALLER ADDRESS DUP11 PUSH1 0x40 MLOAD DUP5 PUSH4 0xFFFFFFFF AND PUSH1 0xE0 SHL DUP2 MSTORE PUSH1 0x4 ADD PUSH2 0x902 SWAP4 SWAP3 SWAP2 SWAP1 PUSH2 0x171B JUMP JUMPDEST PUSH1 0x20 PUSH1 0x40 MLOAD DUP1 DUP4 SUB DUP2 PUSH0 DUP8 GAS CALL ISZERO DUP1 ISZERO PUSH2 0x91E JUMPI RETURNDATASIZE PUSH0 PUSH0 RETURNDATACOPY RETURNDATASIZE PUSH0 REVERT JUMPDEST POP POP POP POP PUSH1 0x40 MLOAD RETURNDATASIZE PUSH1 0x1F NOT PUSH1 0x1F DUP3 ADD AND DUP3 ADD DUP1 PUSH1 0x40 MSTORE POP DUP2 ADD SWAP1 PUSH2 0x942 SWAP2 SWAP1 PUSH2 0x15D4 JUMP JUMPDEST PUSH2 0x981 JUMPI PUSH1 0x40 MLOAD PUSH32 0x8C379A000000000000000000000000000000000000000000000000000000000 DUP2 MSTORE PUSH1 0x4 ADD PUSH2 0x978 SWAP1 PUSH2 0x1990 JUMP JUMPDEST PUSH1 0x40 MLOAD DUP1 SWAP2 SUB SWAP1 REVERT JUMPDEST DUP3 PUSH20 0xFFFFFFFFFFFFFFFFFFFFFFFFFFFFFFFFFFFFFFFF AND PUSH4 0x23B872DD CALLER ADDRESS DUP10 PUSH1 0x40 MLOAD DUP5 PUSH4 0xFFFFFFFF AND PUSH1 0xE0 SHL DUP2 MSTORE PUSH1 0x4 ADD PUSH2 0x9BE SWAP4 SWAP3 SWAP2 SWAP1 PUSH2 0x171B JUMP JUMPDEST PUSH1 0x20 PUSH1 0x40 MLOAD DUP1 DUP4 SUB DUP2 PUSH0 DUP8 GAS CALL ISZERO DUP1 ISZERO PUSH2 0x9DA JUMPI RETURNDATASIZE PUSH0 PUSH0 RETURNDATACOPY RETURNDATASIZE PUSH0 REVERT JUMPDEST POP POP POP POP PUSH1 0x40 MLOAD RETURNDATASIZE PUSH1 0x1F NOT PUSH1 0x1F DUP3 ADD AND DUP3 ADD DUP1 PUSH1 0x40 MSTORE POP DUP2 ADD SWAP1 PUSH2 0x9FE SWAP2 SWAP1 PUSH2 0x15D4 JUMP JUMPDEST PUSH2 0xA3D JUMPI PUSH1 0x40 MLOAD PUSH32 0x8C379A000000000000000000000000000000000000000000000000000000000 DUP2 MSTORE PUSH1 0x4 ADD PUSH2 0xA34 SWAP1 PUSH2 0x1A1E JUMP JUMPDEST PUSH1 0x40 MLOAD DUP1 SWAP2 SUB SWAP1 REVERT JUMPDEST PUSH0 PUSH1 0x1 SLOAD SUB PUSH2 0xA61 JUMPI PUSH2 0xA5A DUP7 DUP9 PUSH2 0xA55 SWAP2 SWAP1 PUSH2 0x1A69 JUMP JUMPDEST PUSH2 0xF31 JUMP JUMPDEST SWAP5 POP PUSH2 0xAA8 JUMP JUMPDEST PUSH0 DUP3 PUSH1 0x1 SLOAD DUP10 PUSH2 0xA71 SWAP2 SWAP1 PUSH2 0x1A69 JUMP JUMPDEST PUSH2 0xA7B SWAP2 SWAP1 PUSH2 0x1AD7 JUMP JUMPDEST SWAP1 POP PUSH0 DUP3 PUSH1 0x1 SLOAD DUP10 PUSH2 0xA8D SWAP2 SWAP1 PUSH2 0x1A69 JUMP JUMPDEST PUSH2 0xA97 SWAP2 SWAP1 PUSH2 0x1AD7 JUMP JUMPDEST SWAP1 POP PUSH2 0xAA3 DUP3 DUP3 PUSH2 0xFA8 JUMP JUMPDEST SWAP7 POP POP POP JUMPDEST PUSH0 DUP6 GT PUSH2 0xAEA JUMPI PUSH1 0x40 MLOAD PUSH32 0x8C379A000000000000000000000000000000000000000000000000000000000 DUP2 MSTORE PUSH1 0x4 ADD PUSH2 0xAE1 SWAP1 PUSH2 0x1B77 JUMP JUMPDEST PUSH1 0x40 MLOAD DUP1 SWAP2 SUB SWAP1 REVERT JUMPDEST PUSH2 0xAF4 CALLER DUP7 PUSH2 0xFC0 JUMP JUMPDEST CALLER PUSH20 0xFFFFFFFFFFFFFFFFFFFFFFFFFFFFFFFFFFFFFFFF AND PUSH32 0xA74B54C06133E997406E0369608FB6A8FD1D17957751A6D2A6390DDFF1938769 DUP9 DUP9 DUP9 PUSH1 0x40 MLOAD PUSH2 0xB3E SWAP4 SWAP3 SWAP2 SWAP1 PUSH2 0x1B95 JUMP JUMPDEST PUSH1 0x40 MLOAD DUP1 SWAP2 SUB SWAP1 LOG2 POP POP POP POP SWAP5 SWAP4 POP POP POP POP JUMP JUMPDEST PUSH0 PUSH0 DUP3 PUSH1 0x2 PUSH0 CALLER PUSH20 0xFFFFFFFFFFFFFFFFFFFFFFFFFFFFFFFFFFFFFFFF AND PUSH20 0xFFFFFFFFFFFFFFFFFFFFFFFFFFFFFFFFFFFFFFFF AND DUP2 MSTORE PUSH1 0x20 ADD SWAP1 DUP2 MSTORE PUSH1 0x20 ADD PUSH0 KECCAK256 SLOAD LT ISZERO PUSH2 0xBD4 JUMPI PUSH1 0x40 MLOAD PUSH32 0x8C379A000000000000000000000000000000000000000000000000000000000 DUP2 MSTORE PUSH1 0x4 ADD PUSH2 0xBCB SWAP1 PUSH2 0x1C3A JUMP JUMPDEST PUSH1 0x40 MLOAD DUP1 SWAP2 SUB SWAP1 REVERT JUMPDEST PUSH0 DUP6 SWAP1 POP PUSH0 DUP6 SWAP1 POP PUSH0 DUP3 PUSH20 0xFFFFFFFFFFFFFFFFFFFFFFFFFFFFFFFFFFFFFFFF AND PUSH4 0x70A08231 ADDRESS PUSH1 0x40 MLOAD DUP3 PUSH4 0xFFFFFFFF AND PUSH1 0xE0 SHL DUP2 MSTORE PUSH1 0x4 ADD PUSH2 0xC16 SWAP2 SWAP1 PUSH2 0x12C1 JUMP JUMPDEST PUSH1 0x20 PUSH1 0x40 MLOAD DUP1 DUP4 SUB DUP2 DUP7 GAS STATICCALL ISZERO DUP1 ISZERO PUSH2 0xC31 JUMPI RETURNDATASIZE PUSH0 PUSH0 RETURNDATACOPY RETURNDATASIZE PUSH0 REVERT JUMPDEST POP POP POP POP PUSH1 0x40 MLOAD RETURNDATASIZE PUSH1 0x1F NOT PUSH1 0x1F DUP3 ADD AND DUP3 ADD DUP1 PUSH1 0x40 MSTORE POP DUP2 ADD SWAP1 PUSH2 0xC55 SWAP2 SWAP1 PUSH2 0x14BF JUMP JUMPDEST SWAP1 POP PUSH0 DUP3 PUSH20 0xFFFFFFFFFFFFFFFFFFFFFFFFFFFFFFFFFFFFFFFF AND PUSH4 0x70A08231 ADDRESS PUSH1 0x40 MLOAD DUP3 PUSH4 0xFFFFFFFF AND PUSH1 0xE0 SHL DUP2 MSTORE PUSH1 0x4 ADD PUSH2 0xC91 SWAP2 SWAP1 PUSH2 0x12C1 JUMP JUMPDEST PUSH1 0x20 PUSH1 0x40 MLOAD DUP1 DUP4 SUB DUP2 DUP7 GAS STATICCALL ISZERO DUP1 ISZERO PUSH2 0xCAC JUMPI RETURNDATASIZE PUSH0 PUSH0 RETURNDATACOPY RETURNDATASIZE PUSH0 REVERT JUMPDEST POP POP POP POP PUSH1 0x40 MLOAD RETURNDATASIZE PUSH1 0x1F NOT PUSH1 0x1F DUP3 ADD AND DUP3 ADD DUP1 PUSH1 0x40 MSTORE POP DUP2 ADD SWAP1 PUSH2 0xCD0 SWAP2 SWAP1 PUSH2 0x14BF JUMP JUMPDEST SWAP1 POP PUSH1 0x1 SLOAD DUP3 DUP9 PUSH2 0xCE1 SWAP2 SWAP1 PUSH2 0x1A69 JUMP JUMPDEST PUSH2 0xCEB SWAP2 SWAP1 PUSH2 0x1AD7 JUMP JUMPDEST SWAP6 POP PUSH1 0x1 SLOAD DUP2 DUP9 PUSH2 0xCFC SWAP2 SWAP1 PUSH2 0x1A69 JUMP JUMPDEST PUSH2 0xD06 SWAP2 SWAP1 PUSH2 0x1AD7 JUMP JUMPDEST SWAP5 POP PUSH0 DUP7 GT DUP1 ISZERO PUSH2 0xD16 JUMPI POP PUSH0 DUP6 GT JUMPDEST PUSH2 0xD55 JUMPI PUSH1 0x40 MLOAD PUSH32 0x8C379A000000000000000000000000000000000000000000000000000000000 DUP2 MSTORE PUSH1 0x4 ADD PUSH2 0xD4C SWAP1 PUSH2 0x1CC8 JUMP JUMPDEST PUSH1 0x40 MLOAD DUP1 SWAP2 SUB SWAP1 REVERT JUMPDEST PUSH2 0xD5F CALLER DUP9 PUSH2 0x1094 JUMP JUMPDEST DUP4 PUSH20 0xFFFFFFFFFFFFFFFFFFFFFFFFFFFFFFFFFFFFFFFF AND PUSH4 0xA9059CBB CALLER DUP9 PUSH1 0x40 MLOAD DUP4 PUSH4 0xFFFFFFFF AND PUSH1 0xE0 SHL DUP2 MSTORE PUSH1 0x4 ADD PUSH2 0xD9A SWAP3 SWAP2 SWAP1 PUSH2 0x1578 JUMP JUMPDEST PUSH1 0x20 PUSH1 0x40 MLOAD DUP1 DUP4 SUB DUP2 PUSH0 DUP8 GAS CALL ISZERO DUP1 ISZERO PUSH2 0xDB6 JUMPI RETURNDATASIZE PUSH0 PUSH0 RETURNDATACOPY RETURNDATASIZE PUSH0 REVERT JUMPDEST POP POP POP POP PUSH1 0x40 MLOAD RETURNDATASIZE PUSH1 0x1F NOT PUSH1 0x1F DUP3 ADD AND DUP3 ADD DUP1 PUSH1 0x40 MSTORE POP DUP2 ADD SWAP1 PUSH2 0xDDA SWAP2 SWAP1 PUSH2 0x15D4 JUMP JUMPDEST PUSH2 0xE19 JUMPI PUSH1 0x40 MLOAD PUSH32 0x8C379A000000000000000000000000000000000000000000000000000000000 DUP2 MSTORE PUSH1 0x4 ADD PUSH2 0xE10 SWAP1 PUSH2 0x1D56 JUMP JUMPDEST PUSH1 0x40 MLOAD DUP1 SWAP2 SUB SWAP1 REVERT JUMPDEST DUP3 PUSH20 0xFFFFFFFFFFFFFFFFFFFFFFFFFFFFFFFFFFFFFFFF AND PUSH4 0xA9059CBB CALLER DUP8 PUSH1 0x40 MLOAD DUP4 PUSH4 0xFFFFFFFF AND PUSH1 0xE0 SHL DUP2 MSTORE PUSH1 0x4 ADD PUSH2 0xE54 SWAP3 SWAP2 SWAP1 PUSH2 0x1578 JUMP JUMPDEST PUSH1 0x20 PUSH1 0x40 MLOAD DUP1 DUP4 SUB DUP2 PUSH0 DUP8 GAS CALL ISZERO DUP1 ISZERO PUSH2 0xE70 JUMPI RETURNDATASIZE PUSH0 PUSH0 RETURNDATACOPY RETURNDATASIZE PUSH0 REVERT JUMPDEST POP POP POP POP PUSH1 0x40 MLOAD RETURNDATASIZE PUSH1 0x1F NOT PUSH1 0x1F DUP3 ADD AND DUP3 ADD DUP1 PUSH1 0x40 MSTORE POP DUP2 ADD SWAP1 PUSH2 0xE94 SWAP2 SWAP1 PUSH2 0x15D4 JUMP JUMPDEST PUSH2 0xED3 JUMPI PUSH1 0x40 MLOAD PUSH32 0x8C379A000000000000000000000000000000000000000000000000000000000 DUP2 MSTORE PUSH1 0x4 ADD PUSH2 0xECA SWAP1 PUSH2 0x1DE4 JUMP JUMPDEST PUSH1 0x40 MLOAD DUP1 SWAP2 SUB SWAP1 REVERT JUMPDEST CALLER PUSH20 0xFFFFFFFFFFFFFFFFFFFFFFFFFFFFFFFFFFFFFFFF AND PUSH32 0x9746CD459B192E14D25047EE6F0C763709FC38435EB4883830CF715DE0A40AC0 DUP8 DUP8 DUP11 PUSH1 0x40 MLOAD PUSH2 0xF1D SWAP4 SWAP3 SWAP2 SWAP1 PUSH2 0x1B95 JUMP JUMPDEST PUSH1 0x40 MLOAD DUP1 SWAP2 SUB SWAP1 LOG2 POP POP POP POP SWAP4 POP SWAP4 SWAP2 POP POP JUMP JUMPDEST PUSH0 PUSH1 0x3 DUP3 GT ISZERO PUSH2 0xF96 JUMPI DUP2 SWAP1 POP PUSH0 PUSH1 0x1 PUSH1 0x2 DUP5 PUSH2 0xF4E SWAP2 SWAP1 PUSH2 0x1AD7 JUMP JUMPDEST PUSH2 0xF58 SWAP2 SWAP1 PUSH2 0x1E02 JUMP JUMPDEST SWAP1 POP JUMPDEST DUP2 DUP2 LT ISZERO PUSH2 0xF90 JUMPI DUP1 SWAP2 POP PUSH1 0x2 DUP2 DUP3 DUP6 PUSH2 0xF75 SWAP2 SWAP1 PUSH2 0x1AD7 JUMP JUMPDEST PUSH2 0xF7F SWAP2 SWAP1 PUSH2 0x1E02 JUMP JUMPDEST PUSH2 0xF89 SWAP2 SWAP1 PUSH2 0x1AD7 JUMP JUMPDEST SWAP1 POP PUSH2 0xF5B JUMP JUMPDEST POP PUSH2 0xFA3 JUMP JUMPDEST PUSH0 DUP3 EQ PUSH2 0xFA2 JUMPI PUSH1 0x1 SWAP1 POP JUMPDEST JUMPDEST SWAP2 SWAP1 POP JUMP JUMPDEST PUSH0 DUP2 DUP4 LT PUSH2 0xFB6 JUMPI DUP2 PUSH2 0xFB8 JUMP JUMPDEST DUP3 JUMPDEST SWAP1 POP SWAP3 SWAP2 POP POP JUMP JUMPDEST DUP1 PUSH1 0x2 PUSH0 DUP5 PUSH20 0xFFFFFFFFFFFFFFFFFFFFFFFFFFFFFFFFFFFFFFFF AND PUSH20 0xFFFFFFFFFFFFFFFFFFFFFFFFFFFFFFFFFFFFFFFF AND DUP2 MSTORE PUSH1 0x20 ADD SWAP1 DUP2 MSTORE PUSH1 0x20 ADD PUSH0 KECCAK256 PUSH0 DUP3 DUP3 SLOAD PUSH2 0x100C SWAP2 SWAP1 PUSH2 0x1E02 JUMP JUMPDEST SWAP3 POP POP DUP2 SWAP1 SSTORE POP DUP1 PUSH1 0x1 PUSH0 DUP3 DUP3 SLOAD PUSH2 0x1024 SWAP2 SWAP1 PUSH2 0x1E02 JUMP JUMPDEST SWAP3 POP POP DUP2 SWAP1 SSTORE POP DUP2 PUSH20 0xFFFFFFFFFFFFFFFFFFFFFFFFFFFFFFFFFFFFFFFF AND PUSH0 PUSH20 0xFFFFFFFFFFFFFFFFFFFFFFFFFFFFFFFFFFFFFFFF AND PUSH32 0xDDF252AD1BE2C89B69C2B068FC378DAA952BA7F163C4A11628F55A4DF523B3EF DUP4 PUSH1 0x40 MLOAD PUSH2 0x1088 SWAP2 SWAP1 PUSH2 0x1210 JUMP JUMPDEST PUSH1 0x40 MLOAD DUP1 SWAP2 SUB SWAP1 LOG3 POP POP JUMP JUMPDEST DUP1 PUSH1 0x2 PUSH0 DUP5 PUSH20 0xFFFFFFFFFFFFFFFFFFFFFFFFFFFFFFFFFFFFFFFF AND PUSH20 0xFFFFFFFFFFFFFFFFFFFFFFFFFFFFFFFFFFFFFFFF AND DUP2 MSTORE PUSH1 0x20 ADD SWAP1 DUP2 MSTORE PUSH1 0x20 ADD PUSH0 KECCAK256 PUSH0 DUP3 DUP3 SLOAD PUSH2 0x10E0 SWAP2 SWAP1 PUSH2 0x1E35 JUMP JUMPDEST SWAP3 POP POP DUP2 SWAP1 SSTORE POP DUP1 PUSH1 0x1 PUSH0 DUP3 DUP3 SLOAD PUSH2 0x10F8 SWAP2 SWAP1 PUSH2 0x1E35 JUMP JUMPDEST SWAP3 POP POP DUP2 SWAP1 SSTORE POP PUSH0 PUSH20 0xFFFFFFFFFFFFFFFFFFFFFFFFFFFFFFFFFFFFFFFF AND DUP3 PUSH20 0xFFFFFFFFFFFFFFFFFFFFFFFFFFFFFFFFFFFFFFFF AND PUSH32 0xDDF252AD1BE2C89B69C2B068FC378DAA952BA7F163C4A11628F55A4DF523B3EF DUP4 PUSH1 0x40 MLOAD PUSH2 0x115C SWAP2 SWAP1 PUSH2 0x1210 JUMP JUMPDEST PUSH1 0x40 MLOAD DUP1 SWAP2 SUB SWAP1 LOG3 POP POP JUMP JUMPDEST PUSH0 DUP2 MLOAD SWAP1 POP SWAP2 SWAP1 POP JUMP JUMPDEST PUSH0 DUP3 DUP3 MSTORE PUSH1 0x20 DUP3 ADD SWAP1 POP SWAP3 SWAP2 POP POP JUMP JUMPDEST DUP3 DUP2 DUP4 MCOPY PUSH0 DUP4 DUP4 ADD MSTORE POP POP POP JUMP JUMPDEST PUSH0 PUSH1 0x1F NOT PUSH1 0x1F DUP4 ADD AND SWAP1 POP SWAP2 SWAP1 POP JUMP JUMPDEST PUSH0 PUSH2 0x11AA DUP3 PUSH2 0x1168 JUMP JUMPDEST PUSH2 0x11B4 DUP2 DUP6 PUSH2 0x1172 JUMP JUMPDEST SWAP4 POP PUSH2 0x11C4 DUP2 DUP6 PUSH1 0x20 DUP7 ADD PUSH2 0x1182 JUMP JUMPDEST PUSH2 0x11CD DUP2 PUSH2 0x1190 JUMP JUMPDEST DUP5 ADD SWAP2 POP POP SWAP3 SWAP2 POP POP JUMP JUMPDEST PUSH0 PUSH1 0x20 DUP3 ADD SWAP1 POP DUP2 DUP2 SUB PUSH0 DUP4 ADD MSTORE PUSH2 0x11F0 DUP2 DUP5 PUSH2 0x11A0 JUMP JUMPDEST SWAP1 POP SWAP3 SWAP2 POP POP JUMP JUMPDEST PUSH0 DUP2 SWAP1 POP SWAP2 SWAP1 POP JUMP JUMPDEST PUSH2 0x120A DUP2 PUSH2 0x11F8 JUMP JUMPDEST DUP3 MSTORE POP POP JUMP JUMPDEST PUSH0 PUSH1 0x20 DUP3 ADD SWAP1 POP PUSH2 0x1223 PUSH0 DUP4 ADD DUP5 PUSH2 0x1201 JUMP JUMPDEST SWAP3 SWAP2 POP POP JUMP JUMPDEST PUSH0 PUSH0 REVERT JUMPDEST PUSH0 PUSH20 0xFFFFFFFFFFFFFFFFFFFFFFFFFFFFFFFFFFFFFFFF DUP3 AND SWAP1 POP SWAP2 SWAP1 POP JUMP JUMPDEST PUSH0 PUSH2 0x1256 DUP3 PUSH2 0x122D JUMP JUMPDEST SWAP1 POP SWAP2 SWAP1 POP JUMP JUMPDEST PUSH2 0x1266 DUP2 PUSH2 0x124C JUMP JUMPDEST DUP2 EQ PUSH2 0x1270 JUMPI PUSH0 PUSH0 REVERT JUMPDEST POP JUMP JUMPDEST PUSH0 DUP2 CALLDATALOAD SWAP1 POP PUSH2 0x1281 DUP2 PUSH2 0x125D JUMP JUMPDEST SWAP3 SWAP2 POP POP JUMP JUMPDEST PUSH0 PUSH1 0x20 DUP3 DUP5 SUB SLT ISZERO PUSH2 0x129C JUMPI PUSH2 0x129B PUSH2 0x1229 JUMP JUMPDEST JUMPDEST PUSH0 PUSH2 0x12A9 DUP5 DUP3 DUP6 ADD PUSH2 0x1273 JUMP JUMPDEST SWAP2 POP POP SWAP3 SWAP2 POP POP JUMP JUMPDEST PUSH2 0x12BB DUP2 PUSH2 0x124C JUMP JUMPDEST DUP3 MSTORE POP POP JUMP JUMPDEST PUSH0 PUSH1 0x20 DUP3 ADD SWAP1 POP PUSH2 0x12D4 PUSH0 DUP4 ADD DUP5 PUSH2 0x12B2 JUMP JUMPDEST SWAP3 SWAP2 POP POP JUMP JUMPDEST PUSH2 0x12E3 DUP2 PUSH2 0x11F8 JUMP JUMPDEST DUP2 EQ PUSH2 0x12ED JUMPI PUSH0 PUSH0 REVERT JUMPDEST POP JUMP JUMPDEST PUSH0 DUP2 CALLDATALOAD SWAP1 POP PUSH2 0x12FE DUP2 PUSH2 0x12DA JUMP JUMPDEST SWAP3 SWAP2 POP POP JUMP JUMPDEST PUSH0 PUSH0 PUSH1 0x40 DUP4 DUP6 SUB SLT ISZERO PUSH2 0x131A JUMPI PUSH2 0x1319 PUSH2 0x1229 JUMP JUMPDEST JUMPDEST PUSH0 PUSH2 0x1327 DUP6 DUP3 DUP7 ADD PUSH2 0x1273 JUMP JUMPDEST SWAP3 POP POP PUSH1 0x20 PUSH2 0x1338 DUP6 DUP3 DUP7 ADD PUSH2 0x12F0 JUMP JUMPDEST SWAP2 POP POP SWAP3 POP SWAP3 SWAP1 POP JUMP JUMPDEST PUSH0 PUSH0 PUSH0 PUSH0 PUSH1 0x80 DUP6 DUP8 SUB SLT ISZERO PUSH2 0x135A JUMPI PUSH2 0x1359 PUSH2 0x1229 JUMP JUMPDEST JUMPDEST PUSH0 PUSH2 0x1367 DUP8 DUP3 DUP9 ADD PUSH2 0x1273 JUMP JUMPDEST SWAP5 POP POP PUSH1 0x20 PUSH2 0x1378 DUP8 DUP3 DUP9 ADD PUSH2 0x1273 JUMP JUMPDEST SWAP4 POP POP PUSH1 0x40 PUSH2 0x1389 DUP8 DUP3 DUP9 ADD PUSH2 0x12F0 JUMP JUMPDEST SWAP3 POP POP PUSH1 0x60 PUSH2 0x139A DUP8 DUP3 DUP9 ADD PUSH2 0x12F0 JUMP JUMPDEST SWAP2 POP POP SWAP3 SWAP6 SWAP2 SWAP5 POP SWAP3 POP JUMP JUMPDEST PUSH0 PUSH0 PUSH0 PUSH1 0x60 DUP5 DUP7 SUB SLT ISZERO PUSH2 0x13BD JUMPI PUSH2 0x13BC PUSH2 0x1229 JUMP JUMPDEST JUMPDEST PUSH0 PUSH2 0x13CA DUP7 DUP3 DUP8 ADD PUSH2 0x1273 JUMP JUMPDEST SWAP4 POP POP PUSH1 0x20 PUSH2 0x13DB DUP7 DUP3 DUP8 ADD PUSH2 0x1273 JUMP JUMPDEST SWAP3 POP POP PUSH1 0x40 PUSH2 0x13EC DUP7 DUP3 DUP8 ADD PUSH2 0x12F0 JUMP JUMPDEST SWAP2 POP POP SWAP3 POP SWAP3 POP SWAP3 JUMP JUMPDEST PUSH0 PUSH1 0x40 DUP3 ADD SWAP1 POP PUSH2 0x1409 PUSH0 DUP4 ADD DUP6 PUSH2 0x1201 JUMP JUMPDEST PUSH2 0x1416 PUSH1 0x20 DUP4 ADD DUP5 PUSH2 0x1201 JUMP JUMPDEST SWAP4 SWAP3 POP POP POP JUMP JUMPDEST PUSH32 0x417574686F72697A6174696F6E204572726F723A204F6E6C79206F776E657220 PUSH0 DUP3 ADD MSTORE PUSH32 0x63616E206578656375746520746869732066756E6374696F6E00000000000000 PUSH1 0x20 DUP3 ADD MSTORE POP JUMP JUMPDEST PUSH0 PUSH2 0x1477 PUSH1 0x39 DUP4 PUSH2 0x1172 JUMP JUMPDEST SWAP2 POP PUSH2 0x1482 DUP3 PUSH2 0x141D JUMP JUMPDEST PUSH1 0x40 DUP3 ADD SWAP1 POP SWAP2 SWAP1 POP JUMP JUMPDEST PUSH0 PUSH1 0x20 DUP3 ADD SWAP1 POP DUP2 DUP2 SUB PUSH0 DUP4 ADD MSTORE PUSH2 0x14A4 DUP2 PUSH2 0x146B JUMP JUMPDEST SWAP1 POP SWAP2 SWAP1 POP JUMP JUMPDEST PUSH0 DUP2 MLOAD SWAP1 POP PUSH2 0x14B9 DUP2 PUSH2 0x12DA JUMP JUMPDEST SWAP3 SWAP2 POP POP JUMP JUMPDEST PUSH0 PUSH1 0x20 DUP3 DUP5 SUB SLT ISZERO PUSH2 0x14D4 JUMPI PUSH2 0x14D3 PUSH2 0x1229 JUMP JUMPDEST JUMPDEST PUSH0 PUSH2 0x14E1 DUP5 DUP3 DUP6 ADD PUSH2 0x14AB JUMP JUMPDEST SWAP2 POP POP SWAP3 SWAP2 POP POP JUMP JUMPDEST PUSH32 0x4C6971756964697479204572726F723A20526571756573742065786365656473 PUSH0 DUP3 ADD MSTORE PUSH32 0x20617661696C61626C6520706F6F6C2062616C616E6365000000000000000000 PUSH1 0x20 DUP3 ADD MSTORE POP JUMP JUMPDEST PUSH0 PUSH2 0x1544 PUSH1 0x37 DUP4 PUSH2 0x1172 JUMP JUMPDEST SWAP2 POP PUSH2 0x154F DUP3 PUSH2 0x14EA JUMP JUMPDEST PUSH1 0x40 DUP3 ADD SWAP1 POP SWAP2 SWAP1 POP JUMP JUMPDEST PUSH0 PUSH1 0x20 DUP3 ADD SWAP1 POP DUP2 DUP2 SUB PUSH0 DUP4 ADD MSTORE PUSH2 0x1571 DUP2 PUSH2 0x1538 JUMP JUMPDEST SWAP1 POP SWAP2 SWAP1 POP JUMP JUMPDEST PUSH0 PUSH1 0x40 DUP3 ADD SWAP1 POP PUSH2 0x158B PUSH0 DUP4 ADD DUP6 PUSH2 0x12B2 JUMP JUMPDEST PUSH2 0x1598 PUSH1 0x20 DUP4 ADD DUP5 PUSH2 0x1201 JUMP JUMPDEST SWAP4 SWAP3 POP POP POP JUMP JUMPDEST PUSH0 DUP2 ISZERO ISZERO SWAP1 POP SWAP2 SWAP1 POP JUMP JUMPDEST PUSH2 0x15B3 DUP2 PUSH2 0x159F JUMP JUMPDEST DUP2 EQ PUSH2 0x15BD JUMPI PUSH0 PUSH0 REVERT JUMPDEST POP JUMP JUMPDEST PUSH0 DUP2 MLOAD SWAP1 POP PUSH2 0x15CE DUP2 PUSH2 0x15AA JUMP JUMPDEST SWAP3 SWAP2 POP POP JUMP JUMPDEST PUSH0 PUSH1 0x20 DUP3 DUP5 SUB SLT ISZERO PUSH2 0x15E9 JUMPI PUSH2 0x15E8 PUSH2 0x1229 JUMP JUMPDEST JUMPDEST PUSH0 PUSH2 0x15F6 DUP5 DUP3 DUP6 ADD PUSH2 0x15C0 JUMP JUMPDEST SWAP2 POP POP SWAP3 SWAP2 POP POP JUMP JUMPDEST PUSH32 0x426C6F636B636861696E204572726F723A205769746864726177616C2070726F PUSH0 DUP3 ADD MSTORE PUSH32 0x63657373206661696C65642E0000000000000000000000000000000000000000 PUSH1 0x20 DUP3 ADD MSTORE POP JUMP JUMPDEST PUSH0 PUSH2 0x1659 PUSH1 0x2C DUP4 PUSH2 0x1172 JUMP JUMPDEST SWAP2 POP PUSH2 0x1664 DUP3 PUSH2 0x15FF JUMP JUMPDEST PUSH1 0x40 DUP3 ADD SWAP1 POP SWAP2 SWAP1 POP JUMP JUMPDEST PUSH0 PUSH1 0x20 DUP3 ADD SWAP1 POP DUP2 DUP2 SUB PUSH0 DUP4 ADD MSTORE PUSH2 0x1686 DUP2 PUSH2 0x164D JUMP JUMPDEST SWAP1 POP SWAP2 SWAP1 POP JUMP JUMPDEST PUSH32 0x457865637574696F6E204572726F723A20416D6F756E74206D75737420626520 PUSH0 DUP3 ADD MSTORE PUSH32 0x67726561746572207468616E207A65726F000000000000000000000000000000 PUSH1 0x20 DUP3 ADD MSTORE POP JUMP JUMPDEST PUSH0 PUSH2 0x16E7 PUSH1 0x31 DUP4 PUSH2 0x1172 JUMP JUMPDEST SWAP2 POP PUSH2 0x16F2 DUP3 PUSH2 0x168D JUMP JUMPDEST PUSH1 0x40 DUP3 ADD SWAP1 POP SWAP2 SWAP1 POP JUMP JUMPDEST PUSH0 PUSH1 0x20 DUP3 ADD SWAP1 POP DUP2 DUP2 SUB PUSH0 DUP4 ADD MSTORE PUSH2 0x1714 DUP2 PUSH2 0x16DB JUMP JUMPDEST SWAP1 POP SWAP2 SWAP1 POP JUMP JUMPDEST PUSH0 PUSH1 0x60 DUP3 ADD SWAP1 POP PUSH2 0x172E PUSH0 DUP4 ADD DUP7 PUSH2 0x12B2 JUMP JUMPDEST PUSH2 0x173B PUSH1 0x20 DUP4 ADD DUP6 PUSH2 0x12B2 JUMP JUMPDEST PUSH2 0x1748 PUSH1 0x40 DUP4 ADD DUP5 PUSH2 0x1201 JUMP JUMPDEST SWAP5 SWAP4 POP POP POP POP JUMP JUMPDEST PUSH32 0x426C6F636B636861696E204572726F723A20546F6B656E206465706F73697420 PUSH0 DUP3 ADD MSTORE PUSH32 0x6661696C65642E20436865636B20757365722062616C616E636520616E642061 PUSH1 0x20 DUP3 ADD MSTORE PUSH32 0x6C6C6F77616E63652E0000000000000000000000000000000000000000000000 PUSH1 0x40 DUP3 ADD MSTORE POP JUMP JUMPDEST PUSH0 PUSH2 0x17D0 PUSH1 0x49 DUP4 PUSH2 0x1172 JUMP JUMPDEST SWAP2 POP PUSH2 0x17DB DUP3 PUSH2 0x1750 JUMP JUMPDEST PUSH1 0x60 DUP3 ADD SWAP1 POP SWAP2 SWAP1 POP JUMP JUMPDEST PUSH0 PUSH1 0x20 DUP3 ADD SWAP1 POP DUP2 DUP2 SUB PUSH0 DUP4 ADD MSTORE PUSH2 0x17FD DUP2 PUSH2 0x17C4 JUMP JUMPDEST SWAP1 POP SWAP2 SWAP1 POP JUMP JUMPDEST PUSH32 0x4C6971756964697479204572726F723A20496E73756666696369656E74206675 PUSH0 DUP3 ADD MSTORE PUSH32 0x6E647320696E736964652074686520706F6F6C20636F6E747261637400000000 PUSH1 0x20 DUP3 ADD MSTORE POP JUMP JUMPDEST PUSH0 PUSH2 0x185E PUSH1 0x3C DUP4 PUSH2 0x1172 JUMP JUMPDEST SWAP2 POP PUSH2 0x1869 DUP3 PUSH2 0x1804 JUMP JUMPDEST PUSH1 0x40 DUP3 ADD SWAP1 POP SWAP2 SWAP1 POP JUMP JUMPDEST PUSH0 PUSH1 0x20 DUP3 ADD SWAP1 POP DUP2 DUP2 SUB PUSH0 DUP4 ADD MSTORE PUSH2 0x188B DUP2 PUSH2 0x1852 JUMP JUMPDEST SWAP1 POP SWAP2 SWAP1 POP JUMP JUMPDEST PUSH32 0x426C6F636B636861696E204572726F723A20546F6B656E207061796F75742066 PUSH0 DUP3 ADD MSTORE PUSH32 0x61696C65642E0000000000000000000000000000000000000000000000000000 PUSH1 0x20 DUP3 ADD MSTORE POP JUMP JUMPDEST PUSH0 PUSH2 0x18EC PUSH1 0x26 DUP4 PUSH2 0x1172 JUMP JUMPDEST SWAP2 POP PUSH2 0x18F7 DUP3 PUSH2 0x1892 JUMP JUMPDEST PUSH1 0x40 DUP3 ADD SWAP1 POP SWAP2 SWAP1 POP JUMP JUMPDEST PUSH0 PUSH1 0x20 DUP3 ADD SWAP1 POP DUP2 DUP2 SUB PUSH0 DUP4 ADD MSTORE PUSH2 0x1919 DUP2 PUSH2 0x18E0 JUMP JUMPDEST SWAP1 POP SWAP2 SWAP1 POP JUMP JUMPDEST PUSH32 0x426C6F636B636861696E204572726F723A20546F6B656E2041206465706F7369 PUSH0 DUP3 ADD MSTORE PUSH32 0x74206661696C6564000000000000000000000000000000000000000000000000 PUSH1 0x20 DUP3 ADD MSTORE POP JUMP JUMPDEST PUSH0 PUSH2 0x197A PUSH1 0x28 DUP4 PUSH2 0x1172 JUMP JUMPDEST SWAP2 POP PUSH2 0x1985 DUP3 PUSH2 0x1920 JUMP JUMPDEST PUSH1 0x40 DUP3 ADD SWAP1 POP SWAP2 SWAP1 POP JUMP JUMPDEST PUSH0 PUSH1 0x20 DUP3 ADD SWAP1 POP DUP2 DUP2 SUB PUSH0 DUP4 ADD MSTORE PUSH2 0x19A7 DUP2 PUSH2 0x196E JUMP JUMPDEST SWAP1 POP SWAP2 SWAP1 POP JUMP JUMPDEST PUSH32 0x426C6F636B636861696E204572726F723A20546F6B656E2042206465706F7369 PUSH0 DUP3 ADD MSTORE PUSH32 0x74206661696C6564000000000000000000000000000000000000000000000000 PUSH1 0x20 DUP3 ADD MSTORE POP JUMP JUMPDEST PUSH0 PUSH2 0x1A08 PUSH1 0x28 DUP4 PUSH2 0x1172 JUMP JUMPDEST SWAP2 POP PUSH2 0x1A13 DUP3 PUSH2 0x19AE JUMP JUMPDEST PUSH1 0x40 DUP3 ADD SWAP1 POP SWAP2 SWAP1 POP JUMP JUMPDEST PUSH0 PUSH1 0x20 DUP3 ADD SWAP1 POP DUP2 DUP2 SUB PUSH0 DUP4 ADD MSTORE PUSH2 0x1A35 DUP2 PUSH2 0x19FC JUMP JUMPDEST SWAP1 POP SWAP2 SWAP1 POP JUMP JUMPDEST PUSH32 0x4E487B7100000000000000000000000000000000000000000000000000000000 PUSH0 MSTORE PUSH1 0x11 PUSH1 0x4 MSTORE PUSH1 0x24 PUSH0 REVERT JUMPDEST PUSH0 PUSH2 0x1A73 DUP3 PUSH2 0x11F8 JUMP JUMPDEST SWAP2 POP PUSH2 0x1A7E DUP4 PUSH2 0x11F8 JUMP JUMPDEST SWAP3 POP DUP3 DUP3 MUL PUSH2 0x1A8C DUP2 PUSH2 0x11F8 JUMP JUMPDEST SWAP2 POP DUP3 DUP3 DIV DUP5 EQ DUP4 ISZERO OR PUSH2 0x1AA3 JUMPI PUSH2 0x1AA2 PUSH2 0x1A3C JUMP JUMPDEST JUMPDEST POP SWAP3 SWAP2 POP POP JUMP JUMPDEST PUSH32 0x4E487B7100000000000000000000000000000000000000000000000000000000 PUSH0 MSTORE PUSH1 0x12 PUSH1 0x4 MSTORE PUSH1 0x24 PUSH0 REVERT JUMPDEST PUSH0 PUSH2 0x1AE1 DUP3 PUSH2 0x11F8 JUMP JUMPDEST SWAP2 POP PUSH2 0x1AEC DUP4 PUSH2 0x11F8 JUMP JUMPDEST SWAP3 POP DUP3 PUSH2 0x1AFC JUMPI PUSH2 0x1AFB PUSH2 0x1AAA JUMP JUMPDEST JUMPDEST DUP3 DUP3 DIV SWAP1 POP SWAP3 SWAP2 POP POP JUMP JUMPDEST PUSH32 0x4C6971756964697479204572726F723A204D696E74656420706F6F6C20736861 PUSH0 DUP3 ADD MSTORE PUSH32 0x7265732076616C756520746F6F206C6F77000000000000000000000000000000 PUSH1 0x20 DUP3 ADD MSTORE POP JUMP JUMPDEST PUSH0 PUSH2 0x1B61 PUSH1 0x31 DUP4 PUSH2 0x1172 JUMP JUMPDEST SWAP2 POP PUSH2 0x1B6C DUP3 PUSH2 0x1B07 JUMP JUMPDEST PUSH1 0x40 DUP3 ADD SWAP1 POP SWAP2 SWAP1 POP JUMP JUMPDEST PUSH0 PUSH1 0x20 DUP3 ADD SWAP1 POP DUP2 DUP2 SUB PUSH0 DUP4 ADD MSTORE PUSH2 0x1B8E DUP2 PUSH2 0x1B55 JUMP JUMPDEST SWAP1 POP SWAP2 SWAP1 POP JUMP JUMPDEST PUSH0 PUSH1 0x60 DUP3 ADD SWAP1 POP PUSH2 0x1BA8 PUSH0 DUP4 ADD DUP7 PUSH2 0x1201 JUMP JUMPDEST PUSH2 0x1BB5 PUSH1 0x20 DUP4 ADD DUP6 PUSH2 0x1201 JUMP JUMPDEST PUSH2 0x1BC2 PUSH1 0x40 DUP4 ADD DUP5 PUSH2 0x1201 JUMP JUMPDEST SWAP5 SWAP4 POP POP POP POP JUMP JUMPDEST PUSH32 0x4C6971756964697479204572726F723A20496E73756666696369656E74204C50 PUSH0 DUP3 ADD MSTORE PUSH32 0x207368617265732062616C616E63650000000000000000000000000000000000 PUSH1 0x20 DUP3 ADD MSTORE POP JUMP JUMPDEST PUSH0 PUSH2 0x1C24 PUSH1 0x2F DUP4 PUSH2 0x1172 JUMP JUMPDEST SWAP2 POP PUSH2 0x1C2F DUP3 PUSH2 0x1BCA JUMP JUMPDEST PUSH1 0x40 DUP3 ADD SWAP1 POP SWAP2 SWAP1 POP JUMP JUMPDEST PUSH0 PUSH1 0x20 DUP3 ADD SWAP1 POP DUP2 DUP2 SUB PUSH0 DUP4 ADD MSTORE PUSH2 0x1C51 DUP2 PUSH2 0x1C18 JUMP JUMPDEST SWAP1 POP SWAP2 SWAP1 POP JUMP JUMPDEST PUSH32 0x4C6971756964697479204572726F723A205265736F6C76656420776974686472 PUSH0 DUP3 ADD MSTORE PUSH32 0x6177616C20616D6F756E74732061726520696E76616C69640000000000000000 PUSH1 0x20 DUP3 ADD MSTORE POP JUMP JUMPDEST PUSH0 PUSH2 0x1CB2 PUSH1 0x38 DUP4 PUSH2 0x1172 JUMP JUMPDEST SWAP2 POP PUSH2 0x1CBD DUP3 PUSH2 0x1C58 JUMP JUMPDEST PUSH1 0x40 DUP3 ADD SWAP1 POP SWAP2 SWAP1 POP JUMP JUMPDEST PUSH0 PUSH1 0x20 DUP3 ADD SWAP1 POP DUP2 DUP2 SUB PUSH0 DUP4 ADD MSTORE PUSH2 0x1CDF DUP2 PUSH2 0x1CA6 JUMP JUMPDEST SWAP1 POP SWAP2 SWAP1 POP JUMP JUMPDEST PUSH32 0x426C6F636B636861696E204572726F723A20546F6B656E204120726566756E64 PUSH0 DUP3 ADD MSTORE PUSH32 0x207472616E73666572206661696C656400000000000000000000000000000000 PUSH1 0x20 DUP3 ADD MSTORE POP JUMP JUMPDEST PUSH0 PUSH2 0x1D40 PUSH1 0x30 DUP4 PUSH2 0x1172 JUMP JUMPDEST SWAP2 POP PUSH2 0x1D4B DUP3 PUSH2 0x1CE6 JUMP JUMPDEST PUSH1 0x40 DUP3 ADD SWAP1 POP SWAP2 SWAP1 POP JUMP JUMPDEST PUSH0 PUSH1 0x20 DUP3 ADD SWAP1 POP DUP2 DUP2 SUB PUSH0 DUP4 ADD MSTORE PUSH2 0x1D6D DUP2 PUSH2 0x1D34 JUMP JUMPDEST SWAP1 POP SWAP2 SWAP1 POP JUMP JUMPDEST PUSH32 0x426C6F636B636861696E204572726F723A20546F6B656E204220726566756E64 PUSH0 DUP3 ADD MSTORE PUSH32 0x207472616E73666572206661696C656400000000000000000000000000000000 PUSH1 0x20 DUP3 ADD MSTORE POP JUMP JUMPDEST PUSH0 PUSH2 0x1DCE PUSH1 0x30 DUP4 PUSH2 0x1172 JUMP JUMPDEST SWAP2 POP PUSH2 0x1DD9 DUP3 PUSH2 0x1D74 JUMP JUMPDEST PUSH1 0x40 DUP3 ADD SWAP1 POP SWAP2 SWAP1 POP JUMP JUMPDEST PUSH0 PUSH1 0x20 DUP3 ADD SWAP1 POP DUP2 DUP2 SUB PUSH0 DUP4 ADD MSTORE PUSH2 0x1DFB DUP2 PUSH2 0x1DC2 JUMP JUMPDEST SWAP1 POP SWAP2 SWAP1 POP JUMP JUMPDEST PUSH0 PUSH2 0x1E0C DUP3 PUSH2 0x11F8 JUMP JUMPDEST SWAP2 POP PUSH2 0x1E17 DUP4 PUSH2 0x11F8 JUMP JUMPDEST SWAP3 POP DUP3 DUP3 ADD SWAP1 POP DUP1 DUP3 GT ISZERO PUSH2 0x1E2F JUMPI PUSH2 0x1E2E PUSH2 0x1A3C JUMP JUMPDEST JUMPDEST SWAP3 SWAP2 POP POP JUMP JUMPDEST PUSH0 PUSH2 0x1E3F DUP3 PUSH2 0x11F8 JUMP JUMPDEST SWAP2 POP PUSH2 0x1E4A DUP4 PUSH2 0x11F8 JUMP JUMPDEST SWAP3 POP DUP3 DUP3 SUB SWAP1 POP DUP2 DUP2 GT ISZERO PUSH2 0x1E62 JUMPI PUSH2 0x1E61 PUSH2 0x1A3C JUMP JUMPDEST JUMPDEST SWAP3 SWAP2 POP POP JUMP INVALID LOG2 PUSH5 0x6970667358 0x22 SLT KECCAK256 0xDD CALLF 0x79C5 DUP16 MOD MCOPY EXP MSTORE8 0xC9 CALLDATACOPY LOG4 0xA9 PUSH31 0xEB864FE0D91EDF8062B2F69D8FC2420AD00664736F6C634300081E00330000 "
				},
				"gasEstimates": {
					"creation": {
						"codeDepositCost": "1567600",
						"executionCost": "25900",
						"totalCost": "1593500"
					},
					"external": {
						"addLiquidity(address,address,uint256,uint256)": "infinite",
						"balanceOf(address)": "2847",
						"executeSwap(address,address,uint256,uint256)": "infinite",
						"name()": "infinite",
						"owner()": "2574",
						"removeLiquidity(address,address,uint256)": "infinite",
						"symbol()": "infinite",
						"totalSupply()": "2448",
						"withdrawToken(address,uint256)": "infinite"
					},
					"internal": {
						"_burn(address,uint256)": "infinite",
						"_min(uint256,uint256)": "63",
						"_mint(address,uint256)": "infinite",
						"_sqrt(uint256)": "infinite"
					}
				},
				"methodIdentifiers": {
					"addLiquidity(address,address,uint256,uint256)": "cf6c62ea",
					"balanceOf(address)": "70a08231",
					"executeSwap(address,address,uint256,uint256)": "b07391c0",
					"name()": "06fdde03",
					"owner()": "8da5cb5b",
					"removeLiquidity(address,address,uint256)": "d752fab2",
					"symbol()": "95d89b41",
					"totalSupply()": "18160ddd",
					"withdrawToken(address,uint256)": "9e281a98"
				}
			},
			"storageLayout": {
				"storage": [
					{
						"astId": 33,
						"contract": "RegarSwapPool.sol:RegarSwapPool",
						"label": "owner",
						"offset": 0,
						"slot": "0",
						"type": "t_address"
					},
					{
						"astId": 41,
						"contract": "RegarSwapPool.sol:RegarSwapPool",
						"label": "totalSupply",
						"offset": 0,
						"slot": "1",
						"type": "t_uint256"
					},
					{
						"astId": 45,
						"contract": "RegarSwapPool.sol:RegarSwapPool",
						"label": "balanceOf",
						"offset": 0,
						"slot": "2",
						"type": "t_mapping(t_address,t_uint256)"
					}
				],
				"types": {
					"t_address": {
						"encoding": "inplace",
						"label": "address",
						"numberOfBytes": "20"
					},
					"t_mapping(t_address,t_uint256)": {
						"encoding": "mapping",
						"key": "t_address",
						"label": "mapping(address => uint256)",
						"numberOfBytes": "32",
						"value": "t_uint256"
					},
					"t_uint256": {
						"encoding": "inplace",
						"label": "uint256",
						"numberOfBytes": "32"
					}
				}
			},
			"userdoc": {
				"kind": "user",
				"methods": {},
				"version": 1
			}
		}
	}
}