{
	"PoolEURC.sol": {
		"ArchielSwapPool": {
			"abi": [
				{
					"inputs": [
						{
							"internalType": "address",
							"name": "_tokenA",
							"type": "address"
						},
						{
							"internalType": "address",
							"name": "_tokenB",
							"type": "address"
						}
					],
					"stateMutability": "nonpayable",
					"type": "constructor"
				},
				{
					"anonymous": false,
					"inputs": [
						{
							"indexed": true,
							"internalType": "address",
							"name": "provider",
							"type": "address"
						},
						{
							"indexed": false,
							"internalType": "uint256",
							"name": "amountA",
							"type": "uint256"
						},
						{
							"indexed": false,
							"internalType": "uint256",
							"name": "amountB",
							"type": "uint256"
						},
						{
							"indexed": false,
							"internalType": "uint256",
							"name": "shares",
							"type": "uint256"
						}
					],
					"name": "LiquidityAdded",
					"type": "event"
				},
				{
					"anonymous": false,
					"inputs": [
						{
							"indexed": true,
							"internalType": "address",
							"name": "provider",
							"type": "address"
						},
						{
							"indexed": false,
							"internalType": "uint256",
							"name": "amountA",
							"type": "uint256"
						},
						{
							"indexed": false,
							"internalType": "uint256",
							"name": "amountB",
							"type": "uint256"
						},
						{
							"indexed": false,
							"internalType": "uint256",
							"name": "shares",
							"type": "uint256"
						}
					],
					"name": "LiquidityRemoved",
					"type": "event"
				},
				{
					"anonymous": false,
					"inputs": [
						{
							"indexed": true,
							"internalType": "address",
							"name": "trader",
							"type": "address"
						},
						{
							"indexed": true,
							"internalType": "address",
							"name": "tokenIn",
							"type": "address"
						},
						{
							"indexed": false,
							"internalType": "uint256",
							"name": "amountIn",
							"type": "uint256"
						},
						{
							"indexed": false,
							"internalType": "uint256",
							"name": "amountOut",
							"type": "uint256"
						}
					],
					"name": "SwapExecuted",
					"type": "event"
				},
				{
					"inputs": [
						{
							"internalType": "address",
							"name": "_tokenInA",
							"type": "address"
						},
						{
							"internalType": "address",
							"name": "_tokenInB",
							"type": "address"
						},
						{
							"internalType": "uint256",
							"name": "_amountADesired",
							"type": "uint256"
						},
						{
							"internalType": "uint256",
							"name": "_amountBDesired",
							"type": "uint256"
						}
					],
					"name": "addLiquidity",
					"outputs": [
						{
							"internalType": "uint256",
							"name": "shares",
							"type": "uint256"
						}
					],
					"stateMutability": "nonpayable",
					"type": "function"
				},
				{
					"inputs": [
						{
							"internalType": "address",
							"name": "_tokenIn",
							"type": "address"
						},
						{
							"internalType": "uint256",
							"name": "_amountIn",
							"type": "uint256"
						}
					],
					"name": "getAmountOut",
					"outputs": [
						{
							"internalType": "uint256",
							"name": "",
							"type": "uint256"
						}
					],
					"stateMutability": "view",
					"type": "function"
				},
				{
					"inputs": [
						{
							"internalType": "address",
							"name": "",
							"type": "address"
						}
					],
					"name": "liquidityOf",
					"outputs": [
						{
							"internalType": "uint256",
							"name": "",
							"type": "uint256"
						}
					],
					"stateMutability": "view",
					"type": "function"
				},
				{
					"inputs": [],
					"name": "reserveA",
					"outputs": [
						{
							"internalType": "uint256",
							"name": "",
							"type": "uint256"
						}
					],
					"stateMutability": "view",
					"type": "function"
				},
				{
					"inputs": [],
					"name": "reserveB",
					"outputs": [
						{
							"internalType": "uint256",
							"name": "",
							"type": "uint256"
						}
					],
					"stateMutability": "view",
					"type": "function"
				},
				{
					"inputs": [
						{
							"internalType": "address",
							"name": "_tokenIn",
							"type": "address"
						},
						{
							"internalType": "uint256",
							"name": "_amountIn",
							"type": "uint256"
						},
						{
							"internalType": "uint256",
							"name": "_amountOutMin",
							"type": "uint256"
						}
					],
					"name": "swap",
					"outputs": [
						{
							"internalType": "uint256",
							"name": "amountOut",
							"type": "uint256"
						}
					],
					"stateMutability": "nonpayable",
					"type": "function"
				},
				{
					"inputs": [],
					"name": "tokenA",
					"outputs": [
						{
							"internalType": "address",
							"name": "",
							"type": "address"
						}
					],
					"stateMutability": "view",
					"type": "function"
				},
				{
					"inputs": [],
					"name": "tokenB",
					"outputs": [
						{
							"internalType": "address",
							"name": "",
							"type": "address"
						}
					],
					"stateMutability": "view",
					"type": "function"
				},
				{
					"inputs": [],
					"name": "totalLiquidity",
					"outputs": [
						{
							"internalType": "uint256",
							"name": "",
							"type": "uint256"
						}
					],
					"stateMutability": "view",
					"type": "function"
				}
			],
			"devdoc": {
				"kind": "dev",
				"methods": {},
				"version": 1
			},
			"evm": {
				"assembly": "    /* \"PoolEURC.sol\":576:4682  contract ArchielSwapPool {... */\n  mstore(0x40, 0x80)\n    /* \"PoolEURC.sol\":1140:1407  constructor(address _tokenA, address _tokenB) {... */\n  callvalue\n  dup1\n  iszero\n  tag_1\n  jumpi\n  revert(0x00, 0x00)\ntag_1:\n  pop\n  mload(0x40)\n  sub(codesize, bytecodeSize)\n  dup1\n  bytecodeSize\n  dup4\n  codecopy\n  dup2\n  dup2\n  add\n  0x40\n  mstore\n  dup2\n  add\n  swap1\n  tag_2\n  swap2\n  swap1\n  tag_3\n  jump\t// in\ntag_2:\n    /* \"PoolEURC.sol\":1224:1225  0 */\n  0x00\n    /* \"PoolEURC.sol\":1205:1226  _tokenA != address(0) */\n  0xffffffffffffffffffffffffffffffffffffffff\n  and\n    /* \"PoolEURC.sol\":1205:1212  _tokenA */\n  dup3\n    /* \"PoolEURC.sol\":1205:1226  _tokenA != address(0) */\n  0xffffffffffffffffffffffffffffffffffffffff\n  and\n  eq\n  iszero\n    /* \"PoolEURC.sol\":1205:1251  _tokenA != address(0) && _tokenB != address(0) */\n  dup1\n  iszero\n  tag_6\n  jumpi\n  pop\n    /* \"PoolEURC.sol\":1249:1250  0 */\n  0x00\n    /* \"PoolEURC.sol\":1230:1251  _tokenB != address(0) */\n  0xffffffffffffffffffffffffffffffffffffffff\n  and\n    /* \"PoolEURC.sol\":1230:1237  _tokenB */\n  dup2\n    /* \"PoolEURC.sol\":1230:1251  _tokenB != address(0) */\n  0xffffffffffffffffffffffffffffffffffffffff\n  and\n  eq\n  iszero\n    /* \"PoolEURC.sol\":1205:1251  _tokenA != address(0) && _tokenB != address(0) */\ntag_6:\n    /* \"PoolEURC.sol\":1197:1279  require(_tokenA != address(0) && _tokenB != address(0), \"Invalid token addresses\") */\n  tag_7\n  jumpi\n  mload(0x40)\n  0x08c379a000000000000000000000000000000000000000000000000000000000\n  dup2\n  mstore\n  0x04\n  add\n  tag_8\n  swap1\n  tag_9\n  jump\t// in\ntag_8:\n  mload(0x40)\n  dup1\n  swap2\n  sub\n  swap1\n  revert\ntag_7:\n    /* \"PoolEURC.sol\":1309:1316  _tokenB */\n  dup1\n    /* \"PoolEURC.sol\":1298:1316  _tokenA != _tokenB */\n  0xffffffffffffffffffffffffffffffffffffffff\n  and\n    /* \"PoolEURC.sol\":1298:1305  _tokenA */\n  dup3\n    /* \"PoolEURC.sol\":1298:1316  _tokenA != _tokenB */\n  0xffffffffffffffffffffffffffffffffffffffff\n  and\n  sub\n    /* \"PoolEURC.sol\":1290:1345  require(_tokenA != _tokenB, \"Tokens must be different\") */\n  tag_10\n  jumpi\n  mload(0x40)\n  0x08c379a000000000000000000000000000000000000000000000000000000000\n  dup2\n  mstore\n  0x04\n  add\n  tag_11\n  swap1\n  tag_12\n  jump\t// in\ntag_11:\n  mload(0x40)\n  dup1\n  swap2\n  sub\n  swap1\n  revert\ntag_10:\n    /* \"PoolEURC.sol\":1365:1372  _tokenA */\n  dup2\n    /* \"PoolEURC.sol\":1356:1362  tokenA */\n  0x00\n  0x00\n    /* \"PoolEURC.sol\":1356:1372  tokenA = _tokenA */\n  0x0100\n  exp\n  dup2\n  sload\n  dup2\n  0xffffffffffffffffffffffffffffffffffffffff\n  mul\n  not\n  and\n  swap1\n  dup4\n  0xffffffffffffffffffffffffffffffffffffffff\n  and\n  mul\n  or\n  swap1\n  sstore\n  pop\n    /* \"PoolEURC.sol\":1392:1399  _tokenB */\n  dup1\n    /* \"PoolEURC.sol\":1383:1389  tokenB */\n  0x01\n  0x00\n    /* \"PoolEURC.sol\":1383:1399  tokenB = _tokenB */\n  0x0100\n  exp\n  dup2\n  sload\n  dup2\n  0xffffffffffffffffffffffffffffffffffffffff\n  mul\n  not\n  and\n  swap1\n  dup4\n  0xffffffffffffffffffffffffffffffffffffffff\n  and\n  mul\n  or\n  swap1\n  sstore\n  pop\n    /* \"PoolEURC.sol\":1140:1407  constructor(address _tokenA, address _tokenB) {... */\n  pop\n  pop\n    /* \"PoolEURC.sol\":576:4682  contract ArchielSwapPool {... */\n  jump(tag_13)\n    /* \"#utility.yul\":88:205   */\ntag_15:\n    /* \"#utility.yul\":197:198   */\n  0x00\n    /* \"#utility.yul\":194:195   */\n  0x00\n    /* \"#utility.yul\":187:199   */\n  revert\n    /* \"#utility.yul\":334:460   */\ntag_17:\n    /* \"#utility.yul\":371:378   */\n  0x00\n    /* \"#utility.yul\":411:453   */\n  0xffffffffffffffffffffffffffffffffffffffff\n    /* \"#utility.yul\":404:409   */\n  dup3\n    /* \"#utility.yul\":400:454   */\n  and\n    /* \"#utility.yul\":389:454   */\n  swap1\n  pop\n    /* \"#utility.yul\":334:460   */\n  swap2\n  swap1\n  pop\n  jump\t// out\n    /* \"#utility.yul\":466:562   */\ntag_18:\n    /* \"#utility.yul\":503:510   */\n  0x00\n    /* \"#utility.yul\":532:556   */\n  tag_32\n    /* \"#utility.yul\":550:555   */\n  dup3\n    /* \"#utility.yul\":532:556   */\n  tag_17\n  jump\t// in\ntag_32:\n    /* \"#utility.yul\":521:556   */\n  swap1\n  pop\n    /* \"#utility.yul\":466:562   */\n  swap2\n  swap1\n  pop\n  jump\t// out\n    /* \"#utility.yul\":568:690   */\ntag_19:\n    /* \"#utility.yul\":641:665   */\n  tag_34\n    /* \"#utility.yul\":659:664   */\n  dup2\n    /* \"#utility.yul\":641:665   */\n  tag_18\n  jump\t// in\ntag_34:\n    /* \"#utility.yul\":634:639   */\n  dup2\n    /* \"#utility.yul\":631:666   */\n  eq\n    /* \"#utility.yul\":621:684   */\n  tag_35\n  jumpi\n    /* \"#utility.yul\":680:681   */\n  0x00\n    /* \"#utility.yul\":677:678   */\n  0x00\n    /* \"#utility.yul\":670:682   */\n  revert\n    /* \"#utility.yul\":621:684   */\ntag_35:\n    /* \"#utility.yul\":568:690   */\n  pop\n  jump\t// out\n    /* \"#utility.yul\":696:839   */\ntag_20:\n    /* \"#utility.yul\":753:758   */\n  0x00\n    /* \"#utility.yul\":784:790   */\n  dup2\n    /* \"#utility.yul\":778:791   */\n  mload\n    /* \"#utility.yul\":769:791   */\n  swap1\n  pop\n    /* \"#utility.yul\":800:833   */\n  tag_37\n    /* \"#utility.yul\":827:832   */\n  dup2\n    /* \"#utility.yul\":800:833   */\n  tag_19\n  jump\t// in\ntag_37:\n    /* \"#utility.yul\":696:839   */\n  swap3\n  swap2\n  pop\n  pop\n  jump\t// out\n    /* \"#utility.yul\":845:1352   */\ntag_3:\n    /* \"#utility.yul\":924:930   */\n  0x00\n    /* \"#utility.yul\":932:938   */\n  0x00\n    /* \"#utility.yul\":981:983   */\n  0x40\n    /* \"#utility.yul\":969:978   */\n  dup4\n    /* \"#utility.yul\":960:967   */\n  dup6\n    /* \"#utility.yul\":956:979   */\n  sub\n    /* \"#utility.yul\":952:984   */\n  slt\n    /* \"#utility.yul\":949:1068   */\n  iszero\n  tag_39\n  jumpi\n    /* \"#utility.yul\":987:1066   */\n  tag_40\n  tag_15\n  jump\t// in\ntag_40:\n    /* \"#utility.yul\":949:1068   */\ntag_39:\n    /* \"#utility.yul\":1107:1108   */\n  0x00\n    /* \"#utility.yul\":1132:1196   */\n  tag_41\n    /* \"#utility.yul\":1188:1195   */\n  dup6\n    /* \"#utility.yul\":1179:1185   */\n  dup3\n    /* \"#utility.yul\":1168:1177   */\n  dup7\n    /* \"#utility.yul\":1164:1186   */\n  add\n    /* \"#utility.yul\":1132:1196   */\n  tag_20\n  jump\t// in\ntag_41:\n    /* \"#utility.yul\":1122:1196   */\n  swap3\n  pop\n    /* \"#utility.yul\":1078:1206   */\n  pop\n    /* \"#utility.yul\":1245:1247   */\n  0x20\n    /* \"#utility.yul\":1271:1335   */\n  tag_42\n    /* \"#utility.yul\":1327:1334   */\n  dup6\n    /* \"#utility.yul\":1318:1324   */\n  dup3\n    /* \"#utility.yul\":1307:1316   */\n  dup7\n    /* \"#utility.yul\":1303:1325   */\n  add\n    /* \"#utility.yul\":1271:1335   */\n  tag_20\n  jump\t// in\ntag_42:\n    /* \"#utility.yul\":1261:1335   */\n  swap2\n  pop\n    /* \"#utility.yul\":1216:1345   */\n  pop\n    /* \"#utility.yul\":845:1352   */\n  swap3\n  pop\n  swap3\n  swap1\n  pop\n  jump\t// out\n    /* \"#utility.yul\":1358:1527   */\ntag_21:\n    /* \"#utility.yul\":1442:1453   */\n  0x00\n    /* \"#utility.yul\":1476:1482   */\n  dup3\n    /* \"#utility.yul\":1471:1474   */\n  dup3\n    /* \"#utility.yul\":1464:1483   */\n  mstore\n    /* \"#utility.yul\":1516:1520   */\n  0x20\n    /* \"#utility.yul\":1511:1514   */\n  dup3\n    /* \"#utility.yul\":1507:1521   */\n  add\n    /* \"#utility.yul\":1492:1521   */\n  swap1\n  pop\n    /* \"#utility.yul\":1358:1527   */\n  swap3\n  swap2\n  pop\n  pop\n  jump\t// out\n    /* \"#utility.yul\":1533:1706   */\ntag_22:\n    /* \"#utility.yul\":1673:1698   */\n  0x496e76616c696420746f6b656e20616464726573736573000000000000000000\n    /* \"#utility.yul\":1669:1670   */\n  0x00\n    /* \"#utility.yul\":1661:1667   */\n  dup3\n    /* \"#utility.yul\":1657:1671   */\n  add\n    /* \"#utility.yul\":1650:1699   */\n  mstore\n    /* \"#utility.yul\":1533:1706   */\n  pop\n  jump\t// out\n    /* \"#utility.yul\":1712:2078   */\ntag_23:\n    /* \"#utility.yul\":1854:1857   */\n  0x00\n    /* \"#utility.yul\":1875:1942   */\n  tag_46\n    /* \"#utility.yul\":1939:1941   */\n  0x17\n    /* \"#utility.yul\":1934:1937   */\n  dup4\n    /* \"#utility.yul\":1875:1942   */\n  tag_21\n  jump\t// in\ntag_46:\n    /* \"#utility.yul\":1868:1942   */\n  swap2\n  pop\n    /* \"#utility.yul\":1951:2044   */\n  tag_47\n    /* \"#utility.yul\":2040:2043   */\n  dup3\n    /* \"#utility.yul\":1951:2044   */\n  tag_22\n  jump\t// in\ntag_47:\n    /* \"#utility.yul\":2069:2071   */\n  0x20\n    /* \"#utility.yul\":2064:2067   */\n  dup3\n    /* \"#utility.yul\":2060:2072   */\n  add\n    /* \"#utility.yul\":2053:2072   */\n  swap1\n  pop\n    /* \"#utility.yul\":1712:2078   */\n  swap2\n  swap1\n  pop\n  jump\t// out\n    /* \"#utility.yul\":2084:2503   */\ntag_9:\n    /* \"#utility.yul\":2250:2254   */\n  0x00\n    /* \"#utility.yul\":2288:2290   */\n  0x20\n    /* \"#utility.yul\":2277:2286   */\n  dup3\n    /* \"#utility.yul\":2273:2291   */\n  add\n    /* \"#utility.yul\":2265:2291   */\n  swap1\n  pop\n    /* \"#utility.yul\":2337:2346   */\n  dup2\n    /* \"#utility.yul\":2331:2335   */\n  dup2\n    /* \"#utility.yul\":2327:2347   */\n  sub\n    /* \"#utility.yul\":2323:2324   */\n  0x00\n    /* \"#utility.yul\":2312:2321   */\n  dup4\n    /* \"#utility.yul\":2308:2325   */\n  add\n    /* \"#utility.yul\":2301:2348   */\n  mstore\n    /* \"#utility.yul\":2365:2496   */\n  tag_49\n    /* \"#utility.yul\":2491:2495   */\n  dup2\n    /* \"#utility.yul\":2365:2496   */\n  tag_23\n  jump\t// in\ntag_49:\n    /* \"#utility.yul\":2357:2496   */\n  swap1\n  pop\n    /* \"#utility.yul\":2084:2503   */\n  swap2\n  swap1\n  pop\n  jump\t// out\n    /* \"#utility.yul\":2509:2683   */\ntag_24:\n    /* \"#utility.yul\":2649:2675   */\n  0x546f6b656e73206d75737420626520646966666572656e740000000000000000\n    /* \"#utility.yul\":2645:2646   */\n  0x00\n    /* \"#utility.yul\":2637:2643   */\n  dup3\n    /* \"#utility.yul\":2633:2647   */\n  add\n    /* \"#utility.yul\":2626:2676   */\n  mstore\n    /* \"#utility.yul\":2509:2683   */\n  pop\n  jump\t// out\n    /* \"#utility.yul\":2689:3055   */\ntag_25:\n    /* \"#utility.yul\":2831:2834   */\n  0x00\n    /* \"#utility.yul\":2852:2919   */\n  tag_52\n    /* \"#utility.yul\":2916:2918   */\n  0x18\n    /* \"#utility.yul\":2911:2914   */\n  dup4\n    /* \"#utility.yul\":2852:2919   */\n  tag_21\n  jump\t// in\ntag_52:\n    /* \"#utility.yul\":2845:2919   */\n  swap2\n  pop\n    /* \"#utility.yul\":2928:3021   */\n  tag_53\n    /* \"#utility.yul\":3017:3020   */\n  dup3\n    /* \"#utility.yul\":2928:3021   */\n  tag_24\n  jump\t// in\ntag_53:\n    /* \"#utility.yul\":3046:3048   */\n  0x20\n    /* \"#utility.yul\":3041:3044   */\n  dup3\n    /* \"#utility.yul\":3037:3049   */\n  add\n    /* \"#utility.yul\":3030:3049   */\n  swap1\n  pop\n    /* \"#utility.yul\":2689:3055   */\n  swap2\n  swap1\n  pop\n  jump\t// out\n    /* \"#utility.yul\":3061:3480   */\ntag_12:\n    /* \"#utility.yul\":3227:3231   */\n  0x00\n    /* \"#utility.yul\":3265:3267   */\n  0x20\n    /* \"#utility.yul\":3254:3263   */\n  dup3\n    /* \"#utility.yul\":3250:3268   */\n  add\n    /* \"#utility.yul\":3242:3268   */\n  swap1\n  pop\n    /* \"#utility.yul\":3314:3323   */\n  dup2\n    /* \"#utility.yul\":3308:3312   */\n  dup2\n    /* \"#utility.yul\":3304:3324   */\n  sub\n    /* \"#utility.yul\":3300:3301   */\n  0x00\n    /* \"#utility.yul\":3289:3298   */\n  dup4\n    /* \"#utility.yul\":3285:3302   */\n  add\n    /* \"#utility.yul\":3278:3325   */\n  mstore\n    /* \"#utility.yul\":3342:3473   */\n  tag_55\n    /* \"#utility.yul\":3468:3472   */\n  dup2\n    /* \"#utility.yul\":3342:3473   */\n  tag_25\n  jump\t// in\ntag_55:\n    /* \"#utility.yul\":3334:3473   */\n  swap1\n  pop\n    /* \"#utility.yul\":3061:3480   */\n  swap2\n  swap1\n  pop\n  jump\t// out\n    /* \"PoolEURC.sol\":576:4682  contract ArchielSwapPool {... */\ntag_13:\n  dataSize(sub_0)\n  dup1\n  dataOffset(sub_0)\n  0x00\n  codecopy\n  0x00\n  return\nstop\n\nsub_0: assembly {\n        /* \"PoolEURC.sol\":576:4682  contract ArchielSwapPool {... */\n      mstore(0x40, 0x80)\n      callvalue\n      dup1\n      iszero\n      tag_1\n      jumpi\n      revert(0x00, 0x00)\n    tag_1:\n      pop\n      jumpi(tag_2, lt(calldatasize, 0x04))\n      shr(0xe0, calldataload(0x00))\n      dup1\n      0x5f64b55b\n      gt\n      tag_12\n      jumpi\n      dup1\n      0x5f64b55b\n      eq\n      tag_7\n      jumpi\n      dup1\n      0x9f1d0f59\n      eq\n      tag_8\n      jumpi\n      dup1\n      0xca706bcf\n      eq\n      tag_9\n      jumpi\n      dup1\n      0xcf6c62ea\n      eq\n      tag_10\n      jumpi\n      dup1\n      0xdc5fa6c5\n      eq\n      tag_11\n      jumpi\n      jump(tag_2)\n    tag_12:\n      dup1\n      0x0fc63d10\n      eq\n      tag_3\n      jumpi\n      dup1\n      0x15770f92\n      eq\n      tag_4\n      jumpi\n      dup1\n      0x19e36f3b\n      eq\n      tag_5\n      jumpi\n      dup1\n      0x3c4750df\n      eq\n      tag_6\n      jumpi\n    tag_2:\n      revert(0x00, 0x00)\n        /* \"PoolEURC.sol\":608:629  address public tokenA */\n    tag_3:\n      tag_13\n      tag_14\n      jump\t// in\n    tag_13:\n      mload(0x40)\n      tag_15\n      swap2\n      swap1\n      tag_16\n      jump\t// in\n    tag_15:\n      mload(0x40)\n      dup1\n      swap2\n      sub\n      swap1\n      return\n        /* \"PoolEURC.sol\":728:757  uint256 public totalLiquidity */\n    tag_4:\n      tag_17\n      tag_18\n      jump\t// in\n    tag_17:\n      mload(0x40)\n      tag_19\n      swap2\n      swap1\n      tag_20\n      jump\t// in\n    tag_19:\n      mload(0x40)\n      dup1\n      swap2\n      sub\n      swap1\n      return\n        /* \"PoolEURC.sol\":696:719  uint256 public reserveB */\n    tag_5:\n      tag_21\n      tag_22\n      jump\t// in\n    tag_21:\n      mload(0x40)\n      tag_23\n      swap2\n      swap1\n      tag_20\n      jump\t// in\n    tag_23:\n      mload(0x40)\n      dup1\n      swap2\n      sub\n      swap1\n      return\n        /* \"PoolEURC.sol\":764:810  mapping(address => uint256) public liquidityOf */\n    tag_6:\n      tag_24\n      0x04\n      dup1\n      calldatasize\n      sub\n      dup2\n      add\n      swap1\n      tag_25\n      swap2\n      swap1\n      tag_26\n      jump\t// in\n    tag_25:\n      tag_27\n      jump\t// in\n    tag_24:\n      mload(0x40)\n      tag_28\n      swap2\n      swap1\n      tag_20\n      jump\t// in\n    tag_28:\n      mload(0x40)\n      dup1\n      swap2\n      sub\n      swap1\n      return\n        /* \"PoolEURC.sol\":636:657  address public tokenB */\n    tag_7:\n      tag_29\n      tag_30\n      jump\t// in\n    tag_29:\n      mload(0x40)\n      tag_31\n      swap2\n      swap1\n      tag_16\n      jump\t// in\n    tag_31:\n      mload(0x40)\n      dup1\n      swap2\n      sub\n      swap1\n      return\n        /* \"PoolEURC.sol\":2769:4120  function swap(address _tokenIn, uint256 _amountIn, uint256 _amountOutMin) external returns (uint256 amountOut) {... */\n    tag_8:\n      tag_32\n      0x04\n      dup1\n      calldatasize\n      sub\n      dup2\n      add\n      swap1\n      tag_33\n      swap2\n      swap1\n      tag_34\n      jump\t// in\n    tag_33:\n      tag_35\n      jump\t// in\n    tag_32:\n      mload(0x40)\n      tag_36\n      swap2\n      swap1\n      tag_20\n      jump\t// in\n    tag_36:\n      mload(0x40)\n      dup1\n      swap2\n      sub\n      swap1\n      return\n        /* \"PoolEURC.sol\":4128:4679  function getAmountOut(address _tokenIn, uint256 _amountIn) external view returns (uint256) {... */\n    tag_9:\n      tag_37\n      0x04\n      dup1\n      calldatasize\n      sub\n      dup2\n      add\n      swap1\n      tag_38\n      swap2\n      swap1\n      tag_39\n      jump\t// in\n    tag_38:\n      tag_40\n      jump\t// in\n    tag_37:\n      mload(0x40)\n      tag_41\n      swap2\n      swap1\n      tag_20\n      jump\t// in\n    tag_41:\n      mload(0x40)\n      dup1\n      swap2\n      sub\n      swap1\n      return\n        /* \"PoolEURC.sol\":1415:2761  function addLiquidity(... */\n    tag_10:\n      tag_42\n      0x04\n      dup1\n      calldatasize\n      sub\n      dup2\n      add\n      swap1\n      tag_43\n      swap2\n      swap1\n      tag_44\n      jump\t// in\n    tag_43:\n      tag_45\n      jump\t// in\n    tag_42:\n      mload(0x40)\n      tag_46\n      swap2\n      swap1\n      tag_20\n      jump\t// in\n    tag_46:\n      mload(0x40)\n      dup1\n      swap2\n      sub\n      swap1\n      return\n        /* \"PoolEURC.sol\":666:689  uint256 public reserveA */\n    tag_11:\n      tag_47\n      tag_48\n      jump\t// in\n    tag_47:\n      mload(0x40)\n      tag_49\n      swap2\n      swap1\n      tag_20\n      jump\t// in\n    tag_49:\n      mload(0x40)\n      dup1\n      swap2\n      sub\n      swap1\n      return\n        /* \"PoolEURC.sol\":608:629  address public tokenA */\n    tag_14:\n      0x00\n      0x00\n      swap1\n      sload\n      swap1\n      0x0100\n      exp\n      swap1\n      div\n      0xffffffffffffffffffffffffffffffffffffffff\n      and\n      dup2\n      jump\t// out\n        /* \"PoolEURC.sol\":728:757  uint256 public totalLiquidity */\n    tag_18:\n      sload(0x04)\n      dup2\n      jump\t// out\n        /* \"PoolEURC.sol\":696:719  uint256 public reserveB */\n    tag_22:\n      sload(0x03)\n      dup2\n      jump\t// out\n        /* \"PoolEURC.sol\":764:810  mapping(address => uint256) public liquidityOf */\n    tag_27:\n      mstore(0x20, 0x05)\n      dup1\n      0x00\n      mstore\n      keccak256(0x00, 0x40)\n      0x00\n      swap2\n      pop\n      swap1\n      pop\n      sload\n      dup2\n      jump\t// out\n        /* \"PoolEURC.sol\":636:657  address public tokenB */\n    tag_30:\n      0x01\n      0x00\n      swap1\n      sload\n      swap1\n      0x0100\n      exp\n      swap1\n      div\n      0xffffffffffffffffffffffffffffffffffffffff\n      and\n      dup2\n      jump\t// out\n        /* \"PoolEURC.sol\":2769:4120  function swap(address _tokenIn, uint256 _amountIn, uint256 _amountOutMin) external returns (uint256 amountOut) {... */\n    tag_35:\n        /* \"PoolEURC.sol\":2861:2878  uint256 amountOut */\n      0x00\n        /* \"PoolEURC.sol\":2911:2917  tokenA */\n      0x00\n      0x00\n      swap1\n      sload\n      swap1\n      0x0100\n      exp\n      swap1\n      div\n      0xffffffffffffffffffffffffffffffffffffffff\n      and\n        /* \"PoolEURC.sol\":2899:2917  _tokenIn == tokenA */\n      0xffffffffffffffffffffffffffffffffffffffff\n      and\n        /* \"PoolEURC.sol\":2899:2907  _tokenIn */\n      dup5\n        /* \"PoolEURC.sol\":2899:2917  _tokenIn == tokenA */\n      0xffffffffffffffffffffffffffffffffffffffff\n      and\n      eq\n        /* \"PoolEURC.sol\":2899:2939  _tokenIn == tokenA || _tokenIn == tokenB */\n      dup1\n      tag_51\n      jumpi\n      pop\n        /* \"PoolEURC.sol\":2933:2939  tokenB */\n      0x01\n      0x00\n      swap1\n      sload\n      swap1\n      0x0100\n      exp\n      swap1\n      div\n      0xffffffffffffffffffffffffffffffffffffffff\n      and\n        /* \"PoolEURC.sol\":2921:2939  _tokenIn == tokenB */\n      0xffffffffffffffffffffffffffffffffffffffff\n      and\n        /* \"PoolEURC.sol\":2921:2929  _tokenIn */\n      dup5\n        /* \"PoolEURC.sol\":2921:2939  _tokenIn == tokenB */\n      0xffffffffffffffffffffffffffffffffffffffff\n      and\n      eq\n        /* \"PoolEURC.sol\":2899:2939  _tokenIn == tokenA || _tokenIn == tokenB */\n    tag_51:\n        /* \"PoolEURC.sol\":2891:2971  require(_tokenIn == tokenA || _tokenIn == tokenB, \"Invalid token for this pool\") */\n      tag_52\n      jumpi\n      mload(0x40)\n      0x08c379a000000000000000000000000000000000000000000000000000000000\n      dup2\n      mstore\n      0x04\n      add\n      tag_53\n      swap1\n      tag_54\n      jump\t// in\n    tag_53:\n      mload(0x40)\n      dup1\n      swap2\n      sub\n      swap1\n      revert\n    tag_52:\n        /* \"PoolEURC.sol\":3002:3003  0 */\n      0x00\n        /* \"PoolEURC.sol\":2990:2999  _amountIn */\n      dup4\n        /* \"PoolEURC.sol\":2990:3003  _amountIn > 0 */\n      gt\n        /* \"PoolEURC.sol\":2982:3046  require(_amountIn > 0, \"Input amount must be greater than zero\") */\n      tag_55\n      jumpi\n      mload(0x40)\n      0x08c379a000000000000000000000000000000000000000000000000000000000\n      dup2\n      mstore\n      0x04\n      add\n      tag_56\n      swap1\n      tag_57\n      jump\t// in\n    tag_56:\n      mload(0x40)\n      dup1\n      swap2\n      sub\n      swap1\n      revert\n    tag_55:\n        /* \"PoolEURC.sol\":3059:3072  bool isTokenA */\n      0x00\n        /* \"PoolEURC.sol\":3087:3093  tokenA */\n      0x00\n      0x00\n      swap1\n      sload\n      swap1\n      0x0100\n      exp\n      swap1\n      div\n      0xffffffffffffffffffffffffffffffffffffffff\n      and\n        /* \"PoolEURC.sol\":3075:3093  _tokenIn == tokenA */\n      0xffffffffffffffffffffffffffffffffffffffff\n      and\n        /* \"PoolEURC.sol\":3075:3083  _tokenIn */\n      dup6\n        /* \"PoolEURC.sol\":3075:3093  _tokenIn == tokenA */\n      0xffffffffffffffffffffffffffffffffffffffff\n      and\n      eq\n        /* \"PoolEURC.sol\":3059:3093  bool isTokenA = _tokenIn == tokenA */\n      swap1\n      pop\n        /* \"PoolEURC.sol\":3105:3122  uint256 reserveIn */\n      0x00\n        /* \"PoolEURC.sol\":3124:3142  uint256 reserveOut */\n      0x00\n        /* \"PoolEURC.sol\":3146:3154  isTokenA */\n      dup3\n        /* \"PoolEURC.sol\":3146:3200  isTokenA ? (reserveA, reserveB) : (reserveB, reserveA) */\n      tag_58\n      jumpi\n        /* \"PoolEURC.sol\":3181:3189  reserveB */\n      sload(0x03)\n        /* \"PoolEURC.sol\":3191:3199  reserveA */\n      sload(0x02)\n        /* \"PoolEURC.sol\":3146:3200  isTokenA ? (reserveA, reserveB) : (reserveB, reserveA) */\n      jump(tag_59)\n    tag_58:\n        /* \"PoolEURC.sol\":3158:3166  reserveA */\n      sload(0x02)\n        /* \"PoolEURC.sol\":3168:3176  reserveB */\n      sload(0x03)\n        /* \"PoolEURC.sol\":3146:3200  isTokenA ? (reserveA, reserveB) : (reserveB, reserveA) */\n    tag_59:\n        /* \"PoolEURC.sol\":3104:3200  (uint256 reserveIn, uint256 reserveOut) = isTokenA ? (reserveA, reserveB) : (reserveB, reserveA) */\n      swap2\n      pop\n      swap2\n      pop\n        /* \"PoolEURC.sol\":3211:3227  address tokenOut */\n      0x00\n        /* \"PoolEURC.sol\":3230:3238  isTokenA */\n      dup4\n        /* \"PoolEURC.sol\":3230:3256  isTokenA ? tokenB : tokenA */\n      tag_60\n      jumpi\n        /* \"PoolEURC.sol\":3250:3256  tokenA */\n      0x00\n      0x00\n      swap1\n      sload\n      swap1\n      0x0100\n      exp\n      swap1\n      div\n      0xffffffffffffffffffffffffffffffffffffffff\n      and\n        /* \"PoolEURC.sol\":3230:3256  isTokenA ? tokenB : tokenA */\n      jump(tag_61)\n    tag_60:\n        /* \"PoolEURC.sol\":3241:3247  tokenB */\n      0x01\n      0x00\n      swap1\n      sload\n      swap1\n      0x0100\n      exp\n      swap1\n      div\n      0xffffffffffffffffffffffffffffffffffffffff\n      and\n        /* \"PoolEURC.sol\":3230:3256  isTokenA ? tokenB : tokenA */\n    tag_61:\n        /* \"PoolEURC.sol\":3211:3256  address tokenOut = isTokenA ? tokenB : tokenA */\n      swap1\n      pop\n        /* \"PoolEURC.sol\":3284:3292  _tokenIn */\n      dup8\n        /* \"PoolEURC.sol\":3277:3306  IERC20(_tokenIn).transferFrom */\n      0xffffffffffffffffffffffffffffffffffffffff\n      and\n      0x23b872dd\n        /* \"PoolEURC.sol\":3307:3317  msg.sender */\n      caller\n        /* \"PoolEURC.sol\":3327:3331  this */\n      address\n        /* \"PoolEURC.sol\":3334:3343  _amountIn */\n      dup11\n        /* \"PoolEURC.sol\":3277:3344  IERC20(_tokenIn).transferFrom(msg.sender, address(this), _amountIn) */\n      mload(0x40)\n      dup5\n      0xffffffff\n      and\n      0xe0\n      shl\n      dup2\n      mstore\n      0x04\n      add\n      tag_62\n      swap4\n      swap3\n      swap2\n      swap1\n      tag_63\n      jump\t// in\n    tag_62:\n      0x20\n      mload(0x40)\n      dup1\n      dup4\n      sub\n      dup2\n      0x00\n      dup8\n      gas\n      call\n      iszero\n      dup1\n      iszero\n      tag_65\n      jumpi\n      returndatacopy(0x00, 0x00, returndatasize)\n      revert(0x00, returndatasize)\n    tag_65:\n      pop\n      pop\n      pop\n      pop\n      mload(0x40)\n      returndatasize\n      not(0x1f)\n      0x1f\n      dup3\n      add\n      and\n      dup3\n      add\n      dup1\n      0x40\n      mstore\n      pop\n      dup2\n      add\n      swap1\n      tag_66\n      swap2\n      swap1\n      tag_67\n      jump\t// in\n    tag_66:\n        /* \"PoolEURC.sol\":3269:3379  require(IERC20(_tokenIn).transferFrom(msg.sender, address(this), _amountIn), \"Transfer of input token failed\") */\n      tag_68\n      jumpi\n      mload(0x40)\n      0x08c379a000000000000000000000000000000000000000000000000000000000\n      dup2\n      mstore\n      0x04\n      add\n      tag_69\n      swap1\n      tag_70\n      jump\t// in\n    tag_69:\n      mload(0x40)\n      dup1\n      swap2\n      sub\n      swap1\n      revert\n    tag_68:\n        /* \"PoolEURC.sol\":3443:3466  uint256 amountInWithFee */\n      0x00\n        /* \"PoolEURC.sol\":3481:3484  997 */\n      0x03e5\n        /* \"PoolEURC.sol\":3469:3478  _amountIn */\n      dup9\n        /* \"PoolEURC.sol\":3469:3484  _amountIn * 997 */\n      tag_71\n      swap2\n      swap1\n      tag_72\n      jump\t// in\n    tag_71:\n        /* \"PoolEURC.sol\":3443:3484  uint256 amountInWithFee = _amountIn * 997 */\n      swap1\n      pop\n        /* \"PoolEURC.sol\":3495:3512  uint256 numerator */\n      0x00\n        /* \"PoolEURC.sol\":3533:3543  reserveOut */\n      dup4\n        /* \"PoolEURC.sol\":3515:3530  amountInWithFee */\n      dup3\n        /* \"PoolEURC.sol\":3515:3543  amountInWithFee * reserveOut */\n      tag_73\n      swap2\n      swap1\n      tag_72\n      jump\t// in\n    tag_73:\n        /* \"PoolEURC.sol\":3495:3543  uint256 numerator = amountInWithFee * reserveOut */\n      swap1\n      pop\n        /* \"PoolEURC.sol\":3554:3573  uint256 denominator */\n      0x00\n        /* \"PoolEURC.sol\":3597:3612  amountInWithFee */\n      dup3\n        /* \"PoolEURC.sol\":3589:3593  1000 */\n      0x03e8\n        /* \"PoolEURC.sol\":3577:3586  reserveIn */\n      dup8\n        /* \"PoolEURC.sol\":3577:3593  reserveIn * 1000 */\n      tag_74\n      swap2\n      swap1\n      tag_72\n      jump\t// in\n    tag_74:\n        /* \"PoolEURC.sol\":3576:3612  (reserveIn * 1000) + amountInWithFee */\n      tag_75\n      swap2\n      swap1\n      tag_76\n      jump\t// in\n    tag_75:\n        /* \"PoolEURC.sol\":3554:3612  uint256 denominator = (reserveIn * 1000) + amountInWithFee */\n      swap1\n      pop\n        /* \"PoolEURC.sol\":3647:3658  denominator */\n      dup1\n        /* \"PoolEURC.sol\":3635:3644  numerator */\n      dup3\n        /* \"PoolEURC.sol\":3635:3658  numerator / denominator */\n      tag_77\n      swap2\n      swap1\n      tag_78\n      jump\t// in\n    tag_77:\n        /* \"PoolEURC.sol\":3623:3658  amountOut = numerator / denominator */\n      swap8\n      pop\n        /* \"PoolEURC.sol\":3692:3705  _amountOutMin */\n      dup9\n        /* \"PoolEURC.sol\":3679:3688  amountOut */\n      dup9\n        /* \"PoolEURC.sol\":3679:3705  amountOut >= _amountOutMin */\n      lt\n      iszero\n        /* \"PoolEURC.sol\":3671:3733  require(amountOut >= _amountOutMin, \"Slippage limit exceeded\") */\n      tag_79\n      jumpi\n      mload(0x40)\n      0x08c379a000000000000000000000000000000000000000000000000000000000\n      dup2\n      mstore\n      0x04\n      add\n      tag_80\n      swap1\n      tag_81\n      jump\t// in\n    tag_80:\n      mload(0x40)\n      dup1\n      swap2\n      sub\n      swap1\n      revert\n    tag_79:\n        /* \"PoolEURC.sol\":3750:3758  isTokenA */\n      dup7\n        /* \"PoolEURC.sol\":3746:3934  if (isTokenA) {... */\n      iszero\n      tag_82\n      jumpi\n        /* \"PoolEURC.sol\":3787:3796  _amountIn */\n      dup10\n        /* \"PoolEURC.sol\":3775:3783  reserveA */\n      0x02\n      0x00\n        /* \"PoolEURC.sol\":3775:3796  reserveA += _amountIn */\n      dup3\n      dup3\n      sload\n      tag_83\n      swap2\n      swap1\n      tag_76\n      jump\t// in\n    tag_83:\n      swap3\n      pop\n      pop\n      dup2\n      swap1\n      sstore\n      pop\n        /* \"PoolEURC.sol\":3823:3832  amountOut */\n      dup8\n        /* \"PoolEURC.sol\":3811:3819  reserveB */\n      0x03\n      0x00\n        /* \"PoolEURC.sol\":3811:3832  reserveB -= amountOut */\n      dup3\n      dup3\n      sload\n      tag_84\n      swap2\n      swap1\n      tag_85\n      jump\t// in\n    tag_84:\n      swap3\n      pop\n      pop\n      dup2\n      swap1\n      sstore\n      pop\n        /* \"PoolEURC.sol\":3746:3934  if (isTokenA) {... */\n      jump(tag_86)\n    tag_82:\n        /* \"PoolEURC.sol\":3877:3886  _amountIn */\n      dup10\n        /* \"PoolEURC.sol\":3865:3873  reserveB */\n      0x03\n      0x00\n        /* \"PoolEURC.sol\":3865:3886  reserveB += _amountIn */\n      dup3\n      dup3\n      sload\n      tag_87\n      swap2\n      swap1\n      tag_76\n      jump\t// in\n    tag_87:\n      swap3\n      pop\n      pop\n      dup2\n      swap1\n      sstore\n      pop\n        /* \"PoolEURC.sol\":3913:3922  amountOut */\n      dup8\n        /* \"PoolEURC.sol\":3901:3909  reserveA */\n      0x02\n      0x00\n        /* \"PoolEURC.sol\":3901:3922  reserveA -= amountOut */\n      dup3\n      dup3\n      sload\n      tag_88\n      swap2\n      swap1\n      tag_85\n      jump\t// in\n    tag_88:\n      swap3\n      pop\n      pop\n      dup2\n      swap1\n      sstore\n      pop\n        /* \"PoolEURC.sol\":3746:3934  if (isTokenA) {... */\n    tag_86:\n        /* \"PoolEURC.sol\":3961:3969  tokenOut */\n      dup4\n        /* \"PoolEURC.sol\":3954:3979  IERC20(tokenOut).transfer */\n      0xffffffffffffffffffffffffffffffffffffffff\n      and\n      0xa9059cbb\n        /* \"PoolEURC.sol\":3980:3990  msg.sender */\n      caller\n        /* \"PoolEURC.sol\":3992:4001  amountOut */\n      dup11\n        /* \"PoolEURC.sol\":3954:4002  IERC20(tokenOut).transfer(msg.sender, amountOut) */\n      mload(0x40)\n      dup4\n      0xffffffff\n      and\n      0xe0\n      shl\n      dup2\n      mstore\n      0x04\n      add\n      tag_89\n      swap3\n      swap2\n      swap1\n      tag_90\n      jump\t// in\n    tag_89:\n      0x20\n      mload(0x40)\n      dup1\n      dup4\n      sub\n      dup2\n      0x00\n      dup8\n      gas\n      call\n      iszero\n      dup1\n      iszero\n      tag_92\n      jumpi\n      returndatacopy(0x00, 0x00, returndatasize)\n      revert(0x00, returndatasize)\n    tag_92:\n      pop\n      pop\n      pop\n      pop\n      mload(0x40)\n      returndatasize\n      not(0x1f)\n      0x1f\n      dup3\n      add\n      and\n      dup3\n      add\n      dup1\n      0x40\n      mstore\n      pop\n      dup2\n      add\n      swap1\n      tag_93\n      swap2\n      swap1\n      tag_67\n      jump\t// in\n    tag_93:\n        /* \"PoolEURC.sol\":3946:4038  require(IERC20(tokenOut).transfer(msg.sender, amountOut), \"Transfer of output token failed\") */\n      tag_94\n      jumpi\n      mload(0x40)\n      0x08c379a000000000000000000000000000000000000000000000000000000000\n      dup2\n      mstore\n      0x04\n      add\n      tag_95\n      swap1\n      tag_96\n      jump\t// in\n    tag_95:\n      mload(0x40)\n      dup1\n      swap2\n      sub\n      swap1\n      revert\n    tag_94:\n        /* \"PoolEURC.sol\":4081:4089  _tokenIn */\n      dup11\n        /* \"PoolEURC.sol\":4056:4112  SwapExecuted(msg.sender, _tokenIn, _amountIn, amountOut) */\n      0xffffffffffffffffffffffffffffffffffffffff\n      and\n        /* \"PoolEURC.sol\":4069:4079  msg.sender */\n      caller\n        /* \"PoolEURC.sol\":4056:4112  SwapExecuted(msg.sender, _tokenIn, _amountIn, amountOut) */\n      0xffffffffffffffffffffffffffffffffffffffff\n      and\n      0xdd36740e2a012d93061a0d99eaa9107860955de4e90027d3cf465a055026c407\n        /* \"PoolEURC.sol\":4091:4100  _amountIn */\n      dup13\n        /* \"PoolEURC.sol\":4102:4111  amountOut */\n      dup12\n        /* \"PoolEURC.sol\":4056:4112  SwapExecuted(msg.sender, _tokenIn, _amountIn, amountOut) */\n      mload(0x40)\n      tag_97\n      swap3\n      swap2\n      swap1\n      tag_98\n      jump\t// in\n    tag_97:\n      mload(0x40)\n      dup1\n      swap2\n      sub\n      swap1\n      log3\n        /* \"PoolEURC.sol\":2880:4120  {... */\n      pop\n      pop\n      pop\n      pop\n      pop\n      pop\n      pop\n        /* \"PoolEURC.sol\":2769:4120  function swap(address _tokenIn, uint256 _amountIn, uint256 _amountOutMin) external returns (uint256 amountOut) {... */\n      swap4\n      swap3\n      pop\n      pop\n      pop\n      jump\t// out\n        /* \"PoolEURC.sol\":4128:4679  function getAmountOut(address _tokenIn, uint256 _amountIn) external view returns (uint256) {... */\n    tag_40:\n        /* \"PoolEURC.sol\":4210:4217  uint256 */\n      0x00\n        /* \"PoolEURC.sol\":4250:4256  tokenA */\n      0x00\n      0x00\n      swap1\n      sload\n      swap1\n      0x0100\n      exp\n      swap1\n      div\n      0xffffffffffffffffffffffffffffffffffffffff\n      and\n        /* \"PoolEURC.sol\":4238:4256  _tokenIn == tokenA */\n      0xffffffffffffffffffffffffffffffffffffffff\n      and\n        /* \"PoolEURC.sol\":4238:4246  _tokenIn */\n      dup4\n        /* \"PoolEURC.sol\":4238:4256  _tokenIn == tokenA */\n      0xffffffffffffffffffffffffffffffffffffffff\n      and\n      eq\n        /* \"PoolEURC.sol\":4238:4278  _tokenIn == tokenA || _tokenIn == tokenB */\n      dup1\n      tag_100\n      jumpi\n      pop\n        /* \"PoolEURC.sol\":4272:4278  tokenB */\n      0x01\n      0x00\n      swap1\n      sload\n      swap1\n      0x0100\n      exp\n      swap1\n      div\n      0xffffffffffffffffffffffffffffffffffffffff\n      and\n        /* \"PoolEURC.sol\":4260:4278  _tokenIn == tokenB */\n      0xffffffffffffffffffffffffffffffffffffffff\n      and\n        /* \"PoolEURC.sol\":4260:4268  _tokenIn */\n      dup4\n        /* \"PoolEURC.sol\":4260:4278  _tokenIn == tokenB */\n      0xffffffffffffffffffffffffffffffffffffffff\n      and\n      eq\n        /* \"PoolEURC.sol\":4238:4278  _tokenIn == tokenA || _tokenIn == tokenB */\n    tag_100:\n        /* \"PoolEURC.sol\":4230:4296  require(_tokenIn == tokenA || _tokenIn == tokenB, \"Invalid token\") */\n      tag_101\n      jumpi\n      mload(0x40)\n      0x08c379a000000000000000000000000000000000000000000000000000000000\n      dup2\n      mstore\n      0x04\n      add\n      tag_102\n      swap1\n      tag_103\n      jump\t// in\n    tag_102:\n      mload(0x40)\n      dup1\n      swap2\n      sub\n      swap1\n      revert\n    tag_101:\n        /* \"PoolEURC.sol\":4307:4320  bool isTokenA */\n      0x00\n        /* \"PoolEURC.sol\":4335:4341  tokenA */\n      0x00\n      0x00\n      swap1\n      sload\n      swap1\n      0x0100\n      exp\n      swap1\n      div\n      0xffffffffffffffffffffffffffffffffffffffff\n      and\n        /* \"PoolEURC.sol\":4323:4341  _tokenIn == tokenA */\n      0xffffffffffffffffffffffffffffffffffffffff\n      and\n        /* \"PoolEURC.sol\":4323:4331  _tokenIn */\n      dup5\n        /* \"PoolEURC.sol\":4323:4341  _tokenIn == tokenA */\n      0xffffffffffffffffffffffffffffffffffffffff\n      and\n      eq\n        /* \"PoolEURC.sol\":4307:4341  bool isTokenA = _tokenIn == tokenA */\n      swap1\n      pop\n        /* \"PoolEURC.sol\":4353:4370  uint256 reserveIn */\n      0x00\n        /* \"PoolEURC.sol\":4372:4390  uint256 reserveOut */\n      0x00\n        /* \"PoolEURC.sol\":4394:4402  isTokenA */\n      dup3\n        /* \"PoolEURC.sol\":4394:4448  isTokenA ? (reserveA, reserveB) : (reserveB, reserveA) */\n      tag_104\n      jumpi\n        /* \"PoolEURC.sol\":4429:4437  reserveB */\n      sload(0x03)\n        /* \"PoolEURC.sol\":4439:4447  reserveA */\n      sload(0x02)\n        /* \"PoolEURC.sol\":4394:4448  isTokenA ? (reserveA, reserveB) : (reserveB, reserveA) */\n      jump(tag_105)\n    tag_104:\n        /* \"PoolEURC.sol\":4406:4414  reserveA */\n      sload(0x02)\n        /* \"PoolEURC.sol\":4416:4424  reserveB */\n      sload(0x03)\n        /* \"PoolEURC.sol\":4394:4448  isTokenA ? (reserveA, reserveB) : (reserveB, reserveA) */\n    tag_105:\n        /* \"PoolEURC.sol\":4352:4448  (uint256 reserveIn, uint256 reserveOut) = isTokenA ? (reserveA, reserveB) : (reserveB, reserveA) */\n      swap2\n      pop\n      swap2\n      pop\n        /* \"PoolEURC.sol\":4461:4484  uint256 amountInWithFee */\n      0x00\n        /* \"PoolEURC.sol\":4499:4502  997 */\n      0x03e5\n        /* \"PoolEURC.sol\":4487:4496  _amountIn */\n      dup7\n        /* \"PoolEURC.sol\":4487:4502  _amountIn * 997 */\n      tag_106\n      swap2\n      swap1\n      tag_72\n      jump\t// in\n    tag_106:\n        /* \"PoolEURC.sol\":4461:4502  uint256 amountInWithFee = _amountIn * 997 */\n      swap1\n      pop\n        /* \"PoolEURC.sol\":4513:4530  uint256 numerator */\n      0x00\n        /* \"PoolEURC.sol\":4551:4561  reserveOut */\n      dup3\n        /* \"PoolEURC.sol\":4533:4548  amountInWithFee */\n      dup3\n        /* \"PoolEURC.sol\":4533:4561  amountInWithFee * reserveOut */\n      tag_107\n      swap2\n      swap1\n      tag_72\n      jump\t// in\n    tag_107:\n        /* \"PoolEURC.sol\":4513:4561  uint256 numerator = amountInWithFee * reserveOut */\n      swap1\n      pop\n        /* \"PoolEURC.sol\":4572:4591  uint256 denominator */\n      0x00\n        /* \"PoolEURC.sol\":4615:4630  amountInWithFee */\n      dup3\n        /* \"PoolEURC.sol\":4607:4611  1000 */\n      0x03e8\n        /* \"PoolEURC.sol\":4595:4604  reserveIn */\n      dup7\n        /* \"PoolEURC.sol\":4595:4611  reserveIn * 1000 */\n      tag_108\n      swap2\n      swap1\n      tag_72\n      jump\t// in\n    tag_108:\n        /* \"PoolEURC.sol\":4594:4630  (reserveIn * 1000) + amountInWithFee */\n      tag_109\n      swap2\n      swap1\n      tag_76\n      jump\t// in\n    tag_109:\n        /* \"PoolEURC.sol\":4572:4630  uint256 denominator = (reserveIn * 1000) + amountInWithFee */\n      swap1\n      pop\n        /* \"PoolEURC.sol\":4660:4671  denominator */\n      dup1\n        /* \"PoolEURC.sol\":4648:4657  numerator */\n      dup3\n        /* \"PoolEURC.sol\":4648:4671  numerator / denominator */\n      tag_110\n      swap2\n      swap1\n      tag_78\n      jump\t// in\n    tag_110:\n        /* \"PoolEURC.sol\":4641:4671  return numerator / denominator */\n      swap7\n      pop\n      pop\n      pop\n      pop\n      pop\n      pop\n      pop\n        /* \"PoolEURC.sol\":4128:4679  function getAmountOut(address _tokenIn, uint256 _amountIn) external view returns (uint256) {... */\n      swap3\n      swap2\n      pop\n      pop\n      jump\t// out\n        /* \"PoolEURC.sol\":1415:2761  function addLiquidity(... */\n    tag_45:\n        /* \"PoolEURC.sol\":1586:1600  uint256 shares */\n      0x00\n        /* \"PoolEURC.sol\":1649:1655  tokenA */\n      0x00\n      0x00\n      swap1\n      sload\n      swap1\n      0x0100\n      exp\n      swap1\n      div\n      0xffffffffffffffffffffffffffffffffffffffff\n      and\n        /* \"PoolEURC.sol\":1636:1655  _tokenInA == tokenA */\n      0xffffffffffffffffffffffffffffffffffffffff\n      and\n        /* \"PoolEURC.sol\":1636:1645  _tokenInA */\n      dup6\n        /* \"PoolEURC.sol\":1636:1655  _tokenInA == tokenA */\n      0xffffffffffffffffffffffffffffffffffffffff\n      and\n      eq\n        /* \"PoolEURC.sol\":1636:1678  _tokenInA == tokenA && _tokenInB == tokenB */\n      dup1\n      iszero\n      tag_112\n      jumpi\n      pop\n        /* \"PoolEURC.sol\":1672:1678  tokenB */\n      0x01\n      0x00\n      swap1\n      sload\n      swap1\n      0x0100\n      exp\n      swap1\n      div\n      0xffffffffffffffffffffffffffffffffffffffff\n      and\n        /* \"PoolEURC.sol\":1659:1678  _tokenInB == tokenB */\n      0xffffffffffffffffffffffffffffffffffffffff\n      and\n        /* \"PoolEURC.sol\":1659:1668  _tokenInB */\n      dup5\n        /* \"PoolEURC.sol\":1659:1678  _tokenInB == tokenB */\n      0xffffffffffffffffffffffffffffffffffffffff\n      and\n      eq\n        /* \"PoolEURC.sol\":1636:1678  _tokenInA == tokenA && _tokenInB == tokenB */\n    tag_112:\n        /* \"PoolEURC.sol\":1635:1727  (_tokenInA == tokenA && _tokenInB == tokenB) || (_tokenInA == tokenB && _tokenInB == tokenA) */\n      dup1\n      tag_113\n      jumpi\n      pop\n        /* \"PoolEURC.sol\":1697:1703  tokenB */\n      0x01\n      0x00\n      swap1\n      sload\n      swap1\n      0x0100\n      exp\n      swap1\n      div\n      0xffffffffffffffffffffffffffffffffffffffff\n      and\n        /* \"PoolEURC.sol\":1684:1703  _tokenInA == tokenB */\n      0xffffffffffffffffffffffffffffffffffffffff\n      and\n        /* \"PoolEURC.sol\":1684:1693  _tokenInA */\n      dup6\n        /* \"PoolEURC.sol\":1684:1703  _tokenInA == tokenB */\n      0xffffffffffffffffffffffffffffffffffffffff\n      and\n      eq\n        /* \"PoolEURC.sol\":1684:1726  _tokenInA == tokenB && _tokenInB == tokenA */\n      dup1\n      iszero\n      tag_114\n      jumpi\n      pop\n        /* \"PoolEURC.sol\":1720:1726  tokenA */\n      0x00\n      0x00\n      swap1\n      sload\n      swap1\n      0x0100\n      exp\n      swap1\n      div\n      0xffffffffffffffffffffffffffffffffffffffff\n      and\n        /* \"PoolEURC.sol\":1707:1726  _tokenInB == tokenA */\n      0xffffffffffffffffffffffffffffffffffffffff\n      and\n        /* \"PoolEURC.sol\":1707:1716  _tokenInB */\n      dup5\n        /* \"PoolEURC.sol\":1707:1726  _tokenInB == tokenA */\n      0xffffffffffffffffffffffffffffffffffffffff\n      and\n      eq\n        /* \"PoolEURC.sol\":1684:1726  _tokenInA == tokenB && _tokenInB == tokenA */\n    tag_114:\n        /* \"PoolEURC.sol\":1635:1727  (_tokenInA == tokenA && _tokenInB == tokenB) || (_tokenInA == tokenB && _tokenInB == tokenA) */\n    tag_113:\n        /* \"PoolEURC.sol\":1613:1784  require(... */\n      tag_115\n      jumpi\n      mload(0x40)\n      0x08c379a000000000000000000000000000000000000000000000000000000000\n      dup2\n      mstore\n      0x04\n      add\n      tag_116\n      swap1\n      tag_117\n      jump\t// in\n    tag_116:\n      mload(0x40)\n      dup1\n      swap2\n      sub\n      swap1\n      revert\n    tag_115:\n        /* \"PoolEURC.sol\":1797:1812  uint256 amountA */\n      0x00\n        /* \"PoolEURC.sol\":1828:1834  tokenA */\n      0x00\n      0x00\n      swap1\n      sload\n      swap1\n      0x0100\n      exp\n      swap1\n      div\n      0xffffffffffffffffffffffffffffffffffffffff\n      and\n        /* \"PoolEURC.sol\":1815:1834  _tokenInA == tokenA */\n      0xffffffffffffffffffffffffffffffffffffffff\n      and\n        /* \"PoolEURC.sol\":1815:1824  _tokenInA */\n      dup7\n        /* \"PoolEURC.sol\":1815:1834  _tokenInA == tokenA */\n      0xffffffffffffffffffffffffffffffffffffffff\n      and\n      eq\n        /* \"PoolEURC.sol\":1815:1870  _tokenInA == tokenA ? _amountADesired : _amountBDesired */\n      tag_118\n      jumpi\n        /* \"PoolEURC.sol\":1855:1870  _amountBDesired */\n      dup3\n        /* \"PoolEURC.sol\":1815:1870  _tokenInA == tokenA ? _amountADesired : _amountBDesired */\n      jump(tag_119)\n    tag_118:\n        /* \"PoolEURC.sol\":1837:1852  _amountADesired */\n      dup4\n        /* \"PoolEURC.sol\":1815:1870  _tokenInA == tokenA ? _amountADesired : _amountBDesired */\n    tag_119:\n        /* \"PoolEURC.sol\":1797:1870  uint256 amountA = _tokenInA == tokenA ? _amountADesired : _amountBDesired */\n      swap1\n      pop\n        /* \"PoolEURC.sol\":1881:1896  uint256 amountB */\n      0x00\n        /* \"PoolEURC.sol\":1912:1918  tokenA */\n      0x00\n      0x00\n      swap1\n      sload\n      swap1\n      0x0100\n      exp\n      swap1\n      div\n      0xffffffffffffffffffffffffffffffffffffffff\n      and\n        /* \"PoolEURC.sol\":1899:1918  _tokenInA == tokenA */\n      0xffffffffffffffffffffffffffffffffffffffff\n      and\n        /* \"PoolEURC.sol\":1899:1908  _tokenInA */\n      dup8\n        /* \"PoolEURC.sol\":1899:1918  _tokenInA == tokenA */\n      0xffffffffffffffffffffffffffffffffffffffff\n      and\n      eq\n        /* \"PoolEURC.sol\":1899:1954  _tokenInA == tokenA ? _amountBDesired : _amountADesired */\n      tag_120\n      jumpi\n        /* \"PoolEURC.sol\":1939:1954  _amountADesired */\n      dup5\n        /* \"PoolEURC.sol\":1899:1954  _tokenInA == tokenA ? _amountBDesired : _amountADesired */\n      jump(tag_121)\n    tag_120:\n        /* \"PoolEURC.sol\":1921:1936  _amountBDesired */\n      dup4\n        /* \"PoolEURC.sol\":1899:1954  _tokenInA == tokenA ? _amountBDesired : _amountADesired */\n    tag_121:\n        /* \"PoolEURC.sol\":1881:1954  uint256 amountB = _tokenInA == tokenA ? _amountBDesired : _amountADesired */\n      swap1\n      pop\n        /* \"PoolEURC.sol\":1982:1988  tokenA */\n      0x00\n      0x00\n      swap1\n      sload\n      swap1\n      0x0100\n      exp\n      swap1\n      div\n      0xffffffffffffffffffffffffffffffffffffffff\n      and\n        /* \"PoolEURC.sol\":1975:2002  IERC20(tokenA).transferFrom */\n      0xffffffffffffffffffffffffffffffffffffffff\n      and\n      0x23b872dd\n        /* \"PoolEURC.sol\":2003:2013  msg.sender */\n      caller\n        /* \"PoolEURC.sol\":2023:2027  this */\n      address\n        /* \"PoolEURC.sol\":2030:2037  amountA */\n      dup6\n        /* \"PoolEURC.sol\":1975:2038  IERC20(tokenA).transferFrom(msg.sender, address(this), amountA) */\n      mload(0x40)\n      dup5\n      0xffffffff\n      and\n      0xe0\n      shl\n      dup2\n      mstore\n      0x04\n      add\n      tag_122\n      swap4\n      swap3\n      swap2\n      swap1\n      tag_63\n      jump\t// in\n    tag_122:\n      0x20\n      mload(0x40)\n      dup1\n      dup4\n      sub\n      dup2\n      0x00\n      dup8\n      gas\n      call\n      iszero\n      dup1\n      iszero\n      tag_124\n      jumpi\n      returndatacopy(0x00, 0x00, returndatasize)\n      revert(0x00, returndatasize)\n    tag_124:\n      pop\n      pop\n      pop\n      pop\n      mload(0x40)\n      returndatasize\n      not(0x1f)\n      0x1f\n      dup3\n      add\n      and\n      dup3\n      add\n      dup1\n      0x40\n      mstore\n      pop\n      dup2\n      add\n      swap1\n      tag_125\n      swap2\n      swap1\n      tag_67\n      jump\t// in\n    tag_125:\n        /* \"PoolEURC.sol\":1967:2068  require(IERC20(tokenA).transferFrom(msg.sender, address(this), amountA), \"Transfer of tokenA failed\") */\n      tag_126\n      jumpi\n      mload(0x40)\n      0x08c379a000000000000000000000000000000000000000000000000000000000\n      dup2\n      mstore\n      0x04\n      add\n      tag_127\n      swap1\n      tag_128\n      jump\t// in\n    tag_127:\n      mload(0x40)\n      dup1\n      swap2\n      sub\n      swap1\n      revert\n    tag_126:\n        /* \"PoolEURC.sol\":2094:2100  tokenB */\n      0x01\n      0x00\n      swap1\n      sload\n      swap1\n      0x0100\n      exp\n      swap1\n      div\n      0xffffffffffffffffffffffffffffffffffffffff\n      and\n        /* \"PoolEURC.sol\":2087:2114  IERC20(tokenB).transferFrom */\n      0xffffffffffffffffffffffffffffffffffffffff\n      and\n      0x23b872dd\n        /* \"PoolEURC.sol\":2115:2125  msg.sender */\n      caller\n        /* \"PoolEURC.sol\":2135:2139  this */\n      address\n        /* \"PoolEURC.sol\":2142:2149  amountB */\n      dup5\n        /* \"PoolEURC.sol\":2087:2150  IERC20(tokenB).transferFrom(msg.sender, address(this), amountB) */\n      mload(0x40)\n      dup5\n      0xffffffff\n      and\n      0xe0\n      shl\n      dup2\n      mstore\n      0x04\n      add\n      tag_129\n      swap4\n      swap3\n      swap2\n      swap1\n      tag_63\n      jump\t// in\n    tag_129:\n      0x20\n      mload(0x40)\n      dup1\n      dup4\n      sub\n      dup2\n      0x00\n      dup8\n      gas\n      call\n      iszero\n      dup1\n      iszero\n      tag_131\n      jumpi\n      returndatacopy(0x00, 0x00, returndatasize)\n      revert(0x00, returndatasize)\n    tag_131:\n      pop\n      pop\n      pop\n      pop\n      mload(0x40)\n      returndatasize\n      not(0x1f)\n      0x1f\n      dup3\n      add\n      and\n      dup3\n      add\n      dup1\n      0x40\n      mstore\n      pop\n      dup2\n      add\n      swap1\n      tag_132\n      swap2\n      swap1\n      tag_67\n      jump\t// in\n    tag_132:\n        /* \"PoolEURC.sol\":2079:2180  require(IERC20(tokenB).transferFrom(msg.sender, address(this), amountB), \"Transfer of tokenB failed\") */\n      tag_133\n      jumpi\n      mload(0x40)\n      0x08c379a000000000000000000000000000000000000000000000000000000000\n      dup2\n      mstore\n      0x04\n      add\n      tag_134\n      swap1\n      tag_135\n      jump\t// in\n    tag_134:\n      mload(0x40)\n      dup1\n      swap2\n      sub\n      swap1\n      revert\n    tag_133:\n        /* \"PoolEURC.sol\":2215:2216  0 */\n      0x00\n        /* \"PoolEURC.sol\":2197:2211  totalLiquidity */\n      sload(0x04)\n        /* \"PoolEURC.sol\":2197:2216  totalLiquidity == 0 */\n      sub\n        /* \"PoolEURC.sol\":2193:2484  if (totalLiquidity == 0) {... */\n      tag_136\n      jumpi\n        /* \"PoolEURC.sol\":2252:2259  amountB */\n      dup1\n        /* \"PoolEURC.sol\":2242:2249  amountA */\n      dup3\n        /* \"PoolEURC.sol\":2242:2259  amountA + amountB */\n      tag_137\n      swap2\n      swap1\n      tag_76\n      jump\t// in\n    tag_137:\n        /* \"PoolEURC.sol\":2233:2259  shares = amountA + amountB */\n      swap3\n      pop\n        /* \"PoolEURC.sol\":2193:2484  if (totalLiquidity == 0) {... */\n      jump(tag_138)\n    tag_136:\n        /* \"PoolEURC.sol\":2292:2306  uint256 shareA */\n      0x00\n        /* \"PoolEURC.sol\":2338:2346  reserveA */\n      sload(0x02)\n        /* \"PoolEURC.sol\":2320:2334  totalLiquidity */\n      sload(0x04)\n        /* \"PoolEURC.sol\":2310:2317  amountA */\n      dup5\n        /* \"PoolEURC.sol\":2310:2334  amountA * totalLiquidity */\n      tag_139\n      swap2\n      swap1\n      tag_72\n      jump\t// in\n    tag_139:\n        /* \"PoolEURC.sol\":2309:2346  (amountA * totalLiquidity) / reserveA */\n      tag_140\n      swap2\n      swap1\n      tag_78\n      jump\t// in\n    tag_140:\n        /* \"PoolEURC.sol\":2292:2346  uint256 shareA = (amountA * totalLiquidity) / reserveA */\n      swap1\n      pop\n        /* \"PoolEURC.sol\":2361:2375  uint256 shareB */\n      0x00\n        /* \"PoolEURC.sol\":2407:2415  reserveB */\n      sload(0x03)\n        /* \"PoolEURC.sol\":2389:2403  totalLiquidity */\n      sload(0x04)\n        /* \"PoolEURC.sol\":2379:2386  amountB */\n      dup5\n        /* \"PoolEURC.sol\":2379:2403  amountB * totalLiquidity */\n      tag_141\n      swap2\n      swap1\n      tag_72\n      jump\t// in\n    tag_141:\n        /* \"PoolEURC.sol\":2378:2415  (amountB * totalLiquidity) / reserveB */\n      tag_142\n      swap2\n      swap1\n      tag_78\n      jump\t// in\n    tag_142:\n        /* \"PoolEURC.sol\":2361:2415  uint256 shareB = (amountB * totalLiquidity) / reserveB */\n      swap1\n      pop\n        /* \"PoolEURC.sol\":2448:2454  shareB */\n      dup1\n        /* \"PoolEURC.sol\":2439:2445  shareA */\n      dup3\n        /* \"PoolEURC.sol\":2439:2454  shareA < shareB */\n      lt\n        /* \"PoolEURC.sol\":2439:2472  shareA < shareB ? shareA : shareB */\n      tag_143\n      jumpi\n        /* \"PoolEURC.sol\":2466:2472  shareB */\n      dup1\n        /* \"PoolEURC.sol\":2439:2472  shareA < shareB ? shareA : shareB */\n      jump(tag_144)\n    tag_143:\n        /* \"PoolEURC.sol\":2457:2463  shareA */\n      dup2\n        /* \"PoolEURC.sol\":2439:2472  shareA < shareB ? shareA : shareB */\n    tag_144:\n        /* \"PoolEURC.sol\":2430:2472  shares = shareA < shareB ? shareA : shareB */\n      swap5\n      pop\n        /* \"PoolEURC.sol\":2277:2484  {... */\n      pop\n      pop\n        /* \"PoolEURC.sol\":2193:2484  if (totalLiquidity == 0) {... */\n    tag_138:\n        /* \"PoolEURC.sol\":2513:2514  0 */\n      0x00\n        /* \"PoolEURC.sol\":2504:2510  shares */\n      dup4\n        /* \"PoolEURC.sol\":2504:2514  shares > 0 */\n      gt\n        /* \"PoolEURC.sol\":2496:2540  require(shares > 0, \"Shares cannot be zero\") */\n      tag_145\n      jumpi\n      mload(0x40)\n      0x08c379a000000000000000000000000000000000000000000000000000000000\n      dup2\n      mstore\n      0x04\n      add\n      tag_146\n      swap1\n      tag_147\n      jump\t// in\n    tag_146:\n      mload(0x40)\n      dup1\n      swap2\n      sub\n      swap1\n      revert\n    tag_145:\n        /* \"PoolEURC.sol\":2580:2586  shares */\n      dup3\n        /* \"PoolEURC.sol\":2553:2564  liquidityOf */\n      0x05\n        /* \"PoolEURC.sol\":2553:2576  liquidityOf[msg.sender] */\n      0x00\n        /* \"PoolEURC.sol\":2565:2575  msg.sender */\n      caller\n        /* \"PoolEURC.sol\":2553:2576  liquidityOf[msg.sender] */\n      0xffffffffffffffffffffffffffffffffffffffff\n      and\n      0xffffffffffffffffffffffffffffffffffffffff\n      and\n      dup2\n      mstore\n      0x20\n      add\n      swap1\n      dup2\n      mstore\n      0x20\n      add\n      0x00\n      keccak256\n      0x00\n        /* \"PoolEURC.sol\":2553:2586  liquidityOf[msg.sender] += shares */\n      dup3\n      dup3\n      sload\n      tag_148\n      swap2\n      swap1\n      tag_76\n      jump\t// in\n    tag_148:\n      swap3\n      pop\n      pop\n      dup2\n      swap1\n      sstore\n      pop\n        /* \"PoolEURC.sol\":2615:2621  shares */\n      dup3\n        /* \"PoolEURC.sol\":2597:2611  totalLiquidity */\n      0x04\n      0x00\n        /* \"PoolEURC.sol\":2597:2621  totalLiquidity += shares */\n      dup3\n      dup3\n      sload\n      tag_149\n      swap2\n      swap1\n      tag_76\n      jump\t// in\n    tag_149:\n      swap3\n      pop\n      pop\n      dup2\n      swap1\n      sstore\n      pop\n        /* \"PoolEURC.sol\":2646:2653  amountA */\n      dup2\n        /* \"PoolEURC.sol\":2634:2642  reserveA */\n      0x02\n      0x00\n        /* \"PoolEURC.sol\":2634:2653  reserveA += amountA */\n      dup3\n      dup3\n      sload\n      tag_150\n      swap2\n      swap1\n      tag_76\n      jump\t// in\n    tag_150:\n      swap3\n      pop\n      pop\n      dup2\n      swap1\n      sstore\n      pop\n        /* \"PoolEURC.sol\":2676:2683  amountB */\n      dup1\n        /* \"PoolEURC.sol\":2664:2672  reserveB */\n      0x03\n      0x00\n        /* \"PoolEURC.sol\":2664:2683  reserveB += amountB */\n      dup3\n      dup3\n      sload\n      tag_151\n      swap2\n      swap1\n      tag_76\n      jump\t// in\n    tag_151:\n      swap3\n      pop\n      pop\n      dup2\n      swap1\n      sstore\n      pop\n        /* \"PoolEURC.sol\":2716:2726  msg.sender */\n      caller\n        /* \"PoolEURC.sol\":2701:2753  LiquidityAdded(msg.sender, amountA, amountB, shares) */\n      0xffffffffffffffffffffffffffffffffffffffff\n      and\n      0x64b83944e79c3ce8d4c297411de637c3e102d064677aac0c163976ebdcd6f50e\n        /* \"PoolEURC.sol\":2728:2735  amountA */\n      dup4\n        /* \"PoolEURC.sol\":2737:2744  amountB */\n      dup4\n        /* \"PoolEURC.sol\":2746:2752  shares */\n      dup7\n        /* \"PoolEURC.sol\":2701:2753  LiquidityAdded(msg.sender, amountA, amountB, shares) */\n      mload(0x40)\n      tag_152\n      swap4\n      swap3\n      swap2\n      swap1\n      tag_153\n      jump\t// in\n    tag_152:\n      mload(0x40)\n      dup1\n      swap2\n      sub\n      swap1\n      log2\n        /* \"PoolEURC.sol\":1602:2761  {... */\n      pop\n      pop\n        /* \"PoolEURC.sol\":1415:2761  function addLiquidity(... */\n      swap5\n      swap4\n      pop\n      pop\n      pop\n      pop\n      jump\t// out\n        /* \"PoolEURC.sol\":666:689  uint256 public reserveA */\n    tag_48:\n      sload(0x02)\n      dup2\n      jump\t// out\n        /* \"#utility.yul\":7:133   */\n    tag_154:\n        /* \"#utility.yul\":44:51   */\n      0x00\n        /* \"#utility.yul\":84:126   */\n      0xffffffffffffffffffffffffffffffffffffffff\n        /* \"#utility.yul\":77:82   */\n      dup3\n        /* \"#utility.yul\":73:127   */\n      and\n        /* \"#utility.yul\":62:127   */\n      swap1\n      pop\n        /* \"#utility.yul\":7:133   */\n      swap2\n      swap1\n      pop\n      jump\t// out\n        /* \"#utility.yul\":139:235   */\n    tag_155:\n        /* \"#utility.yul\":176:183   */\n      0x00\n        /* \"#utility.yul\":205:229   */\n      tag_195\n        /* \"#utility.yul\":223:228   */\n      dup3\n        /* \"#utility.yul\":205:229   */\n      tag_154\n      jump\t// in\n    tag_195:\n        /* \"#utility.yul\":194:229   */\n      swap1\n      pop\n        /* \"#utility.yul\":139:235   */\n      swap2\n      swap1\n      pop\n      jump\t// out\n        /* \"#utility.yul\":241:359   */\n    tag_156:\n        /* \"#utility.yul\":328:352   */\n      tag_197\n        /* \"#utility.yul\":346:351   */\n      dup2\n        /* \"#utility.yul\":328:352   */\n      tag_155\n      jump\t// in\n    tag_197:\n        /* \"#utility.yul\":323:326   */\n      dup3\n        /* \"#utility.yul\":316:353   */\n      mstore\n        /* \"#utility.yul\":241:359   */\n      pop\n      pop\n      jump\t// out\n        /* \"#utility.yul\":365:587   */\n    tag_16:\n        /* \"#utility.yul\":458:462   */\n      0x00\n        /* \"#utility.yul\":496:498   */\n      0x20\n        /* \"#utility.yul\":485:494   */\n      dup3\n        /* \"#utility.yul\":481:499   */\n      add\n        /* \"#utility.yul\":473:499   */\n      swap1\n      pop\n        /* \"#utility.yul\":509:580   */\n      tag_199\n        /* \"#utility.yul\":577:578   */\n      0x00\n        /* \"#utility.yul\":566:575   */\n      dup4\n        /* \"#utility.yul\":562:579   */\n      add\n        /* \"#utility.yul\":553:559   */\n      dup5\n        /* \"#utility.yul\":509:580   */\n      tag_156\n      jump\t// in\n    tag_199:\n        /* \"#utility.yul\":365:587   */\n      swap3\n      swap2\n      pop\n      pop\n      jump\t// out\n        /* \"#utility.yul\":593:670   */\n    tag_157:\n        /* \"#utility.yul\":630:637   */\n      0x00\n        /* \"#utility.yul\":659:664   */\n      dup2\n        /* \"#utility.yul\":648:664   */\n      swap1\n      pop\n        /* \"#utility.yul\":593:670   */\n      swap2\n      swap1\n      pop\n      jump\t// out\n        /* \"#utility.yul\":676:794   */\n    tag_158:\n        /* \"#utility.yul\":763:787   */\n      tag_202\n        /* \"#utility.yul\":781:786   */\n      dup2\n        /* \"#utility.yul\":763:787   */\n      tag_157\n      jump\t// in\n    tag_202:\n        /* \"#utility.yul\":758:761   */\n      dup3\n        /* \"#utility.yul\":751:788   */\n      mstore\n        /* \"#utility.yul\":676:794   */\n      pop\n      pop\n      jump\t// out\n        /* \"#utility.yul\":800:1022   */\n    tag_20:\n        /* \"#utility.yul\":893:897   */\n      0x00\n        /* \"#utility.yul\":931:933   */\n      0x20\n        /* \"#utility.yul\":920:929   */\n      dup3\n        /* \"#utility.yul\":916:934   */\n      add\n        /* \"#utility.yul\":908:934   */\n      swap1\n      pop\n        /* \"#utility.yul\":944:1015   */\n      tag_204\n        /* \"#utility.yul\":1012:1013   */\n      0x00\n        /* \"#utility.yul\":1001:1010   */\n      dup4\n        /* \"#utility.yul\":997:1014   */\n      add\n        /* \"#utility.yul\":988:994   */\n      dup5\n        /* \"#utility.yul\":944:1015   */\n      tag_158\n      jump\t// in\n    tag_204:\n        /* \"#utility.yul\":800:1022   */\n      swap3\n      swap2\n      pop\n      pop\n      jump\t// out\n        /* \"#utility.yul\":1109:1226   */\n    tag_160:\n        /* \"#utility.yul\":1218:1219   */\n      0x00\n        /* \"#utility.yul\":1215:1216   */\n      0x00\n        /* \"#utility.yul\":1208:1220   */\n      revert\n        /* \"#utility.yul\":1355:1477   */\n    tag_162:\n        /* \"#utility.yul\":1428:1452   */\n      tag_209\n        /* \"#utility.yul\":1446:1451   */\n      dup2\n        /* \"#utility.yul\":1428:1452   */\n      tag_155\n      jump\t// in\n    tag_209:\n        /* \"#utility.yul\":1421:1426   */\n      dup2\n        /* \"#utility.yul\":1418:1453   */\n      eq\n        /* \"#utility.yul\":1408:1471   */\n      tag_210\n      jumpi\n        /* \"#utility.yul\":1467:1468   */\n      0x00\n        /* \"#utility.yul\":1464:1465   */\n      0x00\n        /* \"#utility.yul\":1457:1469   */\n      revert\n        /* \"#utility.yul\":1408:1471   */\n    tag_210:\n        /* \"#utility.yul\":1355:1477   */\n      pop\n      jump\t// out\n        /* \"#utility.yul\":1483:1622   */\n    tag_163:\n        /* \"#utility.yul\":1529:1534   */\n      0x00\n        /* \"#utility.yul\":1567:1573   */\n      dup2\n        /* \"#utility.yul\":1554:1574   */\n      calldataload\n        /* \"#utility.yul\":1545:1574   */\n      swap1\n      pop\n        /* \"#utility.yul\":1583:1616   */\n      tag_212\n        /* \"#utility.yul\":1610:1615   */\n      dup2\n        /* \"#utility.yul\":1583:1616   */\n      tag_162\n      jump\t// in\n    tag_212:\n        /* \"#utility.yul\":1483:1622   */\n      swap3\n      swap2\n      pop\n      pop\n      jump\t// out\n        /* \"#utility.yul\":1628:1957   */\n    tag_26:\n        /* \"#utility.yul\":1687:1693   */\n      0x00\n        /* \"#utility.yul\":1736:1738   */\n      0x20\n        /* \"#utility.yul\":1724:1733   */\n      dup3\n        /* \"#utility.yul\":1715:1722   */\n      dup5\n        /* \"#utility.yul\":1711:1734   */\n      sub\n        /* \"#utility.yul\":1707:1739   */\n      slt\n        /* \"#utility.yul\":1704:1823   */\n      iszero\n      tag_214\n      jumpi\n        /* \"#utility.yul\":1742:1821   */\n      tag_215\n      tag_160\n      jump\t// in\n    tag_215:\n        /* \"#utility.yul\":1704:1823   */\n    tag_214:\n        /* \"#utility.yul\":1862:1863   */\n      0x00\n        /* \"#utility.yul\":1887:1940   */\n      tag_216\n        /* \"#utility.yul\":1932:1939   */\n      dup5\n        /* \"#utility.yul\":1923:1929   */\n      dup3\n        /* \"#utility.yul\":1912:1921   */\n      dup6\n        /* \"#utility.yul\":1908:1930   */\n      add\n        /* \"#utility.yul\":1887:1940   */\n      tag_163\n      jump\t// in\n    tag_216:\n        /* \"#utility.yul\":1877:1940   */\n      swap2\n      pop\n        /* \"#utility.yul\":1833:1950   */\n      pop\n        /* \"#utility.yul\":1628:1957   */\n      swap3\n      swap2\n      pop\n      pop\n      jump\t// out\n        /* \"#utility.yul\":1963:2085   */\n    tag_164:\n        /* \"#utility.yul\":2036:2060   */\n      tag_218\n        /* \"#utility.yul\":2054:2059   */\n      dup2\n        /* \"#utility.yul\":2036:2060   */\n      tag_157\n      jump\t// in\n    tag_218:\n        /* \"#utility.yul\":2029:2034   */\n      dup2\n        /* \"#utility.yul\":2026:2061   */\n      eq\n        /* \"#utility.yul\":2016:2079   */\n      tag_219\n      jumpi\n        /* \"#utility.yul\":2075:2076   */\n      0x00\n        /* \"#utility.yul\":2072:2073   */\n      0x00\n        /* \"#utility.yul\":2065:2077   */\n      revert\n        /* \"#utility.yul\":2016:2079   */\n    tag_219:\n        /* \"#utility.yul\":1963:2085   */\n      pop\n      jump\t// out\n        /* \"#utility.yul\":2091:2230   */\n    tag_165:\n        /* \"#utility.yul\":2137:2142   */\n      0x00\n        /* \"#utility.yul\":2175:2181   */\n      dup2\n        /* \"#utility.yul\":2162:2182   */\n      calldataload\n        /* \"#utility.yul\":2153:2182   */\n      swap1\n      pop\n        /* \"#utility.yul\":2191:2224   */\n      tag_221\n        /* \"#utility.yul\":2218:2223   */\n      dup2\n        /* \"#utility.yul\":2191:2224   */\n      tag_164\n      jump\t// in\n    tag_221:\n        /* \"#utility.yul\":2091:2230   */\n      swap3\n      swap2\n      pop\n      pop\n      jump\t// out\n        /* \"#utility.yul\":2236:2855   */\n    tag_34:\n        /* \"#utility.yul\":2313:2319   */\n      0x00\n        /* \"#utility.yul\":2321:2327   */\n      0x00\n        /* \"#utility.yul\":2329:2335   */\n      0x00\n        /* \"#utility.yul\":2378:2380   */\n      0x60\n        /* \"#utility.yul\":2366:2375   */\n      dup5\n        /* \"#utility.yul\":2357:2364   */\n      dup7\n        /* \"#utility.yul\":2353:2376   */\n      sub\n        /* \"#utility.yul\":2349:2381   */\n      slt\n        /* \"#utility.yul\":2346:2465   */\n      iszero\n      tag_223\n      jumpi\n        /* \"#utility.yul\":2384:2463   */\n      tag_224\n      tag_160\n      jump\t// in\n    tag_224:\n        /* \"#utility.yul\":2346:2465   */\n    tag_223:\n        /* \"#utility.yul\":2504:2505   */\n      0x00\n        /* \"#utility.yul\":2529:2582   */\n      tag_225\n        /* \"#utility.yul\":2574:2581   */\n      dup7\n        /* \"#utility.yul\":2565:2571   */\n      dup3\n        /* \"#utility.yul\":2554:2563   */\n      dup8\n        /* \"#utility.yul\":2550:2572   */\n      add\n        /* \"#utility.yul\":2529:2582   */\n      tag_163\n      jump\t// in\n    tag_225:\n        /* \"#utility.yul\":2519:2582   */\n      swap4\n      pop\n        /* \"#utility.yul\":2475:2592   */\n      pop\n        /* \"#utility.yul\":2631:2633   */\n      0x20\n        /* \"#utility.yul\":2657:2710   */\n      tag_226\n        /* \"#utility.yul\":2702:2709   */\n      dup7\n        /* \"#utility.yul\":2693:2699   */\n      dup3\n        /* \"#utility.yul\":2682:2691   */\n      dup8\n        /* \"#utility.yul\":2678:2700   */\n      add\n        /* \"#utility.yul\":2657:2710   */\n      tag_165\n      jump\t// in\n    tag_226:\n        /* \"#utility.yul\":2647:2710   */\n      swap3\n      pop\n        /* \"#utility.yul\":2602:2720   */\n      pop\n        /* \"#utility.yul\":2759:2761   */\n      0x40\n        /* \"#utility.yul\":2785:2838   */\n      tag_227\n        /* \"#utility.yul\":2830:2837   */\n      dup7\n        /* \"#utility.yul\":2821:2827   */\n      dup3\n        /* \"#utility.yul\":2810:2819   */\n      dup8\n        /* \"#utility.yul\":2806:2828   */\n      add\n        /* \"#utility.yul\":2785:2838   */\n      tag_165\n      jump\t// in\n    tag_227:\n        /* \"#utility.yul\":2775:2838   */\n      swap2\n      pop\n        /* \"#utility.yul\":2730:2848   */\n      pop\n        /* \"#utility.yul\":2236:2855   */\n      swap3\n      pop\n      swap3\n      pop\n      swap3\n      jump\t// out\n        /* \"#utility.yul\":2861:3335   */\n    tag_39:\n        /* \"#utility.yul\":2929:2935   */\n      0x00\n        /* \"#utility.yul\":2937:2943   */\n      0x00\n        /* \"#utility.yul\":2986:2988   */\n      0x40\n        /* \"#utility.yul\":2974:2983   */\n      dup4\n        /* \"#utility.yul\":2965:2972   */\n      dup6\n        /* \"#utility.yul\":2961:2984   */\n      sub\n        /* \"#utility.yul\":2957:2989   */\n      slt\n        /* \"#utility.yul\":2954:3073   */\n      iszero\n      tag_229\n      jumpi\n        /* \"#utility.yul\":2992:3071   */\n      tag_230\n      tag_160\n      jump\t// in\n    tag_230:\n        /* \"#utility.yul\":2954:3073   */\n    tag_229:\n        /* \"#utility.yul\":3112:3113   */\n      0x00\n        /* \"#utility.yul\":3137:3190   */\n      tag_231\n        /* \"#utility.yul\":3182:3189   */\n      dup6\n        /* \"#utility.yul\":3173:3179   */\n      dup3\n        /* \"#utility.yul\":3162:3171   */\n      dup7\n        /* \"#utility.yul\":3158:3180   */\n      add\n        /* \"#utility.yul\":3137:3190   */\n      tag_163\n      jump\t// in\n    tag_231:\n        /* \"#utility.yul\":3127:3190   */\n      swap3\n      pop\n        /* \"#utility.yul\":3083:3200   */\n      pop\n        /* \"#utility.yul\":3239:3241   */\n      0x20\n        /* \"#utility.yul\":3265:3318   */\n      tag_232\n        /* \"#utility.yul\":3310:3317   */\n      dup6\n        /* \"#utility.yul\":3301:3307   */\n      dup3\n        /* \"#utility.yul\":3290:3299   */\n      dup7\n        /* \"#utility.yul\":3286:3308   */\n      add\n        /* \"#utility.yul\":3265:3318   */\n      tag_165\n      jump\t// in\n    tag_232:\n        /* \"#utility.yul\":3255:3318   */\n      swap2\n      pop\n        /* \"#utility.yul\":3210:3328   */\n      pop\n        /* \"#utility.yul\":2861:3335   */\n      swap3\n      pop\n      swap3\n      swap1\n      pop\n      jump\t// out\n        /* \"#utility.yul\":3341:4106   */\n    tag_44:\n        /* \"#utility.yul\":3427:3433   */\n      0x00\n        /* \"#utility.yul\":3435:3441   */\n      0x00\n        /* \"#utility.yul\":3443:3449   */\n      0x00\n        /* \"#utility.yul\":3451:3457   */\n      0x00\n        /* \"#utility.yul\":3500:3503   */\n      0x80\n        /* \"#utility.yul\":3488:3497   */\n      dup6\n        /* \"#utility.yul\":3479:3486   */\n      dup8\n        /* \"#utility.yul\":3475:3498   */\n      sub\n        /* \"#utility.yul\":3471:3504   */\n      slt\n        /* \"#utility.yul\":3468:3588   */\n      iszero\n      tag_234\n      jumpi\n        /* \"#utility.yul\":3507:3586   */\n      tag_235\n      tag_160\n      jump\t// in\n    tag_235:\n        /* \"#utility.yul\":3468:3588   */\n    tag_234:\n        /* \"#utility.yul\":3627:3628   */\n      0x00\n        /* \"#utility.yul\":3652:3705   */\n      tag_236\n        /* \"#utility.yul\":3697:3704   */\n      dup8\n        /* \"#utility.yul\":3688:3694   */\n      dup3\n        /* \"#utility.yul\":3677:3686   */\n      dup9\n        /* \"#utility.yul\":3673:3695   */\n      add\n        /* \"#utility.yul\":3652:3705   */\n      tag_163\n      jump\t// in\n    tag_236:\n        /* \"#utility.yul\":3642:3705   */\n      swap5\n      pop\n        /* \"#utility.yul\":3598:3715   */\n      pop\n        /* \"#utility.yul\":3754:3756   */\n      0x20\n        /* \"#utility.yul\":3780:3833   */\n      tag_237\n        /* \"#utility.yul\":3825:3832   */\n      dup8\n        /* \"#utility.yul\":3816:3822   */\n      dup3\n        /* \"#utility.yul\":3805:3814   */\n      dup9\n        /* \"#utility.yul\":3801:3823   */\n      add\n        /* \"#utility.yul\":3780:3833   */\n      tag_163\n      jump\t// in\n    tag_237:\n        /* \"#utility.yul\":3770:3833   */\n      swap4\n      pop\n        /* \"#utility.yul\":3725:3843   */\n      pop\n        /* \"#utility.yul\":3882:3884   */\n      0x40\n        /* \"#utility.yul\":3908:3961   */\n      tag_238\n        /* \"#utility.yul\":3953:3960   */\n      dup8\n        /* \"#utility.yul\":3944:3950   */\n      dup3\n        /* \"#utility.yul\":3933:3942   */\n      dup9\n        /* \"#utility.yul\":3929:3951   */\n      add\n        /* \"#utility.yul\":3908:3961   */\n      tag_165\n      jump\t// in\n    tag_238:\n        /* \"#utility.yul\":3898:3961   */\n      swap3\n      pop\n        /* \"#utility.yul\":3853:3971   */\n      pop\n        /* \"#utility.yul\":4010:4012   */\n      0x60\n        /* \"#utility.yul\":4036:4089   */\n      tag_239\n        /* \"#utility.yul\":4081:4088   */\n      dup8\n        /* \"#utility.yul\":4072:4078   */\n      dup3\n        /* \"#utility.yul\":4061:4070   */\n      dup9\n        /* \"#utility.yul\":4057:4079   */\n      add\n        /* \"#utility.yul\":4036:4089   */\n      tag_165\n      jump\t// in\n    tag_239:\n        /* \"#utility.yul\":4026:4089   */\n      swap2\n      pop\n        /* \"#utility.yul\":3981:4099   */\n      pop\n        /* \"#utility.yul\":3341:4106   */\n      swap3\n      swap6\n      swap2\n      swap5\n      pop\n      swap3\n      pop\n      jump\t// out\n        /* \"#utility.yul\":4112:4281   */\n    tag_166:\n        /* \"#utility.yul\":4196:4207   */\n      0x00\n        /* \"#utility.yul\":4230:4236   */\n      dup3\n        /* \"#utility.yul\":4225:4228   */\n      dup3\n        /* \"#utility.yul\":4218:4237   */\n      mstore\n        /* \"#utility.yul\":4270:4274   */\n      0x20\n        /* \"#utility.yul\":4265:4268   */\n      dup3\n        /* \"#utility.yul\":4261:4275   */\n      add\n        /* \"#utility.yul\":4246:4275   */\n      swap1\n      pop\n        /* \"#utility.yul\":4112:4281   */\n      swap3\n      swap2\n      pop\n      pop\n      jump\t// out\n        /* \"#utility.yul\":4287:4464   */\n    tag_167:\n        /* \"#utility.yul\":4427:4456   */\n      0x496e76616c696420746f6b656e20666f72207468697320706f6f6c0000000000\n        /* \"#utility.yul\":4423:4424   */\n      0x00\n        /* \"#utility.yul\":4415:4421   */\n      dup3\n        /* \"#utility.yul\":4411:4425   */\n      add\n        /* \"#utility.yul\":4404:4457   */\n      mstore\n        /* \"#utility.yul\":4287:4464   */\n      pop\n      jump\t// out\n        /* \"#utility.yul\":4470:4836   */\n    tag_168:\n        /* \"#utility.yul\":4612:4615   */\n      0x00\n        /* \"#utility.yul\":4633:4700   */\n      tag_243\n        /* \"#utility.yul\":4697:4699   */\n      0x1b\n        /* \"#utility.yul\":4692:4695   */\n      dup4\n        /* \"#utility.yul\":4633:4700   */\n      tag_166\n      jump\t// in\n    tag_243:\n        /* \"#utility.yul\":4626:4700   */\n      swap2\n      pop\n        /* \"#utility.yul\":4709:4802   */\n      tag_244\n        /* \"#utility.yul\":4798:4801   */\n      dup3\n        /* \"#utility.yul\":4709:4802   */\n      tag_167\n      jump\t// in\n    tag_244:\n        /* \"#utility.yul\":4827:4829   */\n      0x20\n        /* \"#utility.yul\":4822:4825   */\n      dup3\n        /* \"#utility.yul\":4818:4830   */\n      add\n        /* \"#utility.yul\":4811:4830   */\n      swap1\n      pop\n        /* \"#utility.yul\":4470:4836   */\n      swap2\n      swap1\n      pop\n      jump\t// out\n        /* \"#utility.yul\":4842:5261   */\n    tag_54:\n        /* \"#utility.yul\":5008:5012   */\n      0x00\n        /* \"#utility.yul\":5046:5048   */\n      0x20\n        /* \"#utility.yul\":5035:5044   */\n      dup3\n        /* \"#utility.yul\":5031:5049   */\n      add\n        /* \"#utility.yul\":5023:5049   */\n      swap1\n      pop\n        /* \"#utility.yul\":5095:5104   */\n      dup2\n        /* \"#utility.yul\":5089:5093   */\n      dup2\n        /* \"#utility.yul\":5085:5105   */\n      sub\n        /* \"#utility.yul\":5081:5082   */\n      0x00\n        /* \"#utility.yul\":5070:5079   */\n      dup4\n        /* \"#utility.yul\":5066:5083   */\n      add\n        /* \"#utility.yul\":5059:5106   */\n      mstore\n        /* \"#utility.yul\":5123:5254   */\n      tag_246\n        /* \"#utility.yul\":5249:5253   */\n      dup2\n        /* \"#utility.yul\":5123:5254   */\n      tag_168\n      jump\t// in\n    tag_246:\n        /* \"#utility.yul\":5115:5254   */\n      swap1\n      pop\n        /* \"#utility.yul\":4842:5261   */\n      swap2\n      swap1\n      pop\n      jump\t// out\n        /* \"#utility.yul\":5267:5492   */\n    tag_169:\n        /* \"#utility.yul\":5407:5441   */\n      0x496e70757420616d6f756e74206d757374206265206772656174657220746861\n        /* \"#utility.yul\":5403:5404   */\n      0x00\n        /* \"#utility.yul\":5395:5401   */\n      dup3\n        /* \"#utility.yul\":5391:5405   */\n      add\n        /* \"#utility.yul\":5384:5442   */\n      mstore\n        /* \"#utility.yul\":5476:5484   */\n      0x6e207a65726f0000000000000000000000000000000000000000000000000000\n        /* \"#utility.yul\":5471:5473   */\n      0x20\n        /* \"#utility.yul\":5463:5469   */\n      dup3\n        /* \"#utility.yul\":5459:5474   */\n      add\n        /* \"#utility.yul\":5452:5485   */\n      mstore\n        /* \"#utility.yul\":5267:5492   */\n      pop\n      jump\t// out\n        /* \"#utility.yul\":5498:5864   */\n    tag_170:\n        /* \"#utility.yul\":5640:5643   */\n      0x00\n        /* \"#utility.yul\":5661:5728   */\n      tag_249\n        /* \"#utility.yul\":5725:5727   */\n      0x26\n        /* \"#utility.yul\":5720:5723   */\n      dup4\n        /* \"#utility.yul\":5661:5728   */\n      tag_166\n      jump\t// in\n    tag_249:\n        /* \"#utility.yul\":5654:5728   */\n      swap2\n      pop\n        /* \"#utility.yul\":5737:5830   */\n      tag_250\n        /* \"#utility.yul\":5826:5829   */\n      dup3\n        /* \"#utility.yul\":5737:5830   */\n      tag_169\n      jump\t// in\n    tag_250:\n        /* \"#utility.yul\":5855:5857   */\n      0x40\n        /* \"#utility.yul\":5850:5853   */\n      dup3\n        /* \"#utility.yul\":5846:5858   */\n      add\n        /* \"#utility.yul\":5839:5858   */\n      swap1\n      pop\n        /* \"#utility.yul\":5498:5864   */\n      swap2\n      swap1\n      pop\n      jump\t// out\n        /* \"#utility.yul\":5870:6289   */\n    tag_57:\n        /* \"#utility.yul\":6036:6040   */\n      0x00\n        /* \"#utility.yul\":6074:6076   */\n      0x20\n        /* \"#utility.yul\":6063:6072   */\n      dup3\n        /* \"#utility.yul\":6059:6077   */\n      add\n        /* \"#utility.yul\":6051:6077   */\n      swap1\n      pop\n        /* \"#utility.yul\":6123:6132   */\n      dup2\n        /* \"#utility.yul\":6117:6121   */\n      dup2\n        /* \"#utility.yul\":6113:6133   */\n      sub\n        /* \"#utility.yul\":6109:6110   */\n      0x00\n        /* \"#utility.yul\":6098:6107   */\n      dup4\n        /* \"#utility.yul\":6094:6111   */\n      add\n        /* \"#utility.yul\":6087:6134   */\n      mstore\n        /* \"#utility.yul\":6151:6282   */\n      tag_252\n        /* \"#utility.yul\":6277:6281   */\n      dup2\n        /* \"#utility.yul\":6151:6282   */\n      tag_170\n      jump\t// in\n    tag_252:\n        /* \"#utility.yul\":6143:6282   */\n      swap1\n      pop\n        /* \"#utility.yul\":5870:6289   */\n      swap2\n      swap1\n      pop\n      jump\t// out\n        /* \"#utility.yul\":6295:6737   */\n    tag_63:\n        /* \"#utility.yul\":6444:6448   */\n      0x00\n        /* \"#utility.yul\":6482:6484   */\n      0x60\n        /* \"#utility.yul\":6471:6480   */\n      dup3\n        /* \"#utility.yul\":6467:6485   */\n      add\n        /* \"#utility.yul\":6459:6485   */\n      swap1\n      pop\n        /* \"#utility.yul\":6495:6566   */\n      tag_254\n        /* \"#utility.yul\":6563:6564   */\n      0x00\n        /* \"#utility.yul\":6552:6561   */\n      dup4\n        /* \"#utility.yul\":6548:6565   */\n      add\n        /* \"#utility.yul\":6539:6545   */\n      dup7\n        /* \"#utility.yul\":6495:6566   */\n      tag_156\n      jump\t// in\n    tag_254:\n        /* \"#utility.yul\":6576:6648   */\n      tag_255\n        /* \"#utility.yul\":6644:6646   */\n      0x20\n        /* \"#utility.yul\":6633:6642   */\n      dup4\n        /* \"#utility.yul\":6629:6647   */\n      add\n        /* \"#utility.yul\":6620:6626   */\n      dup6\n        /* \"#utility.yul\":6576:6648   */\n      tag_156\n      jump\t// in\n    tag_255:\n        /* \"#utility.yul\":6658:6730   */\n      tag_256\n        /* \"#utility.yul\":6726:6728   */\n      0x40\n        /* \"#utility.yul\":6715:6724   */\n      dup4\n        /* \"#utility.yul\":6711:6729   */\n      add\n        /* \"#utility.yul\":6702:6708   */\n      dup5\n        /* \"#utility.yul\":6658:6730   */\n      tag_158\n      jump\t// in\n    tag_256:\n        /* \"#utility.yul\":6295:6737   */\n      swap5\n      swap4\n      pop\n      pop\n      pop\n      pop\n      jump\t// out\n        /* \"#utility.yul\":6743:6833   */\n    tag_171:\n        /* \"#utility.yul\":6777:6784   */\n      0x00\n        /* \"#utility.yul\":6820:6825   */\n      dup2\n        /* \"#utility.yul\":6813:6826   */\n      iszero\n        /* \"#utility.yul\":6806:6827   */\n      iszero\n        /* \"#utility.yul\":6795:6827   */\n      swap1\n      pop\n        /* \"#utility.yul\":6743:6833   */\n      swap2\n      swap1\n      pop\n      jump\t// out\n        /* \"#utility.yul\":6839:6955   */\n    tag_172:\n        /* \"#utility.yul\":6909:6930   */\n      tag_259\n        /* \"#utility.yul\":6924:6929   */\n      dup2\n        /* \"#utility.yul\":6909:6930   */\n      tag_171\n      jump\t// in\n    tag_259:\n        /* \"#utility.yul\":6902:6907   */\n      dup2\n        /* \"#utility.yul\":6899:6931   */\n      eq\n        /* \"#utility.yul\":6889:6949   */\n      tag_260\n      jumpi\n        /* \"#utility.yul\":6945:6946   */\n      0x00\n        /* \"#utility.yul\":6942:6943   */\n      0x00\n        /* \"#utility.yul\":6935:6947   */\n      revert\n        /* \"#utility.yul\":6889:6949   */\n    tag_260:\n        /* \"#utility.yul\":6839:6955   */\n      pop\n      jump\t// out\n        /* \"#utility.yul\":6961:7098   */\n    tag_173:\n        /* \"#utility.yul\":7015:7020   */\n      0x00\n        /* \"#utility.yul\":7046:7052   */\n      dup2\n        /* \"#utility.yul\":7040:7053   */\n      mload\n        /* \"#utility.yul\":7031:7053   */\n      swap1\n      pop\n        /* \"#utility.yul\":7062:7092   */\n      tag_262\n        /* \"#utility.yul\":7086:7091   */\n      dup2\n        /* \"#utility.yul\":7062:7092   */\n      tag_172\n      jump\t// in\n    tag_262:\n        /* \"#utility.yul\":6961:7098   */\n      swap3\n      swap2\n      pop\n      pop\n      jump\t// out\n        /* \"#utility.yul\":7104:7449   */\n    tag_67:\n        /* \"#utility.yul\":7171:7177   */\n      0x00\n        /* \"#utility.yul\":7220:7222   */\n      0x20\n        /* \"#utility.yul\":7208:7217   */\n      dup3\n        /* \"#utility.yul\":7199:7206   */\n      dup5\n        /* \"#utility.yul\":7195:7218   */\n      sub\n        /* \"#utility.yul\":7191:7223   */\n      slt\n        /* \"#utility.yul\":7188:7307   */\n      iszero\n      tag_264\n      jumpi\n        /* \"#utility.yul\":7226:7305   */\n      tag_265\n      tag_160\n      jump\t// in\n    tag_265:\n        /* \"#utility.yul\":7188:7307   */\n    tag_264:\n        /* \"#utility.yul\":7346:7347   */\n      0x00\n        /* \"#utility.yul\":7371:7432   */\n      tag_266\n        /* \"#utility.yul\":7424:7431   */\n      dup5\n        /* \"#utility.yul\":7415:7421   */\n      dup3\n        /* \"#utility.yul\":7404:7413   */\n      dup6\n        /* \"#utility.yul\":7400:7422   */\n      add\n        /* \"#utility.yul\":7371:7432   */\n      tag_173\n      jump\t// in\n    tag_266:\n        /* \"#utility.yul\":7361:7432   */\n      swap2\n      pop\n        /* \"#utility.yul\":7317:7442   */\n      pop\n        /* \"#utility.yul\":7104:7449   */\n      swap3\n      swap2\n      pop\n      pop\n      jump\t// out\n        /* \"#utility.yul\":7455:7635   */\n    tag_174:\n        /* \"#utility.yul\":7595:7627   */\n      0x5472616e73666572206f6620696e70757420746f6b656e206661696c65640000\n        /* \"#utility.yul\":7591:7592   */\n      0x00\n        /* \"#utility.yul\":7583:7589   */\n      dup3\n        /* \"#utility.yul\":7579:7593   */\n      add\n        /* \"#utility.yul\":7572:7628   */\n      mstore\n        /* \"#utility.yul\":7455:7635   */\n      pop\n      jump\t// out\n        /* \"#utility.yul\":7641:8007   */\n    tag_175:\n        /* \"#utility.yul\":7783:7786   */\n      0x00\n        /* \"#utility.yul\":7804:7871   */\n      tag_269\n        /* \"#utility.yul\":7868:7870   */\n      0x1e\n        /* \"#utility.yul\":7863:7866   */\n      dup4\n        /* \"#utility.yul\":7804:7871   */\n      tag_166\n      jump\t// in\n    tag_269:\n        /* \"#utility.yul\":7797:7871   */\n      swap2\n      pop\n        /* \"#utility.yul\":7880:7973   */\n      tag_270\n        /* \"#utility.yul\":7969:7972   */\n      dup3\n        /* \"#utility.yul\":7880:7973   */\n      tag_174\n      jump\t// in\n    tag_270:\n        /* \"#utility.yul\":7998:8000   */\n      0x20\n        /* \"#utility.yul\":7993:7996   */\n      dup3\n        /* \"#utility.yul\":7989:8001   */\n      add\n        /* \"#utility.yul\":7982:8001   */\n      swap1\n      pop\n        /* \"#utility.yul\":7641:8007   */\n      swap2\n      swap1\n      pop\n      jump\t// out\n        /* \"#utility.yul\":8013:8432   */\n    tag_70:\n        /* \"#utility.yul\":8179:8183   */\n      0x00\n        /* \"#utility.yul\":8217:8219   */\n      0x20\n        /* \"#utility.yul\":8206:8215   */\n      dup3\n        /* \"#utility.yul\":8202:8220   */\n      add\n        /* \"#utility.yul\":8194:8220   */\n      swap1\n      pop\n        /* \"#utility.yul\":8266:8275   */\n      dup2\n        /* \"#utility.yul\":8260:8264   */\n      dup2\n        /* \"#utility.yul\":8256:8276   */\n      sub\n        /* \"#utility.yul\":8252:8253   */\n      0x00\n        /* \"#utility.yul\":8241:8250   */\n      dup4\n        /* \"#utility.yul\":8237:8254   */\n      add\n        /* \"#utility.yul\":8230:8277   */\n      mstore\n        /* \"#utility.yul\":8294:8425   */\n      tag_272\n        /* \"#utility.yul\":8420:8424   */\n      dup2\n        /* \"#utility.yul\":8294:8425   */\n      tag_175\n      jump\t// in\n    tag_272:\n        /* \"#utility.yul\":8286:8425   */\n      swap1\n      pop\n        /* \"#utility.yul\":8013:8432   */\n      swap2\n      swap1\n      pop\n      jump\t// out\n        /* \"#utility.yul\":8438:8618   */\n    tag_176:\n        /* \"#utility.yul\":8486:8563   */\n      0x4e487b7100000000000000000000000000000000000000000000000000000000\n        /* \"#utility.yul\":8483:8484   */\n      0x00\n        /* \"#utility.yul\":8476:8564   */\n      mstore\n        /* \"#utility.yul\":8583:8587   */\n      0x11\n        /* \"#utility.yul\":8580:8581   */\n      0x04\n        /* \"#utility.yul\":8573:8588   */\n      mstore\n        /* \"#utility.yul\":8607:8611   */\n      0x24\n        /* \"#utility.yul\":8604:8605   */\n      0x00\n        /* \"#utility.yul\":8597:8612   */\n      revert\n        /* \"#utility.yul\":8624:9034   */\n    tag_72:\n        /* \"#utility.yul\":8664:8671   */\n      0x00\n        /* \"#utility.yul\":8687:8707   */\n      tag_275\n        /* \"#utility.yul\":8705:8706   */\n      dup3\n        /* \"#utility.yul\":8687:8707   */\n      tag_157\n      jump\t// in\n    tag_275:\n        /* \"#utility.yul\":8682:8707   */\n      swap2\n      pop\n        /* \"#utility.yul\":8721:8741   */\n      tag_276\n        /* \"#utility.yul\":8739:8740   */\n      dup4\n        /* \"#utility.yul\":8721:8741   */\n      tag_157\n      jump\t// in\n    tag_276:\n        /* \"#utility.yul\":8716:8741   */\n      swap3\n      pop\n        /* \"#utility.yul\":8776:8777   */\n      dup3\n        /* \"#utility.yul\":8773:8774   */\n      dup3\n        /* \"#utility.yul\":8769:8778   */\n      mul\n        /* \"#utility.yul\":8798:8828   */\n      tag_277\n        /* \"#utility.yul\":8816:8827   */\n      dup2\n        /* \"#utility.yul\":8798:8828   */\n      tag_157\n      jump\t// in\n    tag_277:\n        /* \"#utility.yul\":8787:8828   */\n      swap2\n      pop\n        /* \"#utility.yul\":8977:8978   */\n      dup3\n        /* \"#utility.yul\":8968:8975   */\n      dup3\n        /* \"#utility.yul\":8964:8979   */\n      div\n        /* \"#utility.yul\":8961:8962   */\n      dup5\n        /* \"#utility.yul\":8958:8980   */\n      eq\n        /* \"#utility.yul\":8938:8939   */\n      dup4\n        /* \"#utility.yul\":8931:8940   */\n      iszero\n        /* \"#utility.yul\":8911:8994   */\n      or\n        /* \"#utility.yul\":8888:9027   */\n      tag_278\n      jumpi\n        /* \"#utility.yul\":9007:9025   */\n      tag_279\n      tag_176\n      jump\t// in\n    tag_279:\n        /* \"#utility.yul\":8888:9027   */\n    tag_278:\n        /* \"#utility.yul\":8672:9034   */\n      pop\n        /* \"#utility.yul\":8624:9034   */\n      swap3\n      swap2\n      pop\n      pop\n      jump\t// out\n        /* \"#utility.yul\":9040:9231   */\n    tag_76:\n        /* \"#utility.yul\":9080:9083   */\n      0x00\n        /* \"#utility.yul\":9099:9119   */\n      tag_281\n        /* \"#utility.yul\":9117:9118   */\n      dup3\n        /* \"#utility.yul\":9099:9119   */\n      tag_157\n      jump\t// in\n    tag_281:\n        /* \"#utility.yul\":9094:9119   */\n      swap2\n      pop\n        /* \"#utility.yul\":9133:9153   */\n      tag_282\n        /* \"#utility.yul\":9151:9152   */\n      dup4\n        /* \"#utility.yul\":9133:9153   */\n      tag_157\n      jump\t// in\n    tag_282:\n        /* \"#utility.yul\":9128:9153   */\n      swap3\n      pop\n        /* \"#utility.yul\":9176:9177   */\n      dup3\n        /* \"#utility.yul\":9173:9174   */\n      dup3\n        /* \"#utility.yul\":9169:9178   */\n      add\n        /* \"#utility.yul\":9162:9178   */\n      swap1\n      pop\n        /* \"#utility.yul\":9197:9200   */\n      dup1\n        /* \"#utility.yul\":9194:9195   */\n      dup3\n        /* \"#utility.yul\":9191:9201   */\n      gt\n        /* \"#utility.yul\":9188:9224   */\n      iszero\n      tag_283\n      jumpi\n        /* \"#utility.yul\":9204:9222   */\n      tag_284\n      tag_176\n      jump\t// in\n    tag_284:\n        /* \"#utility.yul\":9188:9224   */\n    tag_283:\n        /* \"#utility.yul\":9040:9231   */\n      swap3\n      swap2\n      pop\n      pop\n      jump\t// out\n        /* \"#utility.yul\":9237:9417   */\n    tag_177:\n        /* \"#utility.yul\":9285:9362   */\n      0x4e487b7100000000000000000000000000000000000000000000000000000000\n        /* \"#utility.yul\":9282:9283   */\n      0x00\n        /* \"#utility.yul\":9275:9363   */\n      mstore\n        /* \"#utility.yul\":9382:9386   */\n      0x12\n        /* \"#utility.yul\":9379:9380   */\n      0x04\n        /* \"#utility.yul\":9372:9387   */\n      mstore\n        /* \"#utility.yul\":9406:9410   */\n      0x24\n        /* \"#utility.yul\":9403:9404   */\n      0x00\n        /* \"#utility.yul\":9396:9411   */\n      revert\n        /* \"#utility.yul\":9423:9608   */\n    tag_78:\n        /* \"#utility.yul\":9463:9464   */\n      0x00\n        /* \"#utility.yul\":9480:9500   */\n      tag_287\n        /* \"#utility.yul\":9498:9499   */\n      dup3\n        /* \"#utility.yul\":9480:9500   */\n      tag_157\n      jump\t// in\n    tag_287:\n        /* \"#utility.yul\":9475:9500   */\n      swap2\n      pop\n        /* \"#utility.yul\":9514:9534   */\n      tag_288\n        /* \"#utility.yul\":9532:9533   */\n      dup4\n        /* \"#utility.yul\":9514:9534   */\n      tag_157\n      jump\t// in\n    tag_288:\n        /* \"#utility.yul\":9509:9534   */\n      swap3\n      pop\n        /* \"#utility.yul\":9553:9554   */\n      dup3\n        /* \"#utility.yul\":9543:9578   */\n      tag_289\n      jumpi\n        /* \"#utility.yul\":9558:9576   */\n      tag_290\n      tag_177\n      jump\t// in\n    tag_290:\n        /* \"#utility.yul\":9543:9578   */\n    tag_289:\n        /* \"#utility.yul\":9600:9601   */\n      dup3\n        /* \"#utility.yul\":9597:9598   */\n      dup3\n        /* \"#utility.yul\":9593:9602   */\n      div\n        /* \"#utility.yul\":9588:9602   */\n      swap1\n      pop\n        /* \"#utility.yul\":9423:9608   */\n      swap3\n      swap2\n      pop\n      pop\n      jump\t// out\n        /* \"#utility.yul\":9614:9787   */\n    tag_178:\n        /* \"#utility.yul\":9754:9779   */\n      0x536c697070616765206c696d6974206578636565646564000000000000000000\n        /* \"#utility.yul\":9750:9751   */\n      0x00\n        /* \"#utility.yul\":9742:9748   */\n      dup3\n        /* \"#utility.yul\":9738:9752   */\n      add\n        /* \"#utility.yul\":9731:9780   */\n      mstore\n        /* \"#utility.yul\":9614:9787   */\n      pop\n      jump\t// out\n        /* \"#utility.yul\":9793:10159   */\n    tag_179:\n        /* \"#utility.yul\":9935:9938   */\n      0x00\n        /* \"#utility.yul\":9956:10023   */\n      tag_293\n        /* \"#utility.yul\":10020:10022   */\n      0x17\n        /* \"#utility.yul\":10015:10018   */\n      dup4\n        /* \"#utility.yul\":9956:10023   */\n      tag_166\n      jump\t// in\n    tag_293:\n        /* \"#utility.yul\":9949:10023   */\n      swap2\n      pop\n        /* \"#utility.yul\":10032:10125   */\n      tag_294\n        /* \"#utility.yul\":10121:10124   */\n      dup3\n        /* \"#utility.yul\":10032:10125   */\n      tag_178\n      jump\t// in\n    tag_294:\n        /* \"#utility.yul\":10150:10152   */\n      0x20\n        /* \"#utility.yul\":10145:10148   */\n      dup3\n        /* \"#utility.yul\":10141:10153   */\n      add\n        /* \"#utility.yul\":10134:10153   */\n      swap1\n      pop\n        /* \"#utility.yul\":9793:10159   */\n      swap2\n      swap1\n      pop\n      jump\t// out\n        /* \"#utility.yul\":10165:10584   */\n    tag_81:\n        /* \"#utility.yul\":10331:10335   */\n      0x00\n        /* \"#utility.yul\":10369:10371   */\n      0x20\n        /* \"#utility.yul\":10358:10367   */\n      dup3\n        /* \"#utility.yul\":10354:10372   */\n      add\n        /* \"#utility.yul\":10346:10372   */\n      swap1\n      pop\n        /* \"#utility.yul\":10418:10427   */\n      dup2\n        /* \"#utility.yul\":10412:10416   */\n      dup2\n        /* \"#utility.yul\":10408:10428   */\n      sub\n        /* \"#utility.yul\":10404:10405   */\n      0x00\n        /* \"#utility.yul\":10393:10402   */\n      dup4\n        /* \"#utility.yul\":10389:10406   */\n      add\n        /* \"#utility.yul\":10382:10429   */\n      mstore\n        /* \"#utility.yul\":10446:10577   */\n      tag_296\n        /* \"#utility.yul\":10572:10576   */\n      dup2\n        /* \"#utility.yul\":10446:10577   */\n      tag_179\n      jump\t// in\n    tag_296:\n        /* \"#utility.yul\":10438:10577   */\n      swap1\n      pop\n        /* \"#utility.yul\":10165:10584   */\n      swap2\n      swap1\n      pop\n      jump\t// out\n        /* \"#utility.yul\":10590:10784   */\n    tag_85:\n        /* \"#utility.yul\":10630:10634   */\n      0x00\n        /* \"#utility.yul\":10650:10670   */\n      tag_298\n        /* \"#utility.yul\":10668:10669   */\n      dup3\n        /* \"#utility.yul\":10650:10670   */\n      tag_157\n      jump\t// in\n    tag_298:\n        /* \"#utility.yul\":10645:10670   */\n      swap2\n      pop\n        /* \"#utility.yul\":10684:10704   */\n      tag_299\n        /* \"#utility.yul\":10702:10703   */\n      dup4\n        /* \"#utility.yul\":10684:10704   */\n      tag_157\n      jump\t// in\n    tag_299:\n        /* \"#utility.yul\":10679:10704   */\n      swap3\n      pop\n        /* \"#utility.yul\":10728:10729   */\n      dup3\n        /* \"#utility.yul\":10725:10726   */\n      dup3\n        /* \"#utility.yul\":10721:10730   */\n      sub\n        /* \"#utility.yul\":10713:10730   */\n      swap1\n      pop\n        /* \"#utility.yul\":10752:10753   */\n      dup2\n        /* \"#utility.yul\":10746:10750   */\n      dup2\n        /* \"#utility.yul\":10743:10754   */\n      gt\n        /* \"#utility.yul\":10740:10777   */\n      iszero\n      tag_300\n      jumpi\n        /* \"#utility.yul\":10757:10775   */\n      tag_301\n      tag_176\n      jump\t// in\n    tag_301:\n        /* \"#utility.yul\":10740:10777   */\n    tag_300:\n        /* \"#utility.yul\":10590:10784   */\n      swap3\n      swap2\n      pop\n      pop\n      jump\t// out\n        /* \"#utility.yul\":10790:11122   */\n    tag_90:\n        /* \"#utility.yul\":10911:10915   */\n      0x00\n        /* \"#utility.yul\":10949:10951   */\n      0x40\n        /* \"#utility.yul\":10938:10947   */\n      dup3\n        /* \"#utility.yul\":10934:10952   */\n      add\n        /* \"#utility.yul\":10926:10952   */\n      swap1\n      pop\n        /* \"#utility.yul\":10962:11033   */\n      tag_303\n        /* \"#utility.yul\":11030:11031   */\n      0x00\n        /* \"#utility.yul\":11019:11028   */\n      dup4\n        /* \"#utility.yul\":11015:11032   */\n      add\n        /* \"#utility.yul\":11006:11012   */\n      dup6\n        /* \"#utility.yul\":10962:11033   */\n      tag_156\n      jump\t// in\n    tag_303:\n        /* \"#utility.yul\":11043:11115   */\n      tag_304\n        /* \"#utility.yul\":11111:11113   */\n      0x20\n        /* \"#utility.yul\":11100:11109   */\n      dup4\n        /* \"#utility.yul\":11096:11114   */\n      add\n        /* \"#utility.yul\":11087:11093   */\n      dup5\n        /* \"#utility.yul\":11043:11115   */\n      tag_158\n      jump\t// in\n    tag_304:\n        /* \"#utility.yul\":10790:11122   */\n      swap4\n      swap3\n      pop\n      pop\n      pop\n      jump\t// out\n        /* \"#utility.yul\":11128:11309   */\n    tag_180:\n        /* \"#utility.yul\":11268:11301   */\n      0x5472616e73666572206f66206f757470757420746f6b656e206661696c656400\n        /* \"#utility.yul\":11264:11265   */\n      0x00\n        /* \"#utility.yul\":11256:11262   */\n      dup3\n        /* \"#utility.yul\":11252:11266   */\n      add\n        /* \"#utility.yul\":11245:11302   */\n      mstore\n        /* \"#utility.yul\":11128:11309   */\n      pop\n      jump\t// out\n        /* \"#utility.yul\":11315:11681   */\n    tag_181:\n        /* \"#utility.yul\":11457:11460   */\n      0x00\n        /* \"#utility.yul\":11478:11545   */\n      tag_307\n        /* \"#utility.yul\":11542:11544   */\n      0x1f\n        /* \"#utility.yul\":11537:11540   */\n      dup4\n        /* \"#utility.yul\":11478:11545   */\n      tag_166\n      jump\t// in\n    tag_307:\n        /* \"#utility.yul\":11471:11545   */\n      swap2\n      pop\n        /* \"#utility.yul\":11554:11647   */\n      tag_308\n        /* \"#utility.yul\":11643:11646   */\n      dup3\n        /* \"#utility.yul\":11554:11647   */\n      tag_180\n      jump\t// in\n    tag_308:\n        /* \"#utility.yul\":11672:11674   */\n      0x20\n        /* \"#utility.yul\":11667:11670   */\n      dup3\n        /* \"#utility.yul\":11663:11675   */\n      add\n        /* \"#utility.yul\":11656:11675   */\n      swap1\n      pop\n        /* \"#utility.yul\":11315:11681   */\n      swap2\n      swap1\n      pop\n      jump\t// out\n        /* \"#utility.yul\":11687:12106   */\n    tag_96:\n        /* \"#utility.yul\":11853:11857   */\n      0x00\n        /* \"#utility.yul\":11891:11893   */\n      0x20\n        /* \"#utility.yul\":11880:11889   */\n      dup3\n        /* \"#utility.yul\":11876:11894   */\n      add\n        /* \"#utility.yul\":11868:11894   */\n      swap1\n      pop\n        /* \"#utility.yul\":11940:11949   */\n      dup2\n        /* \"#utility.yul\":11934:11938   */\n      dup2\n        /* \"#utility.yul\":11930:11950   */\n      sub\n        /* \"#utility.yul\":11926:11927   */\n      0x00\n        /* \"#utility.yul\":11915:11924   */\n      dup4\n        /* \"#utility.yul\":11911:11928   */\n      add\n        /* \"#utility.yul\":11904:11951   */\n      mstore\n        /* \"#utility.yul\":11968:12099   */\n      tag_310\n        /* \"#utility.yul\":12094:12098   */\n      dup2\n        /* \"#utility.yul\":11968:12099   */\n      tag_181\n      jump\t// in\n    tag_310:\n        /* \"#utility.yul\":11960:12099   */\n      swap1\n      pop\n        /* \"#utility.yul\":11687:12106   */\n      swap2\n      swap1\n      pop\n      jump\t// out\n        /* \"#utility.yul\":12112:12444   */\n    tag_98:\n        /* \"#utility.yul\":12233:12237   */\n      0x00\n        /* \"#utility.yul\":12271:12273   */\n      0x40\n        /* \"#utility.yul\":12260:12269   */\n      dup3\n        /* \"#utility.yul\":12256:12274   */\n      add\n        /* \"#utility.yul\":12248:12274   */\n      swap1\n      pop\n        /* \"#utility.yul\":12284:12355   */\n      tag_312\n        /* \"#utility.yul\":12352:12353   */\n      0x00\n        /* \"#utility.yul\":12341:12350   */\n      dup4\n        /* \"#utility.yul\":12337:12354   */\n      add\n        /* \"#utility.yul\":12328:12334   */\n      dup6\n        /* \"#utility.yul\":12284:12355   */\n      tag_158\n      jump\t// in\n    tag_312:\n        /* \"#utility.yul\":12365:12437   */\n      tag_313\n        /* \"#utility.yul\":12433:12435   */\n      0x20\n        /* \"#utility.yul\":12422:12431   */\n      dup4\n        /* \"#utility.yul\":12418:12436   */\n      add\n        /* \"#utility.yul\":12409:12415   */\n      dup5\n        /* \"#utility.yul\":12365:12437   */\n      tag_158\n      jump\t// in\n    tag_313:\n        /* \"#utility.yul\":12112:12444   */\n      swap4\n      swap3\n      pop\n      pop\n      pop\n      jump\t// out\n        /* \"#utility.yul\":12450:12613   */\n    tag_182:\n        /* \"#utility.yul\":12590:12605   */\n      0x496e76616c696420746f6b656e00000000000000000000000000000000000000\n        /* \"#utility.yul\":12586:12587   */\n      0x00\n        /* \"#utility.yul\":12578:12584   */\n      dup3\n        /* \"#utility.yul\":12574:12588   */\n      add\n        /* \"#utility.yul\":12567:12606   */\n      mstore\n        /* \"#utility.yul\":12450:12613   */\n      pop\n      jump\t// out\n        /* \"#utility.yul\":12619:12985   */\n    tag_183:\n        /* \"#utility.yul\":12761:12764   */\n      0x00\n        /* \"#utility.yul\":12782:12849   */\n      tag_316\n        /* \"#utility.yul\":12846:12848   */\n      0x0d\n        /* \"#utility.yul\":12841:12844   */\n      dup4\n        /* \"#utility.yul\":12782:12849   */\n      tag_166\n      jump\t// in\n    tag_316:\n        /* \"#utility.yul\":12775:12849   */\n      swap2\n      pop\n        /* \"#utility.yul\":12858:12951   */\n      tag_317\n        /* \"#utility.yul\":12947:12950   */\n      dup3\n        /* \"#utility.yul\":12858:12951   */\n      tag_182\n      jump\t// in\n    tag_317:\n        /* \"#utility.yul\":12976:12978   */\n      0x20\n        /* \"#utility.yul\":12971:12974   */\n      dup3\n        /* \"#utility.yul\":12967:12979   */\n      add\n        /* \"#utility.yul\":12960:12979   */\n      swap1\n      pop\n        /* \"#utility.yul\":12619:12985   */\n      swap2\n      swap1\n      pop\n      jump\t// out\n        /* \"#utility.yul\":12991:13410   */\n    tag_103:\n        /* \"#utility.yul\":13157:13161   */\n      0x00\n        /* \"#utility.yul\":13195:13197   */\n      0x20\n        /* \"#utility.yul\":13184:13193   */\n      dup3\n        /* \"#utility.yul\":13180:13198   */\n      add\n        /* \"#utility.yul\":13172:13198   */\n      swap1\n      pop\n        /* \"#utility.yul\":13244:13253   */\n      dup2\n        /* \"#utility.yul\":13238:13242   */\n      dup2\n        /* \"#utility.yul\":13234:13254   */\n      sub\n        /* \"#utility.yul\":13230:13231   */\n      0x00\n        /* \"#utility.yul\":13219:13228   */\n      dup4\n        /* \"#utility.yul\":13215:13232   */\n      add\n        /* \"#utility.yul\":13208:13255   */\n      mstore\n        /* \"#utility.yul\":13272:13403   */\n      tag_319\n        /* \"#utility.yul\":13398:13402   */\n      dup2\n        /* \"#utility.yul\":13272:13403   */\n      tag_183\n      jump\t// in\n    tag_319:\n        /* \"#utility.yul\":13264:13403   */\n      swap1\n      pop\n        /* \"#utility.yul\":12991:13410   */\n      swap2\n      swap1\n      pop\n      jump\t// out\n        /* \"#utility.yul\":13416:13595   */\n    tag_184:\n        /* \"#utility.yul\":13556:13587   */\n      0x546f6b656e7320646f206e6f74206d6174636820706f6f6c2070616972000000\n        /* \"#utility.yul\":13552:13553   */\n      0x00\n        /* \"#utility.yul\":13544:13550   */\n      dup3\n        /* \"#utility.yul\":13540:13554   */\n      add\n        /* \"#utility.yul\":13533:13588   */\n      mstore\n        /* \"#utility.yul\":13416:13595   */\n      pop\n      jump\t// out\n        /* \"#utility.yul\":13601:13967   */\n    tag_185:\n        /* \"#utility.yul\":13743:13746   */\n      0x00\n        /* \"#utility.yul\":13764:13831   */\n      tag_322\n        /* \"#utility.yul\":13828:13830   */\n      0x1d\n        /* \"#utility.yul\":13823:13826   */\n      dup4\n        /* \"#utility.yul\":13764:13831   */\n      tag_166\n      jump\t// in\n    tag_322:\n        /* \"#utility.yul\":13757:13831   */\n      swap2\n      pop\n        /* \"#utility.yul\":13840:13933   */\n      tag_323\n        /* \"#utility.yul\":13929:13932   */\n      dup3\n        /* \"#utility.yul\":13840:13933   */\n      tag_184\n      jump\t// in\n    tag_323:\n        /* \"#utility.yul\":13958:13960   */\n      0x20\n        /* \"#utility.yul\":13953:13956   */\n      dup3\n        /* \"#utility.yul\":13949:13961   */\n      add\n        /* \"#utility.yul\":13942:13961   */\n      swap1\n      pop\n        /* \"#utility.yul\":13601:13967   */\n      swap2\n      swap1\n      pop\n      jump\t// out\n        /* \"#utility.yul\":13973:14392   */\n    tag_117:\n        /* \"#utility.yul\":14139:14143   */\n      0x00\n        /* \"#utility.yul\":14177:14179   */\n      0x20\n        /* \"#utility.yul\":14166:14175   */\n      dup3\n        /* \"#utility.yul\":14162:14180   */\n      add\n        /* \"#utility.yul\":14154:14180   */\n      swap1\n      pop\n        /* \"#utility.yul\":14226:14235   */\n      dup2\n        /* \"#utility.yul\":14220:14224   */\n      dup2\n        /* \"#utility.yul\":14216:14236   */\n      sub\n        /* \"#utility.yul\":14212:14213   */\n      0x00\n        /* \"#utility.yul\":14201:14210   */\n      dup4\n        /* \"#utility.yul\":14197:14214   */\n      add\n        /* \"#utility.yul\":14190:14237   */\n      mstore\n        /* \"#utility.yul\":14254:14385   */\n      tag_325\n        /* \"#utility.yul\":14380:14384   */\n      dup2\n        /* \"#utility.yul\":14254:14385   */\n      tag_185\n      jump\t// in\n    tag_325:\n        /* \"#utility.yul\":14246:14385   */\n      swap1\n      pop\n        /* \"#utility.yul\":13973:14392   */\n      swap2\n      swap1\n      pop\n      jump\t// out\n        /* \"#utility.yul\":14398:14573   */\n    tag_186:\n        /* \"#utility.yul\":14538:14565   */\n      0x5472616e73666572206f6620746f6b656e41206661696c656400000000000000\n        /* \"#utility.yul\":14534:14535   */\n      0x00\n        /* \"#utility.yul\":14526:14532   */\n      dup3\n        /* \"#utility.yul\":14522:14536   */\n      add\n        /* \"#utility.yul\":14515:14566   */\n      mstore\n        /* \"#utility.yul\":14398:14573   */\n      pop\n      jump\t// out\n        /* \"#utility.yul\":14579:14945   */\n    tag_187:\n        /* \"#utility.yul\":14721:14724   */\n      0x00\n        /* \"#utility.yul\":14742:14809   */\n      tag_328\n        /* \"#utility.yul\":14806:14808   */\n      0x19\n        /* \"#utility.yul\":14801:14804   */\n      dup4\n        /* \"#utility.yul\":14742:14809   */\n      tag_166\n      jump\t// in\n    tag_328:\n        /* \"#utility.yul\":14735:14809   */\n      swap2\n      pop\n        /* \"#utility.yul\":14818:14911   */\n      tag_329\n        /* \"#utility.yul\":14907:14910   */\n      dup3\n        /* \"#utility.yul\":14818:14911   */\n      tag_186\n      jump\t// in\n    tag_329:\n        /* \"#utility.yul\":14936:14938   */\n      0x20\n        /* \"#utility.yul\":14931:14934   */\n      dup3\n        /* \"#utility.yul\":14927:14939   */\n      add\n        /* \"#utility.yul\":14920:14939   */\n      swap1\n      pop\n        /* \"#utility.yul\":14579:14945   */\n      swap2\n      swap1\n      pop\n      jump\t// out\n        /* \"#utility.yul\":14951:15370   */\n    tag_128:\n        /* \"#utility.yul\":15117:15121   */\n      0x00\n        /* \"#utility.yul\":15155:15157   */\n      0x20\n        /* \"#utility.yul\":15144:15153   */\n      dup3\n        /* \"#utility.yul\":15140:15158   */\n      add\n        /* \"#utility.yul\":15132:15158   */\n      swap1\n      pop\n        /* \"#utility.yul\":15204:15213   */\n      dup2\n        /* \"#utility.yul\":15198:15202   */\n      dup2\n        /* \"#utility.yul\":15194:15214   */\n      sub\n        /* \"#utility.yul\":15190:15191   */\n      0x00\n        /* \"#utility.yul\":15179:15188   */\n      dup4\n        /* \"#utility.yul\":15175:15192   */\n      add\n        /* \"#utility.yul\":15168:15215   */\n      mstore\n        /* \"#utility.yul\":15232:15363   */\n      tag_331\n        /* \"#utility.yul\":15358:15362   */\n      dup2\n        /* \"#utility.yul\":15232:15363   */\n      tag_187\n      jump\t// in\n    tag_331:\n        /* \"#utility.yul\":15224:15363   */\n      swap1\n      pop\n        /* \"#utility.yul\":14951:15370   */\n      swap2\n      swap1\n      pop\n      jump\t// out\n        /* \"#utility.yul\":15376:15551   */\n    tag_188:\n        /* \"#utility.yul\":15516:15543   */\n      0x5472616e73666572206f6620746f6b656e42206661696c656400000000000000\n        /* \"#utility.yul\":15512:15513   */\n      0x00\n        /* \"#utility.yul\":15504:15510   */\n      dup3\n        /* \"#utility.yul\":15500:15514   */\n      add\n        /* \"#utility.yul\":15493:15544   */\n      mstore\n        /* \"#utility.yul\":15376:15551   */\n      pop\n      jump\t// out\n        /* \"#utility.yul\":15557:15923   */\n    tag_189:\n        /* \"#utility.yul\":15699:15702   */\n      0x00\n        /* \"#utility.yul\":15720:15787   */\n      tag_334\n        /* \"#utility.yul\":15784:15786   */\n      0x19\n        /* \"#utility.yul\":15779:15782   */\n      dup4\n        /* \"#utility.yul\":15720:15787   */\n      tag_166\n      jump\t// in\n    tag_334:\n        /* \"#utility.yul\":15713:15787   */\n      swap2\n      pop\n        /* \"#utility.yul\":15796:15889   */\n      tag_335\n        /* \"#utility.yul\":15885:15888   */\n      dup3\n        /* \"#utility.yul\":15796:15889   */\n      tag_188\n      jump\t// in\n    tag_335:\n        /* \"#utility.yul\":15914:15916   */\n      0x20\n        /* \"#utility.yul\":15909:15912   */\n      dup3\n        /* \"#utility.yul\":15905:15917   */\n      add\n        /* \"#utility.yul\":15898:15917   */\n      swap1\n      pop\n        /* \"#utility.yul\":15557:15923   */\n      swap2\n      swap1\n      pop\n      jump\t// out\n        /* \"#utility.yul\":15929:16348   */\n    tag_135:\n        /* \"#utility.yul\":16095:16099   */\n      0x00\n        /* \"#utility.yul\":16133:16135   */\n      0x20\n        /* \"#utility.yul\":16122:16131   */\n      dup3\n        /* \"#utility.yul\":16118:16136   */\n      add\n        /* \"#utility.yul\":16110:16136   */\n      swap1\n      pop\n        /* \"#utility.yul\":16182:16191   */\n      dup2\n        /* \"#utility.yul\":16176:16180   */\n      dup2\n        /* \"#utility.yul\":16172:16192   */\n      sub\n        /* \"#utility.yul\":16168:16169   */\n      0x00\n        /* \"#utility.yul\":16157:16166   */\n      dup4\n        /* \"#utility.yul\":16153:16170   */\n      add\n        /* \"#utility.yul\":16146:16193   */\n      mstore\n        /* \"#utility.yul\":16210:16341   */\n      tag_337\n        /* \"#utility.yul\":16336:16340   */\n      dup2\n        /* \"#utility.yul\":16210:16341   */\n      tag_189\n      jump\t// in\n    tag_337:\n        /* \"#utility.yul\":16202:16341   */\n      swap1\n      pop\n        /* \"#utility.yul\":15929:16348   */\n      swap2\n      swap1\n      pop\n      jump\t// out\n        /* \"#utility.yul\":16354:16525   */\n    tag_190:\n        /* \"#utility.yul\":16494:16517   */\n      0x5368617265732063616e6e6f74206265207a65726f0000000000000000000000\n        /* \"#utility.yul\":16490:16491   */\n      0x00\n        /* \"#utility.yul\":16482:16488   */\n      dup3\n        /* \"#utility.yul\":16478:16492   */\n      add\n        /* \"#utility.yul\":16471:16518   */\n      mstore\n        /* \"#utility.yul\":16354:16525   */\n      pop\n      jump\t// out\n        /* \"#utility.yul\":16531:16897   */\n    tag_191:\n        /* \"#utility.yul\":16673:16676   */\n      0x00\n        /* \"#utility.yul\":16694:16761   */\n      tag_340\n        /* \"#utility.yul\":16758:16760   */\n      0x15\n        /* \"#utility.yul\":16753:16756   */\n      dup4\n        /* \"#utility.yul\":16694:16761   */\n      tag_166\n      jump\t// in\n    tag_340:\n        /* \"#utility.yul\":16687:16761   */\n      swap2\n      pop\n        /* \"#utility.yul\":16770:16863   */\n      tag_341\n        /* \"#utility.yul\":16859:16862   */\n      dup3\n        /* \"#utility.yul\":16770:16863   */\n      tag_190\n      jump\t// in\n    tag_341:\n        /* \"#utility.yul\":16888:16890   */\n      0x20\n        /* \"#utility.yul\":16883:16886   */\n      dup3\n        /* \"#utility.yul\":16879:16891   */\n      add\n        /* \"#utility.yul\":16872:16891   */\n      swap1\n      pop\n        /* \"#utility.yul\":16531:16897   */\n      swap2\n      swap1\n      pop\n      jump\t// out\n        /* \"#utility.yul\":16903:17322   */\n    tag_147:\n        /* \"#utility.yul\":17069:17073   */\n      0x00\n        /* \"#utility.yul\":17107:17109   */\n      0x20\n        /* \"#utility.yul\":17096:17105   */\n      dup3\n        /* \"#utility.yul\":17092:17110   */\n      add\n        /* \"#utility.yul\":17084:17110   */\n      swap1\n      pop\n        /* \"#utility.yul\":17156:17165   */\n      dup2\n        /* \"#utility.yul\":17150:17154   */\n      dup2\n        /* \"#utility.yul\":17146:17166   */\n      sub\n        /* \"#utility.yul\":17142:17143   */\n      0x00\n        /* \"#utility.yul\":17131:17140   */\n      dup4\n        /* \"#utility.yul\":17127:17144   */\n      add\n        /* \"#utility.yul\":17120:17167   */\n      mstore\n        /* \"#utility.yul\":17184:17315   */\n      tag_343\n        /* \"#utility.yul\":17310:17314   */\n      dup2\n        /* \"#utility.yul\":17184:17315   */\n      tag_191\n      jump\t// in\n    tag_343:\n        /* \"#utility.yul\":17176:17315   */\n      swap1\n      pop\n        /* \"#utility.yul\":16903:17322   */\n      swap2\n      swap1\n      pop\n      jump\t// out\n        /* \"#utility.yul\":17328:17770   */\n    tag_153:\n        /* \"#utility.yul\":17477:17481   */\n      0x00\n        /* \"#utility.yul\":17515:17517   */\n      0x60\n        /* \"#utility.yul\":17504:17513   */\n      dup3\n        /* \"#utility.yul\":17500:17518   */\n      add\n        /* \"#utility.yul\":17492:17518   */\n      swap1\n      pop\n        /* \"#utility.yul\":17528:17599   */\n      tag_345\n        /* \"#utility.yul\":17596:17597   */\n      0x00\n        /* \"#utility.yul\":17585:17594   */\n      dup4\n        /* \"#utility.yul\":17581:17598   */\n      add\n        /* \"#utility.yul\":17572:17578   */\n      dup7\n        /* \"#utility.yul\":17528:17599   */\n      tag_158\n      jump\t// in\n    tag_345:\n        /* \"#utility.yul\":17609:17681   */\n      tag_346\n        /* \"#utility.yul\":17677:17679   */\n      0x20\n        /* \"#utility.yul\":17666:17675   */\n      dup4\n        /* \"#utility.yul\":17662:17680   */\n      add\n        /* \"#utility.yul\":17653:17659   */\n      dup6\n        /* \"#utility.yul\":17609:17681   */\n      tag_158\n      jump\t// in\n    tag_346:\n        /* \"#utility.yul\":17691:17763   */\n      tag_347\n        /* \"#utility.yul\":17759:17761   */\n      0x40\n        /* \"#utility.yul\":17748:17757   */\n      dup4\n        /* \"#utility.yul\":17744:17762   */\n      add\n        /* \"#utility.yul\":17735:17741   */\n      dup5\n        /* \"#utility.yul\":17691:17763   */\n      tag_158\n      jump\t// in\n    tag_347:\n        /* \"#utility.yul\":17328:17770   */\n      swap5\n      swap4\n      pop\n      pop\n      pop\n      pop\n      jump\t// out\n\n    auxdata: 0xa26469706673582212205d23fbe7fa2ffe07d322f1ea7c69269f04f34493ac4e81a3c7047f5ba40fe23a64736f6c634300081e0033\n}\n",
				"bytecode": {
					"linkReferences": {},
					"object": "608060405234801561000f575f5ffd5b50604051611a99380380611a998339818101604052810190610031919061022a565b5f73ffffffffffffffffffffffffffffffffffffffff168273ffffffffffffffffffffffffffffffffffffffff161415801561009957505f73ffffffffffffffffffffffffffffffffffffffff168173ffffffffffffffffffffffffffffffffffffffff1614155b6100d8576040517f08c379a00000000000000000000000000000000000000000000000000000000081526004016100cf906102c2565b60405180910390fd5b8073ffffffffffffffffffffffffffffffffffffffff168273ffffffffffffffffffffffffffffffffffffffff1603610146576040517f08c379a000000000000000000000000000000000000000000000000000000000815260040161013d9061032a565b60405180910390fd5b815f5f6101000a81548173ffffffffffffffffffffffffffffffffffffffff021916908373ffffffffffffffffffffffffffffffffffffffff1602179055508060015f6101000a81548173ffffffffffffffffffffffffffffffffffffffff021916908373ffffffffffffffffffffffffffffffffffffffff1602179055505050610348565b5f5ffd5b5f73ffffffffffffffffffffffffffffffffffffffff82169050919050565b5f6101f9826101d0565b9050919050565b610209816101ef565b8114610213575f5ffd5b50565b5f8151905061022481610200565b92915050565b5f5f604083850312156102405761023f6101cc565b5b5f61024d85828601610216565b925050602061025e85828601610216565b9150509250929050565b5f82825260208201905092915050565b7f496e76616c696420746f6b656e206164647265737365730000000000000000005f82015250565b5f6102ac601783610268565b91506102b782610278565b602082019050919050565b5f6020820190508181035f8301526102d9816102a0565b9050919050565b7f546f6b656e73206d75737420626520646966666572656e7400000000000000005f82015250565b5f610314601883610268565b915061031f826102e0565b602082019050919050565b5f6020820190508181035f83015261034181610308565b9050919050565b611744806103555f395ff3fe608060405234801561000f575f5ffd5b5060043610610091575f3560e01c80635f64b55b116100645780635f64b55b1461011f5780639f1d0f591461013d578063ca706bcf1461016d578063cf6c62ea1461019d578063dc5fa6c5146101cd57610091565b80630fc63d101461009557806315770f92146100b357806319e36f3b146100d15780633c4750df146100ef575b5f5ffd5b61009d6101eb565b6040516100aa9190610ec0565b60405180910390f35b6100bb61020f565b6040516100c89190610ef1565b60405180910390f35b6100d9610215565b6040516100e69190610ef1565b60405180910390f35b61010960048036038101906101049190610f38565b61021b565b6040516101169190610ef1565b60405180910390f35b610127610230565b6040516101349190610ec0565b60405180910390f35b61015760048036038101906101529190610f8d565b610255565b6040516101649190610ef1565b60405180910390f35b61018760048036038101906101829190610fdd565b610721565b6040516101949190610ef1565b60405180910390f35b6101b760048036038101906101b2919061101b565b6108cc565b6040516101c49190610ef1565b60405180910390f35b6101d5610e7b565b6040516101e29190610ef1565b60405180910390f35b5f5f9054906101000a900473ffffffffffffffffffffffffffffffffffffffff1681565b60045481565b60035481565b6005602052805f5260405f205f915090505481565b60015f9054906101000a900473ffffffffffffffffffffffffffffffffffffffff1681565b5f5f5f9054906101000a900473ffffffffffffffffffffffffffffffffffffffff1673ffffffffffffffffffffffffffffffffffffffff168473ffffffffffffffffffffffffffffffffffffffff1614806102fc575060015f9054906101000a900473ffffffffffffffffffffffffffffffffffffffff1673ffffffffffffffffffffffffffffffffffffffff168473ffffffffffffffffffffffffffffffffffffffff16145b61033b576040517f08c379a0000000000000000000000000000000000000000000000000000000008152600401610332906110d9565b60405180910390fd5b5f831161037d576040517f08c379a000000000000000000000000000000000000000000000000000000000815260040161037490611167565b60405180910390fd5b5f5f5f9054906101000a900473ffffffffffffffffffffffffffffffffffffffff1673ffffffffffffffffffffffffffffffffffffffff168573ffffffffffffffffffffffffffffffffffffffff161490505f5f826103e1576003546002546103e8565b6002546003545b915091505f83610418575f5f9054906101000a900473ffffffffffffffffffffffffffffffffffffffff1661043b565b60015f9054906101000a900473ffffffffffffffffffffffffffffffffffffffff165b90508773ffffffffffffffffffffffffffffffffffffffff166323b872dd33308a6040518463ffffffff1660e01b815260040161047a93929190611185565b6020604051808303815f875af1158015610496573d5f5f3e3d5ffd5b505050506040513d601f19601f820116820180604052508101906104ba91906111ef565b6104f9576040517f08c379a00000000000000000000000000000000000000000000000000000000081526004016104f090611264565b60405180910390fd5b5f6103e58861050891906112af565b90505f838261051791906112af565b90505f826103e88761052991906112af565b61053391906112f0565b905080826105419190611350565b975088881015610586576040517f08c379a000000000000000000000000000000000000000000000000000000000815260040161057d906113ca565b60405180910390fd5b86156105c1578960025f82825461059d91906112f0565b925050819055508760035f8282546105b591906113e8565b925050819055506105f2565b8960035f8282546105d291906112f0565b925050819055508760025f8282546105ea91906113e8565b925050819055505b8373ffffffffffffffffffffffffffffffffffffffff1663a9059cbb338a6040518363ffffffff1660e01b815260040161062d92919061141b565b6020604051808303815f875af1158015610649573d5f5f3e3d5ffd5b505050506040513d601f19601f8201168201806040525081019061066d91906111ef565b6106ac576040517f08c379a00000000000000000000000000000000000000000000000000000000081526004016106a39061148c565b60405180910390fd5b8a73ffffffffffffffffffffffffffffffffffffffff163373ffffffffffffffffffffffffffffffffffffffff167fdd36740e2a012d93061a0d99eaa9107860955de4e90027d3cf465a055026c4078c8b60405161070b9291906114aa565b60405180910390a3505050505050509392505050565b5f5f5f9054906101000a900473ffffffffffffffffffffffffffffffffffffffff1673ffffffffffffffffffffffffffffffffffffffff168373ffffffffffffffffffffffffffffffffffffffff1614806107c8575060015f9054906101000a900473ffffffffffffffffffffffffffffffffffffffff1673ffffffffffffffffffffffffffffffffffffffff168373ffffffffffffffffffffffffffffffffffffffff16145b610807576040517f08c379a00000000000000000000000000000000000000000000000000000000081526004016107fe9061151b565b60405180910390fd5b5f5f5f9054906101000a900473ffffffffffffffffffffffffffffffffffffffff1673ffffffffffffffffffffffffffffffffffffffff168473ffffffffffffffffffffffffffffffffffffffff161490505f5f8261086b57600354600254610872565b6002546003545b915091505f6103e58661088591906112af565b90505f828261089491906112af565b90505f826103e8866108a691906112af565b6108b091906112f0565b905080826108be9190611350565b965050505050505092915050565b5f5f5f9054906101000a900473ffffffffffffffffffffffffffffffffffffffff1673ffffffffffffffffffffffffffffffffffffffff168573ffffffffffffffffffffffffffffffffffffffff16148015610974575060015f9054906101000a900473ffffffffffffffffffffffffffffffffffffffff1673ffffffffffffffffffffffffffffffffffffffff168473ffffffffffffffffffffffffffffffffffffffff16145b80610a22575060015f9054906101000a900473ffffffffffffffffffffffffffffffffffffffff1673ffffffffffffffffffffffffffffffffffffffff168573ffffffffffffffffffffffffffffffffffffffff16148015610a2157505f5f9054906101000a900473ffffffffffffffffffffffffffffffffffffffff1673ffffffffffffffffffffffffffffffffffffffff168473ffffffffffffffffffffffffffffffffffffffff16145b5b610a61576040517f08c379a0000000000000000000000000000000000000000000000000000000008152600401610a5890611583565b60405180910390fd5b5f5f5f9054906101000a900473ffffffffffffffffffffffffffffffffffffffff1673ffffffffffffffffffffffffffffffffffffffff168673ffffffffffffffffffffffffffffffffffffffff1614610abb5782610abd565b835b90505f5f5f9054906101000a900473ffffffffffffffffffffffffffffffffffffffff1673ffffffffffffffffffffffffffffffffffffffff168773ffffffffffffffffffffffffffffffffffffffff1614610b195784610b1b565b835b90505f5f9054906101000a900473ffffffffffffffffffffffffffffffffffffffff1673ffffffffffffffffffffffffffffffffffffffff166323b872dd3330856040518463ffffffff1660e01b8152600401610b7a93929190611185565b6020604051808303815f875af1158015610b96573d5f5f3e3d5ffd5b505050506040513d601f19601f82011682018060405250810190610bba91906111ef565b610bf9576040517f08c379a0000000000000000000000000000000000000000000000000000000008152600401610bf0906115eb565b60405180910390fd5b60015f9054906101000a900473ffffffffffffffffffffffffffffffffffffffff1673ffffffffffffffffffffffffffffffffffffffff166323b872dd3330846040518463ffffffff1660e01b8152600401610c5793929190611185565b6020604051808303815f875af1158015610c73573d5f5f3e3d5ffd5b505050506040513d601f19601f82011682018060405250810190610c9791906111ef565b610cd6576040517f08c379a0000000000000000000000000000000000000000000000000000000008152600401610ccd90611653565b60405180910390fd5b5f60045403610cf2578082610ceb91906112f0565b9250610d42565b5f60025460045484610d0491906112af565b610d0e9190611350565b90505f60035460045484610d2291906112af565b610d2c9190611350565b9050808210610d3b5780610d3d565b815b945050505b5f8311610d84576040517f08c379a0000000000000000000000000000000000000000000000000000000008152600401610d7b906116bb565b60405180910390fd5b8260055f3373ffffffffffffffffffffffffffffffffffffffff1673ffffffffffffffffffffffffffffffffffffffff1681526020019081526020015f205f828254610dd091906112f0565b925050819055508260045f828254610de891906112f0565b925050819055508160025f828254610e0091906112f0565b925050819055508060035f828254610e1891906112f0565b925050819055503373ffffffffffffffffffffffffffffffffffffffff167f64b83944e79c3ce8d4c297411de637c3e102d064677aac0c163976ebdcd6f50e838386604051610e69939291906116d9565b60405180910390a25050949350505050565b60025481565b5f73ffffffffffffffffffffffffffffffffffffffff82169050919050565b5f610eaa82610e81565b9050919050565b610eba81610ea0565b82525050565b5f602082019050610ed35f830184610eb1565b92915050565b5f819050919050565b610eeb81610ed9565b82525050565b5f602082019050610f045f830184610ee2565b92915050565b5f5ffd5b610f1781610ea0565b8114610f21575f5ffd5b50565b5f81359050610f3281610f0e565b92915050565b5f60208284031215610f4d57610f4c610f0a565b5b5f610f5a84828501610f24565b91505092915050565b610f6c81610ed9565b8114610f76575f5ffd5b50565b5f81359050610f8781610f63565b92915050565b5f5f5f60608486031215610fa457610fa3610f0a565b5b5f610fb186828701610f24565b9350506020610fc286828701610f79565b9250506040610fd386828701610f79565b9150509250925092565b5f5f60408385031215610ff357610ff2610f0a565b5b5f61100085828601610f24565b925050602061101185828601610f79565b9150509250929050565b5f5f5f5f6080858703121561103357611032610f0a565b5b5f61104087828801610f24565b945050602061105187828801610f24565b935050604061106287828801610f79565b925050606061107387828801610f79565b91505092959194509250565b5f82825260208201905092915050565b7f496e76616c696420746f6b656e20666f72207468697320706f6f6c00000000005f82015250565b5f6110c3601b8361107f565b91506110ce8261108f565b602082019050919050565b5f6020820190508181035f8301526110f0816110b7565b9050919050565b7f496e70757420616d6f756e74206d7573742062652067726561746572207468615f8201527f6e207a65726f0000000000000000000000000000000000000000000000000000602082015250565b5f61115160268361107f565b915061115c826110f7565b604082019050919050565b5f6020820190508181035f83015261117e81611145565b9050919050565b5f6060820190506111985f830186610eb1565b6111a56020830185610eb1565b6111b26040830184610ee2565b949350505050565b5f8115159050919050565b6111ce816111ba565b81146111d8575f5ffd5b50565b5f815190506111e9816111c5565b92915050565b5f6020828403121561120457611203610f0a565b5b5f611211848285016111db565b91505092915050565b7f5472616e73666572206f6620696e70757420746f6b656e206661696c656400005f82015250565b5f61124e601e8361107f565b91506112598261121a565b602082019050919050565b5f6020820190508181035f83015261127b81611242565b9050919050565b7f4e487b71000000000000000000000000000000000000000000000000000000005f52601160045260245ffd5b5f6112b982610ed9565b91506112c483610ed9565b92508282026112d281610ed9565b915082820484148315176112e9576112e8611282565b5b5092915050565b5f6112fa82610ed9565b915061130583610ed9565b925082820190508082111561131d5761131c611282565b5b92915050565b7f4e487b71000000000000000000000000000000000000000000000000000000005f52601260045260245ffd5b5f61135a82610ed9565b915061136583610ed9565b92508261137557611374611323565b5b828204905092915050565b7f536c697070616765206c696d69742065786365656465640000000000000000005f82015250565b5f6113b460178361107f565b91506113bf82611380565b602082019050919050565b5f6020820190508181035f8301526113e1816113a8565b9050919050565b5f6113f282610ed9565b91506113fd83610ed9565b925082820390508181111561141557611414611282565b5b92915050565b5f60408201905061142e5f830185610eb1565b61143b6020830184610ee2565b9392505050565b7f5472616e73666572206f66206f757470757420746f6b656e206661696c6564005f82015250565b5f611476601f8361107f565b915061148182611442565b602082019050919050565b5f6020820190508181035f8301526114a38161146a565b9050919050565b5f6040820190506114bd5f830185610ee2565b6114ca6020830184610ee2565b9392505050565b7f496e76616c696420746f6b656e000000000000000000000000000000000000005f82015250565b5f611505600d8361107f565b9150611510826114d1565b602082019050919050565b5f6020820190508181035f830152611532816114f9565b9050919050565b7f546f6b656e7320646f206e6f74206d6174636820706f6f6c20706169720000005f82015250565b5f61156d601d8361107f565b915061157882611539565b602082019050919050565b5f6020820190508181035f83015261159a81611561565b9050919050565b7f5472616e73666572206f6620746f6b656e41206661696c6564000000000000005f82015250565b5f6115d560198361107f565b91506115e0826115a1565b602082019050919050565b5f6020820190508181035f830152611602816115c9565b9050919050565b7f5472616e73666572206f6620746f6b656e42206661696c6564000000000000005f82015250565b5f61163d60198361107f565b915061164882611609565b602082019050919050565b5f6020820190508181035f83015261166a81611631565b9050919050565b7f5368617265732063616e6e6f74206265207a65726f00000000000000000000005f82015250565b5f6116a560158361107f565b91506116b082611671565b602082019050919050565b5f6020820190508181035f8301526116d281611699565b9050919050565b5f6060820190506116ec5f830186610ee2565b6116f96020830185610ee2565b6117066040830184610ee2565b94935050505056fea26469706673582212205d23fbe7fa2ffe07d322f1ea7c69269f04f34493ac4e81a3c7047f5ba40fe23a64736f6c634300081e0033",
					"opcodes": "PUSH1 0x80 PUSH1 0x40 MSTORE CALLVALUE DUP1 ISZERO PUSH2 0xF JUMPI PUSH0 PUSH0 REVERT JUMPDEST POP PUSH1 0x40 MLOAD PUSH2 0x1A99 CODESIZE SUB DUP1 PUSH2 0x1A99 DUP4 CODECOPY DUP2 DUP2 ADD PUSH1 0x40 MSTORE DUP2 ADD SWAP1 PUSH2 0x31 SWAP2 SWAP1 PUSH2 0x22A JUMP JUMPDEST PUSH0 PUSH20 0xFFFFFFFFFFFFFFFFFFFFFFFFFFFFFFFFFFFFFFFF AND DUP3 PUSH20 0xFFFFFFFFFFFFFFFFFFFFFFFFFFFFFFFFFFFFFFFF AND EQ ISZERO DUP1 ISZERO PUSH2 0x99 JUMPI POP PUSH0 PUSH20 0xFFFFFFFFFFFFFFFFFFFFFFFFFFFFFFFFFFFFFFFF AND DUP2 PUSH20 0xFFFFFFFFFFFFFFFFFFFFFFFFFFFFFFFFFFFFFFFF AND EQ ISZERO JUMPDEST PUSH2 0xD8 JUMPI PUSH1 0x40 MLOAD PUSH32 0x8C379A000000000000000000000000000000000000000000000000000000000 DUP2 MSTORE PUSH1 0x4 ADD PUSH2 0xCF SWAP1 PUSH2 0x2C2 JUMP JUMPDEST PUSH1 0x40 MLOAD DUP1 SWAP2 SUB SWAP1 REVERT JUMPDEST DUP1 PUSH20 0xFFFFFFFFFFFFFFFFFFFFFFFFFFFFFFFFFFFFFFFF AND DUP3 PUSH20 0xFFFFFFFFFFFFFFFFFFFFFFFFFFFFFFFFFFFFFFFF AND SUB PUSH2 0x146 JUMPI PUSH1 0x40 MLOAD PUSH32 0x8C379A000000000000000000000000000000000000000000000000000000000 DUP2 MSTORE PUSH1 0x4 ADD PUSH2 0x13D SWAP1 PUSH2 0x32A JUMP JUMPDEST PUSH1 0x40 MLOAD DUP1 SWAP2 SUB SWAP1 REVERT JUMPDEST DUP2 PUSH0 PUSH0 PUSH2 0x100 EXP DUP2 SLOAD DUP2 PUSH20 0xFFFFFFFFFFFFFFFFFFFFFFFFFFFFFFFFFFFFFFFF MUL NOT AND SWAP1 DUP4 PUSH20 0xFFFFFFFFFFFFFFFFFFFFFFFFFFFFFFFFFFFFFFFF AND MUL OR SWAP1 SSTORE POP DUP1 PUSH1 0x1 PUSH0 PUSH2 0x100 EXP DUP2 SLOAD DUP2 PUSH20 0xFFFFFFFFFFFFFFFFFFFFFFFFFFFFFFFFFFFFFFFF MUL NOT AND SWAP1 DUP4 PUSH20 0xFFFFFFFFFFFFFFFFFFFFFFFFFFFFFFFFFFFFFFFF AND MUL OR SWAP1 SSTORE POP POP POP PUSH2 0x348 JUMP JUMPDEST PUSH0 PUSH0 REVERT JUMPDEST PUSH0 PUSH20 0xFFFFFFFFFFFFFFFFFFFFFFFFFFFFFFFFFFFFFFFF DUP3 AND SWAP1 POP SWAP2 SWAP1 POP JUMP JUMPDEST PUSH0 PUSH2 0x1F9 DUP3 PUSH2 0x1D0 JUMP JUMPDEST SWAP1 POP SWAP2 SWAP1 POP JUMP JUMPDEST PUSH2 0x209 DUP2 PUSH2 0x1EF JUMP JUMPDEST DUP2 EQ PUSH2 0x213 JUMPI PUSH0 PUSH0 REVERT JUMPDEST POP JUMP JUMPDEST PUSH0 DUP2 MLOAD SWAP1 POP PUSH2 0x224 DUP2 PUSH2 0x200 JUMP JUMPDEST SWAP3 SWAP2 POP POP JUMP JUMPDEST PUSH0 PUSH0 PUSH1 0x40 DUP4 DUP6 SUB SLT ISZERO PUSH2 0x240 JUMPI PUSH2 0x23F PUSH2 0x1CC JUMP JUMPDEST JUMPDEST PUSH0 PUSH2 0x24D DUP6 DUP3 DUP7 ADD PUSH2 0x216 JUMP JUMPDEST SWAP3 POP POP PUSH1 0x20 PUSH2 0x25E DUP6 DUP3 DUP7 ADD PUSH2 0x216 JUMP JUMPDEST SWAP2 POP POP SWAP3 POP SWAP3 SWAP1 POP JUMP JUMPDEST PUSH0 DUP3 DUP3 MSTORE PUSH1 0x20 DUP3 ADD SWAP1 POP SWAP3 SWAP2 POP POP JUMP JUMPDEST PUSH32 0x496E76616C696420746F6B656E20616464726573736573000000000000000000 PUSH0 DUP3 ADD MSTORE POP JUMP JUMPDEST PUSH0 PUSH2 0x2AC PUSH1 0x17 DUP4 PUSH2 0x268 JUMP JUMPDEST SWAP2 POP PUSH2 0x2B7 DUP3 PUSH2 0x278 JUMP JUMPDEST PUSH1 0x20 DUP3 ADD SWAP1 POP SWAP2 SWAP1 POP JUMP JUMPDEST PUSH0 PUSH1 0x20 DUP3 ADD SWAP1 POP DUP2 DUP2 SUB PUSH0 DUP4 ADD MSTORE PUSH2 0x2D9 DUP2 PUSH2 0x2A0 JUMP JUMPDEST SWAP1 POP SWAP2 SWAP1 POP JUMP JUMPDEST PUSH32 0x546F6B656E73206D75737420626520646966666572656E740000000000000000 PUSH0 DUP3 ADD MSTORE POP JUMP JUMPDEST PUSH0 PUSH2 0x314 PUSH1 0x18 DUP4 PUSH2 0x268 JUMP JUMPDEST SWAP2 POP PUSH2 0x31F DUP3 PUSH2 0x2E0 JUMP JUMPDEST PUSH1 0x20 DUP3 ADD SWAP1 POP SWAP2 SWAP1 POP JUMP JUMPDEST PUSH0 PUSH1 0x20 DUP3 ADD SWAP1 POP DUP2 DUP2 SUB PUSH0 DUP4 ADD MSTORE PUSH2 0x341 DUP2 PUSH2 0x308 JUMP JUMPDEST SWAP1 POP SWAP2 SWAP1 POP JUMP JUMPDEST PUSH2 0x1744 DUP1 PUSH2 0x355 PUSH0 CODECOPY PUSH0 RETURN INVALID PUSH1 0x80 PUSH1 0x40 MSTORE CALLVALUE DUP1 ISZERO PUSH2 0xF JUMPI PUSH0 PUSH0 REVERT JUMPDEST POP PUSH1 0x4 CALLDATASIZE LT PUSH2 0x91 JUMPI PUSH0 CALLDATALOAD PUSH1 0xE0 SHR DUP1 PUSH4 0x5F64B55B GT PUSH2 0x64 JUMPI DUP1 PUSH4 0x5F64B55B EQ PUSH2 0x11F JUMPI DUP1 PUSH4 0x9F1D0F59 EQ PUSH2 0x13D JUMPI DUP1 PUSH4 0xCA706BCF EQ PUSH2 0x16D JUMPI DUP1 PUSH4 0xCF6C62EA EQ PUSH2 0x19D JUMPI DUP1 PUSH4 0xDC5FA6C5 EQ PUSH2 0x1CD JUMPI PUSH2 0x91 JUMP JUMPDEST DUP1 PUSH4 0xFC63D10 EQ PUSH2 0x95 JUMPI DUP1 PUSH4 0x15770F92 EQ PUSH2 0xB3 JUMPI DUP1 PUSH4 0x19E36F3B EQ PUSH2 0xD1 JUMPI DUP1 PUSH4 0x3C4750DF EQ PUSH2 0xEF JUMPI JUMPDEST PUSH0 PUSH0 REVERT JUMPDEST PUSH2 0x9D PUSH2 0x1EB JUMP JUMPDEST PUSH1 0x40 MLOAD PUSH2 0xAA SWAP2 SWAP1 PUSH2 0xEC0 JUMP JUMPDEST PUSH1 0x40 MLOAD DUP1 SWAP2 SUB SWAP1 RETURN JUMPDEST PUSH2 0xBB PUSH2 0x20F JUMP JUMPDEST PUSH1 0x40 MLOAD PUSH2 0xC8 SWAP2 SWAP1 PUSH2 0xEF1 JUMP JUMPDEST PUSH1 0x40 MLOAD DUP1 SWAP2 SUB SWAP1 RETURN JUMPDEST PUSH2 0xD9 PUSH2 0x215 JUMP JUMPDEST PUSH1 0x40 MLOAD PUSH2 0xE6 SWAP2 SWAP1 PUSH2 0xEF1 JUMP JUMPDEST PUSH1 0x40 MLOAD DUP1 SWAP2 SUB SWAP1 RETURN JUMPDEST PUSH2 0x109 PUSH1 0x4 DUP1 CALLDATASIZE SUB DUP2 ADD SWAP1 PUSH2 0x104 SWAP2 SWAP1 PUSH2 0xF38 JUMP JUMPDEST PUSH2 0x21B JUMP JUMPDEST PUSH1 0x40 MLOAD PUSH2 0x116 SWAP2 SWAP1 PUSH2 0xEF1 JUMP JUMPDEST PUSH1 0x40 MLOAD DUP1 SWAP2 SUB SWAP1 RETURN JUMPDEST PUSH2 0x127 PUSH2 0x230 JUMP JUMPDEST PUSH1 0x40 MLOAD PUSH2 0x134 SWAP2 SWAP1 PUSH2 0xEC0 JUMP JUMPDEST PUSH1 0x40 MLOAD DUP1 SWAP2 SUB SWAP1 RETURN JUMPDEST PUSH2 0x157 PUSH1 0x4 DUP1 CALLDATASIZE SUB DUP2 ADD SWAP1 PUSH2 0x152 SWAP2 SWAP1 PUSH2 0xF8D JUMP JUMPDEST PUSH2 0x255 JUMP JUMPDEST PUSH1 0x40 MLOAD PUSH2 0x164 SWAP2 SWAP1 PUSH2 0xEF1 JUMP JUMPDEST PUSH1 0x40 MLOAD DUP1 SWAP2 SUB SWAP1 RETURN JUMPDEST PUSH2 0x187 PUSH1 0x4 DUP1 CALLDATASIZE SUB DUP2 ADD SWAP1 PUSH2 0x182 SWAP2 SWAP1 PUSH2 0xFDD JUMP JUMPDEST PUSH2 0x721 JUMP JUMPDEST PUSH1 0x40 MLOAD PUSH2 0x194 SWAP2 SWAP1 PUSH2 0xEF1 JUMP JUMPDEST PUSH1 0x40 MLOAD DUP1 SWAP2 SUB SWAP1 RETURN JUMPDEST PUSH2 0x1B7 PUSH1 0x4 DUP1 CALLDATASIZE SUB DUP2 ADD SWAP1 PUSH2 0x1B2 SWAP2 SWAP1 PUSH2 0x101B JUMP JUMPDEST PUSH2 0x8CC JUMP JUMPDEST PUSH1 0x40 MLOAD PUSH2 0x1C4 SWAP2 SWAP1 PUSH2 0xEF1 JUMP JUMPDEST PUSH1 0x40 MLOAD DUP1 SWAP2 SUB SWAP1 RETURN JUMPDEST PUSH2 0x1D5 PUSH2 0xE7B JUMP JUMPDEST PUSH1 0x40 MLOAD PUSH2 0x1E2 SWAP2 SWAP1 PUSH2 0xEF1 JUMP JUMPDEST PUSH1 0x40 MLOAD DUP1 SWAP2 SUB SWAP1 RETURN JUMPDEST PUSH0 PUSH0 SWAP1 SLOAD SWAP1 PUSH2 0x100 EXP SWAP1 DIV PUSH20 0xFFFFFFFFFFFFFFFFFFFFFFFFFFFFFFFFFFFFFFFF AND DUP2 JUMP JUMPDEST PUSH1 0x4 SLOAD DUP2 JUMP JUMPDEST PUSH1 0x3 SLOAD DUP2 JUMP JUMPDEST PUSH1 0x5 PUSH1 0x20 MSTORE DUP1 PUSH0 MSTORE PUSH1 0x40 PUSH0 KECCAK256 PUSH0 SWAP2 POP SWAP1 POP SLOAD DUP2 JUMP JUMPDEST PUSH1 0x1 PUSH0 SWAP1 SLOAD SWAP1 PUSH2 0x100 EXP SWAP1 DIV PUSH20 0xFFFFFFFFFFFFFFFFFFFFFFFFFFFFFFFFFFFFFFFF AND DUP2 JUMP JUMPDEST PUSH0 PUSH0 PUSH0 SWAP1 SLOAD SWAP1 PUSH2 0x100 EXP SWAP1 DIV PUSH20 0xFFFFFFFFFFFFFFFFFFFFFFFFFFFFFFFFFFFFFFFF AND PUSH20 0xFFFFFFFFFFFFFFFFFFFFFFFFFFFFFFFFFFFFFFFF AND DUP5 PUSH20 0xFFFFFFFFFFFFFFFFFFFFFFFFFFFFFFFFFFFFFFFF AND EQ DUP1 PUSH2 0x2FC JUMPI POP PUSH1 0x1 PUSH0 SWAP1 SLOAD SWAP1 PUSH2 0x100 EXP SWAP1 DIV PUSH20 0xFFFFFFFFFFFFFFFFFFFFFFFFFFFFFFFFFFFFFFFF AND PUSH20 0xFFFFFFFFFFFFFFFFFFFFFFFFFFFFFFFFFFFFFFFF AND DUP5 PUSH20 0xFFFFFFFFFFFFFFFFFFFFFFFFFFFFFFFFFFFFFFFF AND EQ JUMPDEST PUSH2 0x33B JUMPI PUSH1 0x40 MLOAD PUSH32 0x8C379A000000000000000000000000000000000000000000000000000000000 DUP2 MSTORE PUSH1 0x4 ADD PUSH2 0x332 SWAP1 PUSH2 0x10D9 JUMP JUMPDEST PUSH1 0x40 MLOAD DUP1 SWAP2 SUB SWAP1 REVERT JUMPDEST PUSH0 DUP4 GT PUSH2 0x37D JUMPI PUSH1 0x40 MLOAD PUSH32 0x8C379A000000000000000000000000000000000000000000000000000000000 DUP2 MSTORE PUSH1 0x4 ADD PUSH2 0x374 SWAP1 PUSH2 0x1167 JUMP JUMPDEST PUSH1 0x40 MLOAD DUP1 SWAP2 SUB SWAP1 REVERT JUMPDEST PUSH0 PUSH0 PUSH0 SWAP1 SLOAD SWAP1 PUSH2 0x100 EXP SWAP1 DIV PUSH20 0xFFFFFFFFFFFFFFFFFFFFFFFFFFFFFFFFFFFFFFFF AND PUSH20 0xFFFFFFFFFFFFFFFFFFFFFFFFFFFFFFFFFFFFFFFF AND DUP6 PUSH20 0xFFFFFFFFFFFFFFFFFFFFFFFFFFFFFFFFFFFFFFFF AND EQ SWAP1 POP PUSH0 PUSH0 DUP3 PUSH2 0x3E1 JUMPI PUSH1 0x3 SLOAD PUSH1 0x2 SLOAD PUSH2 0x3E8 JUMP JUMPDEST PUSH1 0x2 SLOAD PUSH1 0x3 SLOAD JUMPDEST SWAP2 POP SWAP2 POP PUSH0 DUP4 PUSH2 0x418 JUMPI PUSH0 PUSH0 SWAP1 SLOAD SWAP1 PUSH2 0x100 EXP SWAP1 DIV PUSH20 0xFFFFFFFFFFFFFFFFFFFFFFFFFFFFFFFFFFFFFFFF AND PUSH2 0x43B JUMP JUMPDEST PUSH1 0x1 PUSH0 SWAP1 SLOAD SWAP1 PUSH2 0x100 EXP SWAP1 DIV PUSH20 0xFFFFFFFFFFFFFFFFFFFFFFFFFFFFFFFFFFFFFFFF AND JUMPDEST SWAP1 POP DUP8 PUSH20 0xFFFFFFFFFFFFFFFFFFFFFFFFFFFFFFFFFFFFFFFF AND PUSH4 0x23B872DD CALLER ADDRESS DUP11 PUSH1 0x40 MLOAD DUP5 PUSH4 0xFFFFFFFF AND PUSH1 0xE0 SHL DUP2 MSTORE PUSH1 0x4 ADD PUSH2 0x47A SWAP4 SWAP3 SWAP2 SWAP1 PUSH2 0x1185 JUMP JUMPDEST PUSH1 0x20 PUSH1 0x40 MLOAD DUP1 DUP4 SUB DUP2 PUSH0 DUP8 GAS CALL ISZERO DUP1 ISZERO PUSH2 0x496 JUMPI RETURNDATASIZE PUSH0 PUSH0 RETURNDATACOPY RETURNDATASIZE PUSH0 REVERT JUMPDEST POP POP POP POP PUSH1 0x40 MLOAD RETURNDATASIZE PUSH1 0x1F NOT PUSH1 0x1F DUP3 ADD AND DUP3 ADD DUP1 PUSH1 0x40 MSTORE POP DUP2 ADD SWAP1 PUSH2 0x4BA SWAP2 SWAP1 PUSH2 0x11EF JUMP JUMPDEST PUSH2 0x4F9 JUMPI PUSH1 0x40 MLOAD PUSH32 0x8C379A000000000000000000000000000000000000000000000000000000000 DUP2 MSTORE PUSH1 0x4 ADD PUSH2 0x4F0 SWAP1 PUSH2 0x1264 JUMP JUMPDEST PUSH1 0x40 MLOAD DUP1 SWAP2 SUB SWAP1 REVERT JUMPDEST PUSH0 PUSH2 0x3E5 DUP9 PUSH2 0x508 SWAP2 SWAP1 PUSH2 0x12AF JUMP JUMPDEST SWAP1 POP PUSH0 DUP4 DUP3 PUSH2 0x517 SWAP2 SWAP1 PUSH2 0x12AF JUMP JUMPDEST SWAP1 POP PUSH0 DUP3 PUSH2 0x3E8 DUP8 PUSH2 0x529 SWAP2 SWAP1 PUSH2 0x12AF JUMP JUMPDEST PUSH2 0x533 SWAP2 SWAP1 PUSH2 0x12F0 JUMP JUMPDEST SWAP1 POP DUP1 DUP3 PUSH2 0x541 SWAP2 SWAP1 PUSH2 0x1350 JUMP JUMPDEST SWAP8 POP DUP9 DUP9 LT ISZERO PUSH2 0x586 JUMPI PUSH1 0x40 MLOAD PUSH32 0x8C379A000000000000000000000000000000000000000000000000000000000 DUP2 MSTORE PUSH1 0x4 ADD PUSH2 0x57D SWAP1 PUSH2 0x13CA JUMP JUMPDEST PUSH1 0x40 MLOAD DUP1 SWAP2 SUB SWAP1 REVERT JUMPDEST DUP7 ISZERO PUSH2 0x5C1 JUMPI DUP10 PUSH1 0x2 PUSH0 DUP3 DUP3 SLOAD PUSH2 0x59D SWAP2 SWAP1 PUSH2 0x12F0 JUMP JUMPDEST SWAP3 POP POP DUP2 SWAP1 SSTORE POP DUP8 PUSH1 0x3 PUSH0 DUP3 DUP3 SLOAD PUSH2 0x5B5 SWAP2 SWAP1 PUSH2 0x13E8 JUMP JUMPDEST SWAP3 POP POP DUP2 SWAP1 SSTORE POP PUSH2 0x5F2 JUMP JUMPDEST DUP10 PUSH1 0x3 PUSH0 DUP3 DUP3 SLOAD PUSH2 0x5D2 SWAP2 SWAP1 PUSH2 0x12F0 JUMP JUMPDEST SWAP3 POP POP DUP2 SWAP1 SSTORE POP DUP8 PUSH1 0x2 PUSH0 DUP3 DUP3 SLOAD PUSH2 0x5EA SWAP2 SWAP1 PUSH2 0x13E8 JUMP JUMPDEST SWAP3 POP POP DUP2 SWAP1 SSTORE POP JUMPDEST DUP4 PUSH20 0xFFFFFFFFFFFFFFFFFFFFFFFFFFFFFFFFFFFFFFFF AND PUSH4 0xA9059CBB CALLER DUP11 PUSH1 0x40 MLOAD DUP4 PUSH4 0xFFFFFFFF AND PUSH1 0xE0 SHL DUP2 MSTORE PUSH1 0x4 ADD PUSH2 0x62D SWAP3 SWAP2 SWAP1 PUSH2 0x141B JUMP JUMPDEST PUSH1 0x20 PUSH1 0x40 MLOAD DUP1 DUP4 SUB DUP2 PUSH0 DUP8 GAS CALL ISZERO DUP1 ISZERO PUSH2 0x649 JUMPI RETURNDATASIZE PUSH0 PUSH0 RETURNDATACOPY RETURNDATASIZE PUSH0 REVERT JUMPDEST POP POP POP POP PUSH1 0x40 MLOAD RETURNDATASIZE PUSH1 0x1F NOT PUSH1 0x1F DUP3 ADD AND DUP3 ADD DUP1 PUSH1 0x40 MSTORE POP DUP2 ADD SWAP1 PUSH2 0x66D SWAP2 SWAP1 PUSH2 0x11EF JUMP JUMPDEST PUSH2 0x6AC JUMPI PUSH1 0x40 MLOAD PUSH32 0x8C379A000000000000000000000000000000000000000000000000000000000 DUP2 MSTORE PUSH1 0x4 ADD PUSH2 0x6A3 SWAP1 PUSH2 0x148C JUMP JUMPDEST PUSH1 0x40 MLOAD DUP1 SWAP2 SUB SWAP1 REVERT JUMPDEST DUP11 PUSH20 0xFFFFFFFFFFFFFFFFFFFFFFFFFFFFFFFFFFFFFFFF AND CALLER PUSH20 0xFFFFFFFFFFFFFFFFFFFFFFFFFFFFFFFFFFFFFFFF AND PUSH32 0xDD36740E2A012D93061A0D99EAA9107860955DE4E90027D3CF465A055026C407 DUP13 DUP12 PUSH1 0x40 MLOAD PUSH2 0x70B SWAP3 SWAP2 SWAP1 PUSH2 0x14AA JUMP JUMPDEST PUSH1 0x40 MLOAD DUP1 SWAP2 SUB SWAP1 LOG3 POP POP POP POP POP POP POP SWAP4 SWAP3 POP POP POP JUMP JUMPDEST PUSH0 PUSH0 PUSH0 SWAP1 SLOAD SWAP1 PUSH2 0x100 EXP SWAP1 DIV PUSH20 0xFFFFFFFFFFFFFFFFFFFFFFFFFFFFFFFFFFFFFFFF AND PUSH20 0xFFFFFFFFFFFFFFFFFFFFFFFFFFFFFFFFFFFFFFFF AND DUP4 PUSH20 0xFFFFFFFFFFFFFFFFFFFFFFFFFFFFFFFFFFFFFFFF AND EQ DUP1 PUSH2 0x7C8 JUMPI POP PUSH1 0x1 PUSH0 SWAP1 SLOAD SWAP1 PUSH2 0x100 EXP SWAP1 DIV PUSH20 0xFFFFFFFFFFFFFFFFFFFFFFFFFFFFFFFFFFFFFFFF AND PUSH20 0xFFFFFFFFFFFFFFFFFFFFFFFFFFFFFFFFFFFFFFFF AND DUP4 PUSH20 0xFFFFFFFFFFFFFFFFFFFFFFFFFFFFFFFFFFFFFFFF AND EQ JUMPDEST PUSH2 0x807 JUMPI PUSH1 0x40 MLOAD PUSH32 0x8C379A000000000000000000000000000000000000000000000000000000000 DUP2 MSTORE PUSH1 0x4 ADD PUSH2 0x7FE SWAP1 PUSH2 0x151B JUMP JUMPDEST PUSH1 0x40 MLOAD DUP1 SWAP2 SUB SWAP1 REVERT JUMPDEST PUSH0 PUSH0 PUSH0 SWAP1 SLOAD SWAP1 PUSH2 0x100 EXP SWAP1 DIV PUSH20 0xFFFFFFFFFFFFFFFFFFFFFFFFFFFFFFFFFFFFFFFF AND PUSH20 0xFFFFFFFFFFFFFFFFFFFFFFFFFFFFFFFFFFFFFFFF AND DUP5 PUSH20 0xFFFFFFFFFFFFFFFFFFFFFFFFFFFFFFFFFFFFFFFF AND EQ SWAP1 POP PUSH0 PUSH0 DUP3 PUSH2 0x86B JUMPI PUSH1 0x3 SLOAD PUSH1 0x2 SLOAD PUSH2 0x872 JUMP JUMPDEST PUSH1 0x2 SLOAD PUSH1 0x3 SLOAD JUMPDEST SWAP2 POP SWAP2 POP PUSH0 PUSH2 0x3E5 DUP7 PUSH2 0x885 SWAP2 SWAP1 PUSH2 0x12AF JUMP JUMPDEST SWAP1 POP PUSH0 DUP3 DUP3 PUSH2 0x894 SWAP2 SWAP1 PUSH2 0x12AF JUMP JUMPDEST SWAP1 POP PUSH0 DUP3 PUSH2 0x3E8 DUP7 PUSH2 0x8A6 SWAP2 SWAP1 PUSH2 0x12AF JUMP JUMPDEST PUSH2 0x8B0 SWAP2 SWAP1 PUSH2 0x12F0 JUMP JUMPDEST SWAP1 POP DUP1 DUP3 PUSH2 0x8BE SWAP2 SWAP1 PUSH2 0x1350 JUMP JUMPDEST SWAP7 POP POP POP POP POP POP POP SWAP3 SWAP2 POP POP JUMP JUMPDEST PUSH0 PUSH0 PUSH0 SWAP1 SLOAD SWAP1 PUSH2 0x100 EXP SWAP1 DIV PUSH20 0xFFFFFFFFFFFFFFFFFFFFFFFFFFFFFFFFFFFFFFFF AND PUSH20 0xFFFFFFFFFFFFFFFFFFFFFFFFFFFFFFFFFFFFFFFF AND DUP6 PUSH20 0xFFFFFFFFFFFFFFFFFFFFFFFFFFFFFFFFFFFFFFFF AND EQ DUP1 ISZERO PUSH2 0x974 JUMPI POP PUSH1 0x1 PUSH0 SWAP1 SLOAD SWAP1 PUSH2 0x100 EXP SWAP1 DIV PUSH20 0xFFFFFFFFFFFFFFFFFFFFFFFFFFFFFFFFFFFFFFFF AND PUSH20 0xFFFFFFFFFFFFFFFFFFFFFFFFFFFFFFFFFFFFFFFF AND DUP5 PUSH20 0xFFFFFFFFFFFFFFFFFFFFFFFFFFFFFFFFFFFFFFFF AND EQ JUMPDEST DUP1 PUSH2 0xA22 JUMPI POP PUSH1 0x1 PUSH0 SWAP1 SLOAD SWAP1 PUSH2 0x100 EXP SWAP1 DIV PUSH20 0xFFFFFFFFFFFFFFFFFFFFFFFFFFFFFFFFFFFFFFFF AND PUSH20 0xFFFFFFFFFFFFFFFFFFFFFFFFFFFFFFFFFFFFFFFF AND DUP6 PUSH20 0xFFFFFFFFFFFFFFFFFFFFFFFFFFFFFFFFFFFFFFFF AND EQ DUP1 ISZERO PUSH2 0xA21 JUMPI POP PUSH0 PUSH0 SWAP1 SLOAD SWAP1 PUSH2 0x100 EXP SWAP1 DIV PUSH20 0xFFFFFFFFFFFFFFFFFFFFFFFFFFFFFFFFFFFFFFFF AND PUSH20 0xFFFFFFFFFFFFFFFFFFFFFFFFFFFFFFFFFFFFFFFF AND DUP5 PUSH20 0xFFFFFFFFFFFFFFFFFFFFFFFFFFFFFFFFFFFFFFFF AND EQ JUMPDEST JUMPDEST PUSH2 0xA61 JUMPI PUSH1 0x40 MLOAD PUSH32 0x8C379A000000000000000000000000000000000000000000000000000000000 DUP2 MSTORE PUSH1 0x4 ADD PUSH2 0xA58 SWAP1 PUSH2 0x1583 JUMP JUMPDEST PUSH1 0x40 MLOAD DUP1 SWAP2 SUB SWAP1 REVERT JUMPDEST PUSH0 PUSH0 PUSH0 SWAP1 SLOAD SWAP1 PUSH2 0x100 EXP SWAP1 DIV PUSH20 0xFFFFFFFFFFFFFFFFFFFFFFFFFFFFFFFFFFFFFFFF AND PUSH20 0xFFFFFFFFFFFFFFFFFFFFFFFFFFFFFFFFFFFFFFFF AND DUP7 PUSH20 0xFFFFFFFFFFFFFFFFFFFFFFFFFFFFFFFFFFFFFFFF AND EQ PUSH2 0xABB JUMPI DUP3 PUSH2 0xABD JUMP JUMPDEST DUP4 JUMPDEST SWAP1 POP PUSH0 PUSH0 PUSH0 SWAP1 SLOAD SWAP1 PUSH2 0x100 EXP SWAP1 DIV PUSH20 0xFFFFFFFFFFFFFFFFFFFFFFFFFFFFFFFFFFFFFFFF AND PUSH20 0xFFFFFFFFFFFFFFFFFFFFFFFFFFFFFFFFFFFFFFFF AND DUP8 PUSH20 0xFFFFFFFFFFFFFFFFFFFFFFFFFFFFFFFFFFFFFFFF AND EQ PUSH2 0xB19 JUMPI DUP5 PUSH2 0xB1B JUMP JUMPDEST DUP4 JUMPDEST SWAP1 POP PUSH0 PUSH0 SWAP1 SLOAD SWAP1 PUSH2 0x100 EXP SWAP1 DIV PUSH20 0xFFFFFFFFFFFFFFFFFFFFFFFFFFFFFFFFFFFFFFFF AND PUSH20 0xFFFFFFFFFFFFFFFFFFFFFFFFFFFFFFFFFFFFFFFF AND PUSH4 0x23B872DD CALLER ADDRESS DUP6 PUSH1 0x40 MLOAD DUP5 PUSH4 0xFFFFFFFF AND PUSH1 0xE0 SHL DUP2 MSTORE PUSH1 0x4 ADD PUSH2 0xB7A SWAP4 SWAP3 SWAP2 SWAP1 PUSH2 0x1185 JUMP JUMPDEST PUSH1 0x20 PUSH1 0x40 MLOAD DUP1 DUP4 SUB DUP2 PUSH0 DUP8 GAS CALL ISZERO DUP1 ISZERO PUSH2 0xB96 JUMPI RETURNDATASIZE PUSH0 PUSH0 RETURNDATACOPY RETURNDATASIZE PUSH0 REVERT JUMPDEST POP POP POP POP PUSH1 0x40 MLOAD RETURNDATASIZE PUSH1 0x1F NOT PUSH1 0x1F DUP3 ADD AND DUP3 ADD DUP1 PUSH1 0x40 MSTORE POP DUP2 ADD SWAP1 PUSH2 0xBBA SWAP2 SWAP1 PUSH2 0x11EF JUMP JUMPDEST PUSH2 0xBF9 JUMPI PUSH1 0x40 MLOAD PUSH32 0x8C379A000000000000000000000000000000000000000000000000000000000 DUP2 MSTORE PUSH1 0x4 ADD PUSH2 0xBF0 SWAP1 PUSH2 0x15EB JUMP JUMPDEST PUSH1 0x40 MLOAD DUP1 SWAP2 SUB SWAP1 REVERT JUMPDEST PUSH1 0x1 PUSH0 SWAP1 SLOAD SWAP1 PUSH2 0x100 EXP SWAP1 DIV PUSH20 0xFFFFFFFFFFFFFFFFFFFFFFFFFFFFFFFFFFFFFFFF AND PUSH20 0xFFFFFFFFFFFFFFFFFFFFFFFFFFFFFFFFFFFFFFFF AND PUSH4 0x23B872DD CALLER ADDRESS DUP5 PUSH1 0x40 MLOAD DUP5 PUSH4 0xFFFFFFFF AND PUSH1 0xE0 SHL DUP2 MSTORE PUSH1 0x4 ADD PUSH2 0xC57 SWAP4 SWAP3 SWAP2 SWAP1 PUSH2 0x1185 JUMP JUMPDEST PUSH1 0x20 PUSH1 0x40 MLOAD DUP1 DUP4 SUB DUP2 PUSH0 DUP8 GAS CALL ISZERO DUP1 ISZERO PUSH2 0xC73 JUMPI RETURNDATASIZE PUSH0 PUSH0 RETURNDATACOPY RETURNDATASIZE PUSH0 REVERT JUMPDEST POP POP POP POP PUSH1 0x40 MLOAD RETURNDATASIZE PUSH1 0x1F NOT PUSH1 0x1F DUP3 ADD AND DUP3 ADD DUP1 PUSH1 0x40 MSTORE POP DUP2 ADD SWAP1 PUSH2 0xC97 SWAP2 SWAP1 PUSH2 0x11EF JUMP JUMPDEST PUSH2 0xCD6 JUMPI PUSH1 0x40 MLOAD PUSH32 0x8C379A000000000000000000000000000000000000000000000000000000000 DUP2 MSTORE PUSH1 0x4 ADD PUSH2 0xCCD SWAP1 PUSH2 0x1653 JUMP JUMPDEST PUSH1 0x40 MLOAD DUP1 SWAP2 SUB SWAP1 REVERT JUMPDEST PUSH0 PUSH1 0x4 SLOAD SUB PUSH2 0xCF2 JUMPI DUP1 DUP3 PUSH2 0xCEB SWAP2 SWAP1 PUSH2 0x12F0 JUMP JUMPDEST SWAP3 POP PUSH2 0xD42 JUMP JUMPDEST PUSH0 PUSH1 0x2 SLOAD PUSH1 0x4 SLOAD DUP5 PUSH2 0xD04 SWAP2 SWAP1 PUSH2 0x12AF JUMP JUMPDEST PUSH2 0xD0E SWAP2 SWAP1 PUSH2 0x1350 JUMP JUMPDEST SWAP1 POP PUSH0 PUSH1 0x3 SLOAD PUSH1 0x4 SLOAD DUP5 PUSH2 0xD22 SWAP2 SWAP1 PUSH2 0x12AF JUMP JUMPDEST PUSH2 0xD2C SWAP2 SWAP1 PUSH2 0x1350 JUMP JUMPDEST SWAP1 POP DUP1 DUP3 LT PUSH2 0xD3B JUMPI DUP1 PUSH2 0xD3D JUMP JUMPDEST DUP2 JUMPDEST SWAP5 POP POP POP JUMPDEST PUSH0 DUP4 GT PUSH2 0xD84 JUMPI PUSH1 0x40 MLOAD PUSH32 0x8C379A000000000000000000000000000000000000000000000000000000000 DUP2 MSTORE PUSH1 0x4 ADD PUSH2 0xD7B SWAP1 PUSH2 0x16BB JUMP JUMPDEST PUSH1 0x40 MLOAD DUP1 SWAP2 SUB SWAP1 REVERT JUMPDEST DUP3 PUSH1 0x5 PUSH0 CALLER PUSH20 0xFFFFFFFFFFFFFFFFFFFFFFFFFFFFFFFFFFFFFFFF AND PUSH20 0xFFFFFFFFFFFFFFFFFFFFFFFFFFFFFFFFFFFFFFFF AND DUP2 MSTORE PUSH1 0x20 ADD SWAP1 DUP2 MSTORE PUSH1 0x20 ADD PUSH0 KECCAK256 PUSH0 DUP3 DUP3 SLOAD PUSH2 0xDD0 SWAP2 SWAP1 PUSH2 0x12F0 JUMP JUMPDEST SWAP3 POP POP DUP2 SWAP1 SSTORE POP DUP3 PUSH1 0x4 PUSH0 DUP3 DUP3 SLOAD PUSH2 0xDE8 SWAP2 SWAP1 PUSH2 0x12F0 JUMP JUMPDEST SWAP3 POP POP DUP2 SWAP1 SSTORE POP DUP2 PUSH1 0x2 PUSH0 DUP3 DUP3 SLOAD PUSH2 0xE00 SWAP2 SWAP1 PUSH2 0x12F0 JUMP JUMPDEST SWAP3 POP POP DUP2 SWAP1 SSTORE POP DUP1 PUSH1 0x3 PUSH0 DUP3 DUP3 SLOAD PUSH2 0xE18 SWAP2 SWAP1 PUSH2 0x12F0 JUMP JUMPDEST SWAP3 POP POP DUP2 SWAP1 SSTORE POP CALLER PUSH20 0xFFFFFFFFFFFFFFFFFFFFFFFFFFFFFFFFFFFFFFFF AND PUSH32 0x64B83944E79C3CE8D4C297411DE637C3E102D064677AAC0C163976EBDCD6F50E DUP4 DUP4 DUP7 PUSH1 0x40 MLOAD PUSH2 0xE69 SWAP4 SWAP3 SWAP2 SWAP1 PUSH2 0x16D9 JUMP JUMPDEST PUSH1 0x40 MLOAD DUP1 SWAP2 SUB SWAP1 LOG2 POP POP SWAP5 SWAP4 POP POP POP POP JUMP JUMPDEST PUSH1 0x2 SLOAD DUP2 JUMP JUMPDEST PUSH0 PUSH20 0xFFFFFFFFFFFFFFFFFFFFFFFFFFFFFFFFFFFFFFFF DUP3 AND SWAP1 POP SWAP2 SWAP1 POP JUMP JUMPDEST PUSH0 PUSH2 0xEAA DUP3 PUSH2 0xE81 JUMP JUMPDEST SWAP1 POP SWAP2 SWAP1 POP JUMP JUMPDEST PUSH2 0xEBA DUP2 PUSH2 0xEA0 JUMP JUMPDEST DUP3 MSTORE POP POP JUMP JUMPDEST PUSH0 PUSH1 0x20 DUP3 ADD SWAP1 POP PUSH2 0xED3 PUSH0 DUP4 ADD DUP5 PUSH2 0xEB1 JUMP JUMPDEST SWAP3 SWAP2 POP POP JUMP JUMPDEST PUSH0 DUP2 SWAP1 POP SWAP2 SWAP1 POP JUMP JUMPDEST PUSH2 0xEEB DUP2 PUSH2 0xED9 JUMP JUMPDEST DUP3 MSTORE POP POP JUMP JUMPDEST PUSH0 PUSH1 0x20 DUP3 ADD SWAP1 POP PUSH2 0xF04 PUSH0 DUP4 ADD DUP5 PUSH2 0xEE2 JUMP JUMPDEST SWAP3 SWAP2 POP POP JUMP JUMPDEST PUSH0 PUSH0 REVERT JUMPDEST PUSH2 0xF17 DUP2 PUSH2 0xEA0 JUMP JUMPDEST DUP2 EQ PUSH2 0xF21 JUMPI PUSH0 PUSH0 REVERT JUMPDEST POP JUMP JUMPDEST PUSH0 DUP2 CALLDATALOAD SWAP1 POP PUSH2 0xF32 DUP2 PUSH2 0xF0E JUMP JUMPDEST SWAP3 SWAP2 POP POP JUMP JUMPDEST PUSH0 PUSH1 0x20 DUP3 DUP5 SUB SLT ISZERO PUSH2 0xF4D JUMPI PUSH2 0xF4C PUSH2 0xF0A JUMP JUMPDEST JUMPDEST PUSH0 PUSH2 0xF5A DUP5 DUP3 DUP6 ADD PUSH2 0xF24 JUMP JUMPDEST SWAP2 POP POP SWAP3 SWAP2 POP POP JUMP JUMPDEST PUSH2 0xF6C DUP2 PUSH2 0xED9 JUMP JUMPDEST DUP2 EQ PUSH2 0xF76 JUMPI PUSH0 PUSH0 REVERT JUMPDEST POP JUMP JUMPDEST PUSH0 DUP2 CALLDATALOAD SWAP1 POP PUSH2 0xF87 DUP2 PUSH2 0xF63 JUMP JUMPDEST SWAP3 SWAP2 POP POP JUMP JUMPDEST PUSH0 PUSH0 PUSH0 PUSH1 0x60 DUP5 DUP7 SUB SLT ISZERO PUSH2 0xFA4 JUMPI PUSH2 0xFA3 PUSH2 0xF0A JUMP JUMPDEST JUMPDEST PUSH0 PUSH2 0xFB1 DUP7 DUP3 DUP8 ADD PUSH2 0xF24 JUMP JUMPDEST SWAP4 POP POP PUSH1 0x20 PUSH2 0xFC2 DUP7 DUP3 DUP8 ADD PUSH2 0xF79 JUMP JUMPDEST SWAP3 POP POP PUSH1 0x40 PUSH2 0xFD3 DUP7 DUP3 DUP8 ADD PUSH2 0xF79 JUMP JUMPDEST SWAP2 POP POP SWAP3 POP SWAP3 POP SWAP3 JUMP JUMPDEST PUSH0 PUSH0 PUSH1 0x40 DUP4 DUP6 SUB SLT ISZERO PUSH2 0xFF3 JUMPI PUSH2 0xFF2 PUSH2 0xF0A JUMP JUMPDEST JUMPDEST PUSH0 PUSH2 0x1000 DUP6 DUP3 DUP7 ADD PUSH2 0xF24 JUMP JUMPDEST SWAP3 POP POP PUSH1 0x20 PUSH2 0x1011 DUP6 DUP3 DUP7 ADD PUSH2 0xF79 JUMP JUMPDEST SWAP2 POP POP SWAP3 POP SWAP3 SWAP1 POP JUMP JUMPDEST PUSH0 PUSH0 PUSH0 PUSH0 PUSH1 0x80 DUP6 DUP8 SUB SLT ISZERO PUSH2 0x1033 JUMPI PUSH2 0x1032 PUSH2 0xF0A JUMP JUMPDEST JUMPDEST PUSH0 PUSH2 0x1040 DUP8 DUP3 DUP9 ADD PUSH2 0xF24 JUMP JUMPDEST SWAP5 POP POP PUSH1 0x20 PUSH2 0x1051 DUP8 DUP3 DUP9 ADD PUSH2 0xF24 JUMP JUMPDEST SWAP4 POP POP PUSH1 0x40 PUSH2 0x1062 DUP8 DUP3 DUP9 ADD PUSH2 0xF79 JUMP JUMPDEST SWAP3 POP POP PUSH1 0x60 PUSH2 0x1073 DUP8 DUP3 DUP9 ADD PUSH2 0xF79 JUMP JUMPDEST SWAP2 POP POP SWAP3 SWAP6 SWAP2 SWAP5 POP SWAP3 POP JUMP JUMPDEST PUSH0 DUP3 DUP3 MSTORE PUSH1 0x20 DUP3 ADD SWAP1 POP SWAP3 SWAP2 POP POP JUMP JUMPDEST PUSH32 0x496E76616C696420746F6B656E20666F72207468697320706F6F6C0000000000 PUSH0 DUP3 ADD MSTORE POP JUMP JUMPDEST PUSH0 PUSH2 0x10C3 PUSH1 0x1B DUP4 PUSH2 0x107F JUMP JUMPDEST SWAP2 POP PUSH2 0x10CE DUP3 PUSH2 0x108F JUMP JUMPDEST PUSH1 0x20 DUP3 ADD SWAP1 POP SWAP2 SWAP1 POP JUMP JUMPDEST PUSH0 PUSH1 0x20 DUP3 ADD SWAP1 POP DUP2 DUP2 SUB PUSH0 DUP4 ADD MSTORE PUSH2 0x10F0 DUP2 PUSH2 0x10B7 JUMP JUMPDEST SWAP1 POP SWAP2 SWAP1 POP JUMP JUMPDEST PUSH32 0x496E70757420616D6F756E74206D757374206265206772656174657220746861 PUSH0 DUP3 ADD MSTORE PUSH32 0x6E207A65726F0000000000000000000000000000000000000000000000000000 PUSH1 0x20 DUP3 ADD MSTORE POP JUMP JUMPDEST PUSH0 PUSH2 0x1151 PUSH1 0x26 DUP4 PUSH2 0x107F JUMP JUMPDEST SWAP2 POP PUSH2 0x115C DUP3 PUSH2 0x10F7 JUMP JUMPDEST PUSH1 0x40 DUP3 ADD SWAP1 POP SWAP2 SWAP1 POP JUMP JUMPDEST PUSH0 PUSH1 0x20 DUP3 ADD SWAP1 POP DUP2 DUP2 SUB PUSH0 DUP4 ADD MSTORE PUSH2 0x117E DUP2 PUSH2 0x1145 JUMP JUMPDEST SWAP1 POP SWAP2 SWAP1 POP JUMP JUMPDEST PUSH0 PUSH1 0x60 DUP3 ADD SWAP1 POP PUSH2 0x1198 PUSH0 DUP4 ADD DUP7 PUSH2 0xEB1 JUMP JUMPDEST PUSH2 0x11A5 PUSH1 0x20 DUP4 ADD DUP6 PUSH2 0xEB1 JUMP JUMPDEST PUSH2 0x11B2 PUSH1 0x40 DUP4 ADD DUP5 PUSH2 0xEE2 JUMP JUMPDEST SWAP5 SWAP4 POP POP POP POP JUMP JUMPDEST PUSH0 DUP2 ISZERO ISZERO SWAP1 POP SWAP2 SWAP1 POP JUMP JUMPDEST PUSH2 0x11CE DUP2 PUSH2 0x11BA JUMP JUMPDEST DUP2 EQ PUSH2 0x11D8 JUMPI PUSH0 PUSH0 REVERT JUMPDEST POP JUMP JUMPDEST PUSH0 DUP2 MLOAD SWAP1 POP PUSH2 0x11E9 DUP2 PUSH2 0x11C5 JUMP JUMPDEST SWAP3 SWAP2 POP POP JUMP JUMPDEST PUSH0 PUSH1 0x20 DUP3 DUP5 SUB SLT ISZERO PUSH2 0x1204 JUMPI PUSH2 0x1203 PUSH2 0xF0A JUMP JUMPDEST JUMPDEST PUSH0 PUSH2 0x1211 DUP5 DUP3 DUP6 ADD PUSH2 0x11DB JUMP JUMPDEST SWAP2 POP POP SWAP3 SWAP2 POP POP JUMP JUMPDEST PUSH32 0x5472616E73666572206F6620696E70757420746F6B656E206661696C65640000 PUSH0 DUP3 ADD MSTORE POP JUMP JUMPDEST PUSH0 PUSH2 0x124E PUSH1 0x1E DUP4 PUSH2 0x107F JUMP JUMPDEST SWAP2 POP PUSH2 0x1259 DUP3 PUSH2 0x121A JUMP JUMPDEST PUSH1 0x20 DUP3 ADD SWAP1 POP SWAP2 SWAP1 POP JUMP JUMPDEST PUSH0 PUSH1 0x20 DUP3 ADD SWAP1 POP DUP2 DUP2 SUB PUSH0 DUP4 ADD MSTORE PUSH2 0x127B DUP2 PUSH2 0x1242 JUMP JUMPDEST SWAP1 POP SWAP2 SWAP1 POP JUMP JUMPDEST PUSH32 0x4E487B7100000000000000000000000000000000000000000000000000000000 PUSH0 MSTORE PUSH1 0x11 PUSH1 0x4 MSTORE PUSH1 0x24 PUSH0 REVERT JUMPDEST PUSH0 PUSH2 0x12B9 DUP3 PUSH2 0xED9 JUMP JUMPDEST SWAP2 POP PUSH2 0x12C4 DUP4 PUSH2 0xED9 JUMP JUMPDEST SWAP3 POP DUP3 DUP3 MUL PUSH2 0x12D2 DUP2 PUSH2 0xED9 JUMP JUMPDEST SWAP2 POP DUP3 DUP3 DIV DUP5 EQ DUP4 ISZERO OR PUSH2 0x12E9 JUMPI PUSH2 0x12E8 PUSH2 0x1282 JUMP JUMPDEST JUMPDEST POP SWAP3 SWAP2 POP POP JUMP JUMPDEST PUSH0 PUSH2 0x12FA DUP3 PUSH2 0xED9 JUMP JUMPDEST SWAP2 POP PUSH2 0x1305 DUP4 PUSH2 0xED9 JUMP JUMPDEST SWAP3 POP DUP3 DUP3 ADD SWAP1 POP DUP1 DUP3 GT ISZERO PUSH2 0x131D JUMPI PUSH2 0x131C PUSH2 0x1282 JUMP JUMPDEST JUMPDEST SWAP3 SWAP2 POP POP JUMP JUMPDEST PUSH32 0x4E487B7100000000000000000000000000000000000000000000000000000000 PUSH0 MSTORE PUSH1 0x12 PUSH1 0x4 MSTORE PUSH1 0x24 PUSH0 REVERT JUMPDEST PUSH0 PUSH2 0x135A DUP3 PUSH2 0xED9 JUMP JUMPDEST SWAP2 POP PUSH2 0x1365 DUP4 PUSH2 0xED9 JUMP JUMPDEST SWAP3 POP DUP3 PUSH2 0x1375 JUMPI PUSH2 0x1374 PUSH2 0x1323 JUMP JUMPDEST JUMPDEST DUP3 DUP3 DIV SWAP1 POP SWAP3 SWAP2 POP POP JUMP JUMPDEST PUSH32 0x536C697070616765206C696D6974206578636565646564000000000000000000 PUSH0 DUP3 ADD MSTORE POP JUMP JUMPDEST PUSH0 PUSH2 0x13B4 PUSH1 0x17 DUP4 PUSH2 0x107F JUMP JUMPDEST SWAP2 POP PUSH2 0x13BF DUP3 PUSH2 0x1380 JUMP JUMPDEST PUSH1 0x20 DUP3 ADD SWAP1 POP SWAP2 SWAP1 POP JUMP JUMPDEST PUSH0 PUSH1 0x20 DUP3 ADD SWAP1 POP DUP2 DUP2 SUB PUSH0 DUP4 ADD MSTORE PUSH2 0x13E1 DUP2 PUSH2 0x13A8 JUMP JUMPDEST SWAP1 POP SWAP2 SWAP1 POP JUMP JUMPDEST PUSH0 PUSH2 0x13F2 DUP3 PUSH2 0xED9 JUMP JUMPDEST SWAP2 POP PUSH2 0x13FD DUP4 PUSH2 0xED9 JUMP JUMPDEST SWAP3 POP DUP3 DUP3 SUB SWAP1 POP DUP2 DUP2 GT ISZERO PUSH2 0x1415 JUMPI PUSH2 0x1414 PUSH2 0x1282 JUMP JUMPDEST JUMPDEST SWAP3 SWAP2 POP POP JUMP JUMPDEST PUSH0 PUSH1 0x40 DUP3 ADD SWAP1 POP PUSH2 0x142E PUSH0 DUP4 ADD DUP6 PUSH2 0xEB1 JUMP JUMPDEST PUSH2 0x143B PUSH1 0x20 DUP4 ADD DUP5 PUSH2 0xEE2 JUMP JUMPDEST SWAP4 SWAP3 POP POP POP JUMP JUMPDEST PUSH32 0x5472616E73666572206F66206F757470757420746F6B656E206661696C656400 PUSH0 DUP3 ADD MSTORE POP JUMP JUMPDEST PUSH0 PUSH2 0x1476 PUSH1 0x1F DUP4 PUSH2 0x107F JUMP JUMPDEST SWAP2 POP PUSH2 0x1481 DUP3 PUSH2 0x1442 JUMP JUMPDEST PUSH1 0x20 DUP3 ADD SWAP1 POP SWAP2 SWAP1 POP JUMP JUMPDEST PUSH0 PUSH1 0x20 DUP3 ADD SWAP1 POP DUP2 DUP2 SUB PUSH0 DUP4 ADD MSTORE PUSH2 0x14A3 DUP2 PUSH2 0x146A JUMP JUMPDEST SWAP1 POP SWAP2 SWAP1 POP JUMP JUMPDEST PUSH0 PUSH1 0x40 DUP3 ADD SWAP1 POP PUSH2 0x14BD PUSH0 DUP4 ADD DUP6 PUSH2 0xEE2 JUMP JUMPDEST PUSH2 0x14CA PUSH1 0x20 DUP4 ADD DUP5 PUSH2 0xEE2 JUMP JUMPDEST SWAP4 SWAP3 POP POP POP JUMP JUMPDEST PUSH32 0x496E76616C696420746F6B656E00000000000000000000000000000000000000 PUSH0 DUP3 ADD MSTORE POP JUMP JUMPDEST PUSH0 PUSH2 0x1505 PUSH1 0xD DUP4 PUSH2 0x107F JUMP JUMPDEST SWAP2 POP PUSH2 0x1510 DUP3 PUSH2 0x14D1 JUMP JUMPDEST PUSH1 0x20 DUP3 ADD SWAP1 POP SWAP2 SWAP1 POP JUMP JUMPDEST PUSH0 PUSH1 0x20 DUP3 ADD SWAP1 POP DUP2 DUP2 SUB PUSH0 DUP4 ADD MSTORE PUSH2 0x1532 DUP2 PUSH2 0x14F9 JUMP JUMPDEST SWAP1 POP SWAP2 SWAP1 POP JUMP JUMPDEST PUSH32 0x546F6B656E7320646F206E6F74206D6174636820706F6F6C2070616972000000 PUSH0 DUP3 ADD MSTORE POP JUMP JUMPDEST PUSH0 PUSH2 0x156D PUSH1 0x1D DUP4 PUSH2 0x107F JUMP JUMPDEST SWAP2 POP PUSH2 0x1578 DUP3 PUSH2 0x1539 JUMP JUMPDEST PUSH1 0x20 DUP3 ADD SWAP1 POP SWAP2 SWAP1 POP JUMP JUMPDEST PUSH0 PUSH1 0x20 DUP3 ADD SWAP1 POP DUP2 DUP2 SUB PUSH0 DUP4 ADD MSTORE PUSH2 0x159A DUP2 PUSH2 0x1561 JUMP JUMPDEST SWAP1 POP SWAP2 SWAP1 POP JUMP JUMPDEST PUSH32 0x5472616E73666572206F6620746F6B656E41206661696C656400000000000000 PUSH0 DUP3 ADD MSTORE POP JUMP JUMPDEST PUSH0 PUSH2 0x15D5 PUSH1 0x19 DUP4 PUSH2 0x107F JUMP JUMPDEST SWAP2 POP PUSH2 0x15E0 DUP3 PUSH2 0x15A1 JUMP JUMPDEST PUSH1 0x20 DUP3 ADD SWAP1 POP SWAP2 SWAP1 POP JUMP JUMPDEST PUSH0 PUSH1 0x20 DUP3 ADD SWAP1 POP DUP2 DUP2 SUB PUSH0 DUP4 ADD MSTORE PUSH2 0x1602 DUP2 PUSH2 0x15C9 JUMP JUMPDEST SWAP1 POP SWAP2 SWAP1 POP JUMP JUMPDEST PUSH32 0x5472616E73666572206F6620746F6B656E42206661696C656400000000000000 PUSH0 DUP3 ADD MSTORE POP JUMP JUMPDEST PUSH0 PUSH2 0x163D PUSH1 0x19 DUP4 PUSH2 0x107F JUMP JUMPDEST SWAP2 POP PUSH2 0x1648 DUP3 PUSH2 0x1609 JUMP JUMPDEST PUSH1 0x20 DUP3 ADD SWAP1 POP SWAP2 SWAP1 POP JUMP JUMPDEST PUSH0 PUSH1 0x20 DUP3 ADD SWAP1 POP DUP2 DUP2 SUB PUSH0 DUP4 ADD MSTORE PUSH2 0x166A DUP2 PUSH2 0x1631 JUMP JUMPDEST SWAP1 POP SWAP2 SWAP1 POP JUMP JUMPDEST PUSH32 0x5368617265732063616E6E6F74206265207A65726F0000000000000000000000 PUSH0 DUP3 ADD MSTORE POP JUMP JUMPDEST PUSH0 PUSH2 0x16A5 PUSH1 0x15 DUP4 PUSH2 0x107F JUMP JUMPDEST SWAP2 POP PUSH2 0x16B0 DUP3 PUSH2 0x1671 JUMP JUMPDEST PUSH1 0x20 DUP3 ADD SWAP1 POP SWAP2 SWAP1 POP JUMP JUMPDEST PUSH0 PUSH1 0x20 DUP3 ADD SWAP1 POP DUP2 DUP2 SUB PUSH0 DUP4 ADD MSTORE PUSH2 0x16D2 DUP2 PUSH2 0x1699 JUMP JUMPDEST SWAP1 POP SWAP2 SWAP1 POP JUMP JUMPDEST PUSH0 PUSH1 0x60 DUP3 ADD SWAP1 POP PUSH2 0x16EC PUSH0 DUP4 ADD DUP7 PUSH2 0xEE2 JUMP JUMPDEST PUSH2 0x16F9 PUSH1 0x20 DUP4 ADD DUP6 PUSH2 0xEE2 JUMP JUMPDEST PUSH2 0x1706 PUSH1 0x40 DUP4 ADD DUP5 PUSH2 0xEE2 JUMP JUMPDEST SWAP5 SWAP4 POP POP POP POP JUMP INVALID LOG2 PUSH5 0x6970667358 0x22 SLT KECCAK256 TSTORE 0x23 EXTSTATICCALL SWAPN 0xFA 0x2F INVALID SMOD 0xD3 0x22 CALL 0xEA PUSH29 0x69269F04F34493AC4E81A3C7047F5BA40FE23A64736F6C634300081E00 CALLER "
				},
				"gasEstimates": {
					"creation": {
						"codeDepositCost": "1191200",
						"executionCost": "infinite",
						"totalCost": "infinite"
					},
					"external": {
						"addLiquidity(address,address,uint256,uint256)": "infinite",
						"getAmountOut(address,uint256)": "infinite",
						"liquidityOf(address)": "2869",
						"reserveA()": "2513",
						"reserveB()": "2470",
						"swap(address,uint256,uint256)": "infinite",
						"tokenA()": "2508",
						"tokenB()": "2508",
						"totalLiquidity()": "2448"
					}
				},
				"methodIdentifiers": {
					"addLiquidity(address,address,uint256,uint256)": "cf6c62ea",
					"getAmountOut(address,uint256)": "ca706bcf",
					"liquidityOf(address)": "3c4750df",
					"reserveA()": "dc5fa6c5",
					"reserveB()": "19e36f3b",
					"swap(address,uint256,uint256)": "9f1d0f59",
					"tokenA()": "0fc63d10",
					"tokenB()": "5f64b55b",
					"totalLiquidity()": "15770f92"
				}
			},
			"storageLayout": {
				"storage": [
					{
						"astId": 54,
						"contract": "PoolEURC.sol:ArchielSwapPool",
						"label": "tokenA",
						"offset": 0,
						"slot": "0",
						"type": "t_address"
					},
					{
						"astId": 56,
						"contract": "PoolEURC.sol:ArchielSwapPool",
						"label": "tokenB",
						"offset": 0,
						"slot": "1",
						"type": "t_address"
					},
					{
						"astId": 58,
						"contract": "PoolEURC.sol:ArchielSwapPool",
						"label": "reserveA",
						"offset": 0,
						"slot": "2",
						"type": "t_uint256"
					},
					{
						"astId": 60,
						"contract": "PoolEURC.sol:ArchielSwapPool",
						"label": "reserveB",
						"offset": 0,
						"slot": "3",
						"type": "t_uint256"
					},
					{
						"astId": 62,
						"contract": "PoolEURC.sol:ArchielSwapPool",
						"label": "totalLiquidity",
						"offset": 0,
						"slot": "4",
						"type": "t_uint256"
					},
					{
						"astId": 66,
						"contract": "PoolEURC.sol:ArchielSwapPool",
						"label": "liquidityOf",
						"offset": 0,
						"slot": "5",
						"type": "t_mapping(t_address,t_uint256)"
					}
				],
				"types": {
					"t_address": {
						"encoding": "inplace",
						"label": "address",
						"numberOfBytes": "20"
					},
					"t_mapping(t_address,t_uint256)": {
						"encoding": "mapping",
						"key": "t_address",
						"label": "mapping(address => uint256)",
						"numberOfBytes": "32",
						"value": "t_uint256"
					},
					"t_uint256": {
						"encoding": "inplace",
						"label": "uint256",
						"numberOfBytes": "32"
					}
				}
			},
			"userdoc": {
				"kind": "user",
				"methods": {},
				"version": 1
			}
		}
	}
}