{
	"RegarStaking.sol": {
		"RegarStaking": {
			"abi": [
				{
					"inputs": [
						{
							"internalType": "address",
							"name": "_regarToken",
							"type": "address"
						}
					],
					"stateMutability": "nonpayable",
					"type": "constructor"
				},
				{
					"inputs": [
						{
							"internalType": "address",
							"name": "owner",
							"type": "address"
						}
					],
					"name": "OwnableInvalidOwner",
					"type": "error"
				},
				{
					"inputs": [
						{
							"internalType": "address",
							"name": "account",
							"type": "address"
						}
					],
					"name": "OwnableUnauthorizedAccount",
					"type": "error"
				},
				{
					"anonymous": false,
					"inputs": [
						{
							"indexed": true,
							"internalType": "address",
							"name": "previousOwner",
							"type": "address"
						},
						{
							"indexed": true,
							"internalType": "address",
							"name": "newOwner",
							"type": "address"
						}
					],
					"name": "OwnershipTransferred",
					"type": "event"
				},
				{
					"inputs": [],
					"name": "claimReward",
					"outputs": [],
					"stateMutability": "nonpayable",
					"type": "function"
				},
				{
					"inputs": [
						{
							"internalType": "address",
							"name": "_account",
							"type": "address"
						}
					],
					"name": "earned",
					"outputs": [
						{
							"internalType": "uint256",
							"name": "",
							"type": "uint256"
						}
					],
					"stateMutability": "view",
					"type": "function"
				},
				{
					"inputs": [
						{
							"internalType": "address",
							"name": "",
							"type": "address"
						}
					],
					"name": "lastUpdateTime",
					"outputs": [
						{
							"internalType": "uint256",
							"name": "",
							"type": "uint256"
						}
					],
					"stateMutability": "view",
					"type": "function"
				},
				{
					"inputs": [],
					"name": "owner",
					"outputs": [
						{
							"internalType": "address",
							"name": "",
							"type": "address"
						}
					],
					"stateMutability": "view",
					"type": "function"
				},
				{
					"inputs": [],
					"name": "regarToken",
					"outputs": [
						{
							"internalType": "contract IERC20",
							"name": "",
							"type": "address"
						}
					],
					"stateMutability": "view",
					"type": "function"
				},
				{
					"inputs": [],
					"name": "renounceOwnership",
					"outputs": [],
					"stateMutability": "nonpayable",
					"type": "function"
				},
				{
					"inputs": [],
					"name": "rewardRate",
					"outputs": [
						{
							"internalType": "uint256",
							"name": "",
							"type": "uint256"
						}
					],
					"stateMutability": "view",
					"type": "function"
				},
				{
					"inputs": [
						{
							"internalType": "address",
							"name": "",
							"type": "address"
						}
					],
					"name": "rewards",
					"outputs": [
						{
							"internalType": "uint256",
							"name": "",
							"type": "uint256"
						}
					],
					"stateMutability": "view",
					"type": "function"
				},
				{
					"inputs": [
						{
							"internalType": "uint256",
							"name": "_amount",
							"type": "uint256"
						}
					],
					"name": "stake",
					"outputs": [],
					"stateMutability": "nonpayable",
					"type": "function"
				},
				{
					"inputs": [
						{
							"internalType": "address",
							"name": "",
							"type": "address"
						}
					],
					"name": "stakedAmount",
					"outputs": [
						{
							"internalType": "uint256",
							"name": "",
							"type": "uint256"
						}
					],
					"stateMutability": "view",
					"type": "function"
				},
				{
					"inputs": [
						{
							"internalType": "address",
							"name": "newOwner",
							"type": "address"
						}
					],
					"name": "transferOwnership",
					"outputs": [],
					"stateMutability": "nonpayable",
					"type": "function"
				},
				{
					"inputs": [
						{
							"internalType": "uint256",
							"name": "_amount",
							"type": "uint256"
						}
					],
					"name": "withdraw",
					"outputs": [],
					"stateMutability": "nonpayable",
					"type": "function"
				}
			],
			"devdoc": {
				"errors": {
					"OwnableInvalidOwner(address)": [
						{
							"details": "The owner is not a valid owner account. (eg. `address(0)`)"
						}
					],
					"OwnableUnauthorizedAccount(address)": [
						{
							"details": "The caller account is not authorized to perform an operation."
						}
					]
				},
				"kind": "dev",
				"methods": {
					"owner()": {
						"details": "Returns the address of the current owner."
					},
					"renounceOwnership()": {
						"details": "Leaves the contract without owner. It will not be possible to call `onlyOwner` functions. Can only be called by the current owner. NOTE: Renouncing ownership will leave the contract without an owner, thereby disabling any functionality that is only available to the owner."
					},
					"transferOwnership(address)": {
						"details": "Transfers ownership of the contract to a new account (`newOwner`). Can only be called by the current owner."
					}
				},
				"version": 1
			},
			"evm": {
				"assembly": "    /* \"RegarStaking.sol\":175:2142  contract RegarStaking is Ownable {... */\n  mstore(0x40, 0x80)\n    /* \"RegarStaking.sol\":517:757  constructor(address _regarToken) Ownable(msg.sender) {... */\n  callvalue\n  dup1\n  iszero\n  tag_1\n  jumpi\n  revert(0x00, 0x00)\ntag_1:\n  pop\n  mload(0x40)\n  sub(codesize, bytecodeSize)\n  dup1\n  bytecodeSize\n  dup4\n  codecopy\n  dup2\n  dup2\n  add\n  0x40\n  mstore\n  dup2\n  add\n  swap1\n  tag_2\n  swap2\n  swap1\n  tag_3\n  jump\t// in\ntag_2:\n    /* \"RegarStaking.sol\":558:568  msg.sender */\n  caller\n    /* \"@openzeppelin/contracts/access/Ownable.sol\":1297:1298  0 */\n  0x00\n    /* \"@openzeppelin/contracts/access/Ownable.sol\":1273:1299  initialOwner == address(0) */\n  0xffffffffffffffffffffffffffffffffffffffff\n  and\n    /* \"@openzeppelin/contracts/access/Ownable.sol\":1273:1285  initialOwner */\n  dup2\n    /* \"@openzeppelin/contracts/access/Ownable.sol\":1273:1299  initialOwner == address(0) */\n  0xffffffffffffffffffffffffffffffffffffffff\n  and\n  sub\n    /* \"@openzeppelin/contracts/access/Ownable.sol\":1269:1364  if (initialOwner == address(0)) {... */\n  tag_7\n  jumpi\n    /* \"@openzeppelin/contracts/access/Ownable.sol\":1350:1351  0 */\n  0x00\n    /* \"@openzeppelin/contracts/access/Ownable.sol\":1322:1353  OwnableInvalidOwner(address(0)) */\n  mload(0x40)\n  0x1e4fbdf700000000000000000000000000000000000000000000000000000000\n  dup2\n  mstore\n  0x04\n  add\n  tag_8\n  swap2\n  swap1\n  tag_9\n  jump\t// in\ntag_8:\n  mload(0x40)\n  dup1\n  swap2\n  sub\n  swap1\n  revert\n    /* \"@openzeppelin/contracts/access/Ownable.sol\":1269:1364  if (initialOwner == address(0)) {... */\ntag_7:\n    /* \"@openzeppelin/contracts/access/Ownable.sol\":1373:1405  _transferOwnership(initialOwner) */\n  tag_10\n    /* \"@openzeppelin/contracts/access/Ownable.sol\":1392:1404  initialOwner */\n  dup2\n    /* \"@openzeppelin/contracts/access/Ownable.sol\":1373:1391  _transferOwnership */\n  shl(0x20, tag_11)\n    /* \"@openzeppelin/contracts/access/Ownable.sol\":1373:1405  _transferOwnership(initialOwner) */\n  0x20\n  shr\n  jump\t// in\ntag_10:\n    /* \"@openzeppelin/contracts/access/Ownable.sol\":1225:1412  constructor(address initialOwner) {... */\n  pop\n    /* \"RegarStaking.sol\":601:612  _regarToken */\n  dup1\n    /* \"RegarStaking.sol\":581:591  regarToken */\n  0x01\n  0x00\n    /* \"RegarStaking.sol\":581:613  regarToken = IERC20(_regarToken) */\n  0x0100\n  exp\n  dup2\n  sload\n  dup2\n  0xffffffffffffffffffffffffffffffffffffffff\n  mul\n  not\n  and\n  swap1\n  dup4\n  0xffffffffffffffffffffffffffffffffffffffff\n  and\n  mul\n  or\n  swap1\n  sstore\n  pop\n    /* \"RegarStaking.sol\":744:749  86400 */\n  0x015180\n    /* \"RegarStaking.sol\":730:740  100 * 1e18 */\n  0x056bc75e2d63100000\n    /* \"RegarStaking.sol\":722:749  uint256(100 * 1e18) / 86400 */\n  tag_13\n  swap2\n  swap1\n  tag_14\n  jump\t// in\ntag_13:\n    /* \"RegarStaking.sol\":709:719  rewardRate */\n  0x02\n    /* \"RegarStaking.sol\":709:749  rewardRate = uint256(100 * 1e18) / 86400 */\n  dup2\n  swap1\n  sstore\n  pop\n    /* \"RegarStaking.sol\":517:757  constructor(address _regarToken) Ownable(msg.sender) {... */\n  pop\n    /* \"RegarStaking.sol\":175:2142  contract RegarStaking is Ownable {... */\n  jump(tag_15)\n    /* \"@openzeppelin/contracts/access/Ownable.sol\":2912:3099  function _transferOwnership(address newOwner) internal virtual {... */\ntag_11:\n    /* \"@openzeppelin/contracts/access/Ownable.sol\":2985:3001  address oldOwner */\n  0x00\n    /* \"@openzeppelin/contracts/access/Ownable.sol\":3004:3010  _owner */\n  0x00\n  0x00\n  swap1\n  sload\n  swap1\n  0x0100\n  exp\n  swap1\n  div\n  0xffffffffffffffffffffffffffffffffffffffff\n  and\n    /* \"@openzeppelin/contracts/access/Ownable.sol\":2985:3010  address oldOwner = _owner */\n  swap1\n  pop\n    /* \"@openzeppelin/contracts/access/Ownable.sol\":3029:3037  newOwner */\n  dup2\n    /* \"@openzeppelin/contracts/access/Ownable.sol\":3020:3026  _owner */\n  0x00\n  0x00\n    /* \"@openzeppelin/contracts/access/Ownable.sol\":3020:3037  _owner = newOwner */\n  0x0100\n  exp\n  dup2\n  sload\n  dup2\n  0xffffffffffffffffffffffffffffffffffffffff\n  mul\n  not\n  and\n  swap1\n  dup4\n  0xffffffffffffffffffffffffffffffffffffffff\n  and\n  mul\n  or\n  swap1\n  sstore\n  pop\n    /* \"@openzeppelin/contracts/access/Ownable.sol\":3083:3091  newOwner */\n  dup2\n    /* \"@openzeppelin/contracts/access/Ownable.sol\":3052:3092  OwnershipTransferred(oldOwner, newOwner) */\n  0xffffffffffffffffffffffffffffffffffffffff\n  and\n    /* \"@openzeppelin/contracts/access/Ownable.sol\":3073:3081  oldOwner */\n  dup2\n    /* \"@openzeppelin/contracts/access/Ownable.sol\":3052:3092  OwnershipTransferred(oldOwner, newOwner) */\n  0xffffffffffffffffffffffffffffffffffffffff\n  and\n  0x8be0079c531659141344cd1fd0a4f28419497f9722a3daafe3b4186f6b6457e0\n  mload(0x40)\n  mload(0x40)\n  dup1\n  swap2\n  sub\n  swap1\n  log3\n    /* \"@openzeppelin/contracts/access/Ownable.sol\":2975:3099  {... */\n  pop\n    /* \"@openzeppelin/contracts/access/Ownable.sol\":2912:3099  function _transferOwnership(address newOwner) internal virtual {... */\n  pop\n  jump\t// out\n    /* \"#utility.yul\":88:205   */\ntag_18:\n    /* \"#utility.yul\":197:198   */\n  0x00\n    /* \"#utility.yul\":194:195   */\n  0x00\n    /* \"#utility.yul\":187:199   */\n  revert\n    /* \"#utility.yul\":334:460   */\ntag_20:\n    /* \"#utility.yul\":371:378   */\n  0x00\n    /* \"#utility.yul\":411:453   */\n  0xffffffffffffffffffffffffffffffffffffffff\n    /* \"#utility.yul\":404:409   */\n  dup3\n    /* \"#utility.yul\":400:454   */\n  and\n    /* \"#utility.yul\":389:454   */\n  swap1\n  pop\n    /* \"#utility.yul\":334:460   */\n  swap2\n  swap1\n  pop\n  jump\t// out\n    /* \"#utility.yul\":466:562   */\ntag_21:\n    /* \"#utility.yul\":503:510   */\n  0x00\n    /* \"#utility.yul\":532:556   */\n  tag_34\n    /* \"#utility.yul\":550:555   */\n  dup3\n    /* \"#utility.yul\":532:556   */\n  tag_20\n  jump\t// in\ntag_34:\n    /* \"#utility.yul\":521:556   */\n  swap1\n  pop\n    /* \"#utility.yul\":466:562   */\n  swap2\n  swap1\n  pop\n  jump\t// out\n    /* \"#utility.yul\":568:690   */\ntag_22:\n    /* \"#utility.yul\":641:665   */\n  tag_36\n    /* \"#utility.yul\":659:664   */\n  dup2\n    /* \"#utility.yul\":641:665   */\n  tag_21\n  jump\t// in\ntag_36:\n    /* \"#utility.yul\":634:639   */\n  dup2\n    /* \"#utility.yul\":631:666   */\n  eq\n    /* \"#utility.yul\":621:684   */\n  tag_37\n  jumpi\n    /* \"#utility.yul\":680:681   */\n  0x00\n    /* \"#utility.yul\":677:678   */\n  0x00\n    /* \"#utility.yul\":670:682   */\n  revert\n    /* \"#utility.yul\":621:684   */\ntag_37:\n    /* \"#utility.yul\":568:690   */\n  pop\n  jump\t// out\n    /* \"#utility.yul\":696:839   */\ntag_23:\n    /* \"#utility.yul\":753:758   */\n  0x00\n    /* \"#utility.yul\":784:790   */\n  dup2\n    /* \"#utility.yul\":778:791   */\n  mload\n    /* \"#utility.yul\":769:791   */\n  swap1\n  pop\n    /* \"#utility.yul\":800:833   */\n  tag_39\n    /* \"#utility.yul\":827:832   */\n  dup2\n    /* \"#utility.yul\":800:833   */\n  tag_22\n  jump\t// in\ntag_39:\n    /* \"#utility.yul\":696:839   */\n  swap3\n  swap2\n  pop\n  pop\n  jump\t// out\n    /* \"#utility.yul\":845:1196   */\ntag_3:\n    /* \"#utility.yul\":915:921   */\n  0x00\n    /* \"#utility.yul\":964:966   */\n  0x20\n    /* \"#utility.yul\":952:961   */\n  dup3\n    /* \"#utility.yul\":943:950   */\n  dup5\n    /* \"#utility.yul\":939:962   */\n  sub\n    /* \"#utility.yul\":935:967   */\n  slt\n    /* \"#utility.yul\":932:1051   */\n  iszero\n  tag_41\n  jumpi\n    /* \"#utility.yul\":970:1049   */\n  tag_42\n  tag_18\n  jump\t// in\ntag_42:\n    /* \"#utility.yul\":932:1051   */\ntag_41:\n    /* \"#utility.yul\":1090:1091   */\n  0x00\n    /* \"#utility.yul\":1115:1179   */\n  tag_43\n    /* \"#utility.yul\":1171:1178   */\n  dup5\n    /* \"#utility.yul\":1162:1168   */\n  dup3\n    /* \"#utility.yul\":1151:1160   */\n  dup6\n    /* \"#utility.yul\":1147:1169   */\n  add\n    /* \"#utility.yul\":1115:1179   */\n  tag_23\n  jump\t// in\ntag_43:\n    /* \"#utility.yul\":1105:1179   */\n  swap2\n  pop\n    /* \"#utility.yul\":1061:1189   */\n  pop\n    /* \"#utility.yul\":845:1196   */\n  swap3\n  swap2\n  pop\n  pop\n  jump\t// out\n    /* \"#utility.yul\":1202:1320   */\ntag_24:\n    /* \"#utility.yul\":1289:1313   */\n  tag_45\n    /* \"#utility.yul\":1307:1312   */\n  dup2\n    /* \"#utility.yul\":1289:1313   */\n  tag_21\n  jump\t// in\ntag_45:\n    /* \"#utility.yul\":1284:1287   */\n  dup3\n    /* \"#utility.yul\":1277:1314   */\n  mstore\n    /* \"#utility.yul\":1202:1320   */\n  pop\n  pop\n  jump\t// out\n    /* \"#utility.yul\":1326:1548   */\ntag_9:\n    /* \"#utility.yul\":1419:1423   */\n  0x00\n    /* \"#utility.yul\":1457:1459   */\n  0x20\n    /* \"#utility.yul\":1446:1455   */\n  dup3\n    /* \"#utility.yul\":1442:1460   */\n  add\n    /* \"#utility.yul\":1434:1460   */\n  swap1\n  pop\n    /* \"#utility.yul\":1470:1541   */\n  tag_47\n    /* \"#utility.yul\":1538:1539   */\n  0x00\n    /* \"#utility.yul\":1527:1536   */\n  dup4\n    /* \"#utility.yul\":1523:1540   */\n  add\n    /* \"#utility.yul\":1514:1520   */\n  dup5\n    /* \"#utility.yul\":1470:1541   */\n  tag_24\n  jump\t// in\ntag_47:\n    /* \"#utility.yul\":1326:1548   */\n  swap3\n  swap2\n  pop\n  pop\n  jump\t// out\n    /* \"#utility.yul\":1554:1631   */\ntag_25:\n    /* \"#utility.yul\":1591:1598   */\n  0x00\n    /* \"#utility.yul\":1620:1625   */\n  dup2\n    /* \"#utility.yul\":1609:1625   */\n  swap1\n  pop\n    /* \"#utility.yul\":1554:1631   */\n  swap2\n  swap1\n  pop\n  jump\t// out\n    /* \"#utility.yul\":1637:1817   */\ntag_26:\n    /* \"#utility.yul\":1685:1762   */\n  0x4e487b7100000000000000000000000000000000000000000000000000000000\n    /* \"#utility.yul\":1682:1683   */\n  0x00\n    /* \"#utility.yul\":1675:1763   */\n  mstore\n    /* \"#utility.yul\":1782:1786   */\n  0x12\n    /* \"#utility.yul\":1779:1780   */\n  0x04\n    /* \"#utility.yul\":1772:1787   */\n  mstore\n    /* \"#utility.yul\":1806:1810   */\n  0x24\n    /* \"#utility.yul\":1803:1804   */\n  0x00\n    /* \"#utility.yul\":1796:1811   */\n  revert\n    /* \"#utility.yul\":2009:2194   */\ntag_14:\n    /* \"#utility.yul\":2049:2050   */\n  0x00\n    /* \"#utility.yul\":2066:2086   */\n  tag_52\n    /* \"#utility.yul\":2084:2085   */\n  dup3\n    /* \"#utility.yul\":2066:2086   */\n  tag_25\n  jump\t// in\ntag_52:\n    /* \"#utility.yul\":2061:2086   */\n  swap2\n  pop\n    /* \"#utility.yul\":2100:2120   */\n  tag_53\n    /* \"#utility.yul\":2118:2119   */\n  dup4\n    /* \"#utility.yul\":2100:2120   */\n  tag_25\n  jump\t// in\ntag_53:\n    /* \"#utility.yul\":2095:2120   */\n  swap3\n  pop\n    /* \"#utility.yul\":2139:2140   */\n  dup3\n    /* \"#utility.yul\":2129:2164   */\n  tag_54\n  jumpi\n    /* \"#utility.yul\":2144:2162   */\n  tag_55\n  tag_26\n  jump\t// in\ntag_55:\n    /* \"#utility.yul\":2129:2164   */\ntag_54:\n    /* \"#utility.yul\":2186:2187   */\n  dup3\n    /* \"#utility.yul\":2183:2184   */\n  dup3\n    /* \"#utility.yul\":2179:2188   */\n  div\n    /* \"#utility.yul\":2174:2188   */\n  swap1\n  pop\n    /* \"#utility.yul\":2009:2194   */\n  swap3\n  swap2\n  pop\n  pop\n  jump\t// out\n    /* \"RegarStaking.sol\":175:2142  contract RegarStaking is Ownable {... */\ntag_15:\n  dataSize(sub_0)\n  dup1\n  dataOffset(sub_0)\n  0x00\n  codecopy\n  0x00\n  return\nstop\n\nsub_0: assembly {\n        /* \"RegarStaking.sol\":175:2142  contract RegarStaking is Ownable {... */\n      mstore(0x40, 0x80)\n      callvalue\n      dup1\n      iszero\n      tag_1\n      jumpi\n      revert(0x00, 0x00)\n    tag_1:\n      pop\n      jumpi(tag_2, lt(calldatasize, 0x04))\n      shr(0xe0, calldataload(0x00))\n      dup1\n      0x7b0a47ee\n      gt\n      tag_15\n      jumpi\n      dup1\n      0x7b0a47ee\n      eq\n      tag_9\n      jumpi\n      dup1\n      0x8da5cb5b\n      eq\n      tag_10\n      jumpi\n      dup1\n      0xa694fc3a\n      eq\n      tag_11\n      jumpi\n      dup1\n      0xb88a802f\n      eq\n      tag_12\n      jumpi\n      dup1\n      0xf2fde38b\n      eq\n      tag_13\n      jumpi\n      dup1\n      0xf9931855\n      eq\n      tag_14\n      jumpi\n      jump(tag_2)\n    tag_15:\n      dup1\n      0x8cc262\n      eq\n      tag_3\n      jumpi\n      dup1\n      0x0700037d\n      eq\n      tag_4\n      jumpi\n      dup1\n      0x1558502b\n      eq\n      tag_5\n      jumpi\n      dup1\n      0x2ce9aead\n      eq\n      tag_6\n      jumpi\n      dup1\n      0x2e1a7d4d\n      eq\n      tag_7\n      jumpi\n      dup1\n      0x715018a6\n      eq\n      tag_8\n      jumpi\n    tag_2:\n      revert(0x00, 0x00)\n        /* \"RegarStaking.sol\":825:1062  function earned(address _account) public view returns (uint256) {... */\n    tag_3:\n      tag_16\n      0x04\n      dup1\n      calldatasize\n      sub\n      dup2\n      add\n      swap1\n      tag_17\n      swap2\n      swap1\n      tag_18\n      jump\t// in\n    tag_17:\n      tag_19\n      jump\t// in\n    tag_16:\n      mload(0x40)\n      tag_20\n      swap2\n      swap1\n      tag_21\n      jump\t// in\n    tag_20:\n      mload(0x40)\n      dup1\n      swap2\n      sub\n      swap1\n      return\n        /* \"RegarStaking.sol\":466:508  mapping(address => uint256) public rewards */\n    tag_4:\n      tag_22\n      0x04\n      dup1\n      calldatasize\n      sub\n      dup2\n      add\n      swap1\n      tag_23\n      swap2\n      swap1\n      tag_18\n      jump\t// in\n    tag_23:\n      tag_24\n      jump\t// in\n    tag_22:\n      mload(0x40)\n      tag_25\n      swap2\n      swap1\n      tag_21\n      jump\t// in\n    tag_25:\n      mload(0x40)\n      dup1\n      swap2\n      sub\n      swap1\n      return\n        /* \"RegarStaking.sol\":215:239  IERC20 public regarToken */\n    tag_5:\n      tag_26\n      tag_27\n      jump\t// in\n    tag_26:\n      mload(0x40)\n      tag_28\n      swap2\n      swap1\n      tag_29\n      jump\t// in\n    tag_28:\n      mload(0x40)\n      dup1\n      swap2\n      sub\n      swap1\n      return\n        /* \"RegarStaking.sol\":410:459  mapping(address => uint256) public lastUpdateTime */\n    tag_6:\n      tag_30\n      0x04\n      dup1\n      calldatasize\n      sub\n      dup2\n      add\n      swap1\n      tag_31\n      swap2\n      swap1\n      tag_18\n      jump\t// in\n    tag_31:\n      tag_32\n      jump\t// in\n    tag_30:\n      mload(0x40)\n      tag_33\n      swap2\n      swap1\n      tag_21\n      jump\t// in\n    tag_33:\n      mload(0x40)\n      dup1\n      swap2\n      sub\n      swap1\n      return\n        /* \"RegarStaking.sol\":1475:1816  function withdraw(uint256 _amount) external {... */\n    tag_7:\n      tag_34\n      0x04\n      dup1\n      calldatasize\n      sub\n      dup2\n      add\n      swap1\n      tag_35\n      swap2\n      swap1\n      tag_36\n      jump\t// in\n    tag_35:\n      tag_37\n      jump\t// in\n    tag_34:\n      stop\n        /* \"@openzeppelin/contracts/access/Ownable.sol\":2293:2394  function renounceOwnership() public virtual onlyOwner {... */\n    tag_8:\n      tag_38\n      tag_39\n      jump\t// in\n    tag_38:\n      stop\n        /* \"RegarStaking.sol\":321:346  uint256 public rewardRate */\n    tag_9:\n      tag_40\n      tag_41\n      jump\t// in\n    tag_40:\n      mload(0x40)\n      tag_42\n      swap2\n      swap1\n      tag_21\n      jump\t// in\n    tag_42:\n      mload(0x40)\n      dup1\n      swap2\n      sub\n      swap1\n      return\n        /* \"@openzeppelin/contracts/access/Ownable.sol\":1638:1723  function owner() public view virtual returns (address) {... */\n    tag_10:\n      tag_43\n      tag_44\n      jump\t// in\n    tag_43:\n      mload(0x40)\n      tag_45\n      swap2\n      swap1\n      tag_46\n      jump\t// in\n    tag_45:\n      mload(0x40)\n      dup1\n      swap2\n      sub\n      swap1\n      return\n        /* \"RegarStaking.sol\":1093:1434  function stake(uint256 _amount) external {... */\n    tag_11:\n      tag_47\n      0x04\n      dup1\n      calldatasize\n      sub\n      dup2\n      add\n      swap1\n      tag_48\n      swap2\n      swap1\n      tag_36\n      jump\t// in\n    tag_48:\n      tag_49\n      jump\t// in\n    tag_47:\n      stop\n        /* \"RegarStaking.sol\":1854:2139  function claimReward() external {... */\n    tag_12:\n      tag_50\n      tag_51\n      jump\t// in\n    tag_50:\n      stop\n        /* \"@openzeppelin/contracts/access/Ownable.sol\":2543:2758  function transferOwnership(address newOwner) public virtual onlyOwner {... */\n    tag_13:\n      tag_52\n      0x04\n      dup1\n      calldatasize\n      sub\n      dup2\n      add\n      swap1\n      tag_53\n      swap2\n      swap1\n      tag_18\n      jump\t// in\n    tag_53:\n      tag_54\n      jump\t// in\n    tag_52:\n      stop\n        /* \"RegarStaking.sol\":356:403  mapping(address => uint256) public stakedAmount */\n    tag_14:\n      tag_55\n      0x04\n      dup1\n      calldatasize\n      sub\n      dup2\n      add\n      swap1\n      tag_56\n      swap2\n      swap1\n      tag_18\n      jump\t// in\n    tag_56:\n      tag_57\n      jump\t// in\n    tag_55:\n      mload(0x40)\n      tag_58\n      swap2\n      swap1\n      tag_21\n      jump\t// in\n    tag_58:\n      mload(0x40)\n      dup1\n      swap2\n      sub\n      swap1\n      return\n        /* \"RegarStaking.sol\":825:1062  function earned(address _account) public view returns (uint256) {... */\n    tag_19:\n        /* \"RegarStaking.sol\":880:887  uint256 */\n      0x00\n        /* \"RegarStaking.sol\":900:916  uint256 duration */\n      0x00\n        /* \"RegarStaking.sol\":937:951  lastUpdateTime */\n      0x04\n        /* \"RegarStaking.sol\":937:961  lastUpdateTime[_account] */\n      0x00\n        /* \"RegarStaking.sol\":952:960  _account */\n      dup5\n        /* \"RegarStaking.sol\":937:961  lastUpdateTime[_account] */\n      0xffffffffffffffffffffffffffffffffffffffff\n      and\n      0xffffffffffffffffffffffffffffffffffffffff\n      and\n      dup2\n      mstore\n      0x20\n      add\n      swap1\n      dup2\n      mstore\n      0x20\n      add\n      0x00\n      keccak256\n      sload\n        /* \"RegarStaking.sol\":919:934  block.timestamp */\n      timestamp\n        /* \"RegarStaking.sol\":919:961  block.timestamp - lastUpdateTime[_account] */\n      tag_60\n      swap2\n      swap1\n      tag_61\n      jump\t// in\n    tag_60:\n        /* \"RegarStaking.sol\":900:961  uint256 duration = block.timestamp - lastUpdateTime[_account] */\n      swap1\n      pop\n        /* \"RegarStaking.sol\":1049:1053  1e18 */\n      0x0de0b6b3a7640000\n        /* \"RegarStaking.sol\":1036:1046  rewardRate */\n      sload(0x02)\n        /* \"RegarStaking.sol\":1025:1033  duration */\n      dup3\n        /* \"RegarStaking.sol\":1000:1012  stakedAmount */\n      0x03\n        /* \"RegarStaking.sol\":1000:1022  stakedAmount[_account] */\n      0x00\n        /* \"RegarStaking.sol\":1013:1021  _account */\n      dup8\n        /* \"RegarStaking.sol\":1000:1022  stakedAmount[_account] */\n      0xffffffffffffffffffffffffffffffffffffffff\n      and\n      0xffffffffffffffffffffffffffffffffffffffff\n      and\n      dup2\n      mstore\n      0x20\n      add\n      swap1\n      dup2\n      mstore\n      0x20\n      add\n      0x00\n      keccak256\n      sload\n        /* \"RegarStaking.sol\":1000:1033  stakedAmount[_account] * duration */\n      tag_62\n      swap2\n      swap1\n      tag_63\n      jump\t// in\n    tag_62:\n        /* \"RegarStaking.sol\":1000:1046  stakedAmount[_account] * duration * rewardRate */\n      tag_64\n      swap2\n      swap1\n      tag_63\n      jump\t// in\n    tag_64:\n        /* \"RegarStaking.sol\":1000:1053  stakedAmount[_account] * duration * rewardRate / 1e18 */\n      tag_65\n      swap2\n      swap1\n      tag_66\n      jump\t// in\n    tag_65:\n        /* \"RegarStaking.sol\":979:986  rewards */\n      0x05\n        /* \"RegarStaking.sol\":979:996  rewards[_account] */\n      0x00\n        /* \"RegarStaking.sol\":987:995  _account */\n      dup6\n        /* \"RegarStaking.sol\":979:996  rewards[_account] */\n      0xffffffffffffffffffffffffffffffffffffffff\n      and\n      0xffffffffffffffffffffffffffffffffffffffff\n      and\n      dup2\n      mstore\n      0x20\n      add\n      swap1\n      dup2\n      mstore\n      0x20\n      add\n      0x00\n      keccak256\n      sload\n        /* \"RegarStaking.sol\":979:1054  rewards[_account] + (stakedAmount[_account] * duration * rewardRate / 1e18) */\n      tag_67\n      swap2\n      swap1\n      tag_68\n      jump\t// in\n    tag_67:\n        /* \"RegarStaking.sol\":972:1054  return rewards[_account] + (stakedAmount[_account] * duration * rewardRate / 1e18) */\n      swap2\n      pop\n      pop\n        /* \"RegarStaking.sol\":825:1062  function earned(address _account) public view returns (uint256) {... */\n      swap2\n      swap1\n      pop\n      jump\t// out\n        /* \"RegarStaking.sol\":466:508  mapping(address => uint256) public rewards */\n    tag_24:\n      mstore(0x20, 0x05)\n      dup1\n      0x00\n      mstore\n      keccak256(0x00, 0x40)\n      0x00\n      swap2\n      pop\n      swap1\n      pop\n      sload\n      dup2\n      jump\t// out\n        /* \"RegarStaking.sol\":215:239  IERC20 public regarToken */\n    tag_27:\n      0x01\n      0x00\n      swap1\n      sload\n      swap1\n      0x0100\n      exp\n      swap1\n      div\n      0xffffffffffffffffffffffffffffffffffffffff\n      and\n      dup2\n      jump\t// out\n        /* \"RegarStaking.sol\":410:459  mapping(address => uint256) public lastUpdateTime */\n    tag_32:\n      mstore(0x20, 0x04)\n      dup1\n      0x00\n      mstore\n      keccak256(0x00, 0x40)\n      0x00\n      swap2\n      pop\n      swap1\n      pop\n      sload\n      dup2\n      jump\t// out\n        /* \"RegarStaking.sol\":1475:1816  function withdraw(uint256 _amount) external {... */\n    tag_37:\n        /* \"RegarStaking.sol\":1549:1561  stakedAmount */\n      0x03\n        /* \"RegarStaking.sol\":1549:1573  stakedAmount[msg.sender] */\n      0x00\n        /* \"RegarStaking.sol\":1562:1572  msg.sender */\n      caller\n        /* \"RegarStaking.sol\":1549:1573  stakedAmount[msg.sender] */\n      0xffffffffffffffffffffffffffffffffffffffff\n      and\n      0xffffffffffffffffffffffffffffffffffffffff\n      and\n      dup2\n      mstore\n      0x20\n      add\n      swap1\n      dup2\n      mstore\n      0x20\n      add\n      0x00\n      keccak256\n      sload\n        /* \"RegarStaking.sol\":1538:1545  _amount */\n      dup2\n        /* \"RegarStaking.sol\":1538:1573  _amount <= stakedAmount[msg.sender] */\n      gt\n      iszero\n        /* \"RegarStaking.sol\":1530:1603  require(_amount <= stakedAmount[msg.sender], \"Saldo staking tidak cukup\") */\n      tag_70\n      jumpi\n      mload(0x40)\n      0x08c379a000000000000000000000000000000000000000000000000000000000\n      dup2\n      mstore\n      0x04\n      add\n      tag_71\n      swap1\n      tag_72\n      jump\t// in\n    tag_71:\n      mload(0x40)\n      dup1\n      swap2\n      sub\n      swap1\n      revert\n    tag_70:\n        /* \"RegarStaking.sol\":1636:1654  earned(msg.sender) */\n      tag_73\n        /* \"RegarStaking.sol\":1643:1653  msg.sender */\n      caller\n        /* \"RegarStaking.sol\":1636:1642  earned */\n      tag_19\n        /* \"RegarStaking.sol\":1636:1654  earned(msg.sender) */\n      jump\t// in\n    tag_73:\n        /* \"RegarStaking.sol\":1614:1621  rewards */\n      0x05\n        /* \"RegarStaking.sol\":1614:1633  rewards[msg.sender] */\n      0x00\n        /* \"RegarStaking.sol\":1622:1632  msg.sender */\n      caller\n        /* \"RegarStaking.sol\":1614:1633  rewards[msg.sender] */\n      0xffffffffffffffffffffffffffffffffffffffff\n      and\n      0xffffffffffffffffffffffffffffffffffffffff\n      and\n      dup2\n      mstore\n      0x20\n      add\n      swap1\n      dup2\n      mstore\n      0x20\n      add\n      0x00\n      keccak256\n        /* \"RegarStaking.sol\":1614:1654  rewards[msg.sender] = earned(msg.sender) */\n      dup2\n      swap1\n      sstore\n      pop\n        /* \"RegarStaking.sol\":1694:1709  block.timestamp */\n      timestamp\n        /* \"RegarStaking.sol\":1665:1679  lastUpdateTime */\n      0x04\n        /* \"RegarStaking.sol\":1665:1691  lastUpdateTime[msg.sender] */\n      0x00\n        /* \"RegarStaking.sol\":1680:1690  msg.sender */\n      caller\n        /* \"RegarStaking.sol\":1665:1691  lastUpdateTime[msg.sender] */\n      0xffffffffffffffffffffffffffffffffffffffff\n      and\n      0xffffffffffffffffffffffffffffffffffffffff\n      and\n      dup2\n      mstore\n      0x20\n      add\n      swap1\n      dup2\n      mstore\n      0x20\n      add\n      0x00\n      keccak256\n        /* \"RegarStaking.sol\":1665:1709  lastUpdateTime[msg.sender] = block.timestamp */\n      dup2\n      swap1\n      sstore\n      pop\n        /* \"RegarStaking.sol\":1750:1757  _amount */\n      dup1\n        /* \"RegarStaking.sol\":1722:1734  stakedAmount */\n      0x03\n        /* \"RegarStaking.sol\":1722:1746  stakedAmount[msg.sender] */\n      0x00\n        /* \"RegarStaking.sol\":1735:1745  msg.sender */\n      caller\n        /* \"RegarStaking.sol\":1722:1746  stakedAmount[msg.sender] */\n      0xffffffffffffffffffffffffffffffffffffffff\n      and\n      0xffffffffffffffffffffffffffffffffffffffff\n      and\n      dup2\n      mstore\n      0x20\n      add\n      swap1\n      dup2\n      mstore\n      0x20\n      add\n      0x00\n      keccak256\n      0x00\n        /* \"RegarStaking.sol\":1722:1757  stakedAmount[msg.sender] -= _amount */\n      dup3\n      dup3\n      sload\n      tag_74\n      swap2\n      swap1\n      tag_61\n      jump\t// in\n    tag_74:\n      swap3\n      pop\n      pop\n      dup2\n      swap1\n      sstore\n      pop\n        /* \"RegarStaking.sol\":1768:1778  regarToken */\n      0x01\n      0x00\n      swap1\n      sload\n      swap1\n      0x0100\n      exp\n      swap1\n      div\n      0xffffffffffffffffffffffffffffffffffffffff\n      and\n        /* \"RegarStaking.sol\":1768:1787  regarToken.transfer */\n      0xffffffffffffffffffffffffffffffffffffffff\n      and\n      0xa9059cbb\n        /* \"RegarStaking.sol\":1788:1798  msg.sender */\n      caller\n        /* \"RegarStaking.sol\":1800:1807  _amount */\n      dup4\n        /* \"RegarStaking.sol\":1768:1808  regarToken.transfer(msg.sender, _amount) */\n      mload(0x40)\n      dup4\n      0xffffffff\n      and\n      0xe0\n      shl\n      dup2\n      mstore\n      0x04\n      add\n      tag_75\n      swap3\n      swap2\n      swap1\n      tag_76\n      jump\t// in\n    tag_75:\n      0x20\n      mload(0x40)\n      dup1\n      dup4\n      sub\n      dup2\n      0x00\n      dup8\n      gas\n      call\n      iszero\n      dup1\n      iszero\n      tag_78\n      jumpi\n      returndatacopy(0x00, 0x00, returndatasize)\n      revert(0x00, returndatasize)\n    tag_78:\n      pop\n      pop\n      pop\n      pop\n      mload(0x40)\n      returndatasize\n      not(0x1f)\n      0x1f\n      dup3\n      add\n      and\n      dup3\n      add\n      dup1\n      0x40\n      mstore\n      pop\n      dup2\n      add\n      swap1\n      tag_79\n      swap2\n      swap1\n      tag_80\n      jump\t// in\n    tag_79:\n      pop\n        /* \"RegarStaking.sol\":1475:1816  function withdraw(uint256 _amount) external {... */\n      pop\n      jump\t// out\n        /* \"@openzeppelin/contracts/access/Ownable.sol\":2293:2394  function renounceOwnership() public virtual onlyOwner {... */\n    tag_39:\n        /* \"@openzeppelin/contracts/access/Ownable.sol\":1531:1544  _checkOwner() */\n      tag_82\n        /* \"@openzeppelin/contracts/access/Ownable.sol\":1531:1542  _checkOwner */\n      tag_83\n        /* \"@openzeppelin/contracts/access/Ownable.sol\":1531:1544  _checkOwner() */\n      jump\t// in\n    tag_82:\n        /* \"@openzeppelin/contracts/access/Ownable.sol\":2357:2387  _transferOwnership(address(0)) */\n      tag_85\n        /* \"@openzeppelin/contracts/access/Ownable.sol\":2384:2385  0 */\n      0x00\n        /* \"@openzeppelin/contracts/access/Ownable.sol\":2357:2375  _transferOwnership */\n      tag_86\n        /* \"@openzeppelin/contracts/access/Ownable.sol\":2357:2387  _transferOwnership(address(0)) */\n      jump\t// in\n    tag_85:\n        /* \"@openzeppelin/contracts/access/Ownable.sol\":2293:2394  function renounceOwnership() public virtual onlyOwner {... */\n      jump\t// out\n        /* \"RegarStaking.sol\":321:346  uint256 public rewardRate */\n    tag_41:\n      sload(0x02)\n      dup2\n      jump\t// out\n        /* \"@openzeppelin/contracts/access/Ownable.sol\":1638:1723  function owner() public view virtual returns (address) {... */\n    tag_44:\n        /* \"@openzeppelin/contracts/access/Ownable.sol\":1684:1691  address */\n      0x00\n        /* \"@openzeppelin/contracts/access/Ownable.sol\":1710:1716  _owner */\n      0x00\n      0x00\n      swap1\n      sload\n      swap1\n      0x0100\n      exp\n      swap1\n      div\n      0xffffffffffffffffffffffffffffffffffffffff\n      and\n        /* \"@openzeppelin/contracts/access/Ownable.sol\":1703:1716  return _owner */\n      swap1\n      pop\n        /* \"@openzeppelin/contracts/access/Ownable.sol\":1638:1723  function owner() public view virtual returns (address) {... */\n      swap1\n      jump\t// out\n        /* \"RegarStaking.sol\":1093:1434  function stake(uint256 _amount) external {... */\n    tag_49:\n        /* \"RegarStaking.sol\":1163:1164  0 */\n      0x00\n        /* \"RegarStaking.sol\":1153:1160  _amount */\n      dup2\n        /* \"RegarStaking.sol\":1153:1164  _amount > 0 */\n      gt\n        /* \"RegarStaking.sol\":1145:1194  require(_amount > 0, \"Jumlah harus lebih dari 0\") */\n      tag_89\n      jumpi\n      mload(0x40)\n      0x08c379a000000000000000000000000000000000000000000000000000000000\n      dup2\n      mstore\n      0x04\n      add\n      tag_90\n      swap1\n      tag_91\n      jump\t// in\n    tag_90:\n      mload(0x40)\n      dup1\n      swap2\n      sub\n      swap1\n      revert\n    tag_89:\n        /* \"RegarStaking.sol\":1227:1245  earned(msg.sender) */\n      tag_92\n        /* \"RegarStaking.sol\":1234:1244  msg.sender */\n      caller\n        /* \"RegarStaking.sol\":1227:1233  earned */\n      tag_19\n        /* \"RegarStaking.sol\":1227:1245  earned(msg.sender) */\n      jump\t// in\n    tag_92:\n        /* \"RegarStaking.sol\":1205:1212  rewards */\n      0x05\n        /* \"RegarStaking.sol\":1205:1224  rewards[msg.sender] */\n      0x00\n        /* \"RegarStaking.sol\":1213:1223  msg.sender */\n      caller\n        /* \"RegarStaking.sol\":1205:1224  rewards[msg.sender] */\n      0xffffffffffffffffffffffffffffffffffffffff\n      and\n      0xffffffffffffffffffffffffffffffffffffffff\n      and\n      dup2\n      mstore\n      0x20\n      add\n      swap1\n      dup2\n      mstore\n      0x20\n      add\n      0x00\n      keccak256\n        /* \"RegarStaking.sol\":1205:1245  rewards[msg.sender] = earned(msg.sender) */\n      dup2\n      swap1\n      sstore\n      pop\n        /* \"RegarStaking.sol\":1285:1300  block.timestamp */\n      timestamp\n        /* \"RegarStaking.sol\":1256:1270  lastUpdateTime */\n      0x04\n        /* \"RegarStaking.sol\":1256:1282  lastUpdateTime[msg.sender] */\n      0x00\n        /* \"RegarStaking.sol\":1271:1281  msg.sender */\n      caller\n        /* \"RegarStaking.sol\":1256:1282  lastUpdateTime[msg.sender] */\n      0xffffffffffffffffffffffffffffffffffffffff\n      and\n      0xffffffffffffffffffffffffffffffffffffffff\n      and\n      dup2\n      mstore\n      0x20\n      add\n      swap1\n      dup2\n      mstore\n      0x20\n      add\n      0x00\n      keccak256\n        /* \"RegarStaking.sol\":1256:1300  lastUpdateTime[msg.sender] = block.timestamp */\n      dup2\n      swap1\n      sstore\n      pop\n        /* \"RegarStaking.sol\":1349:1356  _amount */\n      dup1\n        /* \"RegarStaking.sol\":1321:1333  stakedAmount */\n      0x03\n        /* \"RegarStaking.sol\":1321:1345  stakedAmount[msg.sender] */\n      0x00\n        /* \"RegarStaking.sol\":1334:1344  msg.sender */\n      caller\n        /* \"RegarStaking.sol\":1321:1345  stakedAmount[msg.sender] */\n      0xffffffffffffffffffffffffffffffffffffffff\n      and\n      0xffffffffffffffffffffffffffffffffffffffff\n      and\n      dup2\n      mstore\n      0x20\n      add\n      swap1\n      dup2\n      mstore\n      0x20\n      add\n      0x00\n      keccak256\n      0x00\n        /* \"RegarStaking.sol\":1321:1356  stakedAmount[msg.sender] += _amount */\n      dup3\n      dup3\n      sload\n      tag_93\n      swap2\n      swap1\n      tag_68\n      jump\t// in\n    tag_93:\n      swap3\n      pop\n      pop\n      dup2\n      swap1\n      sstore\n      pop\n        /* \"RegarStaking.sol\":1367:1377  regarToken */\n      0x01\n      0x00\n      swap1\n      sload\n      swap1\n      0x0100\n      exp\n      swap1\n      div\n      0xffffffffffffffffffffffffffffffffffffffff\n      and\n        /* \"RegarStaking.sol\":1367:1390  regarToken.transferFrom */\n      0xffffffffffffffffffffffffffffffffffffffff\n      and\n      0x23b872dd\n        /* \"RegarStaking.sol\":1391:1401  msg.sender */\n      caller\n        /* \"RegarStaking.sol\":1411:1415  this */\n      address\n        /* \"RegarStaking.sol\":1418:1425  _amount */\n      dup5\n        /* \"RegarStaking.sol\":1367:1426  regarToken.transferFrom(msg.sender, address(this), _amount) */\n      mload(0x40)\n      dup5\n      0xffffffff\n      and\n      0xe0\n      shl\n      dup2\n      mstore\n      0x04\n      add\n      tag_94\n      swap4\n      swap3\n      swap2\n      swap1\n      tag_95\n      jump\t// in\n    tag_94:\n      0x20\n      mload(0x40)\n      dup1\n      dup4\n      sub\n      dup2\n      0x00\n      dup8\n      gas\n      call\n      iszero\n      dup1\n      iszero\n      tag_97\n      jumpi\n      returndatacopy(0x00, 0x00, returndatasize)\n      revert(0x00, returndatasize)\n    tag_97:\n      pop\n      pop\n      pop\n      pop\n      mload(0x40)\n      returndatasize\n      not(0x1f)\n      0x1f\n      dup3\n      add\n      and\n      dup3\n      add\n      dup1\n      0x40\n      mstore\n      pop\n      dup2\n      add\n      swap1\n      tag_98\n      swap2\n      swap1\n      tag_80\n      jump\t// in\n    tag_98:\n      pop\n        /* \"RegarStaking.sol\":1093:1434  function stake(uint256 _amount) external {... */\n      pop\n      jump\t// out\n        /* \"RegarStaking.sol\":1854:2139  function claimReward() external {... */\n    tag_51:\n        /* \"RegarStaking.sol\":1897:1911  uint256 reward */\n      0x00\n        /* \"RegarStaking.sol\":1914:1932  earned(msg.sender) */\n      tag_100\n        /* \"RegarStaking.sol\":1921:1931  msg.sender */\n      caller\n        /* \"RegarStaking.sol\":1914:1920  earned */\n      tag_19\n        /* \"RegarStaking.sol\":1914:1932  earned(msg.sender) */\n      jump\t// in\n    tag_100:\n        /* \"RegarStaking.sol\":1897:1932  uint256 reward = earned(msg.sender) */\n      swap1\n      pop\n        /* \"RegarStaking.sol\":1960:1961  0 */\n      0x00\n        /* \"RegarStaking.sol\":1951:1957  reward */\n      dup2\n        /* \"RegarStaking.sol\":1951:1961  reward > 0 */\n      gt\n        /* \"RegarStaking.sol\":1943:1982  require(reward > 0, \"Tidak ada hadiah\") */\n      tag_101\n      jumpi\n      mload(0x40)\n      0x08c379a000000000000000000000000000000000000000000000000000000000\n      dup2\n      mstore\n      0x04\n      add\n      tag_102\n      swap1\n      tag_103\n      jump\t// in\n    tag_102:\n      mload(0x40)\n      dup1\n      swap2\n      sub\n      swap1\n      revert\n    tag_101:\n        /* \"RegarStaking.sol\":2025:2026  0 */\n      0x00\n        /* \"RegarStaking.sol\":2003:2010  rewards */\n      0x05\n        /* \"RegarStaking.sol\":2003:2022  rewards[msg.sender] */\n      0x00\n        /* \"RegarStaking.sol\":2011:2021  msg.sender */\n      caller\n        /* \"RegarStaking.sol\":2003:2022  rewards[msg.sender] */\n      0xffffffffffffffffffffffffffffffffffffffff\n      and\n      0xffffffffffffffffffffffffffffffffffffffff\n      and\n      dup2\n      mstore\n      0x20\n      add\n      swap1\n      dup2\n      mstore\n      0x20\n      add\n      0x00\n      keccak256\n        /* \"RegarStaking.sol\":2003:2026  rewards[msg.sender] = 0 */\n      dup2\n      swap1\n      sstore\n      pop\n        /* \"RegarStaking.sol\":2066:2081  block.timestamp */\n      timestamp\n        /* \"RegarStaking.sol\":2037:2051  lastUpdateTime */\n      0x04\n        /* \"RegarStaking.sol\":2037:2063  lastUpdateTime[msg.sender] */\n      0x00\n        /* \"RegarStaking.sol\":2052:2062  msg.sender */\n      caller\n        /* \"RegarStaking.sol\":2037:2063  lastUpdateTime[msg.sender] */\n      0xffffffffffffffffffffffffffffffffffffffff\n      and\n      0xffffffffffffffffffffffffffffffffffffffff\n      and\n      dup2\n      mstore\n      0x20\n      add\n      swap1\n      dup2\n      mstore\n      0x20\n      add\n      0x00\n      keccak256\n        /* \"RegarStaking.sol\":2037:2081  lastUpdateTime[msg.sender] = block.timestamp */\n      dup2\n      swap1\n      sstore\n      pop\n        /* \"RegarStaking.sol\":2092:2102  regarToken */\n      0x01\n      0x00\n      swap1\n      sload\n      swap1\n      0x0100\n      exp\n      swap1\n      div\n      0xffffffffffffffffffffffffffffffffffffffff\n      and\n        /* \"RegarStaking.sol\":2092:2111  regarToken.transfer */\n      0xffffffffffffffffffffffffffffffffffffffff\n      and\n      0xa9059cbb\n        /* \"RegarStaking.sol\":2112:2122  msg.sender */\n      caller\n        /* \"RegarStaking.sol\":2124:2130  reward */\n      dup4\n        /* \"RegarStaking.sol\":2092:2131  regarToken.transfer(msg.sender, reward) */\n      mload(0x40)\n      dup4\n      0xffffffff\n      and\n      0xe0\n      shl\n      dup2\n      mstore\n      0x04\n      add\n      tag_104\n      swap3\n      swap2\n      swap1\n      tag_76\n      jump\t// in\n    tag_104:\n      0x20\n      mload(0x40)\n      dup1\n      dup4\n      sub\n      dup2\n      0x00\n      dup8\n      gas\n      call\n      iszero\n      dup1\n      iszero\n      tag_106\n      jumpi\n      returndatacopy(0x00, 0x00, returndatasize)\n      revert(0x00, returndatasize)\n    tag_106:\n      pop\n      pop\n      pop\n      pop\n      mload(0x40)\n      returndatasize\n      not(0x1f)\n      0x1f\n      dup3\n      add\n      and\n      dup3\n      add\n      dup1\n      0x40\n      mstore\n      pop\n      dup2\n      add\n      swap1\n      tag_107\n      swap2\n      swap1\n      tag_80\n      jump\t// in\n    tag_107:\n      pop\n        /* \"RegarStaking.sol\":1886:2139  {... */\n      pop\n        /* \"RegarStaking.sol\":1854:2139  function claimReward() external {... */\n      jump\t// out\n        /* \"@openzeppelin/contracts/access/Ownable.sol\":2543:2758  function transferOwnership(address newOwner) public virtual onlyOwner {... */\n    tag_54:\n        /* \"@openzeppelin/contracts/access/Ownable.sol\":1531:1544  _checkOwner() */\n      tag_109\n        /* \"@openzeppelin/contracts/access/Ownable.sol\":1531:1542  _checkOwner */\n      tag_83\n        /* \"@openzeppelin/contracts/access/Ownable.sol\":1531:1544  _checkOwner() */\n      jump\t// in\n    tag_109:\n        /* \"@openzeppelin/contracts/access/Ownable.sol\":2647:2648  0 */\n      0x00\n        /* \"@openzeppelin/contracts/access/Ownable.sol\":2627:2649  newOwner == address(0) */\n      0xffffffffffffffffffffffffffffffffffffffff\n      and\n        /* \"@openzeppelin/contracts/access/Ownable.sol\":2627:2635  newOwner */\n      dup2\n        /* \"@openzeppelin/contracts/access/Ownable.sol\":2627:2649  newOwner == address(0) */\n      0xffffffffffffffffffffffffffffffffffffffff\n      and\n      sub\n        /* \"@openzeppelin/contracts/access/Ownable.sol\":2623:2714  if (newOwner == address(0)) {... */\n      tag_111\n      jumpi\n        /* \"@openzeppelin/contracts/access/Ownable.sol\":2700:2701  0 */\n      0x00\n        /* \"@openzeppelin/contracts/access/Ownable.sol\":2672:2703  OwnableInvalidOwner(address(0)) */\n      mload(0x40)\n      0x1e4fbdf700000000000000000000000000000000000000000000000000000000\n      dup2\n      mstore\n      0x04\n      add\n      tag_112\n      swap2\n      swap1\n      tag_46\n      jump\t// in\n    tag_112:\n      mload(0x40)\n      dup1\n      swap2\n      sub\n      swap1\n      revert\n        /* \"@openzeppelin/contracts/access/Ownable.sol\":2623:2714  if (newOwner == address(0)) {... */\n    tag_111:\n        /* \"@openzeppelin/contracts/access/Ownable.sol\":2723:2751  _transferOwnership(newOwner) */\n      tag_113\n        /* \"@openzeppelin/contracts/access/Ownable.sol\":2742:2750  newOwner */\n      dup2\n        /* \"@openzeppelin/contracts/access/Ownable.sol\":2723:2741  _transferOwnership */\n      tag_86\n        /* \"@openzeppelin/contracts/access/Ownable.sol\":2723:2751  _transferOwnership(newOwner) */\n      jump\t// in\n    tag_113:\n        /* \"@openzeppelin/contracts/access/Ownable.sol\":2543:2758  function transferOwnership(address newOwner) public virtual onlyOwner {... */\n      pop\n      jump\t// out\n        /* \"RegarStaking.sol\":356:403  mapping(address => uint256) public stakedAmount */\n    tag_57:\n      mstore(0x20, 0x03)\n      dup1\n      0x00\n      mstore\n      keccak256(0x00, 0x40)\n      0x00\n      swap2\n      pop\n      swap1\n      pop\n      sload\n      dup2\n      jump\t// out\n        /* \"@openzeppelin/contracts/access/Ownable.sol\":1796:1958  function _checkOwner() internal view virtual {... */\n    tag_83:\n        /* \"@openzeppelin/contracts/access/Ownable.sol\":1866:1878  _msgSender() */\n      tag_115\n        /* \"@openzeppelin/contracts/access/Ownable.sol\":1866:1876  _msgSender */\n      tag_116\n        /* \"@openzeppelin/contracts/access/Ownable.sol\":1866:1878  _msgSender() */\n      jump\t// in\n    tag_115:\n        /* \"@openzeppelin/contracts/access/Ownable.sol\":1855:1878  owner() != _msgSender() */\n      0xffffffffffffffffffffffffffffffffffffffff\n      and\n        /* \"@openzeppelin/contracts/access/Ownable.sol\":1855:1862  owner() */\n      tag_117\n        /* \"@openzeppelin/contracts/access/Ownable.sol\":1855:1860  owner */\n      tag_44\n        /* \"@openzeppelin/contracts/access/Ownable.sol\":1855:1862  owner() */\n      jump\t// in\n    tag_117:\n        /* \"@openzeppelin/contracts/access/Ownable.sol\":1855:1878  owner() != _msgSender() */\n      0xffffffffffffffffffffffffffffffffffffffff\n      and\n      eq\n        /* \"@openzeppelin/contracts/access/Ownable.sol\":1851:1952  if (owner() != _msgSender()) {... */\n      tag_118\n      jumpi\n        /* \"@openzeppelin/contracts/access/Ownable.sol\":1928:1940  _msgSender() */\n      tag_119\n        /* \"@openzeppelin/contracts/access/Ownable.sol\":1928:1938  _msgSender */\n      tag_116\n        /* \"@openzeppelin/contracts/access/Ownable.sol\":1928:1940  _msgSender() */\n      jump\t// in\n    tag_119:\n        /* \"@openzeppelin/contracts/access/Ownable.sol\":1901:1941  OwnableUnauthorizedAccount(_msgSender()) */\n      mload(0x40)\n      0x118cdaa700000000000000000000000000000000000000000000000000000000\n      dup2\n      mstore\n      0x04\n      add\n      tag_120\n      swap2\n      swap1\n      tag_46\n      jump\t// in\n    tag_120:\n      mload(0x40)\n      dup1\n      swap2\n      sub\n      swap1\n      revert\n        /* \"@openzeppelin/contracts/access/Ownable.sol\":1851:1952  if (owner() != _msgSender()) {... */\n    tag_118:\n        /* \"@openzeppelin/contracts/access/Ownable.sol\":1796:1958  function _checkOwner() internal view virtual {... */\n      jump\t// out\n        /* \"@openzeppelin/contracts/access/Ownable.sol\":2912:3099  function _transferOwnership(address newOwner) internal virtual {... */\n    tag_86:\n        /* \"@openzeppelin/contracts/access/Ownable.sol\":2985:3001  address oldOwner */\n      0x00\n        /* \"@openzeppelin/contracts/access/Ownable.sol\":3004:3010  _owner */\n      0x00\n      0x00\n      swap1\n      sload\n      swap1\n      0x0100\n      exp\n      swap1\n      div\n      0xffffffffffffffffffffffffffffffffffffffff\n      and\n        /* \"@openzeppelin/contracts/access/Ownable.sol\":2985:3010  address oldOwner = _owner */\n      swap1\n      pop\n        /* \"@openzeppelin/contracts/access/Ownable.sol\":3029:3037  newOwner */\n      dup2\n        /* \"@openzeppelin/contracts/access/Ownable.sol\":3020:3026  _owner */\n      0x00\n      0x00\n        /* \"@openzeppelin/contracts/access/Ownable.sol\":3020:3037  _owner = newOwner */\n      0x0100\n      exp\n      dup2\n      sload\n      dup2\n      0xffffffffffffffffffffffffffffffffffffffff\n      mul\n      not\n      and\n      swap1\n      dup4\n      0xffffffffffffffffffffffffffffffffffffffff\n      and\n      mul\n      or\n      swap1\n      sstore\n      pop\n        /* \"@openzeppelin/contracts/access/Ownable.sol\":3083:3091  newOwner */\n      dup2\n        /* \"@openzeppelin/contracts/access/Ownable.sol\":3052:3092  OwnershipTransferred(oldOwner, newOwner) */\n      0xffffffffffffffffffffffffffffffffffffffff\n      and\n        /* \"@openzeppelin/contracts/access/Ownable.sol\":3073:3081  oldOwner */\n      dup2\n        /* \"@openzeppelin/contracts/access/Ownable.sol\":3052:3092  OwnershipTransferred(oldOwner, newOwner) */\n      0xffffffffffffffffffffffffffffffffffffffff\n      and\n      0x8be0079c531659141344cd1fd0a4f28419497f9722a3daafe3b4186f6b6457e0\n      mload(0x40)\n      mload(0x40)\n      dup1\n      swap2\n      sub\n      swap1\n      log3\n        /* \"@openzeppelin/contracts/access/Ownable.sol\":2975:3099  {... */\n      pop\n        /* \"@openzeppelin/contracts/access/Ownable.sol\":2912:3099  function _transferOwnership(address newOwner) internal virtual {... */\n      pop\n      jump\t// out\n        /* \"@openzeppelin/contracts/utils/Context.sol\":656:752  function _msgSender() internal view virtual returns (address) {... */\n    tag_116:\n        /* \"@openzeppelin/contracts/utils/Context.sol\":709:716  address */\n      0x00\n        /* \"@openzeppelin/contracts/utils/Context.sol\":735:745  msg.sender */\n      caller\n        /* \"@openzeppelin/contracts/utils/Context.sol\":728:745  return msg.sender */\n      swap1\n      pop\n        /* \"@openzeppelin/contracts/utils/Context.sol\":656:752  function _msgSender() internal view virtual returns (address) {... */\n      swap1\n      jump\t// out\n        /* \"#utility.yul\":88:205   */\n    tag_124:\n        /* \"#utility.yul\":197:198   */\n      0x00\n        /* \"#utility.yul\":194:195   */\n      0x00\n        /* \"#utility.yul\":187:199   */\n      revert\n        /* \"#utility.yul\":334:460   */\n    tag_126:\n        /* \"#utility.yul\":371:378   */\n      0x00\n        /* \"#utility.yul\":411:453   */\n      0xffffffffffffffffffffffffffffffffffffffff\n        /* \"#utility.yul\":404:409   */\n      dup3\n        /* \"#utility.yul\":400:454   */\n      and\n        /* \"#utility.yul\":389:454   */\n      swap1\n      pop\n        /* \"#utility.yul\":334:460   */\n      swap2\n      swap1\n      pop\n      jump\t// out\n        /* \"#utility.yul\":466:562   */\n    tag_127:\n        /* \"#utility.yul\":503:510   */\n      0x00\n        /* \"#utility.yul\":532:556   */\n      tag_158\n        /* \"#utility.yul\":550:555   */\n      dup3\n        /* \"#utility.yul\":532:556   */\n      tag_126\n      jump\t// in\n    tag_158:\n        /* \"#utility.yul\":521:556   */\n      swap1\n      pop\n        /* \"#utility.yul\":466:562   */\n      swap2\n      swap1\n      pop\n      jump\t// out\n        /* \"#utility.yul\":568:690   */\n    tag_128:\n        /* \"#utility.yul\":641:665   */\n      tag_160\n        /* \"#utility.yul\":659:664   */\n      dup2\n        /* \"#utility.yul\":641:665   */\n      tag_127\n      jump\t// in\n    tag_160:\n        /* \"#utility.yul\":634:639   */\n      dup2\n        /* \"#utility.yul\":631:666   */\n      eq\n        /* \"#utility.yul\":621:684   */\n      tag_161\n      jumpi\n        /* \"#utility.yul\":680:681   */\n      0x00\n        /* \"#utility.yul\":677:678   */\n      0x00\n        /* \"#utility.yul\":670:682   */\n      revert\n        /* \"#utility.yul\":621:684   */\n    tag_161:\n        /* \"#utility.yul\":568:690   */\n      pop\n      jump\t// out\n        /* \"#utility.yul\":696:835   */\n    tag_129:\n        /* \"#utility.yul\":742:747   */\n      0x00\n        /* \"#utility.yul\":780:786   */\n      dup2\n        /* \"#utility.yul\":767:787   */\n      calldataload\n        /* \"#utility.yul\":758:787   */\n      swap1\n      pop\n        /* \"#utility.yul\":796:829   */\n      tag_163\n        /* \"#utility.yul\":823:828   */\n      dup2\n        /* \"#utility.yul\":796:829   */\n      tag_128\n      jump\t// in\n    tag_163:\n        /* \"#utility.yul\":696:835   */\n      swap3\n      swap2\n      pop\n      pop\n      jump\t// out\n        /* \"#utility.yul\":841:1170   */\n    tag_18:\n        /* \"#utility.yul\":900:906   */\n      0x00\n        /* \"#utility.yul\":949:951   */\n      0x20\n        /* \"#utility.yul\":937:946   */\n      dup3\n        /* \"#utility.yul\":928:935   */\n      dup5\n        /* \"#utility.yul\":924:947   */\n      sub\n        /* \"#utility.yul\":920:952   */\n      slt\n        /* \"#utility.yul\":917:1036   */\n      iszero\n      tag_165\n      jumpi\n        /* \"#utility.yul\":955:1034   */\n      tag_166\n      tag_124\n      jump\t// in\n    tag_166:\n        /* \"#utility.yul\":917:1036   */\n    tag_165:\n        /* \"#utility.yul\":1075:1076   */\n      0x00\n        /* \"#utility.yul\":1100:1153   */\n      tag_167\n        /* \"#utility.yul\":1145:1152   */\n      dup5\n        /* \"#utility.yul\":1136:1142   */\n      dup3\n        /* \"#utility.yul\":1125:1134   */\n      dup6\n        /* \"#utility.yul\":1121:1143   */\n      add\n        /* \"#utility.yul\":1100:1153   */\n      tag_129\n      jump\t// in\n    tag_167:\n        /* \"#utility.yul\":1090:1153   */\n      swap2\n      pop\n        /* \"#utility.yul\":1046:1163   */\n      pop\n        /* \"#utility.yul\":841:1170   */\n      swap3\n      swap2\n      pop\n      pop\n      jump\t// out\n        /* \"#utility.yul\":1176:1253   */\n    tag_130:\n        /* \"#utility.yul\":1213:1220   */\n      0x00\n        /* \"#utility.yul\":1242:1247   */\n      dup2\n        /* \"#utility.yul\":1231:1247   */\n      swap1\n      pop\n        /* \"#utility.yul\":1176:1253   */\n      swap2\n      swap1\n      pop\n      jump\t// out\n        /* \"#utility.yul\":1259:1377   */\n    tag_131:\n        /* \"#utility.yul\":1346:1370   */\n      tag_170\n        /* \"#utility.yul\":1364:1369   */\n      dup2\n        /* \"#utility.yul\":1346:1370   */\n      tag_130\n      jump\t// in\n    tag_170:\n        /* \"#utility.yul\":1341:1344   */\n      dup3\n        /* \"#utility.yul\":1334:1371   */\n      mstore\n        /* \"#utility.yul\":1259:1377   */\n      pop\n      pop\n      jump\t// out\n        /* \"#utility.yul\":1383:1605   */\n    tag_21:\n        /* \"#utility.yul\":1476:1480   */\n      0x00\n        /* \"#utility.yul\":1514:1516   */\n      0x20\n        /* \"#utility.yul\":1503:1512   */\n      dup3\n        /* \"#utility.yul\":1499:1517   */\n      add\n        /* \"#utility.yul\":1491:1517   */\n      swap1\n      pop\n        /* \"#utility.yul\":1527:1598   */\n      tag_172\n        /* \"#utility.yul\":1595:1596   */\n      0x00\n        /* \"#utility.yul\":1584:1593   */\n      dup4\n        /* \"#utility.yul\":1580:1597   */\n      add\n        /* \"#utility.yul\":1571:1577   */\n      dup5\n        /* \"#utility.yul\":1527:1598   */\n      tag_131\n      jump\t// in\n    tag_172:\n        /* \"#utility.yul\":1383:1605   */\n      swap3\n      swap2\n      pop\n      pop\n      jump\t// out\n        /* \"#utility.yul\":1611:1671   */\n    tag_132:\n        /* \"#utility.yul\":1639:1642   */\n      0x00\n        /* \"#utility.yul\":1660:1665   */\n      dup2\n        /* \"#utility.yul\":1653:1665   */\n      swap1\n      pop\n        /* \"#utility.yul\":1611:1671   */\n      swap2\n      swap1\n      pop\n      jump\t// out\n        /* \"#utility.yul\":1677:1819   */\n    tag_133:\n        /* \"#utility.yul\":1727:1736   */\n      0x00\n        /* \"#utility.yul\":1760:1813   */\n      tag_175\n        /* \"#utility.yul\":1778:1812   */\n      tag_176\n        /* \"#utility.yul\":1787:1811   */\n      tag_177\n        /* \"#utility.yul\":1805:1810   */\n      dup5\n        /* \"#utility.yul\":1787:1811   */\n      tag_126\n      jump\t// in\n    tag_177:\n        /* \"#utility.yul\":1778:1812   */\n      tag_132\n      jump\t// in\n    tag_176:\n        /* \"#utility.yul\":1760:1813   */\n      tag_126\n      jump\t// in\n    tag_175:\n        /* \"#utility.yul\":1747:1813   */\n      swap1\n      pop\n        /* \"#utility.yul\":1677:1819   */\n      swap2\n      swap1\n      pop\n      jump\t// out\n        /* \"#utility.yul\":1825:1951   */\n    tag_134:\n        /* \"#utility.yul\":1875:1884   */\n      0x00\n        /* \"#utility.yul\":1908:1945   */\n      tag_179\n        /* \"#utility.yul\":1939:1944   */\n      dup3\n        /* \"#utility.yul\":1908:1945   */\n      tag_133\n      jump\t// in\n    tag_179:\n        /* \"#utility.yul\":1895:1945   */\n      swap1\n      pop\n        /* \"#utility.yul\":1825:1951   */\n      swap2\n      swap1\n      pop\n      jump\t// out\n        /* \"#utility.yul\":1957:2097   */\n    tag_135:\n        /* \"#utility.yul\":2021:2030   */\n      0x00\n        /* \"#utility.yul\":2054:2091   */\n      tag_181\n        /* \"#utility.yul\":2085:2090   */\n      dup3\n        /* \"#utility.yul\":2054:2091   */\n      tag_134\n      jump\t// in\n    tag_181:\n        /* \"#utility.yul\":2041:2091   */\n      swap1\n      pop\n        /* \"#utility.yul\":1957:2097   */\n      swap2\n      swap1\n      pop\n      jump\t// out\n        /* \"#utility.yul\":2103:2262   */\n    tag_136:\n        /* \"#utility.yul\":2204:2255   */\n      tag_183\n        /* \"#utility.yul\":2249:2254   */\n      dup2\n        /* \"#utility.yul\":2204:2255   */\n      tag_135\n      jump\t// in\n    tag_183:\n        /* \"#utility.yul\":2199:2202   */\n      dup3\n        /* \"#utility.yul\":2192:2256   */\n      mstore\n        /* \"#utility.yul\":2103:2262   */\n      pop\n      pop\n      jump\t// out\n        /* \"#utility.yul\":2268:2518   */\n    tag_29:\n        /* \"#utility.yul\":2375:2379   */\n      0x00\n        /* \"#utility.yul\":2413:2415   */\n      0x20\n        /* \"#utility.yul\":2402:2411   */\n      dup3\n        /* \"#utility.yul\":2398:2416   */\n      add\n        /* \"#utility.yul\":2390:2416   */\n      swap1\n      pop\n        /* \"#utility.yul\":2426:2511   */\n      tag_185\n        /* \"#utility.yul\":2508:2509   */\n      0x00\n        /* \"#utility.yul\":2497:2506   */\n      dup4\n        /* \"#utility.yul\":2493:2510   */\n      add\n        /* \"#utility.yul\":2484:2490   */\n      dup5\n        /* \"#utility.yul\":2426:2511   */\n      tag_136\n      jump\t// in\n    tag_185:\n        /* \"#utility.yul\":2268:2518   */\n      swap3\n      swap2\n      pop\n      pop\n      jump\t// out\n        /* \"#utility.yul\":2524:2646   */\n    tag_137:\n        /* \"#utility.yul\":2597:2621   */\n      tag_187\n        /* \"#utility.yul\":2615:2620   */\n      dup2\n        /* \"#utility.yul\":2597:2621   */\n      tag_130\n      jump\t// in\n    tag_187:\n        /* \"#utility.yul\":2590:2595   */\n      dup2\n        /* \"#utility.yul\":2587:2622   */\n      eq\n        /* \"#utility.yul\":2577:2640   */\n      tag_188\n      jumpi\n        /* \"#utility.yul\":2636:2637   */\n      0x00\n        /* \"#utility.yul\":2633:2634   */\n      0x00\n        /* \"#utility.yul\":2626:2638   */\n      revert\n        /* \"#utility.yul\":2577:2640   */\n    tag_188:\n        /* \"#utility.yul\":2524:2646   */\n      pop\n      jump\t// out\n        /* \"#utility.yul\":2652:2791   */\n    tag_138:\n        /* \"#utility.yul\":2698:2703   */\n      0x00\n        /* \"#utility.yul\":2736:2742   */\n      dup2\n        /* \"#utility.yul\":2723:2743   */\n      calldataload\n        /* \"#utility.yul\":2714:2743   */\n      swap1\n      pop\n        /* \"#utility.yul\":2752:2785   */\n      tag_190\n        /* \"#utility.yul\":2779:2784   */\n      dup2\n        /* \"#utility.yul\":2752:2785   */\n      tag_137\n      jump\t// in\n    tag_190:\n        /* \"#utility.yul\":2652:2791   */\n      swap3\n      swap2\n      pop\n      pop\n      jump\t// out\n        /* \"#utility.yul\":2797:3126   */\n    tag_36:\n        /* \"#utility.yul\":2856:2862   */\n      0x00\n        /* \"#utility.yul\":2905:2907   */\n      0x20\n        /* \"#utility.yul\":2893:2902   */\n      dup3\n        /* \"#utility.yul\":2884:2891   */\n      dup5\n        /* \"#utility.yul\":2880:2903   */\n      sub\n        /* \"#utility.yul\":2876:2908   */\n      slt\n        /* \"#utility.yul\":2873:2992   */\n      iszero\n      tag_192\n      jumpi\n        /* \"#utility.yul\":2911:2990   */\n      tag_193\n      tag_124\n      jump\t// in\n    tag_193:\n        /* \"#utility.yul\":2873:2992   */\n    tag_192:\n        /* \"#utility.yul\":3031:3032   */\n      0x00\n        /* \"#utility.yul\":3056:3109   */\n      tag_194\n        /* \"#utility.yul\":3101:3108   */\n      dup5\n        /* \"#utility.yul\":3092:3098   */\n      dup3\n        /* \"#utility.yul\":3081:3090   */\n      dup6\n        /* \"#utility.yul\":3077:3099   */\n      add\n        /* \"#utility.yul\":3056:3109   */\n      tag_138\n      jump\t// in\n    tag_194:\n        /* \"#utility.yul\":3046:3109   */\n      swap2\n      pop\n        /* \"#utility.yul\":3002:3119   */\n      pop\n        /* \"#utility.yul\":2797:3126   */\n      swap3\n      swap2\n      pop\n      pop\n      jump\t// out\n        /* \"#utility.yul\":3132:3250   */\n    tag_139:\n        /* \"#utility.yul\":3219:3243   */\n      tag_196\n        /* \"#utility.yul\":3237:3242   */\n      dup2\n        /* \"#utility.yul\":3219:3243   */\n      tag_127\n      jump\t// in\n    tag_196:\n        /* \"#utility.yul\":3214:3217   */\n      dup3\n        /* \"#utility.yul\":3207:3244   */\n      mstore\n        /* \"#utility.yul\":3132:3250   */\n      pop\n      pop\n      jump\t// out\n        /* \"#utility.yul\":3256:3478   */\n    tag_46:\n        /* \"#utility.yul\":3349:3353   */\n      0x00\n        /* \"#utility.yul\":3387:3389   */\n      0x20\n        /* \"#utility.yul\":3376:3385   */\n      dup3\n        /* \"#utility.yul\":3372:3390   */\n      add\n        /* \"#utility.yul\":3364:3390   */\n      swap1\n      pop\n        /* \"#utility.yul\":3400:3471   */\n      tag_198\n        /* \"#utility.yul\":3468:3469   */\n      0x00\n        /* \"#utility.yul\":3457:3466   */\n      dup4\n        /* \"#utility.yul\":3453:3470   */\n      add\n        /* \"#utility.yul\":3444:3450   */\n      dup5\n        /* \"#utility.yul\":3400:3471   */\n      tag_139\n      jump\t// in\n    tag_198:\n        /* \"#utility.yul\":3256:3478   */\n      swap3\n      swap2\n      pop\n      pop\n      jump\t// out\n        /* \"#utility.yul\":3484:3664   */\n    tag_140:\n        /* \"#utility.yul\":3532:3609   */\n      0x4e487b7100000000000000000000000000000000000000000000000000000000\n        /* \"#utility.yul\":3529:3530   */\n      0x00\n        /* \"#utility.yul\":3522:3610   */\n      mstore\n        /* \"#utility.yul\":3629:3633   */\n      0x11\n        /* \"#utility.yul\":3626:3627   */\n      0x04\n        /* \"#utility.yul\":3619:3634   */\n      mstore\n        /* \"#utility.yul\":3653:3657   */\n      0x24\n        /* \"#utility.yul\":3650:3651   */\n      0x00\n        /* \"#utility.yul\":3643:3658   */\n      revert\n        /* \"#utility.yul\":3670:3864   */\n    tag_61:\n        /* \"#utility.yul\":3710:3714   */\n      0x00\n        /* \"#utility.yul\":3730:3750   */\n      tag_201\n        /* \"#utility.yul\":3748:3749   */\n      dup3\n        /* \"#utility.yul\":3730:3750   */\n      tag_130\n      jump\t// in\n    tag_201:\n        /* \"#utility.yul\":3725:3750   */\n      swap2\n      pop\n        /* \"#utility.yul\":3764:3784   */\n      tag_202\n        /* \"#utility.yul\":3782:3783   */\n      dup4\n        /* \"#utility.yul\":3764:3784   */\n      tag_130\n      jump\t// in\n    tag_202:\n        /* \"#utility.yul\":3759:3784   */\n      swap3\n      pop\n        /* \"#utility.yul\":3808:3809   */\n      dup3\n        /* \"#utility.yul\":3805:3806   */\n      dup3\n        /* \"#utility.yul\":3801:3810   */\n      sub\n        /* \"#utility.yul\":3793:3810   */\n      swap1\n      pop\n        /* \"#utility.yul\":3832:3833   */\n      dup2\n        /* \"#utility.yul\":3826:3830   */\n      dup2\n        /* \"#utility.yul\":3823:3834   */\n      gt\n        /* \"#utility.yul\":3820:3857   */\n      iszero\n      tag_203\n      jumpi\n        /* \"#utility.yul\":3837:3855   */\n      tag_204\n      tag_140\n      jump\t// in\n    tag_204:\n        /* \"#utility.yul\":3820:3857   */\n    tag_203:\n        /* \"#utility.yul\":3670:3864   */\n      swap3\n      swap2\n      pop\n      pop\n      jump\t// out\n        /* \"#utility.yul\":3870:4280   */\n    tag_63:\n        /* \"#utility.yul\":3910:3917   */\n      0x00\n        /* \"#utility.yul\":3933:3953   */\n      tag_206\n        /* \"#utility.yul\":3951:3952   */\n      dup3\n        /* \"#utility.yul\":3933:3953   */\n      tag_130\n      jump\t// in\n    tag_206:\n        /* \"#utility.yul\":3928:3953   */\n      swap2\n      pop\n        /* \"#utility.yul\":3967:3987   */\n      tag_207\n        /* \"#utility.yul\":3985:3986   */\n      dup4\n        /* \"#utility.yul\":3967:3987   */\n      tag_130\n      jump\t// in\n    tag_207:\n        /* \"#utility.yul\":3962:3987   */\n      swap3\n      pop\n        /* \"#utility.yul\":4022:4023   */\n      dup3\n        /* \"#utility.yul\":4019:4020   */\n      dup3\n        /* \"#utility.yul\":4015:4024   */\n      mul\n        /* \"#utility.yul\":4044:4074   */\n      tag_208\n        /* \"#utility.yul\":4062:4073   */\n      dup2\n        /* \"#utility.yul\":4044:4074   */\n      tag_130\n      jump\t// in\n    tag_208:\n        /* \"#utility.yul\":4033:4074   */\n      swap2\n      pop\n        /* \"#utility.yul\":4223:4224   */\n      dup3\n        /* \"#utility.yul\":4214:4221   */\n      dup3\n        /* \"#utility.yul\":4210:4225   */\n      div\n        /* \"#utility.yul\":4207:4208   */\n      dup5\n        /* \"#utility.yul\":4204:4226   */\n      eq\n        /* \"#utility.yul\":4184:4185   */\n      dup4\n        /* \"#utility.yul\":4177:4186   */\n      iszero\n        /* \"#utility.yul\":4157:4240   */\n      or\n        /* \"#utility.yul\":4134:4273   */\n      tag_209\n      jumpi\n        /* \"#utility.yul\":4253:4271   */\n      tag_210\n      tag_140\n      jump\t// in\n    tag_210:\n        /* \"#utility.yul\":4134:4273   */\n    tag_209:\n        /* \"#utility.yul\":3918:4280   */\n      pop\n        /* \"#utility.yul\":3870:4280   */\n      swap3\n      swap2\n      pop\n      pop\n      jump\t// out\n        /* \"#utility.yul\":4286:4466   */\n    tag_141:\n        /* \"#utility.yul\":4334:4411   */\n      0x4e487b7100000000000000000000000000000000000000000000000000000000\n        /* \"#utility.yul\":4331:4332   */\n      0x00\n        /* \"#utility.yul\":4324:4412   */\n      mstore\n        /* \"#utility.yul\":4431:4435   */\n      0x12\n        /* \"#utility.yul\":4428:4429   */\n      0x04\n        /* \"#utility.yul\":4421:4436   */\n      mstore\n        /* \"#utility.yul\":4455:4459   */\n      0x24\n        /* \"#utility.yul\":4452:4453   */\n      0x00\n        /* \"#utility.yul\":4445:4460   */\n      revert\n        /* \"#utility.yul\":4472:4657   */\n    tag_66:\n        /* \"#utility.yul\":4512:4513   */\n      0x00\n        /* \"#utility.yul\":4529:4549   */\n      tag_213\n        /* \"#utility.yul\":4547:4548   */\n      dup3\n        /* \"#utility.yul\":4529:4549   */\n      tag_130\n      jump\t// in\n    tag_213:\n        /* \"#utility.yul\":4524:4549   */\n      swap2\n      pop\n        /* \"#utility.yul\":4563:4583   */\n      tag_214\n        /* \"#utility.yul\":4581:4582   */\n      dup4\n        /* \"#utility.yul\":4563:4583   */\n      tag_130\n      jump\t// in\n    tag_214:\n        /* \"#utility.yul\":4558:4583   */\n      swap3\n      pop\n        /* \"#utility.yul\":4602:4603   */\n      dup3\n        /* \"#utility.yul\":4592:4627   */\n      tag_215\n      jumpi\n        /* \"#utility.yul\":4607:4625   */\n      tag_216\n      tag_141\n      jump\t// in\n    tag_216:\n        /* \"#utility.yul\":4592:4627   */\n    tag_215:\n        /* \"#utility.yul\":4649:4650   */\n      dup3\n        /* \"#utility.yul\":4646:4647   */\n      dup3\n        /* \"#utility.yul\":4642:4651   */\n      div\n        /* \"#utility.yul\":4637:4651   */\n      swap1\n      pop\n        /* \"#utility.yul\":4472:4657   */\n      swap3\n      swap2\n      pop\n      pop\n      jump\t// out\n        /* \"#utility.yul\":4663:4854   */\n    tag_68:\n        /* \"#utility.yul\":4703:4706   */\n      0x00\n        /* \"#utility.yul\":4722:4742   */\n      tag_218\n        /* \"#utility.yul\":4740:4741   */\n      dup3\n        /* \"#utility.yul\":4722:4742   */\n      tag_130\n      jump\t// in\n    tag_218:\n        /* \"#utility.yul\":4717:4742   */\n      swap2\n      pop\n        /* \"#utility.yul\":4756:4776   */\n      tag_219\n        /* \"#utility.yul\":4774:4775   */\n      dup4\n        /* \"#utility.yul\":4756:4776   */\n      tag_130\n      jump\t// in\n    tag_219:\n        /* \"#utility.yul\":4751:4776   */\n      swap3\n      pop\n        /* \"#utility.yul\":4799:4800   */\n      dup3\n        /* \"#utility.yul\":4796:4797   */\n      dup3\n        /* \"#utility.yul\":4792:4801   */\n      add\n        /* \"#utility.yul\":4785:4801   */\n      swap1\n      pop\n        /* \"#utility.yul\":4820:4823   */\n      dup1\n        /* \"#utility.yul\":4817:4818   */\n      dup3\n        /* \"#utility.yul\":4814:4824   */\n      gt\n        /* \"#utility.yul\":4811:4847   */\n      iszero\n      tag_220\n      jumpi\n        /* \"#utility.yul\":4827:4845   */\n      tag_221\n      tag_140\n      jump\t// in\n    tag_221:\n        /* \"#utility.yul\":4811:4847   */\n    tag_220:\n        /* \"#utility.yul\":4663:4854   */\n      swap3\n      swap2\n      pop\n      pop\n      jump\t// out\n        /* \"#utility.yul\":4860:5029   */\n    tag_142:\n        /* \"#utility.yul\":4944:4955   */\n      0x00\n        /* \"#utility.yul\":4978:4984   */\n      dup3\n        /* \"#utility.yul\":4973:4976   */\n      dup3\n        /* \"#utility.yul\":4966:4985   */\n      mstore\n        /* \"#utility.yul\":5018:5022   */\n      0x20\n        /* \"#utility.yul\":5013:5016   */\n      dup3\n        /* \"#utility.yul\":5009:5023   */\n      add\n        /* \"#utility.yul\":4994:5023   */\n      swap1\n      pop\n        /* \"#utility.yul\":4860:5029   */\n      swap3\n      swap2\n      pop\n      pop\n      jump\t// out\n        /* \"#utility.yul\":5035:5210   */\n    tag_143:\n        /* \"#utility.yul\":5175:5202   */\n      0x53616c646f207374616b696e6720746964616b2063756b757000000000000000\n        /* \"#utility.yul\":5171:5172   */\n      0x00\n        /* \"#utility.yul\":5163:5169   */\n      dup3\n        /* \"#utility.yul\":5159:5173   */\n      add\n        /* \"#utility.yul\":5152:5203   */\n      mstore\n        /* \"#utility.yul\":5035:5210   */\n      pop\n      jump\t// out\n        /* \"#utility.yul\":5216:5582   */\n    tag_144:\n        /* \"#utility.yul\":5358:5361   */\n      0x00\n        /* \"#utility.yul\":5379:5446   */\n      tag_225\n        /* \"#utility.yul\":5443:5445   */\n      0x19\n        /* \"#utility.yul\":5438:5441   */\n      dup4\n        /* \"#utility.yul\":5379:5446   */\n      tag_142\n      jump\t// in\n    tag_225:\n        /* \"#utility.yul\":5372:5446   */\n      swap2\n      pop\n        /* \"#utility.yul\":5455:5548   */\n      tag_226\n        /* \"#utility.yul\":5544:5547   */\n      dup3\n        /* \"#utility.yul\":5455:5548   */\n      tag_143\n      jump\t// in\n    tag_226:\n        /* \"#utility.yul\":5573:5575   */\n      0x20\n        /* \"#utility.yul\":5568:5571   */\n      dup3\n        /* \"#utility.yul\":5564:5576   */\n      add\n        /* \"#utility.yul\":5557:5576   */\n      swap1\n      pop\n        /* \"#utility.yul\":5216:5582   */\n      swap2\n      swap1\n      pop\n      jump\t// out\n        /* \"#utility.yul\":5588:6007   */\n    tag_72:\n        /* \"#utility.yul\":5754:5758   */\n      0x00\n        /* \"#utility.yul\":5792:5794   */\n      0x20\n        /* \"#utility.yul\":5781:5790   */\n      dup3\n        /* \"#utility.yul\":5777:5795   */\n      add\n        /* \"#utility.yul\":5769:5795   */\n      swap1\n      pop\n        /* \"#utility.yul\":5841:5850   */\n      dup2\n        /* \"#utility.yul\":5835:5839   */\n      dup2\n        /* \"#utility.yul\":5831:5851   */\n      sub\n        /* \"#utility.yul\":5827:5828   */\n      0x00\n        /* \"#utility.yul\":5816:5825   */\n      dup4\n        /* \"#utility.yul\":5812:5829   */\n      add\n        /* \"#utility.yul\":5805:5852   */\n      mstore\n        /* \"#utility.yul\":5869:6000   */\n      tag_228\n        /* \"#utility.yul\":5995:5999   */\n      dup2\n        /* \"#utility.yul\":5869:6000   */\n      tag_144\n      jump\t// in\n    tag_228:\n        /* \"#utility.yul\":5861:6000   */\n      swap1\n      pop\n        /* \"#utility.yul\":5588:6007   */\n      swap2\n      swap1\n      pop\n      jump\t// out\n        /* \"#utility.yul\":6013:6345   */\n    tag_76:\n        /* \"#utility.yul\":6134:6138   */\n      0x00\n        /* \"#utility.yul\":6172:6174   */\n      0x40\n        /* \"#utility.yul\":6161:6170   */\n      dup3\n        /* \"#utility.yul\":6157:6175   */\n      add\n        /* \"#utility.yul\":6149:6175   */\n      swap1\n      pop\n        /* \"#utility.yul\":6185:6256   */\n      tag_230\n        /* \"#utility.yul\":6253:6254   */\n      0x00\n        /* \"#utility.yul\":6242:6251   */\n      dup4\n        /* \"#utility.yul\":6238:6255   */\n      add\n        /* \"#utility.yul\":6229:6235   */\n      dup6\n        /* \"#utility.yul\":6185:6256   */\n      tag_139\n      jump\t// in\n    tag_230:\n        /* \"#utility.yul\":6266:6338   */\n      tag_231\n        /* \"#utility.yul\":6334:6336   */\n      0x20\n        /* \"#utility.yul\":6323:6332   */\n      dup4\n        /* \"#utility.yul\":6319:6337   */\n      add\n        /* \"#utility.yul\":6310:6316   */\n      dup5\n        /* \"#utility.yul\":6266:6338   */\n      tag_131\n      jump\t// in\n    tag_231:\n        /* \"#utility.yul\":6013:6345   */\n      swap4\n      swap3\n      pop\n      pop\n      pop\n      jump\t// out\n        /* \"#utility.yul\":6351:6441   */\n    tag_145:\n        /* \"#utility.yul\":6385:6392   */\n      0x00\n        /* \"#utility.yul\":6428:6433   */\n      dup2\n        /* \"#utility.yul\":6421:6434   */\n      iszero\n        /* \"#utility.yul\":6414:6435   */\n      iszero\n        /* \"#utility.yul\":6403:6435   */\n      swap1\n      pop\n        /* \"#utility.yul\":6351:6441   */\n      swap2\n      swap1\n      pop\n      jump\t// out\n        /* \"#utility.yul\":6447:6563   */\n    tag_146:\n        /* \"#utility.yul\":6517:6538   */\n      tag_234\n        /* \"#utility.yul\":6532:6537   */\n      dup2\n        /* \"#utility.yul\":6517:6538   */\n      tag_145\n      jump\t// in\n    tag_234:\n        /* \"#utility.yul\":6510:6515   */\n      dup2\n        /* \"#utility.yul\":6507:6539   */\n      eq\n        /* \"#utility.yul\":6497:6557   */\n      tag_235\n      jumpi\n        /* \"#utility.yul\":6553:6554   */\n      0x00\n        /* \"#utility.yul\":6550:6551   */\n      0x00\n        /* \"#utility.yul\":6543:6555   */\n      revert\n        /* \"#utility.yul\":6497:6557   */\n    tag_235:\n        /* \"#utility.yul\":6447:6563   */\n      pop\n      jump\t// out\n        /* \"#utility.yul\":6569:6706   */\n    tag_147:\n        /* \"#utility.yul\":6623:6628   */\n      0x00\n        /* \"#utility.yul\":6654:6660   */\n      dup2\n        /* \"#utility.yul\":6648:6661   */\n      mload\n        /* \"#utility.yul\":6639:6661   */\n      swap1\n      pop\n        /* \"#utility.yul\":6670:6700   */\n      tag_237\n        /* \"#utility.yul\":6694:6699   */\n      dup2\n        /* \"#utility.yul\":6670:6700   */\n      tag_146\n      jump\t// in\n    tag_237:\n        /* \"#utility.yul\":6569:6706   */\n      swap3\n      swap2\n      pop\n      pop\n      jump\t// out\n        /* \"#utility.yul\":6712:7057   */\n    tag_80:\n        /* \"#utility.yul\":6779:6785   */\n      0x00\n        /* \"#utility.yul\":6828:6830   */\n      0x20\n        /* \"#utility.yul\":6816:6825   */\n      dup3\n        /* \"#utility.yul\":6807:6814   */\n      dup5\n        /* \"#utility.yul\":6803:6826   */\n      sub\n        /* \"#utility.yul\":6799:6831   */\n      slt\n        /* \"#utility.yul\":6796:6915   */\n      iszero\n      tag_239\n      jumpi\n        /* \"#utility.yul\":6834:6913   */\n      tag_240\n      tag_124\n      jump\t// in\n    tag_240:\n        /* \"#utility.yul\":6796:6915   */\n    tag_239:\n        /* \"#utility.yul\":6954:6955   */\n      0x00\n        /* \"#utility.yul\":6979:7040   */\n      tag_241\n        /* \"#utility.yul\":7032:7039   */\n      dup5\n        /* \"#utility.yul\":7023:7029   */\n      dup3\n        /* \"#utility.yul\":7012:7021   */\n      dup6\n        /* \"#utility.yul\":7008:7030   */\n      add\n        /* \"#utility.yul\":6979:7040   */\n      tag_147\n      jump\t// in\n    tag_241:\n        /* \"#utility.yul\":6969:7040   */\n      swap2\n      pop\n        /* \"#utility.yul\":6925:7050   */\n      pop\n        /* \"#utility.yul\":6712:7057   */\n      swap3\n      swap2\n      pop\n      pop\n      jump\t// out\n        /* \"#utility.yul\":7063:7238   */\n    tag_148:\n        /* \"#utility.yul\":7203:7230   */\n      0x4a756d6c6168206861727573206c656269682064617269203000000000000000\n        /* \"#utility.yul\":7199:7200   */\n      0x00\n        /* \"#utility.yul\":7191:7197   */\n      dup3\n        /* \"#utility.yul\":7187:7201   */\n      add\n        /* \"#utility.yul\":7180:7231   */\n      mstore\n        /* \"#utility.yul\":7063:7238   */\n      pop\n      jump\t// out\n        /* \"#utility.yul\":7244:7610   */\n    tag_149:\n        /* \"#utility.yul\":7386:7389   */\n      0x00\n        /* \"#utility.yul\":7407:7474   */\n      tag_244\n        /* \"#utility.yul\":7471:7473   */\n      0x19\n        /* \"#utility.yul\":7466:7469   */\n      dup4\n        /* \"#utility.yul\":7407:7474   */\n      tag_142\n      jump\t// in\n    tag_244:\n        /* \"#utility.yul\":7400:7474   */\n      swap2\n      pop\n        /* \"#utility.yul\":7483:7576   */\n      tag_245\n        /* \"#utility.yul\":7572:7575   */\n      dup3\n        /* \"#utility.yul\":7483:7576   */\n      tag_148\n      jump\t// in\n    tag_245:\n        /* \"#utility.yul\":7601:7603   */\n      0x20\n        /* \"#utility.yul\":7596:7599   */\n      dup3\n        /* \"#utility.yul\":7592:7604   */\n      add\n        /* \"#utility.yul\":7585:7604   */\n      swap1\n      pop\n        /* \"#utility.yul\":7244:7610   */\n      swap2\n      swap1\n      pop\n      jump\t// out\n        /* \"#utility.yul\":7616:8035   */\n    tag_91:\n        /* \"#utility.yul\":7782:7786   */\n      0x00\n        /* \"#utility.yul\":7820:7822   */\n      0x20\n        /* \"#utility.yul\":7809:7818   */\n      dup3\n        /* \"#utility.yul\":7805:7823   */\n      add\n        /* \"#utility.yul\":7797:7823   */\n      swap1\n      pop\n        /* \"#utility.yul\":7869:7878   */\n      dup2\n        /* \"#utility.yul\":7863:7867   */\n      dup2\n        /* \"#utility.yul\":7859:7879   */\n      sub\n        /* \"#utility.yul\":7855:7856   */\n      0x00\n        /* \"#utility.yul\":7844:7853   */\n      dup4\n        /* \"#utility.yul\":7840:7857   */\n      add\n        /* \"#utility.yul\":7833:7880   */\n      mstore\n        /* \"#utility.yul\":7897:8028   */\n      tag_247\n        /* \"#utility.yul\":8023:8027   */\n      dup2\n        /* \"#utility.yul\":7897:8028   */\n      tag_149\n      jump\t// in\n    tag_247:\n        /* \"#utility.yul\":7889:8028   */\n      swap1\n      pop\n        /* \"#utility.yul\":7616:8035   */\n      swap2\n      swap1\n      pop\n      jump\t// out\n        /* \"#utility.yul\":8041:8483   */\n    tag_95:\n        /* \"#utility.yul\":8190:8194   */\n      0x00\n        /* \"#utility.yul\":8228:8230   */\n      0x60\n        /* \"#utility.yul\":8217:8226   */\n      dup3\n        /* \"#utility.yul\":8213:8231   */\n      add\n        /* \"#utility.yul\":8205:8231   */\n      swap1\n      pop\n        /* \"#utility.yul\":8241:8312   */\n      tag_249\n        /* \"#utility.yul\":8309:8310   */\n      0x00\n        /* \"#utility.yul\":8298:8307   */\n      dup4\n        /* \"#utility.yul\":8294:8311   */\n      add\n        /* \"#utility.yul\":8285:8291   */\n      dup7\n        /* \"#utility.yul\":8241:8312   */\n      tag_139\n      jump\t// in\n    tag_249:\n        /* \"#utility.yul\":8322:8394   */\n      tag_250\n        /* \"#utility.yul\":8390:8392   */\n      0x20\n        /* \"#utility.yul\":8379:8388   */\n      dup4\n        /* \"#utility.yul\":8375:8393   */\n      add\n        /* \"#utility.yul\":8366:8372   */\n      dup6\n        /* \"#utility.yul\":8322:8394   */\n      tag_139\n      jump\t// in\n    tag_250:\n        /* \"#utility.yul\":8404:8476   */\n      tag_251\n        /* \"#utility.yul\":8472:8474   */\n      0x40\n        /* \"#utility.yul\":8461:8470   */\n      dup4\n        /* \"#utility.yul\":8457:8475   */\n      add\n        /* \"#utility.yul\":8448:8454   */\n      dup5\n        /* \"#utility.yul\":8404:8476   */\n      tag_131\n      jump\t// in\n    tag_251:\n        /* \"#utility.yul\":8041:8483   */\n      swap5\n      swap4\n      pop\n      pop\n      pop\n      pop\n      jump\t// out\n        /* \"#utility.yul\":8489:8655   */\n    tag_150:\n        /* \"#utility.yul\":8629:8647   */\n      0x546964616b206164612068616469616800000000000000000000000000000000\n        /* \"#utility.yul\":8625:8626   */\n      0x00\n        /* \"#utility.yul\":8617:8623   */\n      dup3\n        /* \"#utility.yul\":8613:8627   */\n      add\n        /* \"#utility.yul\":8606:8648   */\n      mstore\n        /* \"#utility.yul\":8489:8655   */\n      pop\n      jump\t// out\n        /* \"#utility.yul\":8661:9027   */\n    tag_151:\n        /* \"#utility.yul\":8803:8806   */\n      0x00\n        /* \"#utility.yul\":8824:8891   */\n      tag_254\n        /* \"#utility.yul\":8888:8890   */\n      0x10\n        /* \"#utility.yul\":8883:8886   */\n      dup4\n        /* \"#utility.yul\":8824:8891   */\n      tag_142\n      jump\t// in\n    tag_254:\n        /* \"#utility.yul\":8817:8891   */\n      swap2\n      pop\n        /* \"#utility.yul\":8900:8993   */\n      tag_255\n        /* \"#utility.yul\":8989:8992   */\n      dup3\n        /* \"#utility.yul\":8900:8993   */\n      tag_150\n      jump\t// in\n    tag_255:\n        /* \"#utility.yul\":9018:9020   */\n      0x20\n        /* \"#utility.yul\":9013:9016   */\n      dup3\n        /* \"#utility.yul\":9009:9021   */\n      add\n        /* \"#utility.yul\":9002:9021   */\n      swap1\n      pop\n        /* \"#utility.yul\":8661:9027   */\n      swap2\n      swap1\n      pop\n      jump\t// out\n        /* \"#utility.yul\":9033:9452   */\n    tag_103:\n        /* \"#utility.yul\":9199:9203   */\n      0x00\n        /* \"#utility.yul\":9237:9239   */\n      0x20\n        /* \"#utility.yul\":9226:9235   */\n      dup3\n        /* \"#utility.yul\":9222:9240   */\n      add\n        /* \"#utility.yul\":9214:9240   */\n      swap1\n      pop\n        /* \"#utility.yul\":9286:9295   */\n      dup2\n        /* \"#utility.yul\":9280:9284   */\n      dup2\n        /* \"#utility.yul\":9276:9296   */\n      sub\n        /* \"#utility.yul\":9272:9273   */\n      0x00\n        /* \"#utility.yul\":9261:9270   */\n      dup4\n        /* \"#utility.yul\":9257:9274   */\n      add\n        /* \"#utility.yul\":9250:9297   */\n      mstore\n        /* \"#utility.yul\":9314:9445   */\n      tag_257\n        /* \"#utility.yul\":9440:9444   */\n      dup2\n        /* \"#utility.yul\":9314:9445   */\n      tag_151\n      jump\t// in\n    tag_257:\n        /* \"#utility.yul\":9306:9445   */\n      swap1\n      pop\n        /* \"#utility.yul\":9033:9452   */\n      swap2\n      swap1\n      pop\n      jump\t// out\n\n    auxdata: 0xa26469706673582212201eb8986a271eef70dfb0af82194f2de1ebbfc941109651933da4f8571c3dcc9364736f6c634300081e0033\n}\n",
				"bytecode": {
					"linkReferences": {},
					"object": "608060405234801561000f575f5ffd5b506040516112f93803806112f983398181016040528101906100319190610235565b335f73ffffffffffffffffffffffffffffffffffffffff168173ffffffffffffffffffffffffffffffffffffffff16036100a2575f6040517f1e4fbdf7000000000000000000000000000000000000000000000000000000008152600401610099919061026f565b60405180910390fd5b6100b18161011660201b60201c565b508060015f6101000a81548173ffffffffffffffffffffffffffffffffffffffff021916908373ffffffffffffffffffffffffffffffffffffffff1602179055506201518068056bc75e2d6310000061010a91906102be565b600281905550506102ee565b5f5f5f9054906101000a900473ffffffffffffffffffffffffffffffffffffffff169050815f5f6101000a81548173ffffffffffffffffffffffffffffffffffffffff021916908373ffffffffffffffffffffffffffffffffffffffff1602179055508173ffffffffffffffffffffffffffffffffffffffff168173ffffffffffffffffffffffffffffffffffffffff167f8be0079c531659141344cd1fd0a4f28419497f9722a3daafe3b4186f6b6457e060405160405180910390a35050565b5f5ffd5b5f73ffffffffffffffffffffffffffffffffffffffff82169050919050565b5f610204826101db565b9050919050565b610214816101fa565b811461021e575f5ffd5b50565b5f8151905061022f8161020b565b92915050565b5f6020828403121561024a576102496101d7565b5b5f61025784828501610221565b91505092915050565b610269816101fa565b82525050565b5f6020820190506102825f830184610260565b92915050565b5f819050919050565b7f4e487b71000000000000000000000000000000000000000000000000000000005f52601260045260245ffd5b5f6102c882610288565b91506102d383610288565b9250826102e3576102e2610291565b5b828204905092915050565b610ffe806102fb5f395ff3fe608060405234801561000f575f5ffd5b50600436106100b1575f3560e01c80637b0a47ee1161006f5780637b0a47ee146101895780638da5cb5b146101a7578063a694fc3a146101c5578063b88a802f146101e1578063f2fde38b146101eb578063f993185514610207576100b1565b80628cc262146100b55780630700037d146100e55780631558502b146101155780632ce9aead146101335780632e1a7d4d14610163578063715018a61461017f575b5f5ffd5b6100cf60048036038101906100ca9190610b46565b610237565b6040516100dc9190610b89565b60405180910390f35b6100ff60048036038101906100fa9190610b46565b61033d565b60405161010c9190610b89565b60405180910390f35b61011d610352565b60405161012a9190610bfd565b60405180910390f35b61014d60048036038101906101489190610b46565b610377565b60405161015a9190610b89565b60405180910390f35b61017d60048036038101906101789190610c40565b61038c565b005b61018761058b565b005b61019161059e565b60405161019e9190610b89565b60405180910390f35b6101af6105a4565b6040516101bc9190610c7a565b60405180910390f35b6101df60048036038101906101da9190610c40565b6105cb565b005b6101e961078e565b005b61020560048036038101906102009190610b46565b610900565b005b610221600480360381019061021c9190610b46565b610984565b60405161022e9190610b89565b60405180910390f35b5f5f60045f8473ffffffffffffffffffffffffffffffffffffffff1673ffffffffffffffffffffffffffffffffffffffff1681526020019081526020015f2054426102829190610cc0565b9050670de0b6b3a76400006002548260035f8773ffffffffffffffffffffffffffffffffffffffff1673ffffffffffffffffffffffffffffffffffffffff1681526020019081526020015f20546102d99190610cf3565b6102e39190610cf3565b6102ed9190610d61565b60055f8573ffffffffffffffffffffffffffffffffffffffff1673ffffffffffffffffffffffffffffffffffffffff1681526020019081526020015f20546103359190610d91565b915050919050565b6005602052805f5260405f205f915090505481565b60015f9054906101000a900473ffffffffffffffffffffffffffffffffffffffff1681565b6004602052805f5260405f205f915090505481565b60035f3373ffffffffffffffffffffffffffffffffffffffff1673ffffffffffffffffffffffffffffffffffffffff1681526020019081526020015f205481111561040c576040517f08c379a000000000000000000000000000000000000000000000000000000000815260040161040390610e1e565b60405180910390fd5b61041533610237565b60055f3373ffffffffffffffffffffffffffffffffffffffff1673ffffffffffffffffffffffffffffffffffffffff1681526020019081526020015f20819055504260045f3373ffffffffffffffffffffffffffffffffffffffff1673ffffffffffffffffffffffffffffffffffffffff1681526020019081526020015f20819055508060035f3373ffffffffffffffffffffffffffffffffffffffff1673ffffffffffffffffffffffffffffffffffffffff1681526020019081526020015f205f8282546104e49190610cc0565b9250508190555060015f9054906101000a900473ffffffffffffffffffffffffffffffffffffffff1673ffffffffffffffffffffffffffffffffffffffff1663a9059cbb33836040518363ffffffff1660e01b8152600401610547929190610e3c565b6020604051808303815f875af1158015610563573d5f5f3e3d5ffd5b505050506040513d601f19601f820116820180604052508101906105879190610e98565b5050565b610593610999565b61059c5f610a20565b565b60025481565b5f5f5f9054906101000a900473ffffffffffffffffffffffffffffffffffffffff16905090565b5f811161060d576040517f08c379a000000000000000000000000000000000000000000000000000000000815260040161060490610f0d565b60405180910390fd5b61061633610237565b60055f3373ffffffffffffffffffffffffffffffffffffffff1673ffffffffffffffffffffffffffffffffffffffff1681526020019081526020015f20819055504260045f3373ffffffffffffffffffffffffffffffffffffffff1673ffffffffffffffffffffffffffffffffffffffff1681526020019081526020015f20819055508060035f3373ffffffffffffffffffffffffffffffffffffffff1673ffffffffffffffffffffffffffffffffffffffff1681526020019081526020015f205f8282546106e59190610d91565b9250508190555060015f9054906101000a900473ffffffffffffffffffffffffffffffffffffffff1673ffffffffffffffffffffffffffffffffffffffff166323b872dd3330846040518463ffffffff1660e01b815260040161074a93929190610f2b565b6020604051808303815f875af1158015610766573d5f5f3e3d5ffd5b505050506040513d601f19601f8201168201806040525081019061078a9190610e98565b5050565b5f61079833610237565b90505f81116107dc576040517f08c379a00000000000000000000000000000000000000000000000000000000081526004016107d390610faa565b60405180910390fd5b5f60055f3373ffffffffffffffffffffffffffffffffffffffff1673ffffffffffffffffffffffffffffffffffffffff1681526020019081526020015f20819055504260045f3373ffffffffffffffffffffffffffffffffffffffff1673ffffffffffffffffffffffffffffffffffffffff1681526020019081526020015f208190555060015f9054906101000a900473ffffffffffffffffffffffffffffffffffffffff1673ffffffffffffffffffffffffffffffffffffffff1663a9059cbb33836040518363ffffffff1660e01b81526004016108bc929190610e3c565b6020604051808303815f875af11580156108d8573d5f5f3e3d5ffd5b505050506040513d601f19601f820116820180604052508101906108fc9190610e98565b5050565b610908610999565b5f73ffffffffffffffffffffffffffffffffffffffff168173ffffffffffffffffffffffffffffffffffffffff1603610978575f6040517f1e4fbdf700000000000000000000000000000000000000000000000000000000815260040161096f9190610c7a565b60405180910390fd5b61098181610a20565b50565b6003602052805f5260405f205f915090505481565b6109a1610ae1565b73ffffffffffffffffffffffffffffffffffffffff166109bf6105a4565b73ffffffffffffffffffffffffffffffffffffffff1614610a1e576109e2610ae1565b6040517f118cdaa7000000000000000000000000000000000000000000000000000000008152600401610a159190610c7a565b60405180910390fd5b565b5f5f5f9054906101000a900473ffffffffffffffffffffffffffffffffffffffff169050815f5f6101000a81548173ffffffffffffffffffffffffffffffffffffffff021916908373ffffffffffffffffffffffffffffffffffffffff1602179055508173ffffffffffffffffffffffffffffffffffffffff168173ffffffffffffffffffffffffffffffffffffffff167f8be0079c531659141344cd1fd0a4f28419497f9722a3daafe3b4186f6b6457e060405160405180910390a35050565b5f33905090565b5f5ffd5b5f73ffffffffffffffffffffffffffffffffffffffff82169050919050565b5f610b1582610aec565b9050919050565b610b2581610b0b565b8114610b2f575f5ffd5b50565b5f81359050610b4081610b1c565b92915050565b5f60208284031215610b5b57610b5a610ae8565b5b5f610b6884828501610b32565b91505092915050565b5f819050919050565b610b8381610b71565b82525050565b5f602082019050610b9c5f830184610b7a565b92915050565b5f819050919050565b5f610bc5610bc0610bbb84610aec565b610ba2565b610aec565b9050919050565b5f610bd682610bab565b9050919050565b5f610be782610bcc565b9050919050565b610bf781610bdd565b82525050565b5f602082019050610c105f830184610bee565b92915050565b610c1f81610b71565b8114610c29575f5ffd5b50565b5f81359050610c3a81610c16565b92915050565b5f60208284031215610c5557610c54610ae8565b5b5f610c6284828501610c2c565b91505092915050565b610c7481610b0b565b82525050565b5f602082019050610c8d5f830184610c6b565b92915050565b7f4e487b71000000000000000000000000000000000000000000000000000000005f52601160045260245ffd5b5f610cca82610b71565b9150610cd583610b71565b9250828203905081811115610ced57610cec610c93565b5b92915050565b5f610cfd82610b71565b9150610d0883610b71565b9250828202610d1681610b71565b91508282048414831517610d2d57610d2c610c93565b5b5092915050565b7f4e487b71000000000000000000000000000000000000000000000000000000005f52601260045260245ffd5b5f610d6b82610b71565b9150610d7683610b71565b925082610d8657610d85610d34565b5b828204905092915050565b5f610d9b82610b71565b9150610da683610b71565b9250828201905080821115610dbe57610dbd610c93565b5b92915050565b5f82825260208201905092915050565b7f53616c646f207374616b696e6720746964616b2063756b7570000000000000005f82015250565b5f610e08601983610dc4565b9150610e1382610dd4565b602082019050919050565b5f6020820190508181035f830152610e3581610dfc565b9050919050565b5f604082019050610e4f5f830185610c6b565b610e5c6020830184610b7a565b9392505050565b5f8115159050919050565b610e7781610e63565b8114610e81575f5ffd5b50565b5f81519050610e9281610e6e565b92915050565b5f60208284031215610ead57610eac610ae8565b5b5f610eba84828501610e84565b91505092915050565b7f4a756d6c6168206861727573206c6562696820646172692030000000000000005f82015250565b5f610ef7601983610dc4565b9150610f0282610ec3565b602082019050919050565b5f6020820190508181035f830152610f2481610eeb565b9050919050565b5f606082019050610f3e5f830186610c6b565b610f4b6020830185610c6b565b610f586040830184610b7a565b949350505050565b7f546964616b2061646120686164696168000000000000000000000000000000005f82015250565b5f610f94601083610dc4565b9150610f9f82610f60565b602082019050919050565b5f6020820190508181035f830152610fc181610f88565b905091905056fea26469706673582212201eb8986a271eef70dfb0af82194f2de1ebbfc941109651933da4f8571c3dcc9364736f6c634300081e0033",
					"opcodes": "PUSH1 0x80 PUSH1 0x40 MSTORE CALLVALUE DUP1 ISZERO PUSH2 0xF JUMPI PUSH0 PUSH0 REVERT JUMPDEST POP PUSH1 0x40 MLOAD PUSH2 0x12F9 CODESIZE SUB DUP1 PUSH2 0x12F9 DUP4 CODECOPY DUP2 DUP2 ADD PUSH1 0x40 MSTORE DUP2 ADD SWAP1 PUSH2 0x31 SWAP2 SWAP1 PUSH2 0x235 JUMP JUMPDEST CALLER PUSH0 PUSH20 0xFFFFFFFFFFFFFFFFFFFFFFFFFFFFFFFFFFFFFFFF AND DUP2 PUSH20 0xFFFFFFFFFFFFFFFFFFFFFFFFFFFFFFFFFFFFFFFF AND SUB PUSH2 0xA2 JUMPI PUSH0 PUSH1 0x40 MLOAD PUSH32 0x1E4FBDF700000000000000000000000000000000000000000000000000000000 DUP2 MSTORE PUSH1 0x4 ADD PUSH2 0x99 SWAP2 SWAP1 PUSH2 0x26F JUMP JUMPDEST PUSH1 0x40 MLOAD DUP1 SWAP2 SUB SWAP1 REVERT JUMPDEST PUSH2 0xB1 DUP2 PUSH2 0x116 PUSH1 0x20 SHL PUSH1 0x20 SHR JUMP JUMPDEST POP DUP1 PUSH1 0x1 PUSH0 PUSH2 0x100 EXP DUP2 SLOAD DUP2 PUSH20 0xFFFFFFFFFFFFFFFFFFFFFFFFFFFFFFFFFFFFFFFF MUL NOT AND SWAP1 DUP4 PUSH20 0xFFFFFFFFFFFFFFFFFFFFFFFFFFFFFFFFFFFFFFFF AND MUL OR SWAP1 SSTORE POP PUSH3 0x15180 PUSH9 0x56BC75E2D63100000 PUSH2 0x10A SWAP2 SWAP1 PUSH2 0x2BE JUMP JUMPDEST PUSH1 0x2 DUP2 SWAP1 SSTORE POP POP PUSH2 0x2EE JUMP JUMPDEST PUSH0 PUSH0 PUSH0 SWAP1 SLOAD SWAP1 PUSH2 0x100 EXP SWAP1 DIV PUSH20 0xFFFFFFFFFFFFFFFFFFFFFFFFFFFFFFFFFFFFFFFF AND SWAP1 POP DUP2 PUSH0 PUSH0 PUSH2 0x100 EXP DUP2 SLOAD DUP2 PUSH20 0xFFFFFFFFFFFFFFFFFFFFFFFFFFFFFFFFFFFFFFFF MUL NOT AND SWAP1 DUP4 PUSH20 0xFFFFFFFFFFFFFFFFFFFFFFFFFFFFFFFFFFFFFFFF AND MUL OR SWAP1 SSTORE POP DUP2 PUSH20 0xFFFFFFFFFFFFFFFFFFFFFFFFFFFFFFFFFFFFFFFF AND DUP2 PUSH20 0xFFFFFFFFFFFFFFFFFFFFFFFFFFFFFFFFFFFFFFFF AND PUSH32 0x8BE0079C531659141344CD1FD0A4F28419497F9722A3DAAFE3B4186F6B6457E0 PUSH1 0x40 MLOAD PUSH1 0x40 MLOAD DUP1 SWAP2 SUB SWAP1 LOG3 POP POP JUMP JUMPDEST PUSH0 PUSH0 REVERT JUMPDEST PUSH0 PUSH20 0xFFFFFFFFFFFFFFFFFFFFFFFFFFFFFFFFFFFFFFFF DUP3 AND SWAP1 POP SWAP2 SWAP1 POP JUMP JUMPDEST PUSH0 PUSH2 0x204 DUP3 PUSH2 0x1DB JUMP JUMPDEST SWAP1 POP SWAP2 SWAP1 POP JUMP JUMPDEST PUSH2 0x214 DUP2 PUSH2 0x1FA JUMP JUMPDEST DUP2 EQ PUSH2 0x21E JUMPI PUSH0 PUSH0 REVERT JUMPDEST POP JUMP JUMPDEST PUSH0 DUP2 MLOAD SWAP1 POP PUSH2 0x22F DUP2 PUSH2 0x20B JUMP JUMPDEST SWAP3 SWAP2 POP POP JUMP JUMPDEST PUSH0 PUSH1 0x20 DUP3 DUP5 SUB SLT ISZERO PUSH2 0x24A JUMPI PUSH2 0x249 PUSH2 0x1D7 JUMP JUMPDEST JUMPDEST PUSH0 PUSH2 0x257 DUP5 DUP3 DUP6 ADD PUSH2 0x221 JUMP JUMPDEST SWAP2 POP POP SWAP3 SWAP2 POP POP JUMP JUMPDEST PUSH2 0x269 DUP2 PUSH2 0x1FA JUMP JUMPDEST DUP3 MSTORE POP POP JUMP JUMPDEST PUSH0 PUSH1 0x20 DUP3 ADD SWAP1 POP PUSH2 0x282 PUSH0 DUP4 ADD DUP5 PUSH2 0x260 JUMP JUMPDEST SWAP3 SWAP2 POP POP JUMP JUMPDEST PUSH0 DUP2 SWAP1 POP SWAP2 SWAP1 POP JUMP JUMPDEST PUSH32 0x4E487B7100000000000000000000000000000000000000000000000000000000 PUSH0 MSTORE PUSH1 0x12 PUSH1 0x4 MSTORE PUSH1 0x24 PUSH0 REVERT JUMPDEST PUSH0 PUSH2 0x2C8 DUP3 PUSH2 0x288 JUMP JUMPDEST SWAP2 POP PUSH2 0x2D3 DUP4 PUSH2 0x288 JUMP JUMPDEST SWAP3 POP DUP3 PUSH2 0x2E3 JUMPI PUSH2 0x2E2 PUSH2 0x291 JUMP JUMPDEST JUMPDEST DUP3 DUP3 DIV SWAP1 POP SWAP3 SWAP2 POP POP JUMP JUMPDEST PUSH2 0xFFE DUP1 PUSH2 0x2FB PUSH0 CODECOPY PUSH0 RETURN INVALID PUSH1 0x80 PUSH1 0x40 MSTORE CALLVALUE DUP1 ISZERO PUSH2 0xF JUMPI PUSH0 PUSH0 REVERT JUMPDEST POP PUSH1 0x4 CALLDATASIZE LT PUSH2 0xB1 JUMPI PUSH0 CALLDATALOAD PUSH1 0xE0 SHR DUP1 PUSH4 0x7B0A47EE GT PUSH2 0x6F JUMPI DUP1 PUSH4 0x7B0A47EE EQ PUSH2 0x189 JUMPI DUP1 PUSH4 0x8DA5CB5B EQ PUSH2 0x1A7 JUMPI DUP1 PUSH4 0xA694FC3A EQ PUSH2 0x1C5 JUMPI DUP1 PUSH4 0xB88A802F EQ PUSH2 0x1E1 JUMPI DUP1 PUSH4 0xF2FDE38B EQ PUSH2 0x1EB JUMPI DUP1 PUSH4 0xF9931855 EQ PUSH2 0x207 JUMPI PUSH2 0xB1 JUMP JUMPDEST DUP1 PUSH3 0x8CC262 EQ PUSH2 0xB5 JUMPI DUP1 PUSH4 0x700037D EQ PUSH2 0xE5 JUMPI DUP1 PUSH4 0x1558502B EQ PUSH2 0x115 JUMPI DUP1 PUSH4 0x2CE9AEAD EQ PUSH2 0x133 JUMPI DUP1 PUSH4 0x2E1A7D4D EQ PUSH2 0x163 JUMPI DUP1 PUSH4 0x715018A6 EQ PUSH2 0x17F JUMPI JUMPDEST PUSH0 PUSH0 REVERT JUMPDEST PUSH2 0xCF PUSH1 0x4 DUP1 CALLDATASIZE SUB DUP2 ADD SWAP1 PUSH2 0xCA SWAP2 SWAP1 PUSH2 0xB46 JUMP JUMPDEST PUSH2 0x237 JUMP JUMPDEST PUSH1 0x40 MLOAD PUSH2 0xDC SWAP2 SWAP1 PUSH2 0xB89 JUMP JUMPDEST PUSH1 0x40 MLOAD DUP1 SWAP2 SUB SWAP1 RETURN JUMPDEST PUSH2 0xFF PUSH1 0x4 DUP1 CALLDATASIZE SUB DUP2 ADD SWAP1 PUSH2 0xFA SWAP2 SWAP1 PUSH2 0xB46 JUMP JUMPDEST PUSH2 0x33D JUMP JUMPDEST PUSH1 0x40 MLOAD PUSH2 0x10C SWAP2 SWAP1 PUSH2 0xB89 JUMP JUMPDEST PUSH1 0x40 MLOAD DUP1 SWAP2 SUB SWAP1 RETURN JUMPDEST PUSH2 0x11D PUSH2 0x352 JUMP JUMPDEST PUSH1 0x40 MLOAD PUSH2 0x12A SWAP2 SWAP1 PUSH2 0xBFD JUMP JUMPDEST PUSH1 0x40 MLOAD DUP1 SWAP2 SUB SWAP1 RETURN JUMPDEST PUSH2 0x14D PUSH1 0x4 DUP1 CALLDATASIZE SUB DUP2 ADD SWAP1 PUSH2 0x148 SWAP2 SWAP1 PUSH2 0xB46 JUMP JUMPDEST PUSH2 0x377 JUMP JUMPDEST PUSH1 0x40 MLOAD PUSH2 0x15A SWAP2 SWAP1 PUSH2 0xB89 JUMP JUMPDEST PUSH1 0x40 MLOAD DUP1 SWAP2 SUB SWAP1 RETURN JUMPDEST PUSH2 0x17D PUSH1 0x4 DUP1 CALLDATASIZE SUB DUP2 ADD SWAP1 PUSH2 0x178 SWAP2 SWAP1 PUSH2 0xC40 JUMP JUMPDEST PUSH2 0x38C JUMP JUMPDEST STOP JUMPDEST PUSH2 0x187 PUSH2 0x58B JUMP JUMPDEST STOP JUMPDEST PUSH2 0x191 PUSH2 0x59E JUMP JUMPDEST PUSH1 0x40 MLOAD PUSH2 0x19E SWAP2 SWAP1 PUSH2 0xB89 JUMP JUMPDEST PUSH1 0x40 MLOAD DUP1 SWAP2 SUB SWAP1 RETURN JUMPDEST PUSH2 0x1AF PUSH2 0x5A4 JUMP JUMPDEST PUSH1 0x40 MLOAD PUSH2 0x1BC SWAP2 SWAP1 PUSH2 0xC7A JUMP JUMPDEST PUSH1 0x40 MLOAD DUP1 SWAP2 SUB SWAP1 RETURN JUMPDEST PUSH2 0x1DF PUSH1 0x4 DUP1 CALLDATASIZE SUB DUP2 ADD SWAP1 PUSH2 0x1DA SWAP2 SWAP1 PUSH2 0xC40 JUMP JUMPDEST PUSH2 0x5CB JUMP JUMPDEST STOP JUMPDEST PUSH2 0x1E9 PUSH2 0x78E JUMP JUMPDEST STOP JUMPDEST PUSH2 0x205 PUSH1 0x4 DUP1 CALLDATASIZE SUB DUP2 ADD SWAP1 PUSH2 0x200 SWAP2 SWAP1 PUSH2 0xB46 JUMP JUMPDEST PUSH2 0x900 JUMP JUMPDEST STOP JUMPDEST PUSH2 0x221 PUSH1 0x4 DUP1 CALLDATASIZE SUB DUP2 ADD SWAP1 PUSH2 0x21C SWAP2 SWAP1 PUSH2 0xB46 JUMP JUMPDEST PUSH2 0x984 JUMP JUMPDEST PUSH1 0x40 MLOAD PUSH2 0x22E SWAP2 SWAP1 PUSH2 0xB89 JUMP JUMPDEST PUSH1 0x40 MLOAD DUP1 SWAP2 SUB SWAP1 RETURN JUMPDEST PUSH0 PUSH0 PUSH1 0x4 PUSH0 DUP5 PUSH20 0xFFFFFFFFFFFFFFFFFFFFFFFFFFFFFFFFFFFFFFFF AND PUSH20 0xFFFFFFFFFFFFFFFFFFFFFFFFFFFFFFFFFFFFFFFF AND DUP2 MSTORE PUSH1 0x20 ADD SWAP1 DUP2 MSTORE PUSH1 0x20 ADD PUSH0 KECCAK256 SLOAD TIMESTAMP PUSH2 0x282 SWAP2 SWAP1 PUSH2 0xCC0 JUMP JUMPDEST SWAP1 POP PUSH8 0xDE0B6B3A7640000 PUSH1 0x2 SLOAD DUP3 PUSH1 0x3 PUSH0 DUP8 PUSH20 0xFFFFFFFFFFFFFFFFFFFFFFFFFFFFFFFFFFFFFFFF AND PUSH20 0xFFFFFFFFFFFFFFFFFFFFFFFFFFFFFFFFFFFFFFFF AND DUP2 MSTORE PUSH1 0x20 ADD SWAP1 DUP2 MSTORE PUSH1 0x20 ADD PUSH0 KECCAK256 SLOAD PUSH2 0x2D9 SWAP2 SWAP1 PUSH2 0xCF3 JUMP JUMPDEST PUSH2 0x2E3 SWAP2 SWAP1 PUSH2 0xCF3 JUMP JUMPDEST PUSH2 0x2ED SWAP2 SWAP1 PUSH2 0xD61 JUMP JUMPDEST PUSH1 0x5 PUSH0 DUP6 PUSH20 0xFFFFFFFFFFFFFFFFFFFFFFFFFFFFFFFFFFFFFFFF AND PUSH20 0xFFFFFFFFFFFFFFFFFFFFFFFFFFFFFFFFFFFFFFFF AND DUP2 MSTORE PUSH1 0x20 ADD SWAP1 DUP2 MSTORE PUSH1 0x20 ADD PUSH0 KECCAK256 SLOAD PUSH2 0x335 SWAP2 SWAP1 PUSH2 0xD91 JUMP JUMPDEST SWAP2 POP POP SWAP2 SWAP1 POP JUMP JUMPDEST PUSH1 0x5 PUSH1 0x20 MSTORE DUP1 PUSH0 MSTORE PUSH1 0x40 PUSH0 KECCAK256 PUSH0 SWAP2 POP SWAP1 POP SLOAD DUP2 JUMP JUMPDEST PUSH1 0x1 PUSH0 SWAP1 SLOAD SWAP1 PUSH2 0x100 EXP SWAP1 DIV PUSH20 0xFFFFFFFFFFFFFFFFFFFFFFFFFFFFFFFFFFFFFFFF AND DUP2 JUMP JUMPDEST PUSH1 0x4 PUSH1 0x20 MSTORE DUP1 PUSH0 MSTORE PUSH1 0x40 PUSH0 KECCAK256 PUSH0 SWAP2 POP SWAP1 POP SLOAD DUP2 JUMP JUMPDEST PUSH1 0x3 PUSH0 CALLER PUSH20 0xFFFFFFFFFFFFFFFFFFFFFFFFFFFFFFFFFFFFFFFF AND PUSH20 0xFFFFFFFFFFFFFFFFFFFFFFFFFFFFFFFFFFFFFFFF AND DUP2 MSTORE PUSH1 0x20 ADD SWAP1 DUP2 MSTORE PUSH1 0x20 ADD PUSH0 KECCAK256 SLOAD DUP2 GT ISZERO PUSH2 0x40C JUMPI PUSH1 0x40 MLOAD PUSH32 0x8C379A000000000000000000000000000000000000000000000000000000000 DUP2 MSTORE PUSH1 0x4 ADD PUSH2 0x403 SWAP1 PUSH2 0xE1E JUMP JUMPDEST PUSH1 0x40 MLOAD DUP1 SWAP2 SUB SWAP1 REVERT JUMPDEST PUSH2 0x415 CALLER PUSH2 0x237 JUMP JUMPDEST PUSH1 0x5 PUSH0 CALLER PUSH20 0xFFFFFFFFFFFFFFFFFFFFFFFFFFFFFFFFFFFFFFFF AND PUSH20 0xFFFFFFFFFFFFFFFFFFFFFFFFFFFFFFFFFFFFFFFF AND DUP2 MSTORE PUSH1 0x20 ADD SWAP1 DUP2 MSTORE PUSH1 0x20 ADD PUSH0 KECCAK256 DUP2 SWAP1 SSTORE POP TIMESTAMP PUSH1 0x4 PUSH0 CALLER PUSH20 0xFFFFFFFFFFFFFFFFFFFFFFFFFFFFFFFFFFFFFFFF AND PUSH20 0xFFFFFFFFFFFFFFFFFFFFFFFFFFFFFFFFFFFFFFFF AND DUP2 MSTORE PUSH1 0x20 ADD SWAP1 DUP2 MSTORE PUSH1 0x20 ADD PUSH0 KECCAK256 DUP2 SWAP1 SSTORE POP DUP1 PUSH1 0x3 PUSH0 CALLER PUSH20 0xFFFFFFFFFFFFFFFFFFFFFFFFFFFFFFFFFFFFFFFF AND PUSH20 0xFFFFFFFFFFFFFFFFFFFFFFFFFFFFFFFFFFFFFFFF AND DUP2 MSTORE PUSH1 0x20 ADD SWAP1 DUP2 MSTORE PUSH1 0x20 ADD PUSH0 KECCAK256 PUSH0 DUP3 DUP3 SLOAD PUSH2 0x4E4 SWAP2 SWAP1 PUSH2 0xCC0 JUMP JUMPDEST SWAP3 POP POP DUP2 SWAP1 SSTORE POP PUSH1 0x1 PUSH0 SWAP1 SLOAD SWAP1 PUSH2 0x100 EXP SWAP1 DIV PUSH20 0xFFFFFFFFFFFFFFFFFFFFFFFFFFFFFFFFFFFFFFFF AND PUSH20 0xFFFFFFFFFFFFFFFFFFFFFFFFFFFFFFFFFFFFFFFF AND PUSH4 0xA9059CBB CALLER DUP4 PUSH1 0x40 MLOAD DUP4 PUSH4 0xFFFFFFFF AND PUSH1 0xE0 SHL DUP2 MSTORE PUSH1 0x4 ADD PUSH2 0x547 SWAP3 SWAP2 SWAP1 PUSH2 0xE3C JUMP JUMPDEST PUSH1 0x20 PUSH1 0x40 MLOAD DUP1 DUP4 SUB DUP2 PUSH0 DUP8 GAS CALL ISZERO DUP1 ISZERO PUSH2 0x563 JUMPI RETURNDATASIZE PUSH0 PUSH0 RETURNDATACOPY RETURNDATASIZE PUSH0 REVERT JUMPDEST POP POP POP POP PUSH1 0x40 MLOAD RETURNDATASIZE PUSH1 0x1F NOT PUSH1 0x1F DUP3 ADD AND DUP3 ADD DUP1 PUSH1 0x40 MSTORE POP DUP2 ADD SWAP1 PUSH2 0x587 SWAP2 SWAP1 PUSH2 0xE98 JUMP JUMPDEST POP POP JUMP JUMPDEST PUSH2 0x593 PUSH2 0x999 JUMP JUMPDEST PUSH2 0x59C PUSH0 PUSH2 0xA20 JUMP JUMPDEST JUMP JUMPDEST PUSH1 0x2 SLOAD DUP2 JUMP JUMPDEST PUSH0 PUSH0 PUSH0 SWAP1 SLOAD SWAP1 PUSH2 0x100 EXP SWAP1 DIV PUSH20 0xFFFFFFFFFFFFFFFFFFFFFFFFFFFFFFFFFFFFFFFF AND SWAP1 POP SWAP1 JUMP JUMPDEST PUSH0 DUP2 GT PUSH2 0x60D JUMPI PUSH1 0x40 MLOAD PUSH32 0x8C379A000000000000000000000000000000000000000000000000000000000 DUP2 MSTORE PUSH1 0x4 ADD PUSH2 0x604 SWAP1 PUSH2 0xF0D JUMP JUMPDEST PUSH1 0x40 MLOAD DUP1 SWAP2 SUB SWAP1 REVERT JUMPDEST PUSH2 0x616 CALLER PUSH2 0x237 JUMP JUMPDEST PUSH1 0x5 PUSH0 CALLER PUSH20 0xFFFFFFFFFFFFFFFFFFFFFFFFFFFFFFFFFFFFFFFF AND PUSH20 0xFFFFFFFFFFFFFFFFFFFFFFFFFFFFFFFFFFFFFFFF AND DUP2 MSTORE PUSH1 0x20 ADD SWAP1 DUP2 MSTORE PUSH1 0x20 ADD PUSH0 KECCAK256 DUP2 SWAP1 SSTORE POP TIMESTAMP PUSH1 0x4 PUSH0 CALLER PUSH20 0xFFFFFFFFFFFFFFFFFFFFFFFFFFFFFFFFFFFFFFFF AND PUSH20 0xFFFFFFFFFFFFFFFFFFFFFFFFFFFFFFFFFFFFFFFF AND DUP2 MSTORE PUSH1 0x20 ADD SWAP1 DUP2 MSTORE PUSH1 0x20 ADD PUSH0 KECCAK256 DUP2 SWAP1 SSTORE POP DUP1 PUSH1 0x3 PUSH0 CALLER PUSH20 0xFFFFFFFFFFFFFFFFFFFFFFFFFFFFFFFFFFFFFFFF AND PUSH20 0xFFFFFFFFFFFFFFFFFFFFFFFFFFFFFFFFFFFFFFFF AND DUP2 MSTORE PUSH1 0x20 ADD SWAP1 DUP2 MSTORE PUSH1 0x20 ADD PUSH0 KECCAK256 PUSH0 DUP3 DUP3 SLOAD PUSH2 0x6E5 SWAP2 SWAP1 PUSH2 0xD91 JUMP JUMPDEST SWAP3 POP POP DUP2 SWAP1 SSTORE POP PUSH1 0x1 PUSH0 SWAP1 SLOAD SWAP1 PUSH2 0x100 EXP SWAP1 DIV PUSH20 0xFFFFFFFFFFFFFFFFFFFFFFFFFFFFFFFFFFFFFFFF AND PUSH20 0xFFFFFFFFFFFFFFFFFFFFFFFFFFFFFFFFFFFFFFFF AND PUSH4 0x23B872DD CALLER ADDRESS DUP5 PUSH1 0x40 MLOAD DUP5 PUSH4 0xFFFFFFFF AND PUSH1 0xE0 SHL DUP2 MSTORE PUSH1 0x4 ADD PUSH2 0x74A SWAP4 SWAP3 SWAP2 SWAP1 PUSH2 0xF2B JUMP JUMPDEST PUSH1 0x20 PUSH1 0x40 MLOAD DUP1 DUP4 SUB DUP2 PUSH0 DUP8 GAS CALL ISZERO DUP1 ISZERO PUSH2 0x766 JUMPI RETURNDATASIZE PUSH0 PUSH0 RETURNDATACOPY RETURNDATASIZE PUSH0 REVERT JUMPDEST POP POP POP POP PUSH1 0x40 MLOAD RETURNDATASIZE PUSH1 0x1F NOT PUSH1 0x1F DUP3 ADD AND DUP3 ADD DUP1 PUSH1 0x40 MSTORE POP DUP2 ADD SWAP1 PUSH2 0x78A SWAP2 SWAP1 PUSH2 0xE98 JUMP JUMPDEST POP POP JUMP JUMPDEST PUSH0 PUSH2 0x798 CALLER PUSH2 0x237 JUMP JUMPDEST SWAP1 POP PUSH0 DUP2 GT PUSH2 0x7DC JUMPI PUSH1 0x40 MLOAD PUSH32 0x8C379A000000000000000000000000000000000000000000000000000000000 DUP2 MSTORE PUSH1 0x4 ADD PUSH2 0x7D3 SWAP1 PUSH2 0xFAA JUMP JUMPDEST PUSH1 0x40 MLOAD DUP1 SWAP2 SUB SWAP1 REVERT JUMPDEST PUSH0 PUSH1 0x5 PUSH0 CALLER PUSH20 0xFFFFFFFFFFFFFFFFFFFFFFFFFFFFFFFFFFFFFFFF AND PUSH20 0xFFFFFFFFFFFFFFFFFFFFFFFFFFFFFFFFFFFFFFFF AND DUP2 MSTORE PUSH1 0x20 ADD SWAP1 DUP2 MSTORE PUSH1 0x20 ADD PUSH0 KECCAK256 DUP2 SWAP1 SSTORE POP TIMESTAMP PUSH1 0x4 PUSH0 CALLER PUSH20 0xFFFFFFFFFFFFFFFFFFFFFFFFFFFFFFFFFFFFFFFF AND PUSH20 0xFFFFFFFFFFFFFFFFFFFFFFFFFFFFFFFFFFFFFFFF AND DUP2 MSTORE PUSH1 0x20 ADD SWAP1 DUP2 MSTORE PUSH1 0x20 ADD PUSH0 KECCAK256 DUP2 SWAP1 SSTORE POP PUSH1 0x1 PUSH0 SWAP1 SLOAD SWAP1 PUSH2 0x100 EXP SWAP1 DIV PUSH20 0xFFFFFFFFFFFFFFFFFFFFFFFFFFFFFFFFFFFFFFFF AND PUSH20 0xFFFFFFFFFFFFFFFFFFFFFFFFFFFFFFFFFFFFFFFF AND PUSH4 0xA9059CBB CALLER DUP4 PUSH1 0x40 MLOAD DUP4 PUSH4 0xFFFFFFFF AND PUSH1 0xE0 SHL DUP2 MSTORE PUSH1 0x4 ADD PUSH2 0x8BC SWAP3 SWAP2 SWAP1 PUSH2 0xE3C JUMP JUMPDEST PUSH1 0x20 PUSH1 0x40 MLOAD DUP1 DUP4 SUB DUP2 PUSH0 DUP8 GAS CALL ISZERO DUP1 ISZERO PUSH2 0x8D8 JUMPI RETURNDATASIZE PUSH0 PUSH0 RETURNDATACOPY RETURNDATASIZE PUSH0 REVERT JUMPDEST POP POP POP POP PUSH1 0x40 MLOAD RETURNDATASIZE PUSH1 0x1F NOT PUSH1 0x1F DUP3 ADD AND DUP3 ADD DUP1 PUSH1 0x40 MSTORE POP DUP2 ADD SWAP1 PUSH2 0x8FC SWAP2 SWAP1 PUSH2 0xE98 JUMP JUMPDEST POP POP JUMP JUMPDEST PUSH2 0x908 PUSH2 0x999 JUMP JUMPDEST PUSH0 PUSH20 0xFFFFFFFFFFFFFFFFFFFFFFFFFFFFFFFFFFFFFFFF AND DUP2 PUSH20 0xFFFFFFFFFFFFFFFFFFFFFFFFFFFFFFFFFFFFFFFF AND SUB PUSH2 0x978 JUMPI PUSH0 PUSH1 0x40 MLOAD PUSH32 0x1E4FBDF700000000000000000000000000000000000000000000000000000000 DUP2 MSTORE PUSH1 0x4 ADD PUSH2 0x96F SWAP2 SWAP1 PUSH2 0xC7A JUMP JUMPDEST PUSH1 0x40 MLOAD DUP1 SWAP2 SUB SWAP1 REVERT JUMPDEST PUSH2 0x981 DUP2 PUSH2 0xA20 JUMP JUMPDEST POP JUMP JUMPDEST PUSH1 0x3 PUSH1 0x20 MSTORE DUP1 PUSH0 MSTORE PUSH1 0x40 PUSH0 KECCAK256 PUSH0 SWAP2 POP SWAP1 POP SLOAD DUP2 JUMP JUMPDEST PUSH2 0x9A1 PUSH2 0xAE1 JUMP JUMPDEST PUSH20 0xFFFFFFFFFFFFFFFFFFFFFFFFFFFFFFFFFFFFFFFF AND PUSH2 0x9BF PUSH2 0x5A4 JUMP JUMPDEST PUSH20 0xFFFFFFFFFFFFFFFFFFFFFFFFFFFFFFFFFFFFFFFF AND EQ PUSH2 0xA1E JUMPI PUSH2 0x9E2 PUSH2 0xAE1 JUMP JUMPDEST PUSH1 0x40 MLOAD PUSH32 0x118CDAA700000000000000000000000000000000000000000000000000000000 DUP2 MSTORE PUSH1 0x4 ADD PUSH2 0xA15 SWAP2 SWAP1 PUSH2 0xC7A JUMP JUMPDEST PUSH1 0x40 MLOAD DUP1 SWAP2 SUB SWAP1 REVERT JUMPDEST JUMP JUMPDEST PUSH0 PUSH0 PUSH0 SWAP1 SLOAD SWAP1 PUSH2 0x100 EXP SWAP1 DIV PUSH20 0xFFFFFFFFFFFFFFFFFFFFFFFFFFFFFFFFFFFFFFFF AND SWAP1 POP DUP2 PUSH0 PUSH0 PUSH2 0x100 EXP DUP2 SLOAD DUP2 PUSH20 0xFFFFFFFFFFFFFFFFFFFFFFFFFFFFFFFFFFFFFFFF MUL NOT AND SWAP1 DUP4 PUSH20 0xFFFFFFFFFFFFFFFFFFFFFFFFFFFFFFFFFFFFFFFF AND MUL OR SWAP1 SSTORE POP DUP2 PUSH20 0xFFFFFFFFFFFFFFFFFFFFFFFFFFFFFFFFFFFFFFFF AND DUP2 PUSH20 0xFFFFFFFFFFFFFFFFFFFFFFFFFFFFFFFFFFFFFFFF AND PUSH32 0x8BE0079C531659141344CD1FD0A4F28419497F9722A3DAAFE3B4186F6B6457E0 PUSH1 0x40 MLOAD PUSH1 0x40 MLOAD DUP1 SWAP2 SUB SWAP1 LOG3 POP POP JUMP JUMPDEST PUSH0 CALLER SWAP1 POP SWAP1 JUMP JUMPDEST PUSH0 PUSH0 REVERT JUMPDEST PUSH0 PUSH20 0xFFFFFFFFFFFFFFFFFFFFFFFFFFFFFFFFFFFFFFFF DUP3 AND SWAP1 POP SWAP2 SWAP1 POP JUMP JUMPDEST PUSH0 PUSH2 0xB15 DUP3 PUSH2 0xAEC JUMP JUMPDEST SWAP1 POP SWAP2 SWAP1 POP JUMP JUMPDEST PUSH2 0xB25 DUP2 PUSH2 0xB0B JUMP JUMPDEST DUP2 EQ PUSH2 0xB2F JUMPI PUSH0 PUSH0 REVERT JUMPDEST POP JUMP JUMPDEST PUSH0 DUP2 CALLDATALOAD SWAP1 POP PUSH2 0xB40 DUP2 PUSH2 0xB1C JUMP JUMPDEST SWAP3 SWAP2 POP POP JUMP JUMPDEST PUSH0 PUSH1 0x20 DUP3 DUP5 SUB SLT ISZERO PUSH2 0xB5B JUMPI PUSH2 0xB5A PUSH2 0xAE8 JUMP JUMPDEST JUMPDEST PUSH0 PUSH2 0xB68 DUP5 DUP3 DUP6 ADD PUSH2 0xB32 JUMP JUMPDEST SWAP2 POP POP SWAP3 SWAP2 POP POP JUMP JUMPDEST PUSH0 DUP2 SWAP1 POP SWAP2 SWAP1 POP JUMP JUMPDEST PUSH2 0xB83 DUP2 PUSH2 0xB71 JUMP JUMPDEST DUP3 MSTORE POP POP JUMP JUMPDEST PUSH0 PUSH1 0x20 DUP3 ADD SWAP1 POP PUSH2 0xB9C PUSH0 DUP4 ADD DUP5 PUSH2 0xB7A JUMP JUMPDEST SWAP3 SWAP2 POP POP JUMP JUMPDEST PUSH0 DUP2 SWAP1 POP SWAP2 SWAP1 POP JUMP JUMPDEST PUSH0 PUSH2 0xBC5 PUSH2 0xBC0 PUSH2 0xBBB DUP5 PUSH2 0xAEC JUMP JUMPDEST PUSH2 0xBA2 JUMP JUMPDEST PUSH2 0xAEC JUMP JUMPDEST SWAP1 POP SWAP2 SWAP1 POP JUMP JUMPDEST PUSH0 PUSH2 0xBD6 DUP3 PUSH2 0xBAB JUMP JUMPDEST SWAP1 POP SWAP2 SWAP1 POP JUMP JUMPDEST PUSH0 PUSH2 0xBE7 DUP3 PUSH2 0xBCC JUMP JUMPDEST SWAP1 POP SWAP2 SWAP1 POP JUMP JUMPDEST PUSH2 0xBF7 DUP2 PUSH2 0xBDD JUMP JUMPDEST DUP3 MSTORE POP POP JUMP JUMPDEST PUSH0 PUSH1 0x20 DUP3 ADD SWAP1 POP PUSH2 0xC10 PUSH0 DUP4 ADD DUP5 PUSH2 0xBEE JUMP JUMPDEST SWAP3 SWAP2 POP POP JUMP JUMPDEST PUSH2 0xC1F DUP2 PUSH2 0xB71 JUMP JUMPDEST DUP2 EQ PUSH2 0xC29 JUMPI PUSH0 PUSH0 REVERT JUMPDEST POP JUMP JUMPDEST PUSH0 DUP2 CALLDATALOAD SWAP1 POP PUSH2 0xC3A DUP2 PUSH2 0xC16 JUMP JUMPDEST SWAP3 SWAP2 POP POP JUMP JUMPDEST PUSH0 PUSH1 0x20 DUP3 DUP5 SUB SLT ISZERO PUSH2 0xC55 JUMPI PUSH2 0xC54 PUSH2 0xAE8 JUMP JUMPDEST JUMPDEST PUSH0 PUSH2 0xC62 DUP5 DUP3 DUP6 ADD PUSH2 0xC2C JUMP JUMPDEST SWAP2 POP POP SWAP3 SWAP2 POP POP JUMP JUMPDEST PUSH2 0xC74 DUP2 PUSH2 0xB0B JUMP JUMPDEST DUP3 MSTORE POP POP JUMP JUMPDEST PUSH0 PUSH1 0x20 DUP3 ADD SWAP1 POP PUSH2 0xC8D PUSH0 DUP4 ADD DUP5 PUSH2 0xC6B JUMP JUMPDEST SWAP3 SWAP2 POP POP JUMP JUMPDEST PUSH32 0x4E487B7100000000000000000000000000000000000000000000000000000000 PUSH0 MSTORE PUSH1 0x11 PUSH1 0x4 MSTORE PUSH1 0x24 PUSH0 REVERT JUMPDEST PUSH0 PUSH2 0xCCA DUP3 PUSH2 0xB71 JUMP JUMPDEST SWAP2 POP PUSH2 0xCD5 DUP4 PUSH2 0xB71 JUMP JUMPDEST SWAP3 POP DUP3 DUP3 SUB SWAP1 POP DUP2 DUP2 GT ISZERO PUSH2 0xCED JUMPI PUSH2 0xCEC PUSH2 0xC93 JUMP JUMPDEST JUMPDEST SWAP3 SWAP2 POP POP JUMP JUMPDEST PUSH0 PUSH2 0xCFD DUP3 PUSH2 0xB71 JUMP JUMPDEST SWAP2 POP PUSH2 0xD08 DUP4 PUSH2 0xB71 JUMP JUMPDEST SWAP3 POP DUP3 DUP3 MUL PUSH2 0xD16 DUP2 PUSH2 0xB71 JUMP JUMPDEST SWAP2 POP DUP3 DUP3 DIV DUP5 EQ DUP4 ISZERO OR PUSH2 0xD2D JUMPI PUSH2 0xD2C PUSH2 0xC93 JUMP JUMPDEST JUMPDEST POP SWAP3 SWAP2 POP POP JUMP JUMPDEST PUSH32 0x4E487B7100000000000000000000000000000000000000000000000000000000 PUSH0 MSTORE PUSH1 0x12 PUSH1 0x4 MSTORE PUSH1 0x24 PUSH0 REVERT JUMPDEST PUSH0 PUSH2 0xD6B DUP3 PUSH2 0xB71 JUMP JUMPDEST SWAP2 POP PUSH2 0xD76 DUP4 PUSH2 0xB71 JUMP JUMPDEST SWAP3 POP DUP3 PUSH2 0xD86 JUMPI PUSH2 0xD85 PUSH2 0xD34 JUMP JUMPDEST JUMPDEST DUP3 DUP3 DIV SWAP1 POP SWAP3 SWAP2 POP POP JUMP JUMPDEST PUSH0 PUSH2 0xD9B DUP3 PUSH2 0xB71 JUMP JUMPDEST SWAP2 POP PUSH2 0xDA6 DUP4 PUSH2 0xB71 JUMP JUMPDEST SWAP3 POP DUP3 DUP3 ADD SWAP1 POP DUP1 DUP3 GT ISZERO PUSH2 0xDBE JUMPI PUSH2 0xDBD PUSH2 0xC93 JUMP JUMPDEST JUMPDEST SWAP3 SWAP2 POP POP JUMP JUMPDEST PUSH0 DUP3 DUP3 MSTORE PUSH1 0x20 DUP3 ADD SWAP1 POP SWAP3 SWAP2 POP POP JUMP JUMPDEST PUSH32 0x53616C646F207374616B696E6720746964616B2063756B757000000000000000 PUSH0 DUP3 ADD MSTORE POP JUMP JUMPDEST PUSH0 PUSH2 0xE08 PUSH1 0x19 DUP4 PUSH2 0xDC4 JUMP JUMPDEST SWAP2 POP PUSH2 0xE13 DUP3 PUSH2 0xDD4 JUMP JUMPDEST PUSH1 0x20 DUP3 ADD SWAP1 POP SWAP2 SWAP1 POP JUMP JUMPDEST PUSH0 PUSH1 0x20 DUP3 ADD SWAP1 POP DUP2 DUP2 SUB PUSH0 DUP4 ADD MSTORE PUSH2 0xE35 DUP2 PUSH2 0xDFC JUMP JUMPDEST SWAP1 POP SWAP2 SWAP1 POP JUMP JUMPDEST PUSH0 PUSH1 0x40 DUP3 ADD SWAP1 POP PUSH2 0xE4F PUSH0 DUP4 ADD DUP6 PUSH2 0xC6B JUMP JUMPDEST PUSH2 0xE5C PUSH1 0x20 DUP4 ADD DUP5 PUSH2 0xB7A JUMP JUMPDEST SWAP4 SWAP3 POP POP POP JUMP JUMPDEST PUSH0 DUP2 ISZERO ISZERO SWAP1 POP SWAP2 SWAP1 POP JUMP JUMPDEST PUSH2 0xE77 DUP2 PUSH2 0xE63 JUMP JUMPDEST DUP2 EQ PUSH2 0xE81 JUMPI PUSH0 PUSH0 REVERT JUMPDEST POP JUMP JUMPDEST PUSH0 DUP2 MLOAD SWAP1 POP PUSH2 0xE92 DUP2 PUSH2 0xE6E JUMP JUMPDEST SWAP3 SWAP2 POP POP JUMP JUMPDEST PUSH0 PUSH1 0x20 DUP3 DUP5 SUB SLT ISZERO PUSH2 0xEAD JUMPI PUSH2 0xEAC PUSH2 0xAE8 JUMP JUMPDEST JUMPDEST PUSH0 PUSH2 0xEBA DUP5 DUP3 DUP6 ADD PUSH2 0xE84 JUMP JUMPDEST SWAP2 POP POP SWAP3 SWAP2 POP POP JUMP JUMPDEST PUSH32 0x4A756D6C6168206861727573206C656269682064617269203000000000000000 PUSH0 DUP3 ADD MSTORE POP JUMP JUMPDEST PUSH0 PUSH2 0xEF7 PUSH1 0x19 DUP4 PUSH2 0xDC4 JUMP JUMPDEST SWAP2 POP PUSH2 0xF02 DUP3 PUSH2 0xEC3 JUMP JUMPDEST PUSH1 0x20 DUP3 ADD SWAP1 POP SWAP2 SWAP1 POP JUMP JUMPDEST PUSH0 PUSH1 0x20 DUP3 ADD SWAP1 POP DUP2 DUP2 SUB PUSH0 DUP4 ADD MSTORE PUSH2 0xF24 DUP2 PUSH2 0xEEB JUMP JUMPDEST SWAP1 POP SWAP2 SWAP1 POP JUMP JUMPDEST PUSH0 PUSH1 0x60 DUP3 ADD SWAP1 POP PUSH2 0xF3E PUSH0 DUP4 ADD DUP7 PUSH2 0xC6B JUMP JUMPDEST PUSH2 0xF4B PUSH1 0x20 DUP4 ADD DUP6 PUSH2 0xC6B JUMP JUMPDEST PUSH2 0xF58 PUSH1 0x40 DUP4 ADD DUP5 PUSH2 0xB7A JUMP JUMPDEST SWAP5 SWAP4 POP POP POP POP JUMP JUMPDEST PUSH32 0x546964616B206164612068616469616800000000000000000000000000000000 PUSH0 DUP3 ADD MSTORE POP JUMP JUMPDEST PUSH0 PUSH2 0xF94 PUSH1 0x10 DUP4 PUSH2 0xDC4 JUMP JUMPDEST SWAP2 POP PUSH2 0xF9F DUP3 PUSH2 0xF60 JUMP JUMPDEST PUSH1 0x20 DUP3 ADD SWAP1 POP SWAP2 SWAP1 POP JUMP JUMPDEST PUSH0 PUSH1 0x20 DUP3 ADD SWAP1 POP DUP2 DUP2 SUB PUSH0 DUP4 ADD MSTORE PUSH2 0xFC1 DUP2 PUSH2 0xF88 JUMP JUMPDEST SWAP1 POP SWAP2 SWAP1 POP JUMP INVALID LOG2 PUSH5 0x6970667358 0x22 SLT KECCAK256 0x1E 0xB8 SWAP9 PUSH11 0x271EEF70DFB0AF82194F2D RJUMPI 0xEBBF 0xC9 COINBASE LT SWAP7 MLOAD SWAP4 RETURNDATASIZE LOG4 EXTCALL JUMPI SHR RETURNDATASIZE 0xCC SWAP4 PUSH5 0x736F6C6343 STOP ADDMOD 0x1E STOP CALLER "
				},
				"gasEstimates": {
					"creation": {
						"codeDepositCost": "818800",
						"executionCost": "infinite",
						"totalCost": "infinite"
					},
					"external": {
						"claimReward()": "infinite",
						"earned(address)": "infinite",
						"lastUpdateTime(address)": "2869",
						"owner()": "2536",
						"regarToken()": "infinite",
						"renounceOwnership()": "infinite",
						"rewardRate()": "2425",
						"rewards(address)": "2825",
						"stake(uint256)": "infinite",
						"stakedAmount(address)": "2912",
						"transferOwnership(address)": "infinite",
						"withdraw(uint256)": "infinite"
					}
				},
				"methodIdentifiers": {
					"claimReward()": "b88a802f",
					"earned(address)": "008cc262",
					"lastUpdateTime(address)": "2ce9aead",
					"owner()": "8da5cb5b",
					"regarToken()": "1558502b",
					"renounceOwnership()": "715018a6",
					"rewardRate()": "7b0a47ee",
					"rewards(address)": "0700037d",
					"stake(uint256)": "a694fc3a",
					"stakedAmount(address)": "f9931855",
					"transferOwnership(address)": "f2fde38b",
					"withdraw(uint256)": "2e1a7d4d"
				}
			},
			"storageLayout": {
				"storage": [
					{
						"astId": 8,
						"contract": "RegarStaking.sol:RegarStaking",
						"label": "_owner",
						"offset": 0,
						"slot": "0",
						"type": "t_address"
					},
					{
						"astId": 264,
						"contract": "RegarStaking.sol:RegarStaking",
						"label": "regarToken",
						"offset": 0,
						"slot": "1",
						"type": "t_contract(IERC20)225"
					},
					{
						"astId": 266,
						"contract": "RegarStaking.sol:RegarStaking",
						"label": "rewardRate",
						"offset": 0,
						"slot": "2",
						"type": "t_uint256"
					},
					{
						"astId": 270,
						"contract": "RegarStaking.sol:RegarStaking",
						"label": "stakedAmount",
						"offset": 0,
						"slot": "3",
						"type": "t_mapping(t_address,t_uint256)"
					},
					{
						"astId": 274,
						"contract": "RegarStaking.sol:RegarStaking",
						"label": "lastUpdateTime",
						"offset": 0,
						"slot": "4",
						"type": "t_mapping(t_address,t_uint256)"
					},
					{
						"astId": 278,
						"contract": "RegarStaking.sol:RegarStaking",
						"label": "rewards",
						"offset": 0,
						"slot": "5",
						"type": "t_mapping(t_address,t_uint256)"
					}
				],
				"types": {
					"t_address": {
						"encoding": "inplace",
						"label": "address",
						"numberOfBytes": "20"
					},
					"t_contract(IERC20)225": {
						"encoding": "inplace",
						"label": "contract IERC20",
						"numberOfBytes": "20"
					},
					"t_mapping(t_address,t_uint256)": {
						"encoding": "mapping",
						"key": "t_address",
						"label": "mapping(address => uint256)",
						"numberOfBytes": "32",
						"value": "t_uint256"
					},
					"t_uint256": {
						"encoding": "inplace",
						"label": "uint256",
						"numberOfBytes": "32"
					}
				}
			},
			"userdoc": {
				"kind": "user",
				"methods": {},
				"version": 1
			}
		}
	}
}