{
	"data": {
		"bytecode": {
			"linkReferences": {},
			"object": "608060405234801561000f575f5ffd5b50604051611a99380380611a998339818101604052810190610031919061022a565b5f73ffffffffffffffffffffffffffffffffffffffff168273ffffffffffffffffffffffffffffffffffffffff161415801561009957505f73ffffffffffffffffffffffffffffffffffffffff168173ffffffffffffffffffffffffffffffffffffffff1614155b6100d8576040517f08c379a00000000000000000000000000000000000000000000000000000000081526004016100cf906102c2565b60405180910390fd5b8073ffffffffffffffffffffffffffffffffffffffff168273ffffffffffffffffffffffffffffffffffffffff1603610146576040517f08c379a000000000000000000000000000000000000000000000000000000000815260040161013d9061032a565b60405180910390fd5b815f5f6101000a81548173ffffffffffffffffffffffffffffffffffffffff021916908373ffffffffffffffffffffffffffffffffffffffff1602179055508060015f6101000a81548173ffffffffffffffffffffffffffffffffffffffff021916908373ffffffffffffffffffffffffffffffffffffffff1602179055505050610348565b5f5ffd5b5f73ffffffffffffffffffffffffffffffffffffffff82169050919050565b5f6101f9826101d0565b9050919050565b610209816101ef565b8114610213575f5ffd5b50565b5f8151905061022481610200565b92915050565b5f5f604083850312156102405761023f6101cc565b5b5f61024d85828601610216565b925050602061025e85828601610216565b9150509250929050565b5f82825260208201905092915050565b7f496e76616c696420746f6b656e206164647265737365730000000000000000005f82015250565b5f6102ac601783610268565b91506102b782610278565b602082019050919050565b5f6020820190508181035f8301526102d9816102a0565b9050919050565b7f546f6b656e73206d75737420626520646966666572656e7400000000000000005f82015250565b5f610314601883610268565b915061031f826102e0565b602082019050919050565b5f6020820190508181035f83015261034181610308565b9050919050565b611744806103555f395ff3fe608060405234801561000f575f5ffd5b5060043610610091575f3560e01c80635f64b55b116100645780635f64b55b1461011f5780639f1d0f591461013d578063ca706bcf1461016d578063cf6c62ea1461019d578063dc5fa6c5146101cd57610091565b80630fc63d101461009557806315770f92146100b357806319e36f3b146100d15780633c4750df146100ef575b5f5ffd5b61009d6101eb565b6040516100aa9190610ec0565b60405180910390f35b6100bb61020f565b6040516100c89190610ef1565b60405180910390f35b6100d9610215565b6040516100e69190610ef1565b60405180910390f35b61010960048036038101906101049190610f38565b61021b565b6040516101169190610ef1565b60405180910390f35b610127610230565b6040516101349190610ec0565b60405180910390f35b61015760048036038101906101529190610f8d565b610255565b6040516101649190610ef1565b60405180910390f35b61018760048036038101906101829190610fdd565b610721565b6040516101949190610ef1565b60405180910390f35b6101b760048036038101906101b2919061101b565b6108cc565b6040516101c49190610ef1565b60405180910390f35b6101d5610e7b565b6040516101e29190610ef1565b60405180910390f35b5f5f9054906101000a900473ffffffffffffffffffffffffffffffffffffffff1681565b60045481565b60035481565b6005602052805f5260405f205f915090505481565b60015f9054906101000a900473ffffffffffffffffffffffffffffffffffffffff1681565b5f5f5f9054906101000a900473ffffffffffffffffffffffffffffffffffffffff1673ffffffffffffffffffffffffffffffffffffffff168473ffffffffffffffffffffffffffffffffffffffff1614806102fc575060015f9054906101000a900473ffffffffffffffffffffffffffffffffffffffff1673ffffffffffffffffffffffffffffffffffffffff168473ffffffffffffffffffffffffffffffffffffffff16145b61033b576040517f08c379a0000000000000000000000000000000000000000000000000000000008152600401610332906110d9565b60405180910390fd5b5f831161037d576040517f08c379a000000000000000000000000000000000000000000000000000000000815260040161037490611167565b60405180910390fd5b5f5f5f9054906101000a900473ffffffffffffffffffffffffffffffffffffffff1673ffffffffffffffffffffffffffffffffffffffff168573ffffffffffffffffffffffffffffffffffffffff161490505f5f826103e1576003546002546103e8565b6002546003545b915091505f83610418575f5f9054906101000a900473ffffffffffffffffffffffffffffffffffffffff1661043b565b60015f9054906101000a900473ffffffffffffffffffffffffffffffffffffffff165b90508773ffffffffffffffffffffffffffffffffffffffff166323b872dd33308a6040518463ffffffff1660e01b815260040161047a93929190611185565b6020604051808303815f875af1158015610496573d5f5f3e3d5ffd5b505050506040513d601f19601f820116820180604052508101906104ba91906111ef565b6104f9576040517f08c379a00000000000000000000000000000000000000000000000000000000081526004016104f090611264565b60405180910390fd5b5f6103e58861050891906112af565b90505f838261051791906112af565b90505f826103e88761052991906112af565b61053391906112f0565b905080826105419190611350565b975088881015610586576040517f08c379a000000000000000000000000000000000000000000000000000000000815260040161057d906113ca565b60405180910390fd5b86156105c1578960025f82825461059d91906112f0565b925050819055508760035f8282546105b591906113e8565b925050819055506105f2565b8960035f8282546105d291906112f0565b925050819055508760025f8282546105ea91906113e8565b925050819055505b8373ffffffffffffffffffffffffffffffffffffffff1663a9059cbb338a6040518363ffffffff1660e01b815260040161062d92919061141b565b6020604051808303815f875af1158015610649573d5f5f3e3d5ffd5b505050506040513d601f19601f8201168201806040525081019061066d91906111ef565b6106ac576040517f08c379a00000000000000000000000000000000000000000000000000000000081526004016106a39061148c565b60405180910390fd5b8a73ffffffffffffffffffffffffffffffffffffffff163373ffffffffffffffffffffffffffffffffffffffff167fdd36740e2a012d93061a0d99eaa9107860955de4e90027d3cf465a055026c4078c8b60405161070b9291906114aa565b60405180910390a3505050505050509392505050565b5f5f5f9054906101000a900473ffffffffffffffffffffffffffffffffffffffff1673ffffffffffffffffffffffffffffffffffffffff168373ffffffffffffffffffffffffffffffffffffffff1614806107c8575060015f9054906101000a900473ffffffffffffffffffffffffffffffffffffffff1673ffffffffffffffffffffffffffffffffffffffff168373ffffffffffffffffffffffffffffffffffffffff16145b610807576040517f08c379a00000000000000000000000000000000000000000000000000000000081526004016107fe9061151b565b60405180910390fd5b5f5f5f9054906101000a900473ffffffffffffffffffffffffffffffffffffffff1673ffffffffffffffffffffffffffffffffffffffff168473ffffffffffffffffffffffffffffffffffffffff161490505f5f8261086b57600354600254610872565b6002546003545b915091505f6103e58661088591906112af565b90505f828261089491906112af565b90505f826103e8866108a691906112af565b6108b091906112f0565b905080826108be9190611350565b965050505050505092915050565b5f5f5f9054906101000a900473ffffffffffffffffffffffffffffffffffffffff1673ffffffffffffffffffffffffffffffffffffffff168573ffffffffffffffffffffffffffffffffffffffff16148015610974575060015f9054906101000a900473ffffffffffffffffffffffffffffffffffffffff1673ffffffffffffffffffffffffffffffffffffffff168473ffffffffffffffffffffffffffffffffffffffff16145b80610a22575060015f9054906101000a900473ffffffffffffffffffffffffffffffffffffffff1673ffffffffffffffffffffffffffffffffffffffff168573ffffffffffffffffffffffffffffffffffffffff16148015610a2157505f5f9054906101000a900473ffffffffffffffffffffffffffffffffffffffff1673ffffffffffffffffffffffffffffffffffffffff168473ffffffffffffffffffffffffffffffffffffffff16145b5b610a61576040517f08c379a0000000000000000000000000000000000000000000000000000000008152600401610a5890611583565b60405180910390fd5b5f5f5f9054906101000a900473ffffffffffffffffffffffffffffffffffffffff1673ffffffffffffffffffffffffffffffffffffffff168673ffffffffffffffffffffffffffffffffffffffff1614610abb5782610abd565b835b90505f5f5f9054906101000a900473ffffffffffffffffffffffffffffffffffffffff1673ffffffffffffffffffffffffffffffffffffffff168773ffffffffffffffffffffffffffffffffffffffff1614610b195784610b1b565b835b90505f5f9054906101000a900473ffffffffffffffffffffffffffffffffffffffff1673ffffffffffffffffffffffffffffffffffffffff166323b872dd3330856040518463ffffffff1660e01b8152600401610b7a93929190611185565b6020604051808303815f875af1158015610b96573d5f5f3e3d5ffd5b505050506040513d601f19601f82011682018060405250810190610bba91906111ef565b610bf9576040517f08c379a0000000000000000000000000000000000000000000000000000000008152600401610bf0906115eb565b60405180910390fd5b60015f9054906101000a900473ffffffffffffffffffffffffffffffffffffffff1673ffffffffffffffffffffffffffffffffffffffff166323b872dd3330846040518463ffffffff1660e01b8152600401610c5793929190611185565b6020604051808303815f875af1158015610c73573d5f5f3e3d5ffd5b505050506040513d601f19601f82011682018060405250810190610c9791906111ef565b610cd6576040517f08c379a0000000000000000000000000000000000000000000000000000000008152600401610ccd90611653565b60405180910390fd5b5f60045403610cf2578082610ceb91906112f0565b9250610d42565b5f60025460045484610d0491906112af565b610d0e9190611350565b90505f60035460045484610d2291906112af565b610d2c9190611350565b9050808210610d3b5780610d3d565b815b945050505b5f8311610d84576040517f08c379a0000000000000000000000000000000000000000000000000000000008152600401610d7b906116bb565b60405180910390fd5b8260055f3373ffffffffffffffffffffffffffffffffffffffff1673ffffffffffffffffffffffffffffffffffffffff1681526020019081526020015f205f828254610dd091906112f0565b925050819055508260045f828254610de891906112f0565b925050819055508160025f828254610e0091906112f0565b925050819055508060035f828254610e1891906112f0565b925050819055503373ffffffffffffffffffffffffffffffffffffffff167f64b83944e79c3ce8d4c297411de637c3e102d064677aac0c163976ebdcd6f50e838386604051610e69939291906116d9565b60405180910390a25050949350505050565b60025481565b5f73ffffffffffffffffffffffffffffffffffffffff82169050919050565b5f610eaa82610e81565b9050919050565b610eba81610ea0565b82525050565b5f602082019050610ed35f830184610eb1565b92915050565b5f819050919050565b610eeb81610ed9565b82525050565b5f602082019050610f045f830184610ee2565b92915050565b5f5ffd5b610f1781610ea0565b8114610f21575f5ffd5b50565b5f81359050610f3281610f0e565b92915050565b5f60208284031215610f4d57610f4c610f0a565b5b5f610f5a84828501610f24565b91505092915050565b610f6c81610ed9565b8114610f76575f5ffd5b50565b5f81359050610f8781610f63565b92915050565b5f5f5f60608486031215610fa457610fa3610f0a565b5b5f610fb186828701610f24565b9350506020610fc286828701610f79565b9250506040610fd386828701610f79565b9150509250925092565b5f5f60408385031215610ff357610ff2610f0a565b5b5f61100085828601610f24565b925050602061101185828601610f79565b9150509250929050565b5f5f5f5f6080858703121561103357611032610f0a565b5b5f61104087828801610f24565b945050602061105187828801610f24565b935050604061106287828801610f79565b925050606061107387828801610f79565b91505092959194509250565b5f82825260208201905092915050565b7f496e76616c696420746f6b656e20666f72207468697320706f6f6c00000000005f82015250565b5f6110c3601b8361107f565b91506110ce8261108f565b602082019050919050565b5f6020820190508181035f8301526110f0816110b7565b9050919050565b7f496e70757420616d6f756e74206d7573742062652067726561746572207468615f8201527f6e207a65726f0000000000000000000000000000000000000000000000000000602082015250565b5f61115160268361107f565b915061115c826110f7565b604082019050919050565b5f6020820190508181035f83015261117e81611145565b9050919050565b5f6060820190506111985f830186610eb1565b6111a56020830185610eb1565b6111b26040830184610ee2565b949350505050565b5f8115159050919050565b6111ce816111ba565b81146111d8575f5ffd5b50565b5f815190506111e9816111c5565b92915050565b5f6020828403121561120457611203610f0a565b5b5f611211848285016111db565b91505092915050565b7f5472616e73666572206f6620696e70757420746f6b656e206661696c656400005f82015250565b5f61124e601e8361107f565b91506112598261121a565b602082019050919050565b5f6020820190508181035f83015261127b81611242565b9050919050565b7f4e487b71000000000000000000000000000000000000000000000000000000005f52601160045260245ffd5b5f6112b982610ed9565b91506112c483610ed9565b92508282026112d281610ed9565b915082820484148315176112e9576112e8611282565b5b5092915050565b5f6112fa82610ed9565b915061130583610ed9565b925082820190508082111561131d5761131c611282565b5b92915050565b7f4e487b71000000000000000000000000000000000000000000000000000000005f52601260045260245ffd5b5f61135a82610ed9565b915061136583610ed9565b92508261137557611374611323565b5b828204905092915050565b7f536c697070616765206c696d69742065786365656465640000000000000000005f82015250565b5f6113b460178361107f565b91506113bf82611380565b602082019050919050565b5f6020820190508181035f8301526113e1816113a8565b9050919050565b5f6113f282610ed9565b91506113fd83610ed9565b925082820390508181111561141557611414611282565b5b92915050565b5f60408201905061142e5f830185610eb1565b61143b6020830184610ee2565b9392505050565b7f5472616e73666572206f66206f757470757420746f6b656e206661696c6564005f82015250565b5f611476601f8361107f565b915061148182611442565b602082019050919050565b5f6020820190508181035f8301526114a38161146a565b9050919050565b5f6040820190506114bd5f830185610ee2565b6114ca6020830184610ee2565b9392505050565b7f496e76616c696420746f6b656e000000000000000000000000000000000000005f82015250565b5f611505600d8361107f565b9150611510826114d1565b602082019050919050565b5f6020820190508181035f830152611532816114f9565b9050919050565b7f546f6b656e7320646f206e6f74206d6174636820706f6f6c20706169720000005f82015250565b5f61156d601d8361107f565b915061157882611539565b602082019050919050565b5f6020820190508181035f83015261159a81611561565b9050919050565b7f5472616e73666572206f6620746f6b656e41206661696c6564000000000000005f82015250565b5f6115d560198361107f565b91506115e0826115a1565b602082019050919050565b5f6020820190508181035f830152611602816115c9565b9050919050565b7f5472616e73666572206f6620746f6b656e42206661696c6564000000000000005f82015250565b5f61163d60198361107f565b915061164882611609565b602082019050919050565b5f6020820190508181035f83015261166a81611631565b9050919050565b7f5368617265732063616e6e6f74206265207a65726f00000000000000000000005f82015250565b5f6116a560158361107f565b91506116b082611671565b602082019050919050565b5f6020820190508181035f8301526116d281611699565b9050919050565b5f6060820190506116ec5f830186610ee2565b6116f96020830185610ee2565b6117066040830184610ee2565b94935050505056fea26469706673582212205d23fbe7fa2ffe07d322f1ea7c69269f04f34493ac4e81a3c7047f5ba40fe23a64736f6c634300081e0033",
			"opcodes": "PUSH1 0x80 PUSH1 0x40 MSTORE CALLVALUE DUP1 ISZERO PUSH2 0xF JUMPI PUSH0 PUSH0 REVERT JUMPDEST POP PUSH1 0x40 MLOAD PUSH2 0x1A99 CODESIZE SUB DUP1 PUSH2 0x1A99 DUP4 CODECOPY DUP2 DUP2 ADD PUSH1 0x40 MSTORE DUP2 ADD SWAP1 PUSH2 0x31 SWAP2 SWAP1 PUSH2 0x22A JUMP JUMPDEST PUSH0 PUSH20 0xFFFFFFFFFFFFFFFFFFFFFFFFFFFFFFFFFFFFFFFF AND DUP3 PUSH20 0xFFFFFFFFFFFFFFFFFFFFFFFFFFFFFFFFFFFFFFFF AND EQ ISZERO DUP1 ISZERO PUSH2 0x99 JUMPI POP PUSH0 PUSH20 0xFFFFFFFFFFFFFFFFFFFFFFFFFFFFFFFFFFFFFFFF AND DUP2 PUSH20 0xFFFFFFFFFFFFFFFFFFFFFFFFFFFFFFFFFFFFFFFF AND EQ ISZERO JUMPDEST PUSH2 0xD8 JUMPI PUSH1 0x40 MLOAD PUSH32 0x8C379A000000000000000000000000000000000000000000000000000000000 DUP2 MSTORE PUSH1 0x4 ADD PUSH2 0xCF SWAP1 PUSH2 0x2C2 JUMP JUMPDEST PUSH1 0x40 MLOAD DUP1 SWAP2 SUB SWAP1 REVERT JUMPDEST DUP1 PUSH20 0xFFFFFFFFFFFFFFFFFFFFFFFFFFFFFFFFFFFFFFFF AND DUP3 PUSH20 0xFFFFFFFFFFFFFFFFFFFFFFFFFFFFFFFFFFFFFFFF AND SUB PUSH2 0x146 JUMPI PUSH1 0x40 MLOAD PUSH32 0x8C379A000000000000000000000000000000000000000000000000000000000 DUP2 MSTORE PUSH1 0x4 ADD PUSH2 0x13D SWAP1 PUSH2 0x32A JUMP JUMPDEST PUSH1 0x40 MLOAD DUP1 SWAP2 SUB SWAP1 REVERT JUMPDEST DUP2 PUSH0 PUSH0 PUSH2 0x100 EXP DUP2 SLOAD DUP2 PUSH20 0xFFFFFFFFFFFFFFFFFFFFFFFFFFFFFFFFFFFFFFFF MUL NOT AND SWAP1 DUP4 PUSH20 0xFFFFFFFFFFFFFFFFFFFFFFFFFFFFFFFFFFFFFFFF AND MUL OR SWAP1 SSTORE POP DUP1 PUSH1 0x1 PUSH0 PUSH2 0x100 EXP DUP2 SLOAD DUP2 PUSH20 0xFFFFFFFFFFFFFFFFFFFFFFFFFFFFFFFFFFFFFFFF MUL NOT AND SWAP1 DUP4 PUSH20 0xFFFFFFFFFFFFFFFFFFFFFFFFFFFFFFFFFFFFFFFF AND MUL OR SWAP1 SSTORE POP POP POP PUSH2 0x348 JUMP JUMPDEST PUSH0 PUSH0 REVERT JUMPDEST PUSH0 PUSH20 0xFFFFFFFFFFFFFFFFFFFFFFFFFFFFFFFFFFFFFFFF DUP3 AND SWAP1 POP SWAP2 SWAP1 POP JUMP JUMPDEST PUSH0 PUSH2 0x1F9 DUP3 PUSH2 0x1D0 JUMP JUMPDEST SWAP1 POP SWAP2 SWAP1 POP JUMP JUMPDEST PUSH2 0x209 DUP2 PUSH2 0x1EF JUMP JUMPDEST DUP2 EQ PUSH2 0x213 JUMPI PUSH0 PUSH0 REVERT JUMPDEST POP JUMP JUMPDEST PUSH0 DUP2 MLOAD SWAP1 POP PUSH2 0x224 DUP2 PUSH2 0x200 JUMP JUMPDEST SWAP3 SWAP2 POP POP JUMP JUMPDEST PUSH0 PUSH0 PUSH1 0x40 DUP4 DUP6 SUB SLT ISZERO PUSH2 0x240 JUMPI PUSH2 0x23F PUSH2 0x1CC JUMP JUMPDEST JUMPDEST PUSH0 PUSH2 0x24D DUP6 DUP3 DUP7 ADD PUSH2 0x216 JUMP JUMPDEST SWAP3 POP POP PUSH1 0x20 PUSH2 0x25E DUP6 DUP3 DUP7 ADD PUSH2 0x216 JUMP JUMPDEST SWAP2 POP POP SWAP3 POP SWAP3 SWAP1 POP JUMP JUMPDEST PUSH0 DUP3 DUP3 MSTORE PUSH1 0x20 DUP3 ADD SWAP1 POP SWAP3 SWAP2 POP POP JUMP JUMPDEST PUSH32 0x496E76616C696420746F6B656E20616464726573736573000000000000000000 PUSH0 DUP3 ADD MSTORE POP JUMP JUMPDEST PUSH0 PUSH2 0x2AC PUSH1 0x17 DUP4 PUSH2 0x268 JUMP JUMPDEST SWAP2 POP PUSH2 0x2B7 DUP3 PUSH2 0x278 JUMP JUMPDEST PUSH1 0x20 DUP3 ADD SWAP1 POP SWAP2 SWAP1 POP JUMP JUMPDEST PUSH0 PUSH1 0x20 DUP3 ADD SWAP1 POP DUP2 DUP2 SUB PUSH0 DUP4 ADD MSTORE PUSH2 0x2D9 DUP2 PUSH2 0x2A0 JUMP JUMPDEST SWAP1 POP SWAP2 SWAP1 POP JUMP JUMPDEST PUSH32 0x546F6B656E73206D75737420626520646966666572656E740000000000000000 PUSH0 DUP3 ADD MSTORE POP JUMP JUMPDEST PUSH0 PUSH2 0x314 PUSH1 0x18 DUP4 PUSH2 0x268 JUMP JUMPDEST SWAP2 POP PUSH2 0x31F DUP3 PUSH2 0x2E0 JUMP JUMPDEST PUSH1 0x20 DUP3 ADD SWAP1 POP SWAP2 SWAP1 POP JUMP JUMPDEST PUSH0 PUSH1 0x20 DUP3 ADD SWAP1 POP DUP2 DUP2 SUB PUSH0 DUP4 ADD MSTORE PUSH2 0x341 DUP2 PUSH2 0x308 JUMP JUMPDEST SWAP1 POP SWAP2 SWAP1 POP JUMP JUMPDEST PUSH2 0x1744 DUP1 PUSH2 0x355 PUSH0 CODECOPY PUSH0 RETURN INVALID PUSH1 0x80 PUSH1 0x40 MSTORE CALLVALUE DUP1 ISZERO PUSH2 0xF JUMPI PUSH0 PUSH0 REVERT JUMPDEST POP PUSH1 0x4 CALLDATASIZE LT PUSH2 0x91 JUMPI PUSH0 CALLDATALOAD PUSH1 0xE0 SHR DUP1 PUSH4 0x5F64B55B GT PUSH2 0x64 JUMPI DUP1 PUSH4 0x5F64B55B EQ PUSH2 0x11F JUMPI DUP1 PUSH4 0x9F1D0F59 EQ PUSH2 0x13D JUMPI DUP1 PUSH4 0xCA706BCF EQ PUSH2 0x16D JUMPI DUP1 PUSH4 0xCF6C62EA EQ PUSH2 0x19D JUMPI DUP1 PUSH4 0xDC5FA6C5 EQ PUSH2 0x1CD JUMPI PUSH2 0x91 JUMP JUMPDEST DUP1 PUSH4 0xFC63D10 EQ PUSH2 0x95 JUMPI DUP1 PUSH4 0x15770F92 EQ PUSH2 0xB3 JUMPI DUP1 PUSH4 0x19E36F3B EQ PUSH2 0xD1 JUMPI DUP1 PUSH4 0x3C4750DF EQ PUSH2 0xEF JUMPI JUMPDEST PUSH0 PUSH0 REVERT JUMPDEST PUSH2 0x9D PUSH2 0x1EB JUMP JUMPDEST PUSH1 0x40 MLOAD PUSH2 0xAA SWAP2 SWAP1 PUSH2 0xEC0 JUMP JUMPDEST PUSH1 0x40 MLOAD DUP1 SWAP2 SUB SWAP1 RETURN JUMPDEST PUSH2 0xBB PUSH2 0x20F JUMP JUMPDEST PUSH1 0x40 MLOAD PUSH2 0xC8 SWAP2 SWAP1 PUSH2 0xEF1 JUMP JUMPDEST PUSH1 0x40 MLOAD DUP1 SWAP2 SUB SWAP1 RETURN JUMPDEST PUSH2 0xD9 PUSH2 0x215 JUMP JUMPDEST PUSH1 0x40 MLOAD PUSH2 0xE6 SWAP2 SWAP1 PUSH2 0xEF1 JUMP JUMPDEST PUSH1 0x40 MLOAD DUP1 SWAP2 SUB SWAP1 RETURN JUMPDEST PUSH2 0x109 PUSH1 0x4 DUP1 CALLDATASIZE SUB DUP2 ADD SWAP1 PUSH2 0x104 SWAP2 SWAP1 PUSH2 0xF38 JUMP JUMPDEST PUSH2 0x21B JUMP JUMPDEST PUSH1 0x40 MLOAD PUSH2 0x116 SWAP2 SWAP1 PUSH2 0xEF1 JUMP JUMPDEST PUSH1 0x40 MLOAD DUP1 SWAP2 SUB SWAP1 RETURN JUMPDEST PUSH2 0x127 PUSH2 0x230 JUMP JUMPDEST PUSH1 0x40 MLOAD PUSH2 0x134 SWAP2 SWAP1 PUSH2 0xEC0 JUMP JUMPDEST PUSH1 0x40 MLOAD DUP1 SWAP2 SUB SWAP1 RETURN JUMPDEST PUSH2 0x157 PUSH1 0x4 DUP1 CALLDATASIZE SUB DUP2 ADD SWAP1 PUSH2 0x152 SWAP2 SWAP1 PUSH2 0xF8D JUMP JUMPDEST PUSH2 0x255 JUMP JUMPDEST PUSH1 0x40 MLOAD PUSH2 0x164 SWAP2 SWAP1 PUSH2 0xEF1 JUMP JUMPDEST PUSH1 0x40 MLOAD DUP1 SWAP2 SUB SWAP1 RETURN JUMPDEST PUSH2 0x187 PUSH1 0x4 DUP1 CALLDATASIZE SUB DUP2 ADD SWAP1 PUSH2 0x182 SWAP2 SWAP1 PUSH2 0xFDD JUMP JUMPDEST PUSH2 0x721 JUMP JUMPDEST PUSH1 0x40 MLOAD PUSH2 0x194 SWAP2 SWAP1 PUSH2 0xEF1 JUMP JUMPDEST PUSH1 0x40 MLOAD DUP1 SWAP2 SUB SWAP1 RETURN JUMPDEST PUSH2 0x1B7 PUSH1 0x4 DUP1 CALLDATASIZE SUB DUP2 ADD SWAP1 PUSH2 0x1B2 SWAP2 SWAP1 PUSH2 0x101B JUMP JUMPDEST PUSH2 0x8CC JUMP JUMPDEST PUSH1 0x40 MLOAD PUSH2 0x1C4 SWAP2 SWAP1 PUSH2 0xEF1 JUMP JUMPDEST PUSH1 0x40 MLOAD DUP1 SWAP2 SUB SWAP1 RETURN JUMPDEST PUSH2 0x1D5 PUSH2 0xE7B JUMP JUMPDEST PUSH1 0x40 MLOAD PUSH2 0x1E2 SWAP2 SWAP1 PUSH2 0xEF1 JUMP JUMPDEST PUSH1 0x40 MLOAD DUP1 SWAP2 SUB SWAP1 RETURN JUMPDEST PUSH0 PUSH0 SWAP1 SLOAD SWAP1 PUSH2 0x100 EXP SWAP1 DIV PUSH20 0xFFFFFFFFFFFFFFFFFFFFFFFFFFFFFFFFFFFFFFFF AND DUP2 JUMP JUMPDEST PUSH1 0x4 SLOAD DUP2 JUMP JUMPDEST PUSH1 0x3 SLOAD DUP2 JUMP JUMPDEST PUSH1 0x5 PUSH1 0x20 MSTORE DUP1 PUSH0 MSTORE PUSH1 0x40 PUSH0 KECCAK256 PUSH0 SWAP2 POP SWAP1 POP SLOAD DUP2 JUMP JUMPDEST PUSH1 0x1 PUSH0 SWAP1 SLOAD SWAP1 PUSH2 0x100 EXP SWAP1 DIV PUSH20 0xFFFFFFFFFFFFFFFFFFFFFFFFFFFFFFFFFFFFFFFF AND DUP2 JUMP JUMPDEST PUSH0 PUSH0 PUSH0 SWAP1 SLOAD SWAP1 PUSH2 0x100 EXP SWAP1 DIV PUSH20 0xFFFFFFFFFFFFFFFFFFFFFFFFFFFFFFFFFFFFFFFF AND PUSH20 0xFFFFFFFFFFFFFFFFFFFFFFFFFFFFFFFFFFFFFFFF AND DUP5 PUSH20 0xFFFFFFFFFFFFFFFFFFFFFFFFFFFFFFFFFFFFFFFF AND EQ DUP1 PUSH2 0x2FC JUMPI POP PUSH1 0x1 PUSH0 SWAP1 SLOAD SWAP1 PUSH2 0x100 EXP SWAP1 DIV PUSH20 0xFFFFFFFFFFFFFFFFFFFFFFFFFFFFFFFFFFFFFFFF AND PUSH20 0xFFFFFFFFFFFFFFFFFFFFFFFFFFFFFFFFFFFFFFFF AND DUP5 PUSH20 0xFFFFFFFFFFFFFFFFFFFFFFFFFFFFFFFFFFFFFFFF AND EQ JUMPDEST PUSH2 0x33B JUMPI PUSH1 0x40 MLOAD PUSH32 0x8C379A000000000000000000000000000000000000000000000000000000000 DUP2 MSTORE PUSH1 0x4 ADD PUSH2 0x332 SWAP1 PUSH2 0x10D9 JUMP JUMPDEST PUSH1 0x40 MLOAD DUP1 SWAP2 SUB SWAP1 REVERT JUMPDEST PUSH0 DUP4 GT PUSH2 0x37D JUMPI PUSH1 0x40 MLOAD PUSH32 0x8C379A000000000000000000000000000000000000000000000000000000000 DUP2 MSTORE PUSH1 0x4 ADD PUSH2 0x374 SWAP1 PUSH2 0x1167 JUMP JUMPDEST PUSH1 0x40 MLOAD DUP1 SWAP2 SUB SWAP1 REVERT JUMPDEST PUSH0 PUSH0 PUSH0 SWAP1 SLOAD SWAP1 PUSH2 0x100 EXP SWAP1 DIV PUSH20 0xFFFFFFFFFFFFFFFFFFFFFFFFFFFFFFFFFFFFFFFF AND PUSH20 0xFFFFFFFFFFFFFFFFFFFFFFFFFFFFFFFFFFFFFFFF AND DUP6 PUSH20 0xFFFFFFFFFFFFFFFFFFFFFFFFFFFFFFFFFFFFFFFF AND EQ SWAP1 POP PUSH0 PUSH0 DUP3 PUSH2 0x3E1 JUMPI PUSH1 0x3 SLOAD PUSH1 0x2 SLOAD PUSH2 0x3E8 JUMP JUMPDEST PUSH1 0x2 SLOAD PUSH1 0x3 SLOAD JUMPDEST SWAP2 POP SWAP2 POP PUSH0 DUP4 PUSH2 0x418 JUMPI PUSH0 PUSH0 SWAP1 SLOAD SWAP1 PUSH2 0x100 EXP SWAP1 DIV PUSH20 0xFFFFFFFFFFFFFFFFFFFFFFFFFFFFFFFFFFFFFFFF AND PUSH2 0x43B JUMP JUMPDEST PUSH1 0x1 PUSH0 SWAP1 SLOAD SWAP1 PUSH2 0x100 EXP SWAP1 DIV PUSH20 0xFFFFFFFFFFFFFFFFFFFFFFFFFFFFFFFFFFFFFFFF AND JUMPDEST SWAP1 POP DUP8 PUSH20 0xFFFFFFFFFFFFFFFFFFFFFFFFFFFFFFFFFFFFFFFF AND PUSH4 0x23B872DD CALLER ADDRESS DUP11 PUSH1 0x40 MLOAD DUP5 PUSH4 0xFFFFFFFF AND PUSH1 0xE0 SHL DUP2 MSTORE PUSH1 0x4 ADD PUSH2 0x47A SWAP4 SWAP3 SWAP2 SWAP1 PUSH2 0x1185 JUMP JUMPDEST PUSH1 0x20 PUSH1 0x40 MLOAD DUP1 DUP4 SUB DUP2 PUSH0 DUP8 GAS CALL ISZERO DUP1 ISZERO PUSH2 0x496 JUMPI RETURNDATASIZE PUSH0 PUSH0 RETURNDATACOPY RETURNDATASIZE PUSH0 REVERT JUMPDEST POP POP POP POP PUSH1 0x40 MLOAD RETURNDATASIZE PUSH1 0x1F NOT PUSH1 0x1F DUP3 ADD AND DUP3 ADD DUP1 PUSH1 0x40 MSTORE POP DUP2 ADD SWAP1 PUSH2 0x4BA SWAP2 SWAP1 PUSH2 0x11EF JUMP JUMPDEST PUSH2 0x4F9 JUMPI PUSH1 0x40 MLOAD PUSH32 0x8C379A000000000000000000000000000000000000000000000000000000000 DUP2 MSTORE PUSH1 0x4 ADD PUSH2 0x4F0 SWAP1 PUSH2 0x1264 JUMP JUMPDEST PUSH1 0x40 MLOAD DUP1 SWAP2 SUB SWAP1 REVERT JUMPDEST PUSH0 PUSH2 0x3E5 DUP9 PUSH2 0x508 SWAP2 SWAP1 PUSH2 0x12AF JUMP JUMPDEST SWAP1 POP PUSH0 DUP4 DUP3 PUSH2 0x517 SWAP2 SWAP1 PUSH2 0x12AF JUMP JUMPDEST SWAP1 POP PUSH0 DUP3 PUSH2 0x3E8 DUP8 PUSH2 0x529 SWAP2 SWAP1 PUSH2 0x12AF JUMP JUMPDEST PUSH2 0x533 SWAP2 SWAP1 PUSH2 0x12F0 JUMP JUMPDEST SWAP1 POP DUP1 DUP3 PUSH2 0x541 SWAP2 SWAP1 PUSH2 0x1350 JUMP JUMPDEST SWAP8 POP DUP9 DUP9 LT ISZERO PUSH2 0x586 JUMPI PUSH1 0x40 MLOAD PUSH32 0x8C379A000000000000000000000000000000000000000000000000000000000 DUP2 MSTORE PUSH1 0x4 ADD PUSH2 0x57D SWAP1 PUSH2 0x13CA JUMP JUMPDEST PUSH1 0x40 MLOAD DUP1 SWAP2 SUB SWAP1 REVERT JUMPDEST DUP7 ISZERO PUSH2 0x5C1 JUMPI DUP10 PUSH1 0x2 PUSH0 DUP3 DUP3 SLOAD PUSH2 0x59D SWAP2 SWAP1 PUSH2 0x12F0 JUMP JUMPDEST SWAP3 POP POP DUP2 SWAP1 SSTORE POP DUP8 PUSH1 0x3 PUSH0 DUP3 DUP3 SLOAD PUSH2 0x5B5 SWAP2 SWAP1 PUSH2 0x13E8 JUMP JUMPDEST SWAP3 POP POP DUP2 SWAP1 SSTORE POP PUSH2 0x5F2 JUMP JUMPDEST DUP10 PUSH1 0x3 PUSH0 DUP3 DUP3 SLOAD PUSH2 0x5D2 SWAP2 SWAP1 PUSH2 0x12F0 JUMP JUMPDEST SWAP3 POP POP DUP2 SWAP1 SSTORE POP DUP8 PUSH1 0x2 PUSH0 DUP3 DUP3 SLOAD PUSH2 0x5EA SWAP2 SWAP1 PUSH2 0x13E8 JUMP JUMPDEST SWAP3 POP POP DUP2 SWAP1 SSTORE POP JUMPDEST DUP4 PUSH20 0xFFFFFFFFFFFFFFFFFFFFFFFFFFFFFFFFFFFFFFFF AND PUSH4 0xA9059CBB CALLER DUP11 PUSH1 0x40 MLOAD DUP4 PUSH4 0xFFFFFFFF AND PUSH1 0xE0 SHL DUP2 MSTORE PUSH1 0x4 ADD PUSH2 0x62D SWAP3 SWAP2 SWAP1 PUSH2 0x141B JUMP JUMPDEST PUSH1 0x20 PUSH1 0x40 MLOAD DUP1 DUP4 SUB DUP2 PUSH0 DUP8 GAS CALL ISZERO DUP1 ISZERO PUSH2 0x649 JUMPI RETURNDATASIZE PUSH0 PUSH0 RETURNDATACOPY RETURNDATASIZE PUSH0 REVERT JUMPDEST POP POP POP POP PUSH1 0x40 MLOAD RETURNDATASIZE PUSH1 0x1F NOT PUSH1 0x1F DUP3 ADD AND DUP3 ADD DUP1 PUSH1 0x40 MSTORE POP DUP2 ADD SWAP1 PUSH2 0x66D SWAP2 SWAP1 PUSH2 0x11EF JUMP JUMPDEST PUSH2 0x6AC JUMPI PUSH1 0x40 MLOAD PUSH32 0x8C379A000000000000000000000000000000000000000000000000000000000 DUP2 MSTORE PUSH1 0x4 ADD PUSH2 0x6A3 SWAP1 PUSH2 0x148C JUMP JUMPDEST PUSH1 0x40 MLOAD DUP1 SWAP2 SUB SWAP1 REVERT JUMPDEST DUP11 PUSH20 0xFFFFFFFFFFFFFFFFFFFFFFFFFFFFFFFFFFFFFFFF AND CALLER PUSH20 0xFFFFFFFFFFFFFFFFFFFFFFFFFFFFFFFFFFFFFFFF AND PUSH32 0xDD36740E2A012D93061A0D99EAA9107860955DE4E90027D3CF465A055026C407 DUP13 DUP12 PUSH1 0x40 MLOAD PUSH2 0x70B SWAP3 SWAP2 SWAP1 PUSH2 0x14AA JUMP JUMPDEST PUSH1 0x40 MLOAD DUP1 SWAP2 SUB SWAP1 LOG3 POP POP POP POP POP POP POP SWAP4 SWAP3 POP POP POP JUMP JUMPDEST PUSH0 PUSH0 PUSH0 SWAP1 SLOAD SWAP1 PUSH2 0x100 EXP SWAP1 DIV PUSH20 0xFFFFFFFFFFFFFFFFFFFFFFFFFFFFFFFFFFFFFFFF AND PUSH20 0xFFFFFFFFFFFFFFFFFFFFFFFFFFFFFFFFFFFFFFFF AND DUP4 PUSH20 0xFFFFFFFFFFFFFFFFFFFFFFFFFFFFFFFFFFFFFFFF AND EQ DUP1 PUSH2 0x7C8 JUMPI POP PUSH1 0x1 PUSH0 SWAP1 SLOAD SWAP1 PUSH2 0x100 EXP SWAP1 DIV PUSH20 0xFFFFFFFFFFFFFFFFFFFFFFFFFFFFFFFFFFFFFFFF AND PUSH20 0xFFFFFFFFFFFFFFFFFFFFFFFFFFFFFFFFFFFFFFFF AND DUP4 PUSH20 0xFFFFFFFFFFFFFFFFFFFFFFFFFFFFFFFFFFFFFFFF AND EQ JUMPDEST PUSH2 0x807 JUMPI PUSH1 0x40 MLOAD PUSH32 0x8C379A000000000000000000000000000000000000000000000000000000000 DUP2 MSTORE PUSH1 0x4 ADD PUSH2 0x7FE SWAP1 PUSH2 0x151B JUMP JUMPDEST PUSH1 0x40 MLOAD DUP1 SWAP2 SUB SWAP1 REVERT JUMPDEST PUSH0 PUSH0 PUSH0 SWAP1 SLOAD SWAP1 PUSH2 0x100 EXP SWAP1 DIV PUSH20 0xFFFFFFFFFFFFFFFFFFFFFFFFFFFFFFFFFFFFFFFF AND PUSH20 0xFFFFFFFFFFFFFFFFFFFFFFFFFFFFFFFFFFFFFFFF AND DUP5 PUSH20 0xFFFFFFFFFFFFFFFFFFFFFFFFFFFFFFFFFFFFFFFF AND EQ SWAP1 POP PUSH0 PUSH0 DUP3 PUSH2 0x86B JUMPI PUSH1 0x3 SLOAD PUSH1 0x2 SLOAD PUSH2 0x872 JUMP JUMPDEST PUSH1 0x2 SLOAD PUSH1 0x3 SLOAD JUMPDEST SWAP2 POP SWAP2 POP PUSH0 PUSH2 0x3E5 DUP7 PUSH2 0x885 SWAP2 SWAP1 PUSH2 0x12AF JUMP JUMPDEST SWAP1 POP PUSH0 DUP3 DUP3 PUSH2 0x894 SWAP2 SWAP1 PUSH2 0x12AF JUMP JUMPDEST SWAP1 POP PUSH0 DUP3 PUSH2 0x3E8 DUP7 PUSH2 0x8A6 SWAP2 SWAP1 PUSH2 0x12AF JUMP JUMPDEST PUSH2 0x8B0 SWAP2 SWAP1 PUSH2 0x12F0 JUMP JUMPDEST SWAP1 POP DUP1 DUP3 PUSH2 0x8BE SWAP2 SWAP1 PUSH2 0x1350 JUMP JUMPDEST SWAP7 POP POP POP POP POP POP POP SWAP3 SWAP2 POP POP JUMP JUMPDEST PUSH0 PUSH0 PUSH0 SWAP1 SLOAD SWAP1 PUSH2 0x100 EXP SWAP1 DIV PUSH20 0xFFFFFFFFFFFFFFFFFFFFFFFFFFFFFFFFFFFFFFFF AND PUSH20 0xFFFFFFFFFFFFFFFFFFFFFFFFFFFFFFFFFFFFFFFF AND DUP6 PUSH20 0xFFFFFFFFFFFFFFFFFFFFFFFFFFFFFFFFFFFFFFFF AND EQ DUP1 ISZERO PUSH2 0x974 JUMPI POP PUSH1 0x1 PUSH0 SWAP1 SLOAD SWAP1 PUSH2 0x100 EXP SWAP1 DIV PUSH20 0xFFFFFFFFFFFFFFFFFFFFFFFFFFFFFFFFFFFFFFFF AND PUSH20 0xFFFFFFFFFFFFFFFFFFFFFFFFFFFFFFFFFFFFFFFF AND DUP5 PUSH20 0xFFFFFFFFFFFFFFFFFFFFFFFFFFFFFFFFFFFFFFFF AND EQ JUMPDEST DUP1 PUSH2 0xA22 JUMPI POP PUSH1 0x1 PUSH0 SWAP1 SLOAD SWAP1 PUSH2 0x100 EXP SWAP1 DIV PUSH20 0xFFFFFFFFFFFFFFFFFFFFFFFFFFFFFFFFFFFFFFFF AND PUSH20 0xFFFFFFFFFFFFFFFFFFFFFFFFFFFFFFFFFFFFFFFF AND DUP6 PUSH20 0xFFFFFFFFFFFFFFFFFFFFFFFFFFFFFFFFFFFFFFFF AND EQ DUP1 ISZERO PUSH2 0xA21 JUMPI POP PUSH0 PUSH0 SWAP1 SLOAD SWAP1 PUSH2 0x100 EXP SWAP1 DIV PUSH20 0xFFFFFFFFFFFFFFFFFFFFFFFFFFFFFFFFFFFFFFFF AND PUSH20 0xFFFFFFFFFFFFFFFFFFFFFFFFFFFFFFFFFFFFFFFF AND DUP5 PUSH20 0xFFFFFFFFFFFFFFFFFFFFFFFFFFFFFFFFFFFFFFFF AND EQ JUMPDEST JUMPDEST PUSH2 0xA61 JUMPI PUSH1 0x40 MLOAD PUSH32 0x8C379A000000000000000000000000000000000000000000000000000000000 DUP2 MSTORE PUSH1 0x4 ADD PUSH2 0xA58 SWAP1 PUSH2 0x1583 JUMP JUMPDEST PUSH1 0x40 MLOAD DUP1 SWAP2 SUB SWAP1 REVERT JUMPDEST PUSH0 PUSH0 PUSH0 SWAP1 SLOAD SWAP1 PUSH2 0x100 EXP SWAP1 DIV PUSH20 0xFFFFFFFFFFFFFFFFFFFFFFFFFFFFFFFFFFFFFFFF AND PUSH20 0xFFFFFFFFFFFFFFFFFFFFFFFFFFFFFFFFFFFFFFFF AND DUP7 PUSH20 0xFFFFFFFFFFFFFFFFFFFFFFFFFFFFFFFFFFFFFFFF AND EQ PUSH2 0xABB JUMPI DUP3 PUSH2 0xABD JUMP JUMPDEST DUP4 JUMPDEST SWAP1 POP PUSH0 PUSH0 PUSH0 SWAP1 SLOAD SWAP1 PUSH2 0x100 EXP SWAP1 DIV PUSH20 0xFFFFFFFFFFFFFFFFFFFFFFFFFFFFFFFFFFFFFFFF AND PUSH20 0xFFFFFFFFFFFFFFFFFFFFFFFFFFFFFFFFFFFFFFFF AND DUP8 PUSH20 0xFFFFFFFFFFFFFFFFFFFFFFFFFFFFFFFFFFFFFFFF AND EQ PUSH2 0xB19 JUMPI DUP5 PUSH2 0xB1B JUMP JUMPDEST DUP4 JUMPDEST SWAP1 POP PUSH0 PUSH0 SWAP1 SLOAD SWAP1 PUSH2 0x100 EXP SWAP1 DIV PUSH20 0xFFFFFFFFFFFFFFFFFFFFFFFFFFFFFFFFFFFFFFFF AND PUSH20 0xFFFFFFFFFFFFFFFFFFFFFFFFFFFFFFFFFFFFFFFF AND PUSH4 0x23B872DD CALLER ADDRESS DUP6 PUSH1 0x40 MLOAD DUP5 PUSH4 0xFFFFFFFF AND PUSH1 0xE0 SHL DUP2 MSTORE PUSH1 0x4 ADD PUSH2 0xB7A SWAP4 SWAP3 SWAP2 SWAP1 PUSH2 0x1185 JUMP JUMPDEST PUSH1 0x20 PUSH1 0x40 MLOAD DUP1 DUP4 SUB DUP2 PUSH0 DUP8 GAS CALL ISZERO DUP1 ISZERO PUSH2 0xB96 JUMPI RETURNDATASIZE PUSH0 PUSH0 RETURNDATACOPY RETURNDATASIZE PUSH0 REVERT JUMPDEST POP POP POP POP PUSH1 0x40 MLOAD RETURNDATASIZE PUSH1 0x1F NOT PUSH1 0x1F DUP3 ADD AND DUP3 ADD DUP1 PUSH1 0x40 MSTORE POP DUP2 ADD SWAP1 PUSH2 0xBBA SWAP2 SWAP1 PUSH2 0x11EF JUMP JUMPDEST PUSH2 0xBF9 JUMPI PUSH1 0x40 MLOAD PUSH32 0x8C379A000000000000000000000000000000000000000000000000000000000 DUP2 MSTORE PUSH1 0x4 ADD PUSH2 0xBF0 SWAP1 PUSH2 0x15EB JUMP JUMPDEST PUSH1 0x40 MLOAD DUP1 SWAP2 SUB SWAP1 REVERT JUMPDEST PUSH1 0x1 PUSH0 SWAP1 SLOAD SWAP1 PUSH2 0x100 EXP SWAP1 DIV PUSH20 0xFFFFFFFFFFFFFFFFFFFFFFFFFFFFFFFFFFFFFFFF AND PUSH20 0xFFFFFFFFFFFFFFFFFFFFFFFFFFFFFFFFFFFFFFFF AND PUSH4 0x23B872DD CALLER ADDRESS DUP5 PUSH1 0x40 MLOAD DUP5 PUSH4 0xFFFFFFFF AND PUSH1 0xE0 SHL DUP2 MSTORE PUSH1 0x4 ADD PUSH2 0xC57 SWAP4 SWAP3 SWAP2 SWAP1 PUSH2 0x1185 JUMP JUMPDEST PUSH1 0x20 PUSH1 0x40 MLOAD DUP1 DUP4 SUB DUP2 PUSH0 DUP8 GAS CALL ISZERO DUP1 ISZERO PUSH2 0xC73 JUMPI RETURNDATASIZE PUSH0 PUSH0 RETURNDATACOPY RETURNDATASIZE PUSH0 REVERT JUMPDEST POP POP POP POP PUSH1 0x40 MLOAD RETURNDATASIZE PUSH1 0x1F NOT PUSH1 0x1F DUP3 ADD AND DUP3 ADD DUP1 PUSH1 0x40 MSTORE POP DUP2 ADD SWAP1 PUSH2 0xC97 SWAP2 SWAP1 PUSH2 0x11EF JUMP JUMPDEST PUSH2 0xCD6 JUMPI PUSH1 0x40 MLOAD PUSH32 0x8C379A000000000000000000000000000000000000000000000000000000000 DUP2 MSTORE PUSH1 0x4 ADD PUSH2 0xCCD SWAP1 PUSH2 0x1653 JUMP JUMPDEST PUSH1 0x40 MLOAD DUP1 SWAP2 SUB SWAP1 REVERT JUMPDEST PUSH0 PUSH1 0x4 SLOAD SUB PUSH2 0xCF2 JUMPI DUP1 DUP3 PUSH2 0xCEB SWAP2 SWAP1 PUSH2 0x12F0 JUMP JUMPDEST SWAP3 POP PUSH2 0xD42 JUMP JUMPDEST PUSH0 PUSH1 0x2 SLOAD PUSH1 0x4 SLOAD DUP5 PUSH2 0xD04 SWAP2 SWAP1 PUSH2 0x12AF JUMP JUMPDEST PUSH2 0xD0E SWAP2 SWAP1 PUSH2 0x1350 JUMP JUMPDEST SWAP1 POP PUSH0 PUSH1 0x3 SLOAD PUSH1 0x4 SLOAD DUP5 PUSH2 0xD22 SWAP2 SWAP1 PUSH2 0x12AF JUMP JUMPDEST PUSH2 0xD2C SWAP2 SWAP1 PUSH2 0x1350 JUMP JUMPDEST SWAP1 POP DUP1 DUP3 LT PUSH2 0xD3B JUMPI DUP1 PUSH2 0xD3D JUMP JUMPDEST DUP2 JUMPDEST SWAP5 POP POP POP JUMPDEST PUSH0 DUP4 GT PUSH2 0xD84 JUMPI PUSH1 0x40 MLOAD PUSH32 0x8C379A000000000000000000000000000000000000000000000000000000000 DUP2 MSTORE PUSH1 0x4 ADD PUSH2 0xD7B SWAP1 PUSH2 0x16BB JUMP JUMPDEST PUSH1 0x40 MLOAD DUP1 SWAP2 SUB SWAP1 REVERT JUMPDEST DUP3 PUSH1 0x5 PUSH0 CALLER PUSH20 0xFFFFFFFFFFFFFFFFFFFFFFFFFFFFFFFFFFFFFFFF AND PUSH20 0xFFFFFFFFFFFFFFFFFFFFFFFFFFFFFFFFFFFFFFFF AND DUP2 MSTORE PUSH1 0x20 ADD SWAP1 DUP2 MSTORE PUSH1 0x20 ADD PUSH0 KECCAK256 PUSH0 DUP3 DUP3 SLOAD PUSH2 0xDD0 SWAP2 SWAP1 PUSH2 0x12F0 JUMP JUMPDEST SWAP3 POP POP DUP2 SWAP1 SSTORE POP DUP3 PUSH1 0x4 PUSH0 DUP3 DUP3 SLOAD PUSH2 0xDE8 SWAP2 SWAP1 PUSH2 0x12F0 JUMP JUMPDEST SWAP3 POP POP DUP2 SWAP1 SSTORE POP DUP2 PUSH1 0x2 PUSH0 DUP3 DUP3 SLOAD PUSH2 0xE00 SWAP2 SWAP1 PUSH2 0x12F0 JUMP JUMPDEST SWAP3 POP POP DUP2 SWAP1 SSTORE POP DUP1 PUSH1 0x3 PUSH0 DUP3 DUP3 SLOAD PUSH2 0xE18 SWAP2 SWAP1 PUSH2 0x12F0 JUMP JUMPDEST SWAP3 POP POP DUP2 SWAP1 SSTORE POP CALLER PUSH20 0xFFFFFFFFFFFFFFFFFFFFFFFFFFFFFFFFFFFFFFFF AND PUSH32 0x64B83944E79C3CE8D4C297411DE637C3E102D064677AAC0C163976EBDCD6F50E DUP4 DUP4 DUP7 PUSH1 0x40 MLOAD PUSH2 0xE69 SWAP4 SWAP3 SWAP2 SWAP1 PUSH2 0x16D9 JUMP JUMPDEST PUSH1 0x40 MLOAD DUP1 SWAP2 SUB SWAP1 LOG2 POP POP SWAP5 SWAP4 POP POP POP POP JUMP JUMPDEST PUSH1 0x2 SLOAD DUP2 JUMP JUMPDEST PUSH0 PUSH20 0xFFFFFFFFFFFFFFFFFFFFFFFFFFFFFFFFFFFFFFFF DUP3 AND SWAP1 POP SWAP2 SWAP1 POP JUMP JUMPDEST PUSH0 PUSH2 0xEAA DUP3 PUSH2 0xE81 JUMP JUMPDEST SWAP1 POP SWAP2 SWAP1 POP JUMP JUMPDEST PUSH2 0xEBA DUP2 PUSH2 0xEA0 JUMP JUMPDEST DUP3 MSTORE POP POP JUMP JUMPDEST PUSH0 PUSH1 0x20 DUP3 ADD SWAP1 POP PUSH2 0xED3 PUSH0 DUP4 ADD DUP5 PUSH2 0xEB1 JUMP JUMPDEST SWAP3 SWAP2 POP POP JUMP JUMPDEST PUSH0 DUP2 SWAP1 POP SWAP2 SWAP1 POP JUMP JUMPDEST PUSH2 0xEEB DUP2 PUSH2 0xED9 JUMP JUMPDEST DUP3 MSTORE POP POP JUMP JUMPDEST PUSH0 PUSH1 0x20 DUP3 ADD SWAP1 POP PUSH2 0xF04 PUSH0 DUP4 ADD DUP5 PUSH2 0xEE2 JUMP JUMPDEST SWAP3 SWAP2 POP POP JUMP JUMPDEST PUSH0 PUSH0 REVERT JUMPDEST PUSH2 0xF17 DUP2 PUSH2 0xEA0 JUMP JUMPDEST DUP2 EQ PUSH2 0xF21 JUMPI PUSH0 PUSH0 REVERT JUMPDEST POP JUMP JUMPDEST PUSH0 DUP2 CALLDATALOAD SWAP1 POP PUSH2 0xF32 DUP2 PUSH2 0xF0E JUMP JUMPDEST SWAP3 SWAP2 POP POP JUMP JUMPDEST PUSH0 PUSH1 0x20 DUP3 DUP5 SUB SLT ISZERO PUSH2 0xF4D JUMPI PUSH2 0xF4C PUSH2 0xF0A JUMP JUMPDEST JUMPDEST PUSH0 PUSH2 0xF5A DUP5 DUP3 DUP6 ADD PUSH2 0xF24 JUMP JUMPDEST SWAP2 POP POP SWAP3 SWAP2 POP POP JUMP JUMPDEST PUSH2 0xF6C DUP2 PUSH2 0xED9 JUMP JUMPDEST DUP2 EQ PUSH2 0xF76 JUMPI PUSH0 PUSH0 REVERT JUMPDEST POP JUMP JUMPDEST PUSH0 DUP2 CALLDATALOAD SWAP1 POP PUSH2 0xF87 DUP2 PUSH2 0xF63 JUMP JUMPDEST SWAP3 SWAP2 POP POP JUMP JUMPDEST PUSH0 PUSH0 PUSH0 PUSH1 0x60 DUP5 DUP7 SUB SLT ISZERO PUSH2 0xFA4 JUMPI PUSH2 0xFA3 PUSH2 0xF0A JUMP JUMPDEST JUMPDEST PUSH0 PUSH2 0xFB1 DUP7 DUP3 DUP8 ADD PUSH2 0xF24 JUMP JUMPDEST SWAP4 POP POP PUSH1 0x20 PUSH2 0xFC2 DUP7 DUP3 DUP8 ADD PUSH2 0xF79 JUMP JUMPDEST SWAP3 POP POP PUSH1 0x40 PUSH2 0xFD3 DUP7 DUP3 DUP8 ADD PUSH2 0xF79 JUMP JUMPDEST SWAP2 POP POP SWAP3 POP SWAP3 POP SWAP3 JUMP JUMPDEST PUSH0 PUSH0 PUSH1 0x40 DUP4 DUP6 SUB SLT ISZERO PUSH2 0xFF3 JUMPI PUSH2 0xFF2 PUSH2 0xF0A JUMP JUMPDEST JUMPDEST PUSH0 PUSH2 0x1000 DUP6 DUP3 DUP7 ADD PUSH2 0xF24 JUMP JUMPDEST SWAP3 POP POP PUSH1 0x20 PUSH2 0x1011 DUP6 DUP3 DUP7 ADD PUSH2 0xF79 JUMP JUMPDEST SWAP2 POP POP SWAP3 POP SWAP3 SWAP1 POP JUMP JUMPDEST PUSH0 PUSH0 PUSH0 PUSH0 PUSH1 0x80 DUP6 DUP8 SUB SLT ISZERO PUSH2 0x1033 JUMPI PUSH2 0x1032 PUSH2 0xF0A JUMP JUMPDEST JUMPDEST PUSH0 PUSH2 0x1040 DUP8 DUP3 DUP9 ADD PUSH2 0xF24 JUMP JUMPDEST SWAP5 POP POP PUSH1 0x20 PUSH2 0x1051 DUP8 DUP3 DUP9 ADD PUSH2 0xF24 JUMP JUMPDEST SWAP4 POP POP PUSH1 0x40 PUSH2 0x1062 DUP8 DUP3 DUP9 ADD PUSH2 0xF79 JUMP JUMPDEST SWAP3 POP POP PUSH1 0x60 PUSH2 0x1073 DUP8 DUP3 DUP9 ADD PUSH2 0xF79 JUMP JUMPDEST SWAP2 POP POP SWAP3 SWAP6 SWAP2 SWAP5 POP SWAP3 POP JUMP JUMPDEST PUSH0 DUP3 DUP3 MSTORE PUSH1 0x20 DUP3 ADD SWAP1 POP SWAP3 SWAP2 POP POP JUMP JUMPDEST PUSH32 0x496E76616C696420746F6B656E20666F72207468697320706F6F6C0000000000 PUSH0 DUP3 ADD MSTORE POP JUMP JUMPDEST PUSH0 PUSH2 0x10C3 PUSH1 0x1B DUP4 PUSH2 0x107F JUMP JUMPDEST SWAP2 POP PUSH2 0x10CE DUP3 PUSH2 0x108F JUMP JUMPDEST PUSH1 0x20 DUP3 ADD SWAP1 POP SWAP2 SWAP1 POP JUMP JUMPDEST PUSH0 PUSH1 0x20 DUP3 ADD SWAP1 POP DUP2 DUP2 SUB PUSH0 DUP4 ADD MSTORE PUSH2 0x10F0 DUP2 PUSH2 0x10B7 JUMP JUMPDEST SWAP1 POP SWAP2 SWAP1 POP JUMP JUMPDEST PUSH32 0x496E70757420616D6F756E74206D757374206265206772656174657220746861 PUSH0 DUP3 ADD MSTORE PUSH32 0x6E207A65726F0000000000000000000000000000000000000000000000000000 PUSH1 0x20 DUP3 ADD MSTORE POP JUMP JUMPDEST PUSH0 PUSH2 0x1151 PUSH1 0x26 DUP4 PUSH2 0x107F JUMP JUMPDEST SWAP2 POP PUSH2 0x115C DUP3 PUSH2 0x10F7 JUMP JUMPDEST PUSH1 0x40 DUP3 ADD SWAP1 POP SWAP2 SWAP1 POP JUMP JUMPDEST PUSH0 PUSH1 0x20 DUP3 ADD SWAP1 POP DUP2 DUP2 SUB PUSH0 DUP4 ADD MSTORE PUSH2 0x117E DUP2 PUSH2 0x1145 JUMP JUMPDEST SWAP1 POP SWAP2 SWAP1 POP JUMP JUMPDEST PUSH0 PUSH1 0x60 DUP3 ADD SWAP1 POP PUSH2 0x1198 PUSH0 DUP4 ADD DUP7 PUSH2 0xEB1 JUMP JUMPDEST PUSH2 0x11A5 PUSH1 0x20 DUP4 ADD DUP6 PUSH2 0xEB1 JUMP JUMPDEST PUSH2 0x11B2 PUSH1 0x40 DUP4 ADD DUP5 PUSH2 0xEE2 JUMP JUMPDEST SWAP5 SWAP4 POP POP POP POP JUMP JUMPDEST PUSH0 DUP2 ISZERO ISZERO SWAP1 POP SWAP2 SWAP1 POP JUMP JUMPDEST PUSH2 0x11CE DUP2 PUSH2 0x11BA JUMP JUMPDEST DUP2 EQ PUSH2 0x11D8 JUMPI PUSH0 PUSH0 REVERT JUMPDEST POP JUMP JUMPDEST PUSH0 DUP2 MLOAD SWAP1 POP PUSH2 0x11E9 DUP2 PUSH2 0x11C5 JUMP JUMPDEST SWAP3 SWAP2 POP POP JUMP JUMPDEST PUSH0 PUSH1 0x20 DUP3 DUP5 SUB SLT ISZERO PUSH2 0x1204 JUMPI PUSH2 0x1203 PUSH2 0xF0A JUMP JUMPDEST JUMPDEST PUSH0 PUSH2 0x1211 DUP5 DUP3 DUP6 ADD PUSH2 0x11DB JUMP JUMPDEST SWAP2 POP POP SWAP3 SWAP2 POP POP JUMP JUMPDEST PUSH32 0x5472616E73666572206F6620696E70757420746F6B656E206661696C65640000 PUSH0 DUP3 ADD MSTORE POP JUMP JUMPDEST PUSH0 PUSH2 0x124E PUSH1 0x1E DUP4 PUSH2 0x107F JUMP JUMPDEST SWAP2 POP PUSH2 0x1259 DUP3 PUSH2 0x121A JUMP JUMPDEST PUSH1 0x20 DUP3 ADD SWAP1 POP SWAP2 SWAP1 POP JUMP JUMPDEST PUSH0 PUSH1 0x20 DUP3 ADD SWAP1 POP DUP2 DUP2 SUB PUSH0 DUP4 ADD MSTORE PUSH2 0x127B DUP2 PUSH2 0x1242 JUMP JUMPDEST SWAP1 POP SWAP2 SWAP1 POP JUMP JUMPDEST PUSH32 0x4E487B7100000000000000000000000000000000000000000000000000000000 PUSH0 MSTORE PUSH1 0x11 PUSH1 0x4 MSTORE PUSH1 0x24 PUSH0 REVERT JUMPDEST PUSH0 PUSH2 0x12B9 DUP3 PUSH2 0xED9 JUMP JUMPDEST SWAP2 POP PUSH2 0x12C4 DUP4 PUSH2 0xED9 JUMP JUMPDEST SWAP3 POP DUP3 DUP3 MUL PUSH2 0x12D2 DUP2 PUSH2 0xED9 JUMP JUMPDEST SWAP2 POP DUP3 DUP3 DIV DUP5 EQ DUP4 ISZERO OR PUSH2 0x12E9 JUMPI PUSH2 0x12E8 PUSH2 0x1282 JUMP JUMPDEST JUMPDEST POP SWAP3 SWAP2 POP POP JUMP JUMPDEST PUSH0 PUSH2 0x12FA DUP3 PUSH2 0xED9 JUMP JUMPDEST SWAP2 POP PUSH2 0x1305 DUP4 PUSH2 0xED9 JUMP JUMPDEST SWAP3 POP DUP3 DUP3 ADD SWAP1 POP DUP1 DUP3 GT ISZERO PUSH2 0x131D JUMPI PUSH2 0x131C PUSH2 0x1282 JUMP JUMPDEST JUMPDEST SWAP3 SWAP2 POP POP JUMP JUMPDEST PUSH32 0x4E487B7100000000000000000000000000000000000000000000000000000000 PUSH0 MSTORE PUSH1 0x12 PUSH1 0x4 MSTORE PUSH1 0x24 PUSH0 REVERT JUMPDEST PUSH0 PUSH2 0x135A DUP3 PUSH2 0xED9 JUMP JUMPDEST SWAP2 POP PUSH2 0x1365 DUP4 PUSH2 0xED9 JUMP JUMPDEST SWAP3 POP DUP3 PUSH2 0x1375 JUMPI PUSH2 0x1374 PUSH2 0x1323 JUMP JUMPDEST JUMPDEST DUP3 DUP3 DIV SWAP1 POP SWAP3 SWAP2 POP POP JUMP JUMPDEST PUSH32 0x536C697070616765206C696D6974206578636565646564000000000000000000 PUSH0 DUP3 ADD MSTORE POP JUMP JUMPDEST PUSH0 PUSH2 0x13B4 PUSH1 0x17 DUP4 PUSH2 0x107F JUMP JUMPDEST SWAP2 POP PUSH2 0x13BF DUP3 PUSH2 0x1380 JUMP JUMPDEST PUSH1 0x20 DUP3 ADD SWAP1 POP SWAP2 SWAP1 POP JUMP JUMPDEST PUSH0 PUSH1 0x20 DUP3 ADD SWAP1 POP DUP2 DUP2 SUB PUSH0 DUP4 ADD MSTORE PUSH2 0x13E1 DUP2 PUSH2 0x13A8 JUMP JUMPDEST SWAP1 POP SWAP2 SWAP1 POP JUMP JUMPDEST PUSH0 PUSH2 0x13F2 DUP3 PUSH2 0xED9 JUMP JUMPDEST SWAP2 POP PUSH2 0x13FD DUP4 PUSH2 0xED9 JUMP JUMPDEST SWAP3 POP DUP3 DUP3 SUB SWAP1 POP DUP2 DUP2 GT ISZERO PUSH2 0x1415 JUMPI PUSH2 0x1414 PUSH2 0x1282 JUMP JUMPDEST JUMPDEST SWAP3 SWAP2 POP POP JUMP JUMPDEST PUSH0 PUSH1 0x40 DUP3 ADD SWAP1 POP PUSH2 0x142E PUSH0 DUP4 ADD DUP6 PUSH2 0xEB1 JUMP JUMPDEST PUSH2 0x143B PUSH1 0x20 DUP4 ADD DUP5 PUSH2 0xEE2 JUMP JUMPDEST SWAP4 SWAP3 POP POP POP JUMP JUMPDEST PUSH32 0x5472616E73666572206F66206F757470757420746F6B656E206661696C656400 PUSH0 DUP3 ADD MSTORE POP JUMP JUMPDEST PUSH0 PUSH2 0x1476 PUSH1 0x1F DUP4 PUSH2 0x107F JUMP JUMPDEST SWAP2 POP PUSH2 0x1481 DUP3 PUSH2 0x1442 JUMP JUMPDEST PUSH1 0x20 DUP3 ADD SWAP1 POP SWAP2 SWAP1 POP JUMP JUMPDEST PUSH0 PUSH1 0x20 DUP3 ADD SWAP1 POP DUP2 DUP2 SUB PUSH0 DUP4 ADD MSTORE PUSH2 0x14A3 DUP2 PUSH2 0x146A JUMP JUMPDEST SWAP1 POP SWAP2 SWAP1 POP JUMP JUMPDEST PUSH0 PUSH1 0x40 DUP3 ADD SWAP1 POP PUSH2 0x14BD PUSH0 DUP4 ADD DUP6 PUSH2 0xEE2 JUMP JUMPDEST PUSH2 0x14CA PUSH1 0x20 DUP4 ADD DUP5 PUSH2 0xEE2 JUMP JUMPDEST SWAP4 SWAP3 POP POP POP JUMP JUMPDEST PUSH32 0x496E76616C696420746F6B656E00000000000000000000000000000000000000 PUSH0 DUP3 ADD MSTORE POP JUMP JUMPDEST PUSH0 PUSH2 0x1505 PUSH1 0xD DUP4 PUSH2 0x107F JUMP JUMPDEST SWAP2 POP PUSH2 0x1510 DUP3 PUSH2 0x14D1 JUMP JUMPDEST PUSH1 0x20 DUP3 ADD SWAP1 POP SWAP2 SWAP1 POP JUMP JUMPDEST PUSH0 PUSH1 0x20 DUP3 ADD SWAP1 POP DUP2 DUP2 SUB PUSH0 DUP4 ADD MSTORE PUSH2 0x1532 DUP2 PUSH2 0x14F9 JUMP JUMPDEST SWAP1 POP SWAP2 SWAP1 POP JUMP JUMPDEST PUSH32 0x546F6B656E7320646F206E6F74206D6174636820706F6F6C2070616972000000 PUSH0 DUP3 ADD MSTORE POP JUMP JUMPDEST PUSH0 PUSH2 0x156D PUSH1 0x1D DUP4 PUSH2 0x107F JUMP JUMPDEST SWAP2 POP PUSH2 0x1578 DUP3 PUSH2 0x1539 JUMP JUMPDEST PUSH1 0x20 DUP3 ADD SWAP1 POP SWAP2 SWAP1 POP JUMP JUMPDEST PUSH0 PUSH1 0x20 DUP3 ADD SWAP1 POP DUP2 DUP2 SUB PUSH0 DUP4 ADD MSTORE PUSH2 0x159A DUP2 PUSH2 0x1561 JUMP JUMPDEST SWAP1 POP SWAP2 SWAP1 POP JUMP JUMPDEST PUSH32 0x5472616E73666572206F6620746F6B656E41206661696C656400000000000000 PUSH0 DUP3 ADD MSTORE POP JUMP JUMPDEST PUSH0 PUSH2 0x15D5 PUSH1 0x19 DUP4 PUSH2 0x107F JUMP JUMPDEST SWAP2 POP PUSH2 0x15E0 DUP3 PUSH2 0x15A1 JUMP JUMPDEST PUSH1 0x20 DUP3 ADD SWAP1 POP SWAP2 SWAP1 POP JUMP JUMPDEST PUSH0 PUSH1 0x20 DUP3 ADD SWAP1 POP DUP2 DUP2 SUB PUSH0 DUP4 ADD MSTORE PUSH2 0x1602 DUP2 PUSH2 0x15C9 JUMP JUMPDEST SWAP1 POP SWAP2 SWAP1 POP JUMP JUMPDEST PUSH32 0x5472616E73666572206F6620746F6B656E42206661696C656400000000000000 PUSH0 DUP3 ADD MSTORE POP JUMP JUMPDEST PUSH0 PUSH2 0x163D PUSH1 0x19 DUP4 PUSH2 0x107F JUMP JUMPDEST SWAP2 POP PUSH2 0x1648 DUP3 PUSH2 0x1609 JUMP JUMPDEST PUSH1 0x20 DUP3 ADD SWAP1 POP SWAP2 SWAP1 POP JUMP JUMPDEST PUSH0 PUSH1 0x20 DUP3 ADD SWAP1 POP DUP2 DUP2 SUB PUSH0 DUP4 ADD MSTORE PUSH2 0x166A DUP2 PUSH2 0x1631 JUMP JUMPDEST SWAP1 POP SWAP2 SWAP1 POP JUMP JUMPDEST PUSH32 0x5368617265732063616E6E6F74206265207A65726F0000000000000000000000 PUSH0 DUP3 ADD MSTORE POP JUMP JUMPDEST PUSH0 PUSH2 0x16A5 PUSH1 0x15 DUP4 PUSH2 0x107F JUMP JUMPDEST SWAP2 POP PUSH2 0x16B0 DUP3 PUSH2 0x1671 JUMP JUMPDEST PUSH1 0x20 DUP3 ADD SWAP1 POP SWAP2 SWAP1 POP JUMP JUMPDEST PUSH0 PUSH1 0x20 DUP3 ADD SWAP1 POP DUP2 DUP2 SUB PUSH0 DUP4 ADD MSTORE PUSH2 0x16D2 DUP2 PUSH2 0x1699 JUMP JUMPDEST SWAP1 POP SWAP2 SWAP1 POP JUMP JUMPDEST PUSH0 PUSH1 0x60 DUP3 ADD SWAP1 POP PUSH2 0x16EC PUSH0 DUP4 ADD DUP7 PUSH2 0xEE2 JUMP JUMPDEST PUSH2 0x16F9 PUSH1 0x20 DUP4 ADD DUP6 PUSH2 0xEE2 JUMP JUMPDEST PUSH2 0x1706 PUSH1 0x40 DUP4 ADD DUP5 PUSH2 0xEE2 JUMP JUMPDEST SWAP5 SWAP4 POP POP POP POP JUMP INVALID LOG2 PUSH5 0x6970667358 0x22 SLT KECCAK256 TSTORE 0x23 EXTSTATICCALL SWAPN 0xFA 0x2F INVALID SMOD 0xD3 0x22 CALL 0xEA PUSH29 0x69269F04F34493AC4E81A3C7047F5BA40FE23A64736F6C634300081E00 CALLER "
		},
		"gasEstimates": {
			"creation": {
				"codeDepositCost": "1191200",
				"executionCost": "infinite",
				"totalCost": "infinite"
			},
			"external": {
				"addLiquidity(address,address,uint256,uint256)": "infinite",
				"getAmountOut(address,uint256)": "infinite",
				"liquidityOf(address)": "2869",
				"reserveA()": "2513",
				"reserveB()": "2470",
				"swap(address,uint256,uint256)": "infinite",
				"tokenA()": "2508",
				"tokenB()": "2508",
				"totalLiquidity()": "2448"
			}
		},
		"methodIdentifiers": {
			"addLiquidity(address,address,uint256,uint256)": "cf6c62ea",
			"getAmountOut(address,uint256)": "ca706bcf",
			"liquidityOf(address)": "3c4750df",
			"reserveA()": "dc5fa6c5",
			"reserveB()": "19e36f3b",
			"swap(address,uint256,uint256)": "9f1d0f59",
			"tokenA()": "0fc63d10",
			"tokenB()": "5f64b55b",
			"totalLiquidity()": "15770f92"
		}
	},
	"abi": [
		{
			"inputs": [
				{
					"internalType": "address",
					"name": "_tokenA",
					"type": "address"
				},
				{
					"internalType": "address",
					"name": "_tokenB",
					"type": "address"
				}
			],
			"stateMutability": "nonpayable",
			"type": "constructor"
		},
		{
			"anonymous": false,
			"inputs": [
				{
					"indexed": true,
					"internalType": "address",
					"name": "provider",
					"type": "address"
				},
				{
					"indexed": false,
					"internalType": "uint256",
					"name": "amountA",
					"type": "uint256"
				},
				{
					"indexed": false,
					"internalType": "uint256",
					"name": "amountB",
					"type": "uint256"
				},
				{
					"indexed": false,
					"internalType": "uint256",
					"name": "shares",
					"type": "uint256"
				}
			],
			"name": "LiquidityAdded",
			"type": "event"
		},
		{
			"anonymous": false,
			"inputs": [
				{
					"indexed": true,
					"internalType": "address",
					"name": "provider",
					"type": "address"
				},
				{
					"indexed": false,
					"internalType": "uint256",
					"name": "amountA",
					"type": "uint256"
				},
				{
					"indexed": false,
					"internalType": "uint256",
					"name": "amountB",
					"type": "uint256"
				},
				{
					"indexed": false,
					"internalType": "uint256",
					"name": "shares",
					"type": "uint256"
				}
			],
			"name": "LiquidityRemoved",
			"type": "event"
		},
		{
			"anonymous": false,
			"inputs": [
				{
					"indexed": true,
					"internalType": "address",
					"name": "trader",
					"type": "address"
				},
				{
					"indexed": true,
					"internalType": "address",
					"name": "tokenIn",
					"type": "address"
				},
				{
					"indexed": false,
					"internalType": "uint256",
					"name": "amountIn",
					"type": "uint256"
				},
				{
					"indexed": false,
					"internalType": "uint256",
					"name": "amountOut",
					"type": "uint256"
				}
			],
			"name": "SwapExecuted",
			"type": "event"
		},
		{
			"inputs": [
				{
					"internalType": "address",
					"name": "_tokenInA",
					"type": "address"
				},
				{
					"internalType": "address",
					"name": "_tokenInB",
					"type": "address"
				},
				{
					"internalType": "uint256",
					"name": "_amountADesired",
					"type": "uint256"
				},
				{
					"internalType": "uint256",
					"name": "_amountBDesired",
					"type": "uint256"
				}
			],
			"name": "addLiquidity",
			"outputs": [
				{
					"internalType": "uint256",
					"name": "shares",
					"type": "uint256"
				}
			],
			"stateMutability": "nonpayable",
			"type": "function"
		},
		{
			"inputs": [
				{
					"internalType": "address",
					"name": "_tokenIn",
					"type": "address"
				},
				{
					"internalType": "uint256",
					"name": "_amountIn",
					"type": "uint256"
				}
			],
			"name": "getAmountOut",
			"outputs": [
				{
					"internalType": "uint256",
					"name": "",
					"type": "uint256"
				}
			],
			"stateMutability": "view",
			"type": "function"
		},
		{
			"inputs": [
				{
					"internalType": "address",
					"name": "",
					"type": "address"
				}
			],
			"name": "liquidityOf",
			"outputs": [
				{
					"internalType": "uint256",
					"name": "",
					"type": "uint256"
				}
			],
			"stateMutability": "view",
			"type": "function"
		},
		{
			"inputs": [],
			"name": "reserveA",
			"outputs": [
				{
					"internalType": "uint256",
					"name": "",
					"type": "uint256"
				}
			],
			"stateMutability": "view",
			"type": "function"
		},
		{
			"inputs": [],
			"name": "reserveB",
			"outputs": [
				{
					"internalType": "uint256",
					"name": "",
					"type": "uint256"
				}
			],
			"stateMutability": "view",
			"type": "function"
		},
		{
			"inputs": [
				{
					"internalType": "address",
					"name": "_tokenIn",
					"type": "address"
				},
				{
					"internalType": "uint256",
					"name": "_amountIn",
					"type": "uint256"
				},
				{
					"internalType": "uint256",
					"name": "_amountOutMin",
					"type": "uint256"
				}
			],
			"name": "swap",
			"outputs": [
				{
					"internalType": "uint256",
					"name": "amountOut",
					"type": "uint256"
				}
			],
			"stateMutability": "nonpayable",
			"type": "function"
		},
		{
			"inputs": [],
			"name": "tokenA",
			"outputs": [
				{
					"internalType": "address",
					"name": "",
					"type": "address"
				}
			],
			"stateMutability": "view",
			"type": "function"
		},
		{
			"inputs": [],
			"name": "tokenB",
			"outputs": [
				{
					"internalType": "address",
					"name": "",
					"type": "address"
				}
			],
			"stateMutability": "view",
			"type": "function"
		},
		{
			"inputs": [],
			"name": "totalLiquidity",
			"outputs": [
				{
					"internalType": "uint256",
					"name": "",
					"type": "uint256"
				}
			],
			"stateMutability": "view",
			"type": "function"
		}
	]
}